{
  "_format": "hh-sol-artifact-1",
  "contractName": "Nexus",
  "sourceName": "contracts/Nexus.sol",
  "abi": [
    {
      "inputs": [],
      "stateMutability": "nonpayable",
      "type": "constructor"
    },
    {
      "anonymous": false,
      "inputs": [
        {
          "indexed": true,
          "internalType": "address",
          "name": "consumer",
          "type": "address"
        },
        {
          "indexed": true,
          "internalType": "address",
          "name": "dsp",
          "type": "address"
        },
        {
          "indexed": false,
          "internalType": "uint256",
          "name": "amount",
          "type": "uint256"
        }
      ],
      "name": "BoughtGas",
      "type": "event"
    },
    {
      "anonymous": false,
      "inputs": [
        {
          "indexed": true,
          "internalType": "address",
          "name": "consumer",
          "type": "address"
        },
        {
          "indexed": true,
          "internalType": "address",
          "name": "dsp",
          "type": "address"
        },
        {
          "indexed": false,
          "internalType": "uint256",
          "name": "amount",
          "type": "uint256"
        }
      ],
      "name": "ClaimedGas",
      "type": "event"
    },
    {
      "anonymous": false,
      "inputs": [
        {
          "indexed": true,
          "internalType": "address",
          "name": "dsp",
          "type": "address"
        },
        {
          "indexed": false,
          "internalType": "bool",
          "name": "active",
          "type": "bool"
        },
        {
          "indexed": false,
          "internalType": "string",
          "name": "endpoint",
          "type": "string"
        }
      ],
      "name": "DSPStatusChanged",
      "type": "event"
    },
    {
      "anonymous": false,
      "inputs": [
        {
          "indexed": true,
          "internalType": "address",
          "name": "dsp",
          "type": "address"
        },
        {
          "indexed": false,
          "internalType": "string",
          "name": "image",
          "type": "string"
        },
        {
          "indexed": false,
          "internalType": "bool",
          "name": "approved",
          "type": "bool"
        }
      ],
      "name": "DockerApprovalChanged",
      "type": "event"
    },
    {
      "anonymous": false,
      "inputs": [
        {
          "indexed": false,
          "internalType": "address",
          "name": "owner",
          "type": "address"
        },
        {
          "indexed": false,
          "internalType": "string",
          "name": "imageName",
          "type": "string"
        },
        {
          "indexed": false,
          "internalType": "string",
          "name": "image",
          "type": "string"
        },
        {
          "indexed": false,
          "internalType": "string",
          "name": "imageHash",
          "type": "string"
        },
        {
          "indexed": false,
          "internalType": "string",
          "name": "imageType",
          "type": "string"
        }
      ],
      "name": "DockerSet",
      "type": "event"
    },
    {
      "anonymous": false,
      "inputs": [
        {
          "indexed": true,
          "internalType": "address",
          "name": "consumer",
          "type": "address"
        },
        {
          "indexed": false,
          "internalType": "string",
          "name": "outputFS",
          "type": "string"
        },
        {
          "indexed": false,
          "internalType": "bool",
          "name": "inconsistent",
          "type": "bool"
        },
        {
          "indexed": false,
          "internalType": "uint256",
          "name": "id",
          "type": "uint256"
        }
      ],
      "name": "JobDone",
      "type": "event"
    },
    {
      "anonymous": false,
      "inputs": [
        {
          "indexed": true,
          "internalType": "address",
          "name": "consumer",
          "type": "address"
        },
        {
          "indexed": true,
          "internalType": "address",
          "name": "dsp",
          "type": "address"
        },
        {
          "indexed": false,
          "internalType": "string",
          "name": "outputFS",
          "type": "string"
        },
        {
          "indexed": false,
          "internalType": "uint256",
          "name": "dapps",
          "type": "uint256"
        },
        {
          "indexed": false,
          "internalType": "uint256",
          "name": "id",
          "type": "uint256"
        }
      ],
      "name": "JobResult",
      "type": "event"
    },
    {
      "anonymous": false,
      "inputs": [
        {
          "indexed": true,
          "internalType": "address",
          "name": "consumer",
          "type": "address"
        },
        {
          "indexed": false,
          "internalType": "uint256",
          "name": "id",
          "type": "uint256"
        }
      ],
      "name": "Kill",
      "type": "event"
    },
    {
      "anonymous": false,
      "inputs": [
        {
          "indexed": true,
          "internalType": "address",
          "name": "previousOwner",
          "type": "address"
        },
        {
          "indexed": true,
          "internalType": "address",
          "name": "newOwner",
          "type": "address"
        }
      ],
      "name": "OwnershipTransferred",
      "type": "event"
    },
    {
      "anonymous": false,
      "inputs": [
        {
          "indexed": true,
          "internalType": "address",
          "name": "consumer",
          "type": "address"
        },
        {
          "indexed": false,
          "internalType": "string",
          "name": "imageName",
          "type": "string"
        },
        {
          "indexed": false,
          "internalType": "string",
          "name": "inputFS",
          "type": "string"
        },
        {
          "indexed": false,
          "internalType": "string[]",
          "name": "args",
          "type": "string[]"
        },
        {
          "indexed": false,
          "internalType": "uint256",
          "name": "id",
          "type": "uint256"
        },
        {
          "indexed": false,
          "internalType": "string",
          "name": "imageType",
          "type": "string"
        }
      ],
      "name": "Run",
      "type": "event"
    },
    {
      "anonymous": false,
      "inputs": [
        {
          "indexed": true,
          "internalType": "address",
          "name": "consumer",
          "type": "address"
        },
        {
          "indexed": true,
          "internalType": "address",
          "name": "dsp",
          "type": "address"
        },
        {
          "indexed": false,
          "internalType": "uint256",
          "name": "id",
          "type": "uint256"
        },
        {
          "indexed": false,
          "internalType": "uint256",
          "name": "port",
          "type": "uint256"
        }
      ],
      "name": "ServiceRunning",
      "type": "event"
    },
    {
      "anonymous": false,
      "inputs": [
        {
          "indexed": true,
          "internalType": "address",
          "name": "consumer",
          "type": "address"
        },
        {
          "indexed": true,
          "internalType": "address",
          "name": "dsp",
          "type": "address"
        },
        {
          "indexed": false,
          "internalType": "uint256",
          "name": "amount",
          "type": "uint256"
        }
      ],
      "name": "SoldGas",
      "type": "event"
    },
    {
      "anonymous": false,
      "inputs": [
        {
          "indexed": true,
          "internalType": "address",
          "name": "consumer",
          "type": "address"
        },
        {
          "indexed": true,
          "internalType": "address",
          "name": "dsp",
          "type": "address"
        },
        {
          "indexed": false,
          "internalType": "uint256",
          "name": "amount",
          "type": "uint256"
        }
      ],
      "name": "UsedGas",
      "type": "event"
    },
    {
      "inputs": [
        {
          "internalType": "string",
          "name": "imageName",
          "type": "string"
        }
      ],
      "name": "approveDockerForDSP",
      "outputs": [],
      "stateMutability": "nonpayable",
      "type": "function"
    },
    {
      "inputs": [
        {
          "internalType": "uint256",
          "name": "_amount",
          "type": "uint256"
        },
        {
          "internalType": "address",
          "name": "_consumer",
          "type": "address"
        },
        {
          "internalType": "address",
          "name": "_dsp",
          "type": "address"
        }
      ],
      "name": "buyGasFor",
      "outputs": [],
      "stateMutability": "nonpayable",
      "type": "function"
    },
    {
      "inputs": [
        {
          "internalType": "address",
          "name": "_consumer",
          "type": "address"
        },
        {
          "internalType": "address",
          "name": "_dsp",
          "type": "address"
        }
      ],
      "name": "claimFor",
      "outputs": [],
      "stateMutability": "nonpayable",
      "type": "function"
    },
    {
      "inputs": [
        {
          "internalType": "address",
          "name": "",
          "type": "address"
        }
      ],
      "name": "consumerData",
      "outputs": [
        {
          "internalType": "address",
          "name": "owner",
          "type": "address"
        },
        {
          "internalType": "bool",
          "name": "callback",
          "type": "bool"
        }
      ],
      "stateMutability": "view",
      "type": "function"
    },
    {
      "inputs": [],
      "name": "deprecateDSP",
      "outputs": [],
      "stateMutability": "nonpayable",
      "type": "function"
    },
    {
      "inputs": [
        {
          "internalType": "address",
          "name": "",
          "type": "address"
        },
        {
          "internalType": "address",
          "name": "",
          "type": "address"
        }
      ],
      "name": "dspData",
      "outputs": [
        {
          "internalType": "uint256",
          "name": "amount",
          "type": "uint256"
        },
        {
          "internalType": "uint256",
          "name": "claimable",
          "type": "uint256"
        }
      ],
      "stateMutability": "view",
      "type": "function"
    },
    {
      "inputs": [],
      "name": "gasPerTimeUnit",
      "outputs": [
        {
          "internalType": "uint256",
          "name": "",
          "type": "uint256"
        }
      ],
      "stateMutability": "view",
      "type": "function"
    },
    {
      "inputs": [
        {
          "internalType": "address",
          "name": "dsp",
          "type": "address"
        }
      ],
      "name": "getDSPEndpoint",
      "outputs": [
        {
          "internalType": "string",
          "name": "",
          "type": "string"
        }
      ],
      "stateMutability": "view",
      "type": "function"
    },
    {
      "inputs": [
        {
          "internalType": "string",
          "name": "imageName",
          "type": "string"
        }
      ],
      "name": "getDockerImage",
      "outputs": [
        {
          "internalType": "string",
          "name": "",
          "type": "string"
        }
      ],
      "stateMutability": "view",
      "type": "function"
    },
    {
      "inputs": [
        {
          "internalType": "uint256",
          "name": "jobID",
          "type": "uint256"
        },
        {
          "internalType": "address",
          "name": "dsp",
          "type": "address"
        }
      ],
      "name": "getPortForDSP",
      "outputs": [
        {
          "internalType": "uint256",
          "name": "",
          "type": "uint256"
        }
      ],
      "stateMutability": "view",
      "type": "function"
    },
    {
      "inputs": [
        {
          "internalType": "string",
          "name": "imageName",
          "type": "string"
        }
      ],
      "name": "isImageApprovedForDSP",
      "outputs": [
        {
          "internalType": "bool",
          "name": "",
          "type": "bool"
        }
      ],
      "stateMutability": "view",
      "type": "function"
    },
    {
      "inputs": [
        {
          "internalType": "uint256",
          "name": "jobID",
          "type": "uint256"
        },
        {
          "internalType": "string",
          "name": "outputFS",
          "type": "string"
        },
        {
          "internalType": "uint256",
          "name": "dapps",
          "type": "uint256"
        }
      ],
      "name": "jobCallback",
      "outputs": [],
      "stateMutability": "nonpayable",
      "type": "function"
    },
    {
      "inputs": [
        {
          "internalType": "uint256",
          "name": "jobID",
          "type": "uint256"
        },
        {
          "internalType": "string",
          "name": "stdErr",
          "type": "string"
        },
        {
          "internalType": "string",
          "name": "outputFS",
          "type": "string"
        }
      ],
      "name": "jobError",
      "outputs": [],
      "stateMutability": "nonpayable",
      "type": "function"
    },
    {
      "inputs": [
        {
          "internalType": "uint256",
          "name": "",
          "type": "uint256"
        }
      ],
      "name": "jobs",
      "outputs": [
        {
          "internalType": "address",
          "name": "owner",
          "type": "address"
        },
        {
          "internalType": "uint256",
          "name": "resultsCount",
          "type": "uint256"
        }
      ],
      "stateMutability": "view",
      "type": "function"
    },
    {
      "inputs": [],
      "name": "lastJobID",
      "outputs": [
        {
          "internalType": "uint256",
          "name": "",
          "type": "uint256"
        }
      ],
      "stateMutability": "view",
      "type": "function"
    },
    {
      "inputs": [],
      "name": "owner",
      "outputs": [
        {
          "internalType": "address",
          "name": "",
          "type": "address"
        }
      ],
      "stateMutability": "view",
      "type": "function"
    },
    {
      "inputs": [
        {
          "internalType": "string",
          "name": "endpoint",
          "type": "string"
        }
      ],
      "name": "regDSP",
      "outputs": [],
      "stateMutability": "nonpayable",
      "type": "function"
    },
    {
      "inputs": [
        {
          "internalType": "address",
          "name": "",
          "type": "address"
        }
      ],
      "name": "registeredDSPs",
      "outputs": [
        {
          "internalType": "bool",
          "name": "active",
          "type": "bool"
        },
        {
          "internalType": "string",
          "name": "endpoint",
          "type": "string"
        }
      ],
      "stateMutability": "view",
      "type": "function"
    },
    {
      "inputs": [],
      "name": "renounceOwnership",
      "outputs": [],
      "stateMutability": "nonpayable",
      "type": "function"
    },
    {
      "inputs": [
        {
          "internalType": "address",
          "name": "consumer",
          "type": "address"
        },
        {
          "internalType": "string",
          "name": "imageName",
          "type": "string"
        },
        {
          "internalType": "string",
          "name": "inputFS",
          "type": "string"
        },
        {
          "internalType": "string[]",
          "name": "args",
          "type": "string[]"
        }
      ],
      "name": "run",
      "outputs": [],
      "stateMutability": "nonpayable",
      "type": "function"
    },
    {
      "inputs": [
        {
          "internalType": "uint256",
          "name": "_amountToSell",
          "type": "uint256"
        },
        {
          "internalType": "address",
          "name": "_dsp",
          "type": "address"
        }
      ],
      "name": "sellGas",
      "outputs": [],
      "stateMutability": "nonpayable",
      "type": "function"
    },
    {
      "inputs": [
        {
          "internalType": "uint256",
          "name": "jobID",
          "type": "uint256"
        },
        {
          "internalType": "uint256",
          "name": "port",
          "type": "uint256"
        },
        {
          "internalType": "uint256",
          "name": "dapps",
          "type": "uint256"
        }
      ],
      "name": "serviceCallback",
      "outputs": [],
      "stateMutability": "nonpayable",
      "type": "function"
    },
    {
      "inputs": [
        {
          "internalType": "uint256",
          "name": "jobID",
          "type": "uint256"
        },
        {
          "internalType": "string",
          "name": "stdErr",
          "type": "string"
        },
        {
          "internalType": "string",
          "name": "outputFS",
          "type": "string"
        }
      ],
      "name": "serviceError",
      "outputs": [],
      "stateMutability": "nonpayable",
      "type": "function"
    },
    {
      "inputs": [
        {
          "internalType": "uint256",
          "name": "",
          "type": "uint256"
        }
      ],
      "name": "services",
      "outputs": [
        {
          "internalType": "address",
          "name": "owner",
          "type": "address"
        }
      ],
      "stateMutability": "view",
      "type": "function"
    },
    {
      "inputs": [
        {
          "internalType": "bool",
          "name": "enabled",
          "type": "bool"
        }
      ],
      "name": "setConsumerCallback",
      "outputs": [],
      "stateMutability": "nonpayable",
      "type": "function"
    },
    {
      "inputs": [
        {
          "internalType": "address",
          "name": "owner",
          "type": "address"
        }
      ],
      "name": "setConsumerPermissions",
      "outputs": [],
      "stateMutability": "nonpayable",
      "type": "function"
    },
    {
      "inputs": [
        {
          "internalType": "string",
          "name": "imageName",
          "type": "string"
        },
        {
          "internalType": "string",
          "name": "imageAddress",
          "type": "string"
        },
        {
          "internalType": "string",
          "name": "imageHash",
          "type": "string"
        },
        {
          "internalType": "string",
          "name": "imageType",
          "type": "string"
        }
      ],
      "name": "setDockerImage",
      "outputs": [],
      "stateMutability": "nonpayable",
      "type": "function"
    },
    {
      "inputs": [
        {
          "internalType": "address",
          "name": "consumer",
          "type": "address"
        },
        {
          "internalType": "address[]",
          "name": "dsps",
          "type": "address[]"
        }
      ],
      "name": "setQuorum",
      "outputs": [],
      "stateMutability": "nonpayable",
      "type": "function"
    },
    {
      "inputs": [
        {
          "internalType": "address",
          "name": "account",
          "type": "address"
        }
      ],
      "name": "toString",
      "outputs": [
        {
          "internalType": "string",
          "name": "",
          "type": "string"
        }
      ],
      "stateMutability": "pure",
      "type": "function"
    },
    {
      "inputs": [
        {
          "internalType": "uint256",
          "name": "value",
          "type": "uint256"
        }
      ],
      "name": "toString",
      "outputs": [
        {
          "internalType": "string",
          "name": "",
          "type": "string"
        }
      ],
      "stateMutability": "pure",
      "type": "function"
    },
    {
      "inputs": [
        {
          "internalType": "bytes",
          "name": "data",
          "type": "bytes"
        }
      ],
      "name": "toString",
      "outputs": [
        {
          "internalType": "string",
          "name": "",
          "type": "string"
        }
      ],
      "stateMutability": "pure",
      "type": "function"
    },
    {
      "inputs": [
        {
          "internalType": "bytes32",
          "name": "value",
          "type": "bytes32"
        }
      ],
      "name": "toString",
      "outputs": [
        {
          "internalType": "string",
          "name": "",
          "type": "string"
        }
      ],
      "stateMutability": "pure",
      "type": "function"
    },
    {
      "inputs": [],
      "name": "token",
      "outputs": [
        {
          "internalType": "contract IERC20",
          "name": "",
          "type": "address"
        }
      ],
      "stateMutability": "view",
      "type": "function"
    },
    {
      "inputs": [
        {
          "internalType": "address",
          "name": "newOwner",
          "type": "address"
        }
      ],
      "name": "transferOwnership",
      "outputs": [],
      "stateMutability": "nonpayable",
      "type": "function"
    },
    {
      "inputs": [
        {
          "internalType": "string",
          "name": "imageName",
          "type": "string"
        }
      ],
      "name": "unapproveDockerForDSP",
      "outputs": [],
      "stateMutability": "nonpayable",
      "type": "function"
    }
  ],
  "bytecode": "0x608060405260646001553480156200001657600080fd5b50620000376200002b6200003d60201b60201c565b6200004560201b60201c565b62000109565b600033905090565b60008060009054906101000a900473ffffffffffffffffffffffffffffffffffffffff169050816000806101000a81548173ffffffffffffffffffffffffffffffffffffffff021916908373ffffffffffffffffffffffffffffffffffffffff1602179055508173ffffffffffffffffffffffffffffffffffffffff168173ffffffffffffffffffffffffffffffffffffffff167f8be0079c531659141344cd1fd0a4f28419497f9722a3daafe3b4186f6b6457e060405160405180910390a35050565b6148b780620001196000396000f3fe608060405234801561001057600080fd5b50600436106102115760003560e01c806396c23b4711610125578063be27aee6116100ad578063e98d6bf91161007c578063e98d6bf91461061f578063f16cfbfe1461063b578063f2fde38b1461066c578063fc0c546a14610688578063fe78d522146106a657610211565b8063be27aee614610572578063c22c4f43146105a3578063d7cd4fd9146105d3578063e46fd0c4146105ef57610211565b8063ada604a3116100f4578063ada604a3146104bb578063b11a19e8146104d9578063b3deb4d414610509578063b4ba9e111461053a578063bdcf5cf31461055657610211565b806396c23b471461045d5780639d82f119146104795780639ded619514610483578063a4859f141461049f57610211565b80636900a3ae116101a8578063809253f911610177578063809253f9146103bb57806380e263ac146103d75780638b1406df146103f35780638da5cb5b1461040f57806394070a661461042d57610211565b80636900a3ae14610335578063697d2cee14610365578063715018a61461038157806371aad10d1461038b57610211565b806346b3ea3e116101e457806346b3ea3e1461029b5780634e977089146102b757806356ca623e146102d55780635f044a471461030557610211565b8063180aedf3146102165780631b5bda4e14610247578063319c7eb114610263578063396d528d1461027f575b600080fd5b610230600480360381019061022b91906135c3565b6106d6565b60405161023e929190613d84565b60405180910390f35b610261600480360381019061025c9190613787565b61071a565b005b61027d600480360381019061027891906135f0565b61080e565b005b6102996004803603810190610294919061323d565b610a24565b005b6102b560048036038101906102b09190613683565b610aa8565b005b6102bf610aaf565b6040516102cc91906140c4565b60405180910390f35b6102ef60048036038101906102ea919061323d565b610ab5565b6040516102fc9190613eb6565b60405180910390f35b61031f600480360381019061031a919061323d565b610ae6565b60405161032c9190613eb6565b60405180910390f35b61034f600480360381019061034a91906135c3565b610bba565b60405161035c9190613eb6565b60405180910390f35b61037f600480360381019061037a9190613630565b610beb565b005b610389610d88565b005b6103a560048036038101906103a0919061345a565b610e10565b6040516103b29190613eb6565b60405180910390f35b6103d560048036038101906103d091906132aa565b61110a565b005b6103f160048036038101906103ec9190613683565b61141f565b005b61040d600480360381019061040891906133d3565b611426565b005b610417611483565b6040516104249190613c9a565b60405180910390f35b610447600480360381019061044291906135f0565b6114ac565b60405161045491906140c4565b60405180910390f35b610477600480360381019061047291906134a3565b61150f565b005b6104816115e0565b005b61049d600480360381019061049891906134ec565b6116f8565b005b6104b960048036038101906104b491906134a3565b6118c1565b005b6104c36119cd565b6040516104d091906140c4565b60405180910390f35b6104f360048036038101906104ee919061342d565b6119d3565b6040516105009190613eb6565b60405180910390f35b610523600480360381019061051e919061323d565b611a04565b604051610531929190613cec565b60405180910390f35b610554600480360381019061054f919061326a565b611a55565b005b610570600480360381019061056b9190613718565b611b92565b005b61058c6004803603810190610587919061323d565b611e46565b60405161059a929190613dc8565b60405180910390f35b6105bd60048036038101906105b891906135c3565b611eff565b6040516105ca9190613c9a565b60405180910390f35b6105ed60048036038101906105e891906134a3565b611f3d565b005b610609600480360381019061060491906134a3565b61200e565b6040516106169190613eb6565b60405180910390f35b6106396004803603810190610634919061330a565b6120c1565b005b6106556004803603810190610650919061326a565b612616565b6040516106639291906140df565b60405180910390f35b6106866004803603810190610681919061323d565b612647565b005b61069061273f565b60405161069d9190613e26565b60405180910390f35b6106c060048036038101906106bb91906134a3565b612765565b6040516106cd9190613dad565b60405180910390f35b60066020528060005260406000206000915090508060000160009054906101000a900473ffffffffffffffffffffffffffffffffffffffff16908060020154905082565b600060076000858152602001908152602001600020905060008160000160009054906101000a900473ffffffffffffffffffffffffffffffffffffffff169050838260020160003373ffffffffffffffffffffffffffffffffffffffff1673ffffffffffffffffffffffffffffffffffffffff168152602001908152602001600020819055503373ffffffffffffffffffffffffffffffffffffffff168173ffffffffffffffffffffffffffffffffffffffff167ffc591b915128e7b045fd4663d358185ce9356694fac67286041506e0a8963d6287876040516107ff9291906140df565b60405180910390a35050505050565b6000339050600460008273ffffffffffffffffffffffffffffffffffffffff1673ffffffffffffffffffffffffffffffffffffffff16815260200190815260200160002060008373ffffffffffffffffffffffffffffffffffffffff1673ffffffffffffffffffffffffffffffffffffffff168152602001908152602001600020600001548311156108d5576040517f08c379a00000000000000000000000000000000000000000000000000000000081526004016108cc90613fc4565b60405180910390fd5b82600460008373ffffffffffffffffffffffffffffffffffffffff1673ffffffffffffffffffffffffffffffffffffffff16815260200190815260200160002060008473ffffffffffffffffffffffffffffffffffffffff1673ffffffffffffffffffffffffffffffffffffffff1681526020019081526020016000206000016000828254610964919061432d565b925050819055506109ba308285600260009054906101000a900473ffffffffffffffffffffffffffffffffffffffff1673ffffffffffffffffffffffffffffffffffffffff166127df909392919063ffffffff16565b8173ffffffffffffffffffffffffffffffffffffffff168173ffffffffffffffffffffffffffffffffffffffff167f8f5fa856284b74bcd941cff9a8e370a8e8c3e90d88177b1e50b995c18daa89a085604051610a1791906140c4565b60405180910390a3505050565b80600560003373ffffffffffffffffffffffffffffffffffffffff1673ffffffffffffffffffffffffffffffffffffffff16815260200190815260200160002060000160006101000a81548173ffffffffffffffffffffffffffffffffffffffff021916908373ffffffffffffffffffffffffffffffffffffffff16021790555050565b5050505050565b60095481565b6060610adf82604051602001610acb9190613c02565b604051602081830303815290604052610e10565b9050919050565b6060600360008373ffffffffffffffffffffffffffffffffffffffff1673ffffffffffffffffffffffffffffffffffffffff1681526020019081526020016000206002018054610b359061442b565b80601f0160208091040260200160405190810160405280929190818152602001828054610b619061442b565b8015610bae5780601f10610b8357610100808354040283529160200191610bae565b820191906000526020600020905b815481529060010190602001808311610b9157829003601f168201915b50505050509050919050565b6060610be482604051602001610bd09190613c7f565b604051602081830303815290604052610e10565b9050919050565b600360008273ffffffffffffffffffffffffffffffffffffffff1673ffffffffffffffffffffffffffffffffffffffff16815260200190815260200160002060000160009054906101000a905050610c88333085600260009054906101000a900473ffffffffffffffffffffffffffffffffffffffff1673ffffffffffffffffffffffffffffffffffffffff166127df909392919063ffffffff16565b82600460008473ffffffffffffffffffffffffffffffffffffffff1673ffffffffffffffffffffffffffffffffffffffff16815260200190815260200160002060008373ffffffffffffffffffffffffffffffffffffffff1673ffffffffffffffffffffffffffffffffffffffff1681526020019081526020016000206000016000828254610d17919061427d565b925050819055508073ffffffffffffffffffffffffffffffffffffffff168273ffffffffffffffffffffffffffffffffffffffff167f1f4b3df33fd6798a3d9d7729015b71f90b8ae56c085ab069bcea572cc983e5d285604051610d7b91906140c4565b60405180910390a3505050565b610d90612868565b73ffffffffffffffffffffffffffffffffffffffff16610dae611483565b73ffffffffffffffffffffffffffffffffffffffff1614610e04576040517f08c379a0000000000000000000000000000000000000000000000000000000008152600401610dfb90613fe4565b60405180910390fd5b610e0e6000612870565b565b606060006040518060400160405280601081526020017f30313233343536373839616263646566000000000000000000000000000000008152509050600060028451610e5c91906142d3565b6002610e68919061427d565b67ffffffffffffffff811115610e8157610e8061459c565b5b6040519080825280601f01601f191660200182016040528015610eb35781602001600182028036833780820191505090505b5090507f300000000000000000000000000000000000000000000000000000000000000081600081518110610eeb57610eea61456d565b5b60200101907effffffffffffffffffffffffffffffffffffffffffffffffffffffffffffff1916908160001a9053507f780000000000000000000000000000000000000000000000000000000000000081600181518110610f4f57610f4e61456d565b5b60200101907effffffffffffffffffffffffffffffffffffffffffffffffffffffffffffff1916908160001a90535060005b84518110156110ff57826004868381518110610fa057610f9f61456d565b5b602001015160f81c60f81b7effffffffffffffffffffffffffffffffffffffffffffffffffffffffffffff1916901c60f81c60ff1681518110610fe657610fe561456d565b5b602001015160f81c60f81b82600283610fff91906142d3565b600261100b919061427d565b8151811061101c5761101b61456d565b5b60200101907effffffffffffffffffffffffffffffffffffffffffffffffffffffffffffff1916908160001a90535082600f60f81b8683815181106110645761106361456d565b5b602001015160f81c60f81b1660f81c60ff16815181106110875761108661456d565b5b602001015160f81c60f81b826002836110a091906142d3565b60036110ac919061427d565b815181106110bd576110bc61456d565b5b60200101907effffffffffffffffffffffffffffffffffffffffffffffffffffffffffffff1916908160001a90535080806110f79061448e565b915050610f81565b508092505050919050565b600073ffffffffffffffffffffffffffffffffffffffff16600560003373ffffffffffffffffffffffffffffffffffffffff1673ffffffffffffffffffffffffffffffffffffffff16815260200190815260200160002060000160009054906101000a900473ffffffffffffffffffffffffffffffffffffffff1673ffffffffffffffffffffffffffffffffffffffff1614611275573373ffffffffffffffffffffffffffffffffffffffff16600560003373ffffffffffffffffffffffffffffffffffffffff1673ffffffffffffffffffffffffffffffffffffffff16815260200190815260200160002060000160009054906101000a900473ffffffffffffffffffffffffffffffffffffffff1673ffffffffffffffffffffffffffffffffffffffff1614611270576040517f08c379a000000000000000000000000000000000000000000000000000000000815260040161126790614084565b60405180910390fd5b6112f0565b3373ffffffffffffffffffffffffffffffffffffffff168373ffffffffffffffffffffffffffffffffffffffff16146112ad33610ab5565b906112ee576040517f08c379a00000000000000000000000000000000000000000000000000000000081526004016112e59190613eb6565b60405180910390fd5b505b60005b828290508110156113c757600360008484848181106113155761131461456d565b5b905060200201602081019061132a919061323d565b73ffffffffffffffffffffffffffffffffffffffff1673ffffffffffffffffffffffffffffffffffffffff16815260200190815260200160002060000160009054906101000a900460ff166113b4576040517f08c379a00000000000000000000000000000000000000000000000000000000081526004016113ab906140a4565b60405180910390fd5b80806113bf9061448e565b9150506112f3565b508181600560008673ffffffffffffffffffffffffffffffffffffffff1673ffffffffffffffffffffffffffffffffffffffff1681526020019081526020016000206001019190611419929190612e5d565b50505050565b5050505050565b80600560003373ffffffffffffffffffffffffffffffffffffffff1673ffffffffffffffffffffffffffffffffffffffff16815260200190815260200160002060020160006101000a81548160ff02191690831515021790555050565b60008060009054906101000a900473ffffffffffffffffffffffffffffffffffffffff16905090565b6000806007600085815260200190815260200160002090508060020160008473ffffffffffffffffffffffffffffffffffffffff1673ffffffffffffffffffffffffffffffffffffffff1681526020019081526020016000205491505092915050565b60003390506000600360008373ffffffffffffffffffffffffffffffffffffffff1673ffffffffffffffffffffffffffffffffffffffff168152602001908152602001600020600101836040516115669190613c68565b908152602001604051809103902060006101000a81548160ff0219169083151502179055508073ffffffffffffffffffffffffffffffffffffffff167fbedd4cca1acec8ab178c7b2dade9c35421b8246dcba1d0fcda45fde6befcce368360006040516115d4929190613ed8565b60405180910390a25050565b60003390506000600360008373ffffffffffffffffffffffffffffffffffffffff1673ffffffffffffffffffffffffffffffffffffffff16815260200190815260200160002060000160006101000a81548160ff02191690831515021790555060405180602001604052806000815250600360008373ffffffffffffffffffffffffffffffffffffffff1673ffffffffffffffffffffffffffffffffffffffff16815260200190815260200160002060020190805190602001906116a5929190612efd565b508073ffffffffffffffffffffffffffffffffffffffff167ffdcc621fcf24779a46eed0bf3d92841b24669514e65fd61277e90cb40170e1be60006040516116ed9190613df8565b60405180910390a250565b611700612868565b73ffffffffffffffffffffffffffffffffffffffff1661171e611483565b73ffffffffffffffffffffffffffffffffffffffff1614611774576040517f08c379a000000000000000000000000000000000000000000000000000000000815260040161176b90613fe4565b60405180910390fd5b60003390508360088660405161178a9190613c68565b908152602001604051809103902060010190805190602001906117ae929190612efd565b50806008866040516117c09190613c68565b908152602001604051809103902060000160006101000a81548173ffffffffffffffffffffffffffffffffffffffff021916908373ffffffffffffffffffffffffffffffffffffffff160217905550826008866040516118209190613c68565b90815260200160405180910390206002019080519060200190611844929190612efd565b50816008866040516118569190613c68565b9081526020016040518091039020600301908051906020019061187a929190612efd565b507fc4e1224d2afec8a79bb768c3e0db1bfa2291c1eb2b332ad09e5f739d624ba26481868686866040516118b2959493929190613d15565b60405180910390a15050505050565b60003390506001600360008373ffffffffffffffffffffffffffffffffffffffff1673ffffffffffffffffffffffffffffffffffffffff16815260200190815260200160002060000160006101000a81548160ff02191690831515021790555081600360008373ffffffffffffffffffffffffffffffffffffffff1673ffffffffffffffffffffffffffffffffffffffff1681526020019081526020016000206002019080519060200190611977929190612efd565b508073ffffffffffffffffffffffffffffffffffffffff167ffdcc621fcf24779a46eed0bf3d92841b24669514e65fd61277e90cb40170e1be6001846040516119c1929190613dc8565b60405180910390a25050565b60015481565b60606119fd826040516020016119e99190613c1d565b604051602081830303815290604052610e10565b9050919050565b60056020528060005260406000206000915090508060000160009054906101000a900473ffffffffffffffffffffffffffffffffffffffff16908060020160009054906101000a900460ff16905082565b6000600460008473ffffffffffffffffffffffffffffffffffffffff1673ffffffffffffffffffffffffffffffffffffffff16815260200190815260200160002060008373ffffffffffffffffffffffffffffffffffffffff1673ffffffffffffffffffffffffffffffffffffffff168152602001908152602001600020600101549050611b28308383600260009054906101000a900473ffffffffffffffffffffffffffffffffffffffff1673ffffffffffffffffffffffffffffffffffffffff166127df909392919063ffffffff16565b8173ffffffffffffffffffffffffffffffffffffffff168373ffffffffffffffffffffffffffffffffffffffff167f212d9abae60ecca72fdc8d96a776b6ef0c3ee501406becf43151cd669925918983604051611b8591906140c4565b60405180910390a3505050565b600082604051602001611ba59190613c68565b604051602081830303815290604052805190602001209050600060066000868152602001908152602001600020905060008160000160009054906101000a900473ffffffffffffffffffffffffffffffffffffffff1690506000611c098785612934565b90506000339050600560008473ffffffffffffffffffffffffffffffffffffffff1673ffffffffffffffffffffffffffffffffffffffff16815260200190815260200160002060020160009054906101000a900460ff1615611d64576000808473ffffffffffffffffffffffffffffffffffffffff168a604051602401611c9091906140c4565b6040516020818303038152906040527f33647476000000000000000000000000000000000000000000000000000000007bffffffffffffffffffffffffffffffffffffffffffffffffffffffff19166020820180517bffffffffffffffffffffffffffffffffffffffffffffffffffffffff8381831617835250505050604051611d1a9190613c38565b6000604051808303816000865af19150503d8060008114611d57576040519150601f19603f3d011682016040523d82523d6000602084013e611d5c565b606091505b509150915050505b8073ffffffffffffffffffffffffffffffffffffffff168373ffffffffffffffffffffffffffffffffffffffff167f91cbe451689a6bb11368a3c53becd10c34fd824e22a6e598cea5dfca28f64bc889898c604051611dc593929190613f46565b60405180910390a38360020154846001018054905014611de9575050505050611e41565b8273ffffffffffffffffffffffffffffffffffffffff167fa11179e984ccbe9d640585de241ef53bf96b6c0a7b53028c5ddecd8cac86919a88848b604051611e3393929190613f08565b60405180910390a250505050505b505050565b60036020528060005260406000206000915090508060000160009054906101000a900460ff1690806002018054611e7c9061442b565b80601f0160208091040260200160405190810160405280929190818152602001828054611ea89061442b565b8015611ef55780601f10611eca57610100808354040283529160200191611ef5565b820191906000526020600020905b815481529060010190602001808311611ed857829003601f168201915b5050505050905082565b60076020528060005260406000206000915090508060000160009054906101000a900473ffffffffffffffffffffffffffffffffffffffff16905081565b60003390506001600360008373ffffffffffffffffffffffffffffffffffffffff1673ffffffffffffffffffffffffffffffffffffffff16815260200190815260200160002060010183604051611f949190613c68565b908152602001604051809103902060006101000a81548160ff0219169083151502179055508073ffffffffffffffffffffffffffffffffffffffff167fbedd4cca1acec8ab178c7b2dade9c35421b8246dcba1d0fcda45fde6befcce36836001604051612002929190613ed8565b60405180910390a25050565b60606008826040516120209190613c68565b9081526020016040518091039020600101805461203c9061442b565b80601f01602080910402602001604051908101604052809291908181526020018280546120689061442b565b80156120b55780601f1061208a576101008083540402835291602001916120b5565b820191906000526020600020905b81548152906001019060200180831161209857829003601f168201915b50505050509050919050565b600073ffffffffffffffffffffffffffffffffffffffff16600560008973ffffffffffffffffffffffffffffffffffffffff1673ffffffffffffffffffffffffffffffffffffffff16815260200190815260200160002060000160009054906101000a900473ffffffffffffffffffffffffffffffffffffffff1673ffffffffffffffffffffffffffffffffffffffff16146121f6573373ffffffffffffffffffffffffffffffffffffffff16600560008973ffffffffffffffffffffffffffffffffffffffff1673ffffffffffffffffffffffffffffffffffffffff16815260200190815260200160002060000160009054906101000a900473ffffffffffffffffffffffffffffffffffffffff1673ffffffffffffffffffffffffffffffffffffffff16146121f157600080fd5b61222f565b3373ffffffffffffffffffffffffffffffffffffffff168773ffffffffffffffffffffffffffffffffffffffff161461222e57600080fd5b5b600160095461223e919061427d565b60098190555061232e60088787604051612259929190613c4f565b908152602001604051809103902060030180546122759061442b565b80601f01602080910402602001604051908101604052809291908181526020018280546122a19061442b565b80156122ee5780601f106122c3576101008083540402835291602001916122ee565b820191906000526020600020905b8154815290600101906020018083116122d157829003601f168201915b50505050506040518060400160405280600381526020017f6a6f620000000000000000000000000000000000000000000000000000000000815250612b97565b156123ea5760006006600060095481526020019081526020016000209050600560008973ffffffffffffffffffffffffffffffffffffffff1673ffffffffffffffffffffffffffffffffffffffff168152602001908152602001600020600101816001019080546123a0929190612f83565b50878160000160006101000a81548173ffffffffffffffffffffffffffffffffffffffff021916908373ffffffffffffffffffffffffffffffffffffffff1602179055505061258d565b6124d4600887876040516123ff929190613c4f565b9081526020016040518091039020600301805461241b9061442b565b80601f01602080910402602001604051908101604052809291908181526020018280546124479061442b565b80156124945780601f1061246957610100808354040283529160200191612494565b820191906000526020600020905b81548152906001019060200180831161247757829003601f168201915b50505050506040518060400160405280600781526020017f7365727669636500000000000000000000000000000000000000000000000000815250612b97565b1561258c5760006007600060095481526020019081526020016000209050600560008973ffffffffffffffffffffffffffffffffffffffff1673ffffffffffffffffffffffffffffffffffffffff16815260200190815260200160002060010181600101908054612546929190612f83565b50878160000160006101000a81548173ffffffffffffffffffffffffffffffffffffffff021916908373ffffffffffffffffffffffffffffffffffffffff160217905550505b5b8673ffffffffffffffffffffffffffffffffffffffff167ff4fe3daf7ac3b9a2b98916bf78a8889a53113b75c0b993a797790f15dfdfd5d187878787878760095460088f8f6040516125e0929190613c4f565b9081526020016040518091039020600301604051612605989796959493929190613e41565b60405180910390a250505050505050565b6004602052816000526040600020602052806000526040600020600091509150508060000154908060010154905082565b61264f612868565b73ffffffffffffffffffffffffffffffffffffffff1661266d611483565b73ffffffffffffffffffffffffffffffffffffffff16146126c3576040517f08c379a00000000000000000000000000000000000000000000000000000000081526004016126ba90613fe4565b60405180910390fd5b600073ffffffffffffffffffffffffffffffffffffffff168173ffffffffffffffffffffffffffffffffffffffff161415612733576040517f08c379a000000000000000000000000000000000000000000000000000000000815260040161272a90613f84565b60405180910390fd5b61273c81612870565b50565b600260009054906101000a900473ffffffffffffffffffffffffffffffffffffffff1681565b600080339050600360008273ffffffffffffffffffffffffffffffffffffffff1673ffffffffffffffffffffffffffffffffffffffff168152602001908152602001600020600101836040516127bb9190613c68565b908152602001604051809103902060009054906101000a900460ff16915050919050565b612862846323b872dd60e01b85858560405160240161280093929190613cb5565b604051602081830303815290604052907bffffffffffffffffffffffffffffffffffffffffffffffffffffffff19166020820180517bffffffffffffffffffffffffffffffffffffffffffffffffffffffff8381831617835250505050612bf0565b50505050565b600033905090565b60008060009054906101000a900473ffffffffffffffffffffffffffffffffffffffff169050816000806101000a81548173ffffffffffffffffffffffffffffffffffffffff021916908373ffffffffffffffffffffffffffffffffffffffff1602179055508173ffffffffffffffffffffffffffffffffffffffff168173ffffffffffffffffffffffffffffffffffffffff167f8be0079c531659141344cd1fd0a4f28419497f9722a3daafe3b4186f6b6457e060405160405180910390a35050565b600080600660008581526020019081526020016000209050600033905060007fffffffffffffffffffffffffffffffffffffffffffffffffffffffffffffffff90506000805b8460010180549050811015612a625784600301600082815260200190815260200160002060009054906101000a900460ff16156129d3578685600401600083815260200190815260200160002054146129d257600191505b5b8373ffffffffffffffffffffffffffffffffffffffff16856001018281548110612a00576129ff61456d565b5b9060005260206000200160009054906101000a900473ffffffffffffffffffffffffffffffffffffffff1673ffffffffffffffffffffffffffffffffffffffff161415612a4f57809250612a62565b8080612a5a9061448e565b91505061297a565b507fffffffffffffffffffffffffffffffffffffffffffffffffffffffffffffffff8213612ac5576040517f08c379a0000000000000000000000000000000000000000000000000000000008152600401612abc90614004565b60405180910390fd5b83600301600083815260200190815260200160002060009054906101000a900460ff1615612b28576040517f08c379a0000000000000000000000000000000000000000000000000000000008152600401612b1f90614024565b60405180910390fd5b600184600301600084815260200190815260200160002060006101000a81548160ff021916908315150217905550836002016000815480929190612b6b9061448e565b919050555085846004016000848152602001908152602001600020819055508094505050505092915050565b600081604051602001612baa9190613c68565b6040516020818303038152906040528051906020012083604051602001612bd19190613c68565b6040516020818303038152906040528051906020012014905092915050565b6000612c52826040518060400160405280602081526020017f5361666545524332303a206c6f772d6c6576656c2063616c6c206661696c65648152508573ffffffffffffffffffffffffffffffffffffffff16612cb79092919063ffffffff16565b9050600081511115612cb25780806020019051810190612c729190613400565b612cb1576040517f08c379a0000000000000000000000000000000000000000000000000000000008152600401612ca890614064565b60405180910390fd5b5b505050565b6060612cc68484600085612ccf565b90509392505050565b606082471015612d14576040517f08c379a0000000000000000000000000000000000000000000000000000000008152600401612d0b90613fa4565b60405180910390fd5b612d1d85612de3565b612d5c576040517f08c379a0000000000000000000000000000000000000000000000000000000008152600401612d5390614044565b60405180910390fd5b6000808673ffffffffffffffffffffffffffffffffffffffff168587604051612d859190613c38565b60006040518083038185875af1925050503d8060008114612dc2576040519150601f19603f3d011682016040523d82523d6000602084013e612dc7565b606091505b5091509150612dd7828286612df6565b92505050949350505050565b600080823b905060008111915050919050565b60608315612e0657829050612e56565b600083511115612e195782518084602001fd5b816040517f08c379a0000000000000000000000000000000000000000000000000000000008152600401612e4d9190613eb6565b60405180910390fd5b9392505050565b828054828255906000526020600020908101928215612eec579160200282015b82811115612eeb57823573ffffffffffffffffffffffffffffffffffffffff168260006101000a81548173ffffffffffffffffffffffffffffffffffffffff021916908373ffffffffffffffffffffffffffffffffffffffff16021790555091602001919060010190612e7d565b5b509050612ef99190612fd5565b5090565b828054612f099061442b565b90600052602060002090601f016020900481019282612f2b5760008555612f72565b82601f10612f4457805160ff1916838001178555612f72565b82800160010185558215612f72579182015b82811115612f71578251825591602001919060010190612f56565b5b509050612f7f9190612fd5565b5090565b828054828255906000526020600020908101928215612fc45760005260206000209182015b82811115612fc3578254825591600101919060010190612fa8565b5b509050612fd19190612fd5565b5090565b5b80821115612fee576000816000905550600101612fd6565b5090565b60006130056130008461412d565b614108565b905082815260208101848484011115613021576130206145e4565b5b61302c8482856143e9565b509392505050565b60006130476130428461415e565b614108565b905082815260208101848484011115613063576130626145e4565b5b61306e8482856143e9565b509392505050565b60008135905061308581614825565b92915050565b60008083601f8401126130a1576130a06145d5565b5b8235905067ffffffffffffffff8111156130be576130bd6145d0565b5b6020830191508360208202830111156130da576130d96145df565b5b9250929050565b60008083601f8401126130f7576130f66145d5565b5b8235905067ffffffffffffffff811115613114576131136145d0565b5b6020830191508360208202830111156131305761312f6145df565b5b9250929050565b6000813590506131468161483c565b92915050565b60008151905061315b8161483c565b92915050565b60008135905061317081614853565b92915050565b600082601f83011261318b5761318a6145d5565b5b813561319b848260208601612ff2565b91505092915050565b60008083601f8401126131ba576131b96145d5565b5b8235905067ffffffffffffffff8111156131d7576131d66145d0565b5b6020830191508360018202830111156131f3576131f26145df565b5b9250929050565b600082601f83011261320f5761320e6145d5565b5b813561321f848260208601613034565b91505092915050565b6000813590506132378161486a565b92915050565b600060208284031215613253576132526145f3565b5b600061326184828501613076565b91505092915050565b60008060408385031215613281576132806145f3565b5b600061328f85828601613076565b92505060206132a085828601613076565b9150509250929050565b6000806000604084860312156132c3576132c26145f3565b5b60006132d186828701613076565b935050602084013567ffffffffffffffff8111156132f2576132f16145e9565b5b6132fe8682870161308b565b92509250509250925092565b60008060008060008060006080888a031215613329576133286145f3565b5b60006133378a828b01613076565b975050602088013567ffffffffffffffff811115613358576133576145e9565b5b6133648a828b016131a4565b9650965050604088013567ffffffffffffffff811115613387576133866145e9565b5b6133938a828b016131a4565b9450945050606088013567ffffffffffffffff8111156133b6576133b56145e9565b5b6133c28a828b016130e1565b925092505092959891949750929550565b6000602082840312156133e9576133e86145f3565b5b60006133f784828501613137565b91505092915050565b600060208284031215613416576134156145f3565b5b60006134248482850161314c565b91505092915050565b600060208284031215613443576134426145f3565b5b600061345184828501613161565b91505092915050565b6000602082840312156134705761346f6145f3565b5b600082013567ffffffffffffffff81111561348e5761348d6145e9565b5b61349a84828501613176565b91505092915050565b6000602082840312156134b9576134b86145f3565b5b600082013567ffffffffffffffff8111156134d7576134d66145e9565b5b6134e3848285016131fa565b91505092915050565b60008060008060808587031215613506576135056145f3565b5b600085013567ffffffffffffffff811115613524576135236145e9565b5b613530878288016131fa565b945050602085013567ffffffffffffffff811115613551576135506145e9565b5b61355d878288016131fa565b935050604085013567ffffffffffffffff81111561357e5761357d6145e9565b5b61358a878288016131fa565b925050606085013567ffffffffffffffff8111156135ab576135aa6145e9565b5b6135b7878288016131fa565b91505092959194509250565b6000602082840312156135d9576135d86145f3565b5b60006135e784828501613228565b91505092915050565b60008060408385031215613607576136066145f3565b5b600061361585828601613228565b925050602061362685828601613076565b9150509250929050565b600080600060608486031215613649576136486145f3565b5b600061365786828701613228565b935050602061366886828701613076565b925050604061367986828701613076565b9150509250925092565b60008060008060006060868803121561369f5761369e6145f3565b5b60006136ad88828901613228565b955050602086013567ffffffffffffffff8111156136ce576136cd6145e9565b5b6136da888289016131a4565b9450945050604086013567ffffffffffffffff8111156136fd576136fc6145e9565b5b613709888289016131a4565b92509250509295509295909350565b600080600060608486031215613731576137306145f3565b5b600061373f86828701613228565b935050602084013567ffffffffffffffff8111156137605761375f6145e9565b5b61376c868287016131fa565b925050604061377d86828701613228565b9150509250925092565b6000806000606084860312156137a05761379f6145f3565b5b60006137ae86828701613228565b93505060206137bf86828701613228565b92505060406137d086828701613228565b9150509250925092565b60006137e78484846138f2565b90509392505050565b6137f981614361565b82525050565b61381061380b82614361565b6144d7565b82525050565b600061382283856141d1565b9350836020840285016138348461418f565b8060005b8781101561387a57848403895261384f828461421a565b61385a8682846137da565b9550613865846141c4565b935060208b019a505050600181019050613838565b50829750879450505050509392505050565b61389581614373565b82525050565b6138ac6138a78261437f565b6144e9565b82525050565b60006138bd826141ae565b6138c781856141e2565b93506138d78185602086016143f8565b80840191505092915050565b6138ec816143b3565b82525050565b60006138fe83856141ed565b935061390b8385846143e9565b613914836145f8565b840190509392505050565b600061392b83856141fe565b93506139388385846143e9565b613941836145f8565b840190509392505050565b6000613958838561420f565b93506139658385846143e9565b82840190509392505050565b600061397c826141b9565b61398681856141fe565b93506139968185602086016143f8565b61399f816145f8565b840191505092915050565b60006139b5826141b9565b6139bf818561420f565b93506139cf8185602086016143f8565b80840191505092915050565b600081546139e88161442b565b6139f281866141fe565b94506001821660008114613a0d5760018114613a1f57613a52565b60ff1983168652602086019350613a52565b613a2885614199565b60005b83811015613a4a57815481890152600182019150602081019050613a2b565b808801955050505b50505092915050565b6000613a686026836141fe565b9150613a7382614616565b604082019050919050565b6000613a8b6026836141fe565b9150613a9682614665565b604082019050919050565b6000613aae6011836141fe565b9150613ab9826146b4565b602082019050919050565b6000613ad16020836141fe565b9150613adc826146dd565b602082019050919050565b6000613af46009836141fe565b9150613aff82614706565b602082019050919050565b6000613b176000836141fe565b9150613b228261472f565b600082019050919050565b6000613b3a600c836141fe565b9150613b4582614732565b602082019050919050565b6000613b5d601d836141fe565b9150613b688261475b565b602082019050919050565b6000613b80602a836141fe565b9150613b8b82614784565b604082019050919050565b6000613ba36009836141fe565b9150613bae826147d3565b602082019050919050565b6000613bc6600e836141fe565b9150613bd1826147fc565b602082019050919050565b613be5816143a9565b82525050565b613bfc613bf7826143a9565b614505565b82525050565b6000613c0e82846137ff565b60148201915081905092915050565b6000613c29828461389b565b60208201915081905092915050565b6000613c4482846138b2565b915081905092915050565b6000613c5c82848661394c565b91508190509392505050565b6000613c7482846139aa565b915081905092915050565b6000613c8b8284613beb565b60208201915081905092915050565b6000602082019050613caf60008301846137f0565b92915050565b6000606082019050613cca60008301866137f0565b613cd760208301856137f0565b613ce46040830184613bdc565b949350505050565b6000604082019050613d0160008301856137f0565b613d0e602083018461388c565b9392505050565b600060a082019050613d2a60008301886137f0565b8181036020830152613d3c8187613971565b90508181036040830152613d508186613971565b90508181036060830152613d648185613971565b90508181036080830152613d788184613971565b90509695505050505050565b6000604082019050613d9960008301856137f0565b613da66020830184613bdc565b9392505050565b6000602082019050613dc2600083018461388c565b92915050565b6000604082019050613ddd600083018561388c565b8181036020830152613def8184613971565b90509392505050565b6000604082019050613e0d600083018461388c565b8181036020830152613e1e81613b0a565b905092915050565b6000602082019050613e3b60008301846138e3565b92915050565b600060a0820190508181036000830152613e5c818a8c61391f565b90508181036020830152613e7181888a61391f565b90508181036040830152613e86818688613816565b9050613e956060830185613bdc565b8181036080830152613ea781846139db565b90509998505050505050505050565b60006020820190508181036000830152613ed08184613971565b905092915050565b60006040820190508181036000830152613ef28185613971565b9050613f01602083018461388c565b9392505050565b60006060820190508181036000830152613f228186613971565b9050613f31602083018561388c565b613f3e6040830184613bdc565b949350505050565b60006060820190508181036000830152613f608186613971565b9050613f6f6020830185613bdc565b613f7c6040830184613bdc565b949350505050565b60006020820190508181036000830152613f9d81613a5b565b9050919050565b60006020820190508181036000830152613fbd81613a7e565b9050919050565b60006020820190508181036000830152613fdd81613aa1565b9050919050565b60006020820190508181036000830152613ffd81613ac4565b9050919050565b6000602082019050818103600083015261401d81613ae7565b9050919050565b6000602082019050818103600083015261403d81613b2d565b9050919050565b6000602082019050818103600083015261405d81613b50565b9050919050565b6000602082019050818103600083015261407d81613b73565b9050919050565b6000602082019050818103600083015261409d81613b96565b9050919050565b600060208201905081810360008301526140bd81613bb9565b9050919050565b60006020820190506140d96000830184613bdc565b92915050565b60006040820190506140f46000830185613bdc565b6141016020830184613bdc565b9392505050565b6000614112614123565b905061411e828261445d565b919050565b6000604051905090565b600067ffffffffffffffff8211156141485761414761459c565b5b614151826145f8565b9050602081019050919050565b600067ffffffffffffffff8211156141795761417861459c565b5b614182826145f8565b9050602081019050919050565b6000819050919050565b60008190508160005260206000209050919050565b600081519050919050565b600081519050919050565b6000602082019050919050565b600082825260208201905092915050565b600081905092915050565b600082825260208201905092915050565b600082825260208201905092915050565b600081905092915050565b60008083356001602003843603038112614237576142366145ee565b5b83810192508235915060208301925067ffffffffffffffff82111561425f5761425e6145cb565b5b600182023603841315614275576142746145da565b5b509250929050565b6000614288826143a9565b9150614293836143a9565b9250827fffffffffffffffffffffffffffffffffffffffffffffffffffffffffffffffff038211156142c8576142c761450f565b5b828201905092915050565b60006142de826143a9565b91506142e9836143a9565b9250817fffffffffffffffffffffffffffffffffffffffffffffffffffffffffffffffff04831182151516156143225761432161450f565b5b828202905092915050565b6000614338826143a9565b9150614343836143a9565b9250828210156143565761435561450f565b5b828203905092915050565b600061436c82614389565b9050919050565b60008115159050919050565b6000819050919050565b600073ffffffffffffffffffffffffffffffffffffffff82169050919050565b6000819050919050565b60006143be826143c5565b9050919050565b60006143d0826143d7565b9050919050565b60006143e282614389565b9050919050565b82818337600083830152505050565b60005b838110156144165780820151818401526020810190506143fb565b83811115614425576000848401525b50505050565b6000600282049050600182168061444357607f821691505b602082108114156144575761445661453e565b5b50919050565b614466826145f8565b810181811067ffffffffffffffff821117156144855761448461459c565b5b80604052505050565b6000614499826143a9565b91507fffffffffffffffffffffffffffffffffffffffffffffffffffffffffffffffff8214156144cc576144cb61450f565b5b600182019050919050565b60006144e2826144f3565b9050919050565b6000819050919050565b60006144fe82614609565b9050919050565b6000819050919050565b7f4e487b7100000000000000000000000000000000000000000000000000000000600052601160045260246000fd5b7f4e487b7100000000000000000000000000000000000000000000000000000000600052602260045260246000fd5b7f4e487b7100000000000000000000000000000000000000000000000000000000600052603260045260246000fd5b7f4e487b7100000000000000000000000000000000000000000000000000000000600052604160045260246000fd5b600080fd5b600080fd5b600080fd5b600080fd5b600080fd5b600080fd5b600080fd5b600080fd5b600080fd5b6000601f19601f8301169050919050565b60008160601b9050919050565b7f4f776e61626c653a206e6577206f776e657220697320746865207a65726f206160008201527f6464726573730000000000000000000000000000000000000000000000000000602082015250565b7f416464726573733a20696e73756666696369656e742062616c616e636520666f60008201527f722063616c6c0000000000000000000000000000000000000000000000000000602082015250565b7f6f766572647261776e2062616c616e6365000000000000000000000000000000600082015250565b7f4f776e61626c653a2063616c6c6572206973206e6f7420746865206f776e6572600082015250565b7f6e6f7420666f756e640000000000000000000000000000000000000000000000600082015250565b50565b7f616c726561647920646f6e650000000000000000000000000000000000000000600082015250565b7f416464726573733a2063616c6c20746f206e6f6e2d636f6e7472616374000000600082015250565b7f5361666545524332303a204552433230206f7065726174696f6e20646964206e60008201527f6f74207375636365656400000000000000000000000000000000000000000000602082015250565b7f6e6f74206f776e65720000000000000000000000000000000000000000000000600082015250565b7f647370206e6f7420616374697665000000000000000000000000000000000000600082015250565b61482e81614361565b811461483957600080fd5b50565b61484581614373565b811461485057600080fd5b50565b61485c8161437f565b811461486757600080fd5b50565b614873816143a9565b811461487e57600080fd5b5056fea26469706673582212202a9559add788e1d75f8a90b0912406dc5fdfe0c8b38f820e235dfbc0f0c82e1864736f6c63430008070033",
  "linkReferences": {},
  "deployedLinkReferences": {}
}