{
  "_format": "hh-sol-artifact-1",
  "contractName": "Nexus",
  "sourceName": "contracts/Nexus.sol",
  "abi": [
    {
      "anonymous": false,
      "inputs": [
        {
          "indexed": true,
          "internalType": "address",
          "name": "buyer",
          "type": "address"
        },
        {
          "indexed": true,
          "internalType": "address",
          "name": "consumer",
          "type": "address"
        },
        {
          "indexed": true,
          "internalType": "address",
          "name": "dsp",
          "type": "address"
        },
        {
          "indexed": false,
          "internalType": "uint256",
          "name": "amount",
          "type": "uint256"
        }
      ],
      "name": "BoughtGas",
      "type": "event"
    },
    {
      "anonymous": false,
      "inputs": [
        {
          "indexed": true,
          "internalType": "address",
          "name": "dsp",
          "type": "address"
        },
        {
          "indexed": false,
          "internalType": "uint256",
          "name": "amount",
          "type": "uint256"
        }
      ],
      "name": "ClaimedGas",
      "type": "event"
    },
    {
      "anonymous": false,
      "inputs": [
        {
          "indexed": false,
          "internalType": "uint32",
          "name": "paymentPremiumPPB",
          "type": "uint32"
        },
        {
          "indexed": false,
          "internalType": "uint16",
          "name": "gasCeilingMultiplier",
          "type": "uint16"
        },
        {
          "indexed": false,
          "internalType": "uint256",
          "name": "fallbackGasPrice",
          "type": "uint256"
        },
        {
          "indexed": false,
          "internalType": "uint24",
          "name": "stalenessSeconds",
          "type": "uint24"
        }
      ],
      "name": "ConfigSet",
      "type": "event"
    },
    {
      "anonymous": false,
      "inputs": [
        {
          "indexed": true,
          "internalType": "address",
          "name": "dsp",
          "type": "address"
        },
        {
          "indexed": false,
          "internalType": "bool",
          "name": "active",
          "type": "bool"
        },
        {
          "indexed": false,
          "internalType": "string",
          "name": "endpoint",
          "type": "string"
        }
      ],
      "name": "DSPStatusChanged",
      "type": "event"
    },
    {
      "anonymous": false,
      "inputs": [
        {
          "indexed": true,
          "internalType": "address",
          "name": "dsp",
          "type": "address"
        },
        {
          "indexed": false,
          "internalType": "string",
          "name": "image",
          "type": "string"
        },
        {
          "indexed": false,
          "internalType": "bool",
          "name": "approved",
          "type": "bool"
        }
      ],
      "name": "DockerApprovalChanged",
      "type": "event"
    },
    {
      "anonymous": false,
      "inputs": [
        {
          "indexed": true,
          "internalType": "address",
          "name": "consumer",
          "type": "address"
        },
        {
          "indexed": false,
          "internalType": "string",
          "name": "outputFS",
          "type": "string"
        },
        {
          "indexed": false,
          "internalType": "string",
          "name": "outputHash",
          "type": "string"
        },
        {
          "indexed": false,
          "internalType": "bool",
          "name": "inconsistent",
          "type": "bool"
        },
        {
          "indexed": false,
          "internalType": "uint256",
          "name": "id",
          "type": "uint256"
        }
      ],
      "name": "JobDone",
      "type": "event"
    },
    {
      "anonymous": false,
      "inputs": [
        {
          "indexed": true,
          "internalType": "address",
          "name": "consumer",
          "type": "address"
        },
        {
          "indexed": false,
          "internalType": "string",
          "name": "stdErr",
          "type": "string"
        },
        {
          "indexed": false,
          "internalType": "string",
          "name": "outputFS",
          "type": "string"
        },
        {
          "indexed": false,
          "internalType": "uint256",
          "name": "id",
          "type": "uint256"
        }
      ],
      "name": "JobError",
      "type": "event"
    },
    {
      "anonymous": false,
      "inputs": [
        {
          "indexed": true,
          "internalType": "address",
          "name": "consumer",
          "type": "address"
        },
        {
          "indexed": true,
          "internalType": "address",
          "name": "dsp",
          "type": "address"
        },
        {
          "indexed": false,
          "internalType": "string",
          "name": "outputFS",
          "type": "string"
        },
        {
          "indexed": false,
          "internalType": "string",
          "name": "outputHash",
          "type": "string"
        },
        {
          "indexed": false,
          "internalType": "uint256",
          "name": "dapps",
          "type": "uint256"
        },
        {
          "indexed": false,
          "internalType": "uint256",
          "name": "id",
          "type": "uint256"
        }
      ],
      "name": "JobResult",
      "type": "event"
    },
    {
      "anonymous": false,
      "inputs": [
        {
          "indexed": true,
          "internalType": "address",
          "name": "consumer",
          "type": "address"
        },
        {
          "indexed": false,
          "internalType": "uint256",
          "name": "id",
          "type": "uint256"
        }
      ],
      "name": "Kill",
      "type": "event"
    },
    {
      "anonymous": false,
      "inputs": [
        {
          "indexed": true,
          "internalType": "address",
          "name": "previousOwner",
          "type": "address"
        },
        {
          "indexed": true,
          "internalType": "address",
          "name": "newOwner",
          "type": "address"
        }
      ],
      "name": "OwnershipTransferred",
      "type": "event"
    },
    {
      "anonymous": false,
      "inputs": [
        {
          "indexed": true,
          "internalType": "address",
          "name": "consumer",
          "type": "address"
        },
        {
          "indexed": true,
          "internalType": "address",
          "name": "owner",
          "type": "address"
        },
        {
          "indexed": false,
          "internalType": "string",
          "name": "imageName",
          "type": "string"
        },
        {
          "indexed": false,
          "internalType": "uint256",
          "name": "id",
          "type": "uint256"
        },
        {
          "indexed": false,
          "internalType": "string",
          "name": "inputFS",
          "type": "string"
        },
        {
          "indexed": false,
          "internalType": "string[]",
          "name": "args",
          "type": "string[]"
        }
      ],
      "name": "QueueJob",
      "type": "event"
    },
    {
      "anonymous": false,
      "inputs": [
        {
          "indexed": true,
          "internalType": "address",
          "name": "consumer",
          "type": "address"
        },
        {
          "indexed": true,
          "internalType": "address",
          "name": "owner",
          "type": "address"
        },
        {
          "indexed": false,
          "internalType": "string",
          "name": "imageName",
          "type": "string"
        },
        {
          "indexed": false,
          "internalType": "uint256",
          "name": "ioMegaBytes",
          "type": "uint256"
        },
        {
          "indexed": false,
          "internalType": "uint256",
          "name": "storageMegaBytes",
          "type": "uint256"
        },
        {
          "indexed": false,
          "internalType": "uint256",
          "name": "id",
          "type": "uint256"
        },
        {
          "indexed": false,
          "internalType": "string",
          "name": "inputFS",
          "type": "string"
        },
        {
          "indexed": false,
          "internalType": "string[]",
          "name": "args",
          "type": "string[]"
        }
      ],
      "name": "QueueService",
      "type": "event"
    },
    {
      "anonymous": false,
      "inputs": [
        {
          "indexed": true,
          "internalType": "address",
          "name": "consumer",
          "type": "address"
        },
        {
          "indexed": true,
          "internalType": "address",
          "name": "dsp",
          "type": "address"
        },
        {
          "indexed": false,
          "internalType": "string",
          "name": "outputFS",
          "type": "string"
        },
        {
          "indexed": false,
          "internalType": "uint256",
          "name": "id",
          "type": "uint256"
        }
      ],
      "name": "ServiceComplete",
      "type": "event"
    },
    {
      "anonymous": false,
      "inputs": [
        {
          "indexed": true,
          "internalType": "address",
          "name": "consumer",
          "type": "address"
        },
        {
          "indexed": true,
          "internalType": "address",
          "name": "dsp",
          "type": "address"
        },
        {
          "indexed": false,
          "internalType": "string",
          "name": "stdErr",
          "type": "string"
        },
        {
          "indexed": false,
          "internalType": "string",
          "name": "outputFS",
          "type": "string"
        },
        {
          "indexed": false,
          "internalType": "uint256",
          "name": "id",
          "type": "uint256"
        }
      ],
      "name": "ServiceError",
      "type": "event"
    },
    {
      "anonymous": false,
      "inputs": [
        {
          "indexed": true,
          "internalType": "address",
          "name": "consumer",
          "type": "address"
        },
        {
          "indexed": true,
          "internalType": "address",
          "name": "dsp",
          "type": "address"
        },
        {
          "indexed": false,
          "internalType": "uint256",
          "name": "id",
          "type": "uint256"
        },
        {
          "indexed": false,
          "internalType": "uint256",
          "name": "ioMegaBytes",
          "type": "uint256"
        },
        {
          "indexed": false,
          "internalType": "uint256",
          "name": "storageMegaBytes",
          "type": "uint256"
        },
        {
          "indexed": false,
          "internalType": "uint256",
          "name": "endDate",
          "type": "uint256"
        }
      ],
      "name": "ServiceExtended",
      "type": "event"
    },
    {
      "anonymous": false,
      "inputs": [
        {
          "indexed": true,
          "internalType": "address",
          "name": "consumer",
          "type": "address"
        },
        {
          "indexed": true,
          "internalType": "address",
          "name": "dsp",
          "type": "address"
        },
        {
          "indexed": false,
          "internalType": "uint256",
          "name": "id",
          "type": "uint256"
        },
        {
          "indexed": false,
          "internalType": "uint256",
          "name": "port",
          "type": "uint256"
        }
      ],
      "name": "ServiceRunning",
      "type": "event"
    },
    {
      "anonymous": false,
      "inputs": [
        {
          "indexed": true,
          "internalType": "address",
          "name": "consumer",
          "type": "address"
        },
        {
          "indexed": true,
          "internalType": "address",
          "name": "dsp",
          "type": "address"
        },
        {
          "indexed": false,
          "internalType": "uint256",
          "name": "amount",
          "type": "uint256"
        }
      ],
      "name": "SoldGas",
      "type": "event"
    },
    {
      "anonymous": false,
      "inputs": [
        {
          "indexed": false,
          "internalType": "address",
          "name": "consumer",
          "type": "address"
        },
        {
          "indexed": false,
          "internalType": "address[]",
          "name": "dsps",
          "type": "address[]"
        }
      ],
      "name": "UpdateDsps",
      "type": "event"
    },
    {
      "anonymous": false,
      "inputs": [
        {
          "indexed": true,
          "internalType": "address",
          "name": "consumer",
          "type": "address"
        },
        {
          "indexed": true,
          "internalType": "address",
          "name": "dsp",
          "type": "address"
        },
        {
          "indexed": false,
          "internalType": "uint256",
          "name": "amount",
          "type": "uint256"
        }
      ],
      "name": "UsedGas",
      "type": "event"
    },
    {
      "inputs": [],
      "name": "FAST_GAS_FEED",
      "outputs": [
        {
          "internalType": "contract AggregatorV3Interface",
          "name": "",
          "type": "address"
        }
      ],
      "stateMutability": "view",
      "type": "function"
    },
    {
      "inputs": [
        {
          "internalType": "string",
          "name": "imageName",
          "type": "string"
        },
        {
          "internalType": "string",
          "name": "imageHash",
          "type": "string"
        }
      ],
      "name": "approveImage",
      "outputs": [],
      "stateMutability": "nonpayable",
      "type": "function"
    },
    {
      "inputs": [
        {
          "internalType": "string",
          "name": "",
          "type": "string"
        }
      ],
      "name": "approvedImages",
      "outputs": [
        {
          "internalType": "string",
          "name": "",
          "type": "string"
        }
      ],
      "stateMutability": "view",
      "type": "function"
    },
    {
      "inputs": [],
      "name": "bancorNetwork",
      "outputs": [
        {
          "internalType": "contract IBancorNetwork",
          "name": "",
          "type": "address"
        }
      ],
      "stateMutability": "view",
      "type": "function"
    },
    {
      "inputs": [
        {
          "internalType": "uint256",
          "name": "_amount",
          "type": "uint256"
        },
        {
          "internalType": "address",
          "name": "_consumer",
          "type": "address"
        },
        {
          "internalType": "address",
          "name": "_dsp",
          "type": "address"
        }
      ],
      "name": "buyGasFor",
      "outputs": [],
      "stateMutability": "nonpayable",
      "type": "function"
    },
    {
      "inputs": [],
      "name": "claim",
      "outputs": [],
      "stateMutability": "nonpayable",
      "type": "function"
    },
    {
      "inputs": [
        {
          "internalType": "address",
          "name": "",
          "type": "address"
        }
      ],
      "name": "contracts",
      "outputs": [
        {
          "internalType": "address",
          "name": "",
          "type": "address"
        }
      ],
      "stateMutability": "view",
      "type": "function"
    },
    {
      "inputs": [],
      "name": "deprecateDSP",
      "outputs": [],
      "stateMutability": "nonpayable",
      "type": "function"
    },
    {
      "inputs": [
        {
          "internalType": "address",
          "name": "",
          "type": "address"
        },
        {
          "internalType": "string",
          "name": "",
          "type": "string"
        }
      ],
      "name": "dspApprovedImages",
      "outputs": [
        {
          "internalType": "uint256",
          "name": "jobFee",
          "type": "uint256"
        },
        {
          "internalType": "uint256",
          "name": "baseFee",
          "type": "uint256"
        },
        {
          "internalType": "uint256",
          "name": "storageFee",
          "type": "uint256"
        },
        {
          "internalType": "uint256",
          "name": "ioFee",
          "type": "uint256"
        },
        {
          "internalType": "uint256",
          "name": "minStorageMegaBytes",
          "type": "uint256"
        },
        {
          "internalType": "uint256",
          "name": "minIoMegaBytes",
          "type": "uint256"
        }
      ],
      "stateMutability": "view",
      "type": "function"
    },
    {
      "inputs": [
        {
          "internalType": "address",
          "name": "",
          "type": "address"
        },
        {
          "internalType": "address",
          "name": "",
          "type": "address"
        }
      ],
      "name": "dspData",
      "outputs": [
        {
          "internalType": "uint256",
          "name": "amount",
          "type": "uint256"
        },
        {
          "internalType": "uint256",
          "name": "claimable",
          "type": "uint256"
        }
      ],
      "stateMutability": "view",
      "type": "function"
    },
    {
      "inputs": [
        {
          "internalType": "uint256",
          "name": "",
          "type": "uint256"
        }
      ],
      "name": "dspList",
      "outputs": [
        {
          "internalType": "address",
          "name": "",
          "type": "address"
        }
      ],
      "stateMutability": "view",
      "type": "function"
    },
    {
      "inputs": [
        {
          "internalType": "uint256",
          "name": "serviceId",
          "type": "uint256"
        },
        {
          "internalType": "string",
          "name": "imageName",
          "type": "string"
        },
        {
          "internalType": "uint256",
          "name": "months",
          "type": "uint256"
        },
        {
          "internalType": "uint256",
          "name": "ioMb",
          "type": "uint256"
        },
        {
          "internalType": "uint256",
          "name": "storageMb",
          "type": "uint256"
        }
      ],
      "name": "extendService",
      "outputs": [],
      "stateMutability": "nonpayable",
      "type": "function"
    },
    {
      "inputs": [],
      "name": "gasPerTimeUnit",
      "outputs": [
        {
          "internalType": "uint256",
          "name": "",
          "type": "uint256"
        }
      ],
      "stateMutability": "view",
      "type": "function"
    },
    {
      "inputs": [],
      "name": "getConfig",
      "outputs": [
        {
          "internalType": "uint32",
          "name": "paymentPremiumPPB",
          "type": "uint32"
        },
        {
          "internalType": "uint24",
          "name": "stalenessSeconds",
          "type": "uint24"
        },
        {
          "internalType": "uint16",
          "name": "gasCeilingMultiplier",
          "type": "uint16"
        },
        {
          "internalType": "uint256",
          "name": "fallbackGasPrice",
          "type": "uint256"
        }
      ],
      "stateMutability": "view",
      "type": "function"
    },
    {
      "inputs": [
        {
          "internalType": "address",
          "name": "account",
          "type": "address"
        },
        {
          "internalType": "address",
          "name": "dsp",
          "type": "address"
        }
      ],
      "name": "getDSPAmount",
      "outputs": [
        {
          "internalType": "uint256",
          "name": "",
          "type": "uint256"
        }
      ],
      "stateMutability": "view",
      "type": "function"
    },
    {
      "inputs": [
        {
          "internalType": "uint256",
          "name": "id",
          "type": "uint256"
        },
        {
          "internalType": "address",
          "name": "dsp",
          "type": "address"
        }
      ],
      "name": "getDSPDataLimits",
      "outputs": [
        {
          "components": [
            {
              "internalType": "uint256",
              "name": "ioMegaBytesLimit",
              "type": "uint256"
            },
            {
              "internalType": "uint256",
              "name": "storageMegaBytesLimit",
              "type": "uint256"
            }
          ],
          "internalType": "struct Nexus.DspLimits",
          "name": "",
          "type": "tuple"
        }
      ],
      "stateMutability": "view",
      "type": "function"
    },
    {
      "inputs": [
        {
          "internalType": "address",
          "name": "dsp",
          "type": "address"
        }
      ],
      "name": "getDSPEndpoint",
      "outputs": [
        {
          "internalType": "string",
          "name": "",
          "type": "string"
        }
      ],
      "stateMutability": "view",
      "type": "function"
    },
    {
      "inputs": [],
      "name": "getDspAddresses",
      "outputs": [
        {
          "internalType": "address[]",
          "name": "",
          "type": "address[]"
        }
      ],
      "stateMutability": "view",
      "type": "function"
    },
    {
      "inputs": [
        {
          "internalType": "uint256",
          "name": "gasLimit",
          "type": "uint256"
        },
        {
          "internalType": "string",
          "name": "imageName",
          "type": "string"
        },
        {
          "internalType": "address",
          "name": "dsp",
          "type": "address"
        }
      ],
      "name": "getMaxPaymentForGas",
      "outputs": [
        {
          "internalType": "uint256",
          "name": "maxPayment",
          "type": "uint256"
        }
      ],
      "stateMutability": "view",
      "type": "function"
    },
    {
      "inputs": [
        {
          "internalType": "uint256",
          "name": "id",
          "type": "uint256"
        },
        {
          "internalType": "string",
          "name": "jobType",
          "type": "string"
        },
        {
          "internalType": "address",
          "name": "dsp",
          "type": "address"
        }
      ],
      "name": "getMinBalance",
      "outputs": [
        {
          "internalType": "uint256",
          "name": "",
          "type": "uint256"
        }
      ],
      "stateMutability": "view",
      "type": "function"
    },
    {
      "inputs": [
        {
          "internalType": "uint256",
          "name": "jobID",
          "type": "uint256"
        },
        {
          "internalType": "address",
          "name": "dsp",
          "type": "address"
        }
      ],
      "name": "getPortForDSP",
      "outputs": [
        {
          "internalType": "uint256",
          "name": "",
          "type": "uint256"
        }
      ],
      "stateMutability": "view",
      "type": "function"
    },
    {
      "inputs": [
        {
          "components": [
            {
              "internalType": "address",
              "name": "_tokenContract",
              "type": "address"
            },
            {
              "internalType": "address",
              "name": "_bancorNetwork",
              "type": "address"
            },
            {
              "internalType": "address",
              "name": "_fastGasFeed",
              "type": "address"
            },
            {
              "internalType": "uint32",
              "name": "_paymentPremiumPPB",
              "type": "uint32"
            },
            {
              "internalType": "uint24",
              "name": "_stalenessSeconds",
              "type": "uint24"
            },
            {
              "internalType": "uint256",
              "name": "_fallbackGasPrice",
              "type": "uint256"
            },
            {
              "internalType": "uint16",
              "name": "_gasCeilingMultiplier",
              "type": "uint16"
            },
            {
              "internalType": "address",
              "name": "_dappToken",
              "type": "address"
            },
            {
              "internalType": "address",
              "name": "_dappBntToken",
              "type": "address"
            },
            {
              "internalType": "address",
              "name": "_bntToken",
              "type": "address"
            },
            {
              "internalType": "address",
              "name": "_ethBntToken",
              "type": "address"
            },
            {
              "internalType": "address",
              "name": "_ethToken",
              "type": "address"
            },
            {
              "internalType": "uint256",
              "name": "_gasPerTimeUnit",
              "type": "uint256"
            },
            {
              "internalType": "uint256",
              "name": "_usdtPrecision",
              "type": "uint256"
            },
            {
              "internalType": "address",
              "name": "_usdtToken",
              "type": "address"
            },
            {
              "internalType": "address",
              "name": "_usdtBntToken",
              "type": "address"
            }
          ],
          "internalType": "struct Nexus.initArgs",
          "name": "args",
          "type": "tuple"
        }
      ],
      "name": "initialize",
      "outputs": [],
      "stateMutability": "nonpayable",
      "type": "function"
    },
    {
      "inputs": [
        {
          "internalType": "address",
          "name": "dsp",
          "type": "address"
        },
        {
          "internalType": "string",
          "name": "imageName",
          "type": "string"
        }
      ],
      "name": "isImageApprovedForDSP",
      "outputs": [
        {
          "internalType": "bool",
          "name": "",
          "type": "bool"
        }
      ],
      "stateMutability": "view",
      "type": "function"
    },
    {
      "inputs": [
        {
          "internalType": "uint256",
          "name": "id",
          "type": "uint256"
        }
      ],
      "name": "isServiceDone",
      "outputs": [
        {
          "internalType": "bool",
          "name": "",
          "type": "bool"
        }
      ],
      "stateMutability": "view",
      "type": "function"
    },
    {
      "inputs": [
        {
          "components": [
            {
              "internalType": "uint256",
              "name": "jobID",
              "type": "uint256"
            },
            {
              "internalType": "string",
              "name": "outputFS",
              "type": "string"
            },
            {
              "internalType": "string",
              "name": "outputHash",
              "type": "string"
            }
          ],
          "internalType": "struct Nexus.jobCallbackArgs",
          "name": "args",
          "type": "tuple"
        }
      ],
      "name": "jobCallback",
      "outputs": [],
      "stateMutability": "nonpayable",
      "type": "function"
    },
    {
      "inputs": [
        {
          "internalType": "uint256",
          "name": "jobID",
          "type": "uint256"
        },
        {
          "internalType": "string",
          "name": "stdErr",
          "type": "string"
        },
        {
          "internalType": "string",
          "name": "outputFS",
          "type": "string"
        }
      ],
      "name": "jobError",
      "outputs": [],
      "stateMutability": "nonpayable",
      "type": "function"
    },
    {
      "inputs": [
        {
          "internalType": "uint256",
          "name": "id",
          "type": "uint256"
        },
        {
          "internalType": "address",
          "name": "dsp",
          "type": "address"
        },
        {
          "internalType": "bool",
          "name": "isJob",
          "type": "bool"
        }
      ],
      "name": "jobServiceCompleted",
      "outputs": [
        {
          "internalType": "bool",
          "name": "",
          "type": "bool"
        }
      ],
      "stateMutability": "view",
      "type": "function"
    },
    {
      "inputs": [
        {
          "internalType": "uint256",
          "name": "",
          "type": "uint256"
        }
      ],
      "name": "jobs",
      "outputs": [
        {
          "internalType": "address",
          "name": "consumer",
          "type": "address"
        },
        {
          "internalType": "address",
          "name": "owner",
          "type": "address"
        },
        {
          "internalType": "bool",
          "name": "callback",
          "type": "bool"
        },
        {
          "internalType": "uint256",
          "name": "resultsCount",
          "type": "uint256"
        },
        {
          "internalType": "string",
          "name": "imageName",
          "type": "string"
        },
        {
          "internalType": "uint256",
          "name": "gasLimit",
          "type": "uint256"
        },
        {
          "internalType": "bool",
          "name": "requireConsistent",
          "type": "bool"
        }
      ],
      "stateMutability": "view",
      "type": "function"
    },
    {
      "inputs": [],
      "name": "lastJobID",
      "outputs": [
        {
          "internalType": "uint256",
          "name": "",
          "type": "uint256"
        }
      ],
      "stateMutability": "view",
      "type": "function"
    },
    {
      "inputs": [],
      "name": "owner",
      "outputs": [
        {
          "internalType": "address",
          "name": "",
          "type": "address"
        }
      ],
      "stateMutability": "view",
      "type": "function"
    },
    {
      "inputs": [
        {
          "internalType": "address",
          "name": "",
          "type": "address"
        },
        {
          "internalType": "uint256",
          "name": "",
          "type": "uint256"
        }
      ],
      "name": "providers",
      "outputs": [
        {
          "internalType": "address",
          "name": "",
          "type": "address"
        }
      ],
      "stateMutability": "view",
      "type": "function"
    },
    {
      "inputs": [
        {
          "components": [
            {
              "internalType": "address",
              "name": "owner",
              "type": "address"
            },
            {
              "internalType": "string",
              "name": "imageName",
              "type": "string"
            },
            {
              "internalType": "string",
              "name": "inputFS",
              "type": "string"
            },
            {
              "internalType": "bool",
              "name": "callback",
              "type": "bool"
            },
            {
              "internalType": "uint256",
              "name": "gasLimit",
              "type": "uint256"
            },
            {
              "internalType": "bool",
              "name": "requireConsistent",
              "type": "bool"
            },
            {
              "internalType": "string[]",
              "name": "args",
              "type": "string[]"
            }
          ],
          "internalType": "struct Nexus.queueJobArgs",
          "name": "args",
          "type": "tuple"
        }
      ],
      "name": "queueJob",
      "outputs": [],
      "stateMutability": "nonpayable",
      "type": "function"
    },
    {
      "inputs": [
        {
          "components": [
            {
              "internalType": "address",
              "name": "owner",
              "type": "address"
            },
            {
              "internalType": "string",
              "name": "imageName",
              "type": "string"
            },
            {
              "internalType": "uint256",
              "name": "ioMegaBytes",
              "type": "uint256"
            },
            {
              "internalType": "uint256",
              "name": "storageMegaBytes",
              "type": "uint256"
            },
            {
              "internalType": "string",
              "name": "inputFS",
              "type": "string"
            },
            {
              "internalType": "string[]",
              "name": "args",
              "type": "string[]"
            },
            {
              "internalType": "uint256",
              "name": "months",
              "type": "uint256"
            }
          ],
          "internalType": "struct Nexus.queueServiceArgs",
          "name": "args",
          "type": "tuple"
        }
      ],
      "name": "queueService",
      "outputs": [],
      "stateMutability": "nonpayable",
      "type": "function"
    },
    {
      "inputs": [
        {
          "internalType": "string",
          "name": "endpoint",
          "type": "string"
        }
      ],
      "name": "regDSP",
      "outputs": [],
      "stateMutability": "nonpayable",
      "type": "function"
    },
    {
      "inputs": [
        {
          "internalType": "address",
          "name": "",
          "type": "address"
        }
      ],
      "name": "registeredDSPs",
      "outputs": [
        {
          "internalType": "bool",
          "name": "active",
          "type": "bool"
        },
        {
          "internalType": "string",
          "name": "endpoint",
          "type": "string"
        },
        {
          "internalType": "uint256",
          "name": "claimableDapp",
          "type": "uint256"
        }
      ],
      "stateMutability": "view",
      "type": "function"
    },
    {
      "inputs": [],
      "name": "renounceOwnership",
      "outputs": [],
      "stateMutability": "nonpayable",
      "type": "function"
    },
    {
      "inputs": [
        {
          "internalType": "uint256",
          "name": "_amountToSell",
          "type": "uint256"
        },
        {
          "internalType": "address",
          "name": "_dsp",
          "type": "address"
        }
      ],
      "name": "sellGas",
      "outputs": [],
      "stateMutability": "nonpayable",
      "type": "function"
    },
    {
      "inputs": [
        {
          "internalType": "uint256",
          "name": "serviceId",
          "type": "uint256"
        },
        {
          "internalType": "uint256",
          "name": "port",
          "type": "uint256"
        }
      ],
      "name": "serviceCallback",
      "outputs": [],
      "stateMutability": "nonpayable",
      "type": "function"
    },
    {
      "inputs": [
        {
          "components": [
            {
              "internalType": "uint256",
              "name": "jobID",
              "type": "uint256"
            },
            {
              "internalType": "string",
              "name": "outputFS",
              "type": "string"
            },
            {
              "internalType": "uint256",
              "name": "ioMegaBytesUsed",
              "type": "uint256"
            },
            {
              "internalType": "uint256",
              "name": "storageMegaBytesUsed",
              "type": "uint256"
            }
          ],
          "internalType": "struct Nexus.serviceCompleteArgs",
          "name": "args",
          "type": "tuple"
        }
      ],
      "name": "serviceComplete",
      "outputs": [],
      "stateMutability": "nonpayable",
      "type": "function"
    },
    {
      "inputs": [
        {
          "components": [
            {
              "internalType": "uint256",
              "name": "jobID",
              "type": "uint256"
            },
            {
              "internalType": "string",
              "name": "stdErr",
              "type": "string"
            },
            {
              "internalType": "string",
              "name": "outputFS",
              "type": "string"
            },
            {
              "internalType": "uint256",
              "name": "ioMegaBytesUsed",
              "type": "uint256"
            },
            {
              "internalType": "uint256",
              "name": "storageMegaBytesUsed",
              "type": "uint256"
            }
          ],
          "internalType": "struct Nexus.serviceErrorArgs",
          "name": "args",
          "type": "tuple"
        }
      ],
      "name": "serviceError",
      "outputs": [],
      "stateMutability": "nonpayable",
      "type": "function"
    },
    {
      "inputs": [
        {
          "internalType": "uint256",
          "name": "",
          "type": "uint256"
        }
      ],
      "name": "services",
      "outputs": [
        {
          "internalType": "address",
          "name": "consumer",
          "type": "address"
        },
        {
          "internalType": "address",
          "name": "owner",
          "type": "address"
        },
        {
          "internalType": "string",
          "name": "imageName",
          "type": "string"
        },
        {
          "internalType": "bool",
          "name": "started",
          "type": "bool"
        },
        {
          "internalType": "uint256",
          "name": "endDate",
          "type": "uint256"
        },
        {
          "internalType": "uint256",
          "name": "months",
          "type": "uint256"
        },
        {
          "internalType": "uint256",
          "name": "ioMegaBytes",
          "type": "uint256"
        },
        {
          "internalType": "uint256",
          "name": "storageMegaBytes",
          "type": "uint256"
        }
      ],
      "stateMutability": "view",
      "type": "function"
    },
    {
      "inputs": [
        {
          "internalType": "uint32",
          "name": "paymentPremiumPPB",
          "type": "uint32"
        },
        {
          "internalType": "uint16",
          "name": "gasCeilingMultiplier",
          "type": "uint16"
        },
        {
          "internalType": "uint256",
          "name": "fallbackGasPrice",
          "type": "uint256"
        },
        {
          "internalType": "uint24",
          "name": "stalenessSeconds",
          "type": "uint24"
        }
      ],
      "name": "setConfig",
      "outputs": [],
      "stateMutability": "nonpayable",
      "type": "function"
    },
    {
      "inputs": [
        {
          "internalType": "address",
          "name": "authorized_contract",
          "type": "address"
        }
      ],
      "name": "setConsumerContract",
      "outputs": [],
      "stateMutability": "nonpayable",
      "type": "function"
    },
    {
      "inputs": [
        {
          "internalType": "string",
          "name": "imageName",
          "type": "string"
        },
        {
          "internalType": "uint256",
          "name": "jobFee",
          "type": "uint256"
        },
        {
          "internalType": "uint256",
          "name": "baseFee",
          "type": "uint256"
        },
        {
          "internalType": "uint256",
          "name": "storageFee",
          "type": "uint256"
        },
        {
          "internalType": "uint256",
          "name": "ioFee",
          "type": "uint256"
        },
        {
          "internalType": "uint256",
          "name": "minStorageMegaBytes",
          "type": "uint256"
        },
        {
          "internalType": "uint256",
          "name": "minIoMegaBytes",
          "type": "uint256"
        }
      ],
      "name": "setDockerImage",
      "outputs": [],
      "stateMutability": "nonpayable",
      "type": "function"
    },
    {
      "inputs": [
        {
          "internalType": "address[]",
          "name": "dsps",
          "type": "address[]"
        }
      ],
      "name": "setDsps",
      "outputs": [],
      "stateMutability": "nonpayable",
      "type": "function"
    },
    {
      "inputs": [],
      "name": "token",
      "outputs": [
        {
          "internalType": "contract IERC20Upgradeable",
          "name": "",
          "type": "address"
        }
      ],
      "stateMutability": "view",
      "type": "function"
    },
    {
      "inputs": [],
      "name": "totalDappGasPaid",
      "outputs": [
        {
          "internalType": "uint256",
          "name": "",
          "type": "uint256"
        }
      ],
      "stateMutability": "view",
      "type": "function"
    },
    {
      "inputs": [],
      "name": "totalDsps",
      "outputs": [
        {
          "internalType": "uint256",
          "name": "",
          "type": "uint256"
        }
      ],
      "stateMutability": "view",
      "type": "function"
    },
    {
      "inputs": [
        {
          "internalType": "address",
          "name": "newOwner",
          "type": "address"
        }
      ],
      "name": "transferOwnership",
      "outputs": [],
      "stateMutability": "nonpayable",
      "type": "function"
    },
    {
      "inputs": [
        {
          "internalType": "string",
          "name": "imageName",
          "type": "string"
        }
      ],
      "name": "unapproveDockerForDSP",
      "outputs": [],
      "stateMutability": "nonpayable",
      "type": "function"
    },
    {
      "inputs": [
        {
          "internalType": "string",
          "name": "imageName",
          "type": "string"
        },
        {
          "internalType": "string",
          "name": "imageHash",
          "type": "string"
        }
      ],
      "name": "unapproveImage",
      "outputs": [],
      "stateMutability": "nonpayable",
      "type": "function"
    },
    {
      "inputs": [
        {
          "internalType": "string",
          "name": "imageName",
          "type": "string"
        },
        {
          "internalType": "uint256",
          "name": "jobFee",
          "type": "uint256"
        },
        {
          "internalType": "uint256",
          "name": "baseFee",
          "type": "uint256"
        },
        {
          "internalType": "uint256",
          "name": "storageFee",
          "type": "uint256"
        },
        {
          "internalType": "uint256",
          "name": "ioFee",
          "type": "uint256"
        },
        {
          "internalType": "uint256",
          "name": "minStorageMegaBytes",
          "type": "uint256"
        },
        {
          "internalType": "uint256",
          "name": "minIoMegaBytes",
          "type": "uint256"
        }
      ],
      "name": "updateDockerImage",
      "outputs": [],
      "stateMutability": "nonpayable",
      "type": "function"
    },
    {
      "inputs": [],
      "name": "usdtPrecision",
      "outputs": [
        {
          "internalType": "uint256",
          "name": "",
          "type": "uint256"
        }
      ],
      "stateMutability": "view",
      "type": "function"
    },
    {
      "inputs": [
        {
          "internalType": "address[]",
          "name": "dsps",
          "type": "address[]"
        }
      ],
      "name": "validateActiveDsps",
      "outputs": [],
      "stateMutability": "view",
      "type": "function"
    },
    {
      "inputs": [
        {
          "internalType": "uint256",
          "name": "ioMegaBytes",
          "type": "uint256"
        },
        {
          "internalType": "uint256",
          "name": "storageMegaBytes",
          "type": "uint256"
        },
        {
          "internalType": "string",
          "name": "imageName",
          "type": "string"
        },
        {
          "internalType": "uint256",
          "name": "months",
          "type": "uint256"
        },
        {
          "internalType": "address",
          "name": "dsp",
          "type": "address"
        }
      ],
      "name": "validateMin",
      "outputs": [],
      "stateMutability": "view",
      "type": "function"
    }
  ],
  "bytecode": "0x608060405234801561001057600080fd5b50615e8180620000216000396000f3fe608060405234801561001057600080fd5b506004361061035d5760003560e01c80637ee10340116101d3578063a4edb25e11610104578063c22c4f43116100a2578063d7ae9e271161007c578063d7ae9e271461091a578063f16cfbfe1461092d578063f2fde38b14610974578063fc0c546a1461098757600080fd5b8063c22c4f4314610880578063c3f909d4146108a7578063c7e5fea11461090757600080fd5b8063b1418b96116100de578063b1418b961461082f578063b72d49a814610838578063b7b7eed91461084b578063be27aee61461085e57600080fd5b8063a4edb25e14610800578063aa4bfddb14610813578063ada604a31461082657600080fd5b8063967b58ff116101715780639d82f1191161014b5780639d82f119146107bf5780639ec9271b146107c7578063a362b1fc146107da578063a4859f14146107ed57600080fd5b8063967b58ff1461078657806396c23b471461079957806398873109146107ac57600080fd5b806387f3a277116101ad57806387f3a277146106f35780638da5cb5b1461072857806394070a661461073957806394fec9981461077357600080fd5b80637ee103401461064957806380e263ac146106cd578063812d4f87146106e057600080fd5b80634b0b284d116102ad57806365edac3d1161024b5780636d969c09116102255780636d969c09146105f0578063715018a6146106055780637ca7e2661461060d5780637d1d56d01461062057600080fd5b806365edac3d146105a1578063697d2cee146105b457806369dc9ff3146105c757600080fd5b8063576873321161028757806357687332146105555780635bb680bf146105685780635f044a471461057b578063655af2f31461058e57600080fd5b80634b0b284d146105315780634e71d92d146105445780634e9770891461054c57600080fd5b8063213da8c81161031a57806333cda060116102f457806333cda060146104545780633b042d5b146104e05780634377ed44146104f35780634584a4191461050657600080fd5b8063213da8c8146103f5578063319c7eb11461040857806331f8c2d71461041b57600080fd5b806303e7344b146103625780630c43cf03146103775780630fa0f00d14610393578063155119e1146103a6578063180aedf3146103af5780631969b3e1146103d5575b600080fd5b610375610370366004614c62565b61099a565b005b61038060ab5481565b6040519081526020015b60405180910390f35b6103756103a1366004614d09565b610aac565b61038060ac5481565b6103c26103bd366004614d56565b610b7b565b60405161038a9796959493929190614dc7565b6103e86103e3366004614efb565b610c55565b60405161038a9190614f2f565b610375610403366004614f42565b610cfa565b610375610416366004614fad565b610d92565b610380610429366004614fd9565b6001600160a01b03918216600090815260a46020908152604080832093909416825291909152205490565b6104b3610462366004615003565b60aa6020908152600092835260409092208151808301840180519281529084019290930191909120915280546001820154600283015460038401546004850154600590950154939492939192909186565b604080519687526020870195909552938501929092526060840152608083015260a082015260c00161038a565b6103756104ee366004615050565b610ec3565b6103806105013660046150c2565b61111c565b609954610519906001600160a01b031681565b6040516001600160a01b03909116815260200161038a565b61037561053f366004615118565b6112f4565b610375611521565b61038060ad5481565b610375610563366004615164565b6115eb565b610375610576366004615164565b6119e1565b6103e8610589366004615198565b611c93565b61037561059c366004615198565b611d42565b6103756105af366004614f42565b611dd1565b6103756105c23660046151b3565b611e6c565b6105196105d5366004615198565b60a6602052600090815260409020546001600160a01b031681565b6105f8611f8a565b60405161038a919061522a565b610375612040565b61037561061b36600461523d565b612076565b61051961062e366004614d56565b60ae602052600090815260409020546001600160a01b031681565b6106b2610657366004614fad565b604080518082018252600080825260209182018190528251808401845294815260a882528281206001600160a01b03949094168082526009909401808352928120600181015486529390529081526002909101549082015290565b6040805182518152602092830151928101929092520161038a565b6103756106db3660046152b1565b61210c565b6103756106ee366004615050565b612338565b610718610701366004614d56565b600090815260a86020526040902060050154421190565b604051901515815260200161038a565b6033546001600160a01b0316610519565b610380610747366004614fad565b600082815260a8602090815260408083206001600160a01b038516845260090190915290205492915050565b61037561078136600461532a565b6124fb565b610718610794366004615364565b612794565b6103756107a73660046153b6565b6127d9565b6103756107ba3660046153f7565b612878565b610375612a08565b6103756107d5366004615516565b612b41565b6103756107e836600461557b565b612f9c565b6103756107fb3660046153b6565b613263565b609854610519906001600160a01b031681565b61051961082136600461559d565b613385565b610380609f5481565b61038060a05481565b6107186108463660046155d5565b6133bd565b6103806108593660046150c2565b613549565b61087161086c366004615198565b61355e565b60405161038a93929190615615565b61089361088e366004614d56565b61360d565b60405161038a989796959493929190615640565b604080516060808201835260af5463ffffffff8116808452640100000000820461ffff166020808601829052600160301b90930462ffffff1694860185905260b0548651928352928201949094529384019290925282015260800161038a565b610375610915366004615699565b6136e8565b6103756109283660046156d3565b613a78565b61095f61093b366004614fd9565b60a46020908152600092835260408084209091529082529020805460019091015482565b6040805192835260208301919091520161038a565b610375610982366004615198565b613b2d565b609754610519906001600160a01b031681565b6001600160a01b038116600090815260aa60205260409081902090518391906109c6908790879061577f565b9081526020016040518091039020600501546109e291906157a5565b861015610a1f5760405162461bcd60e51b81526020600482015260066024820152656d696e20696f60d01b60448201526064015b60405180910390fd5b6001600160a01b038116600090815260aa6020526040908190209051839190610a4b908790879061577f565b908152602001604051809103902060040154610a6791906157a5565b851015610aa45760405162461bcd60e51b815260206004820152600b60248201526a6d696e2073746f7261676560a81b6044820152606401610a16565b505050505050565b6033546001600160a01b03163314610ad65760405162461bcd60e51b8152600401610a16906157c4565b604080516060808201835263ffffffff871680835261ffff8716602080850182905262ffffff871694860185905260af805465ffffffffffff1916841764010000000084021768ffffff0000000000001916600160301b870217905560b088905585519283528201529283018590528201527f8a8fca58ff702c815d540a34188b15180d1b8b31ffc4cfc6792ce2bdb07a73c89060800160405180910390a150505050565b60a760205260009081526040902080546001820154600383015460048401546005850180546001600160a01b0395861696949095169460ff909316939192610bc2906157f9565b80601f0160208091040260200160405190810160405280929190818152602001828054610bee906157f9565b8015610c3b5780601f10610c1057610100808354040283529160200191610c3b565b820191906000526020600020905b815481529060010190602001808311610c1e57829003601f168201915b50505050600683015460079093015491929160ff16905087565b805160208183018101805160a98252928201919093012091528054610c79906157f9565b80601f0160208091040260200160405190810160405280929190818152602001828054610ca5906157f9565b8015610cf25780601f10610cc757610100808354040283529160200191610cf2565b820191906000526020600020905b815481529060010190602001808311610cd557829003601f168201915b505050505081565b6033546001600160a01b03163314610d245760405162461bcd60e51b8152600401610a16906157c4565b80610d605760405162461bcd60e51b815260206004820152600c60248201526b0d2dcecc2d8d2c840d0c2e6d60a31b6044820152606401610a16565b60a98484604051610d7292919061577f565b90815260200160405180910390206000610d8c9190614a64565b50505050565b60026065541415610db55760405162461bcd60e51b8152600401610a169061582e565b600260655533600081815260a4602090815260408083206001600160a01b0386168452909152902054831115610e195760405162461bcd60e51b815260206004820152600960248201526837bb32b9323930bbb760b91b6044820152606401610a16565b6001600160a01b03808216600090815260a46020908152604080832093861683529290529081208054859290610e50908490615865565b9091555050609754610e6c906001600160a01b03168285613bc8565b816001600160a01b0316816001600160a01b03167f8f5fa856284b74bcd941cff9a8e370a8e8c3e90d88177b1e50b995c18daa89a085604051610eb191815260200190565b60405180910390a35050600160655550565b604051339060a990610ed8908b908b9061577f565b90815260200160405180910390208054610ef1906157f9565b15159050610f365760405162461bcd60e51b81526020600482015260126024820152711a5b5859d9481b9bdd08185c1c1c9bdd995960721b6044820152606401610a16565b600087118015610f465750600086115b8015610f525750600085115b8015610f5e5750600084115b8015610f6a5750600082115b610fa45760405162461bcd60e51b815260206004820152600b60248201526a696e76616c69642066656560a81b6044820152606401610a16565b6001600160a01b038116600090815260aa6020526040908190209051889190610fd0908c908c9061577f565b9081526040805160209281900383018120939093556001600160a01b038416600090815260aa9092529020879161100a908c908c9061577f565b9081526040805160209281900383018120600101939093556001600160a01b038416600090815260aa90925290208691611047908c908c9061577f565b9081526040805160209281900383018120600201939093556001600160a01b038416600090815260aa90925290208591611084908c908c9061577f565b9081526040805160209281900383018120600301939093556001600160a01b038416600090815260aa909252902084916110c1908c908c9061577f565b9081526040805160209281900383018120600401939093556001600160a01b038416600090815260aa909252902083916110fe908c908c9061577f565b90815260405190819003602001902060050155505050505050505050565b600061114383604051806040016040528060038152602001623537b160e91b815250613c30565b156111fc57600084815260a7602052604090206006810154600590910180546111f5929190611171906157f9565b80601f016020809104026020016040519081016040528092919081815260200182805461119d906157f9565b80156111ea5780601f106111bf576101008083540402835291602001916111ea565b820191906000526020600020905b8154815290600101906020018083116111cd57829003601f168201915b505050505084613c89565b90506112ed565b61122583604051806040016040528060078152602001667365727669636560c81b815250613c30565b156112ed57600084815260a86020526040902060030180546111f5919061124b906157f9565b80601f0160208091040260200160405190810160405280929190818152602001828054611277906157f9565b80156112c45780601f10611299576101008083540402835291602001916112c4565b820191906000526020600020905b8154815290600101906020018083116112a757829003601f168201915b505050600088815260a86020526040902060078101546008909101549092509050856001613d37565b9392505050565b8035600090815260a86020908152604080832060018101546001600160a01b0316845260a5909252909120805461133d5760405162461bcd60e51b8152600401610a169061587c565b60006113a48280548060200260200160405190810160405280929190818152602001828054801561139757602002820191906000526020600020905b81546001600160a01b03168152600190910190602001808311611379575b5050505050336001613e83565b6000818152600b8501602052604090205490915060ff16156113d85760405162461bcd60e51b8152600401610a169061589d565b600061147c8460030180546113ec906157f9565b80601f0160208091040260200160405190810160405280929190818152602001828054611418906157f9565b80156114655780601f1061143a57610100808354040283529160200191611465565b820191906000526020600020905b81548152906001019060200180831161144857829003601f168201915b505050505086606001358760800135336001613d37565b8454909150611495906001600160a01b03168233613f24565b6000828152600b850160209081526040909120805460ff19166001179055845433916001600160a01b0391909116907f08080b5cb6adfa01b122b5cfa5b566c300c37a7bc400b994d7004b0a5a1e54a6906114f2908901896158c0565b6114ff60408b018b6158c0565b60405161151294939291908d359061592f565b60405180910390a35050505050565b600260655414156115445760405162461bcd60e51b8152600401610a169061582e565b6002606581905533600090815260a3602052604090200154806115975760405162461bcd60e51b815260206004820152600b60248201526a1c995c481c1bdcc818985b60aa1b6044820152606401610a16565b6097546115ae906001600160a01b03163383613bc8565b60405181815233907f36afaa6dcdce8cb3e535639868ecced2aed60a5176e0ac58a7ebdb14f473723a9060200160405180910390a2506001606555565b6115f433614057565b600060a5816116066020850185615198565b6001600160a01b03168152602081019190915260400160002080549091506116405760405162461bcd60e51b8152600401610a169061587c565b6116a28180548060200260200160405190810160405280929190818152602001828054801561169857602002820191906000526020600020905b81546001600160a01b0316815260019091019060200180831161167a575b5050505050613a78565b60ad546116b0906001615969565b60ad819055600090815260a7602052604090206116d36080840160608501615981565b60038201805460ff19169115159190911790556116f660c0840160a08501615981565b60078201805491151560ff1990921691909117905580546001600160a01b031916331781556117286020840184615198565b6001820180546001600160a01b0319166001600160a01b039290921691909117905561175760208401846158c0565b611765916005840191614a9e565b506080830135600682015560005b825481101561195e576117b48382815481106117915761179161599e565b600091825260209182902001546001600160a01b031690610794908701876158c0565b6117ef5760405162461bcd60e51b815260206004820152600c60248201526b1b9bdd08185c1c1c9bdd995960a21b6044820152606401610a16565b60ad54600090815260a7602052604090206006810154600590910180546118c592919061181b906157f9565b80601f0160208091040260200160405190810160405280929190818152602001828054611847906157f9565b80156118945780601f1061186957610100808354040283529160200191611894565b820191906000526020600020905b81548152906001019060200180831161187757829003601f168201915b50505050508584815481106118ab576118ab61599e565b6000918252602090912001546001600160a01b0316613c89565b33600090815260a46020526040812085549091908690859081106118eb576118eb61599e565b60009182526020808320909101546001600160a01b03168352820192909252604001902054101561194c5760405162461bcd60e51b815260206004820152600b60248201526a18985b081b9bdd081b595d60aa1b6044820152606401610a16565b80611956816159b4565b915050611773565b5061196c6020840184615198565b6001600160a01b0316337f228c7d6bef7a7b954880b35fb265490adf0cc68447cc1ef6ec9901af9227b7e56119a460208701876158c0565b60ad546119b460408a018a6158c0565b6119c160c08c018c6159cf565b6040516119d49796959493929190615aa8565b60405180910390a3505050565b6119ea33614057565b600060a5816119fc6020850185615198565b6001600160a01b0316815260208101919091526040016000208054909150611a365760405162461bcd60e51b8152600401610a169061587c565b611a9681805480602002602001604051908101604052809291908181526020018280548015611698576020028201919060005260206000209081546001600160a01b0316815260019091019060200180831161167a575050505050613a78565b60005b8154811015611b7257611ada828281548110611ab757611ab761599e565b600091825260209182902001546001600160a01b031690610794908601866158c0565b611b155760405162461bcd60e51b815260206004820152600c60248201526b1b9bdd08185c1c1c9bdd995960a21b6044820152606401610a16565b611b6060408401356060850135611b2f60208701876158c0565b8760c00135878781548110611b4657611b4661599e565b6000918252602090912001546001600160a01b031661099a565b80611b6a816159b4565b915050611a99565b5060ad54611b81906001615969565b60ad819055600090815260a86020908152604090912080546001600160a01b0319163317815590611bb490840184615198565b6001820180546001600160a01b0319166001600160a01b0392909216919091179055611be360208401846158c0565b611bf1916003840191614a9e565b50604083013560078201556060830135600882015560c08301356006820155611c1d6020840184615198565b6001600160a01b0316337fa587bb75652cfa00b3e562c48ea5cb9eebd03a726e8924ed998c2c271a077daa611c5560208701876158c0565b60ad5460408901359060608a013590611c7160808c018c6158c0565b611c7e60a08e018e6159cf565b6040516119d499989796959493929190615aea565b6001600160a01b038116600090815260a360205260409020600101805460609190611cbd906157f9565b80601f0160208091040260200160405190810160405280929190818152602001828054611ce9906157f9565b8015611d365780601f10611d0b57610100808354040283529160200191611d36565b820191906000526020600020905b815481529060010190602001808311611d1957829003601f168201915b50505050509050919050565b33600090815260a660205260409020546001600160a01b0382811691161415611da25760405162461bcd60e51b8152602060048201526012602482015271185b1c9958591e48185d5d1a1bdc9a5e995960721b6044820152606401610a16565b33600090815260a66020526040902080546001600160a01b0319166001600160a01b0392909216919091179055565b6033546001600160a01b03163314611dfb5760405162461bcd60e51b8152600401610a16906157c4565b80611e375760405162461bcd60e51b815260206004820152600c60248201526b0d2dcecc2d8d2c840d0c2e6d60a31b6044820152606401610a16565b818160a98686604051611e4b92919061577f565b908152604051908190036020019020611e65929091614a9e565b5050505050565b60026065541415611e8f5760405162461bcd60e51b8152600401610a169061582e565b60026065556001600160a01b038116600090815260a3602052604090205460ff16611ee75760405162461bcd60e51b8152602060048201526008602482015267696e61637469766560c01b6044820152606401610a16565b609754611eff906001600160a01b0316333086614100565b6001600160a01b03808316600090815260a46020908152604080832093851683529290529081208054859290611f36908490615969565b90915550506040518381526001600160a01b03808316919084169033907f4927c39c4343e75cf73886e779e6337ae13fa99676e50b0e3ac51f05b331b12b9060200160405180910390a45050600160655550565b6060600060ab546001600160401b03811115611fa857611fa8614e1d565b604051908082528060200260200182016040528015611fd1578160200160208202803683370190505b50905060005b60ab5481101561203a57600081815260ae602052604090205482516001600160a01b03909116908390839081106120105761201061599e565b6001600160a01b039092166020928302919091019091015280612032816159b4565b915050611fd7565b50919050565b6033546001600160a01b0316331461206a5760405162461bcd60e51b8152600401610a16906157c4565b6120746000614138565b565b6120b2828280806020026020016040519081016040528093929190818152602001838360200280828437600092019190915250613a7892505050565b33600090815260a5602052604090206120cc908383614b22565b507f2bb420cc99e6cc7d998000aac84bdfd19cdf80195a8b3c2b7a7f687b2c7c2e8b33838360405161210093929190615b48565b60405180910390a15050565b600085815260a76020908152604080832060018101546001600160a01b0316845260a590925290912080546121535760405162461bcd60e51b8152600401610a169061587c565b60006121b882805480602002602001604051908101604052809291908181526020018280548015611397576020028201919060005260206000209081546001600160a01b03168152600190910190602001808311611379575050505050336001613e83565b600081815260088501602052604090205490915060ff16156121ec5760405162461bcd60e51b8152600401610a169061589d565b60006122866000856005018054612202906157f9565b80601f016020809104026020016040519081016040528092919081815260200182805461222e906157f9565b801561227b5780601f106122505761010080835404028352916020019161227b565b820191906000526020600020905b81548152906001019060200180831161225e57829003601f168201915b505050505033613c89565b845490915061229f906001600160a01b03168233613f24565b600184600801600084815260200190815260200160002060006101000a81548160ff0219169083151502179055508360000160009054906101000a90046001600160a01b03166001600160a01b03167f105b6b960a49135276e4f3fb47aeb4a7e24a9d69492e943e1f9f33bfacf7ab93898989898e60405161232595949392919061592f565b60405180910390a2505050505050505050565b33600090815260aa6020526040808220905188919061235a908c908c9061577f565b9081526040519081900360200190205414612373575060015b33600090815260aa6020526040908190209051879190612396908c908c9061577f565b908152602001604051809103902060010154146123b1575060015b33600090815260aa60205260409081902090518691906123d4908c908c9061577f565b908152602001604051809103902060020154146123ef575060015b33600090815260aa6020526040908190209051859190612412908c908c9061577f565b9081526020016040518091039020600301541461242d575060015b33600090815260aa6020526040908190209051849190612450908c908c9061577f565b9081526020016040518091039020600401541461246b575060015b33600090815260aa602052604090819020905183919061248e908c908c9061577f565b908152602001604051809103902060050154146124a9575060015b806124e05760405162461bcd60e51b81526020600482015260076024820152663737903234b33360c91b6044820152606401610a16565b6124f08989898989898989610ec3565b505050505050505050565b8035600090815260a860205260409020600481015460ff1615156001146125525760405162461bcd60e51b815260206004820152600b60248201526a1b9bdd081cdd185c9d195960aa1b6044820152606401610a16565b428160050154106125965760405162461bcd60e51b815260206004820152600e60248201526d74696d652072656d61696e696e6760901b6044820152606401610a16565b60018101546001600160a01b0316600090815260a56020526040902080546125d05760405162461bcd60e51b8152600401610a169061587c565b600061263582805480602002602001604051908101604052809291908181526020018280548015611397576020028201919060005260206000209081546001600160a01b03168152600190910190602001808311611379575050505050336001613e83565b6000818152600b8501602052604090205490915060ff16156126695760405162461bcd60e51b8152600401610a169061589d565b600061270d84600301805461267d906157f9565b80601f01602080910402602001604051908101604052809291908181526020018280546126a9906157f9565b80156126f65780601f106126cb576101008083540402835291602001916126f6565b820191906000526020600020905b8154815290600101906020018083116126d957829003601f168201915b505050505086604001358760600135336001613d37565b8454909150612726906001600160a01b03168233613f24565b6000828152600b850160209081526040909120805460ff19166001179055845433916001600160a01b0391909116907f6385968b203009a7e208aae57b42e8dd54771566baed9ca45eb7f5ed8a6bdd5590612783908901896158c0565b6040516115129291908b3590615ba2565b6001600160a01b038316600090815260aa602052604080822090518291906127bf908690869061577f565b908152604051908190036020019020541190509392505050565b33600081815260aa60205260409081902090516127f9908590859061577f565b90815260405190819003602001812060008082556001820181905560028201819055600382018190556004820181905560059091018190556001600160a01b038316917fbedd4cca1acec8ab178c7b2dade9c35421b8246dcba1d0fcda45fde6befcce369161286b9187918791615bc6565b60405180910390a2505050565b600054610100900460ff166128935760005460ff1615612897565b303b155b6128b35760405162461bcd60e51b8152600401610a1690615bec565b600054610100900460ff161580156128d5576000805461ffff19166101011790555b6128dd61418a565b6128e56141b9565b8151609780546001600160a01b03199081166001600160a01b03938416179091556020840151609880548316918416919091179055604084015160998054831691841691909117905560e0840151609a80548316918416919091179055610100840151609b80548316918416919091179055610120840151609c80548316918416919091179055610140840151609d80548316918416919091179055610160840151609e80548316918416919091179055610180840151609f556101a084015160a09081556101c085015160a1805484169185169190911790556101e085015160a280549093169316929092179055606083015160c08401519184015160808501516129f2939190610aac565b8015612a04576000805461ff00191690555b5050565b33600081815260a3602052604090206001018054612a25906157f9565b15159050612a7a5760ab8054829160ae9160009182612a43836159b4565b91905055815260200190815260200160002060006101000a8154816001600160a01b0302191690836001600160a01b031602179055505b6001600160a01b038116600081815260a360208181526040808420805460ff191681558151808301909252600a82526919195c1c9958d85d195960b21b8284019081529590945291905251612ad59260019092019190614b75565b50806001600160a01b03167ffdcc621fcf24779a46eed0bf3d92841b24669514e65fd61277e90cb40170e1be6000604051612b369115158152604060208201819052600a908201526919195c1c9958d85d195960b21b606082015260800190565b60405180910390a250565b612b4a33614057565b600086815260a860209081526040918290208251601f880183900483028101830190935286835291612c22918890889081908401838280828437600092019190915250505050600383018054612b9f906157f9565b80601f0160208091040260200160405190810160405280929190818152602001828054612bcb906157f9565b8015612c185780601f10612bed57610100808354040283529160200191612c18565b820191906000526020600020905b815481529060010190602001808311612bfb57829003601f168201915b5050505050613c30565b612c5a5760405162461bcd60e51b81526020600482015260096024820152680dad2e6e6dac2e8c6d60bb1b6044820152606401610a16565b42816005015411612c9e5760405162461bcd60e51b815260206004820152600e60248201526d74696d652072656d61696e696e6760901b6044820152606401610a16565b33600090815260a5602052604090208054612ccb5760405162461bcd60e51b8152600401610a169061587c565b60005b81548110156124f05760008615612ce6576001612ce9565b60005b90506000612d598a8a8080601f0160208091040260200160405190810160405280939291908181526020018383808284376000920191909152505087548b92508a9150889088908110612d3e57612d3e61599e565b6000918252602090912001546001600160a01b031686613d37565b90508115612da957612d6b88826157a5565b9050612d8787878c8c8c898981548110611b4657611b4661599e565b612d948862278d006157a5565b8560050154612da39190615969565b60058601555b612dda8133868681548110612dc057612dc061599e565b6000918252602090912001546001600160a01b0316611e6c565b86856009016000868681548110612df357612df361599e565b60009182526020808320909101546001600160a01b0316835282019290925260400181206001018054909190612e2a908490615969565b9250508190555085856009016000868681548110612e4a57612e4a61599e565b60009182526020808320909101546001600160a01b0316835282019290925260400181206002018054909190612e81908490615969565b92505081905550838381548110612e9a57612e9a61599e565b600091825260208220015485546001600160a01b039091169133917fba6d754d8da31125ad925803210bd9413a02fb7258a99460a419cf5f897c611f918f9160098b0191908a908a908110612ef157612ef161599e565b60009182526020808320909101546001600160a01b031683528201929092526040018120600101548954909160098c01918b908b908110612f3457612f3461599e565b6000918252602080832091909101546001600160a01b0316835282810193909352604091820190206002015460058d0154825195865292850193909352830191909152606082015260800160405180910390a350508080612f94906159b4565b915050612cce565b806122b81415612fd85760405162461bcd60e51b815260206004820152600760248201526606f7665726c61760cc1b6044820152606401610a16565b600082815260a86020908152604080832060018101546001600160a01b0316845260a5909252909120805461301f5760405162461bcd60e51b8152600401610a169061587c565b61308281805480602002602001604051908101604052809291908181526020018280548015611397576020028201919060005260206000209081546001600160a01b03168152600190910190602001808311611379575050505050336001613e83565b50600482015460ff16156130c25760405162461bcd60e51b81526020600482015260076024820152661cdd185c9d195960ca1b6044820152606401610a16565b60048201805460ff1916600117905560068201546130e39062278d006157a5565b6130ed9042615969565b6005830155815433600090815260098401602052604081208581556007850154600190910180546001600160a01b03909416939192909161312f908490615969565b909155505060088301543360009081526009850160205260408120600201805490919061315d908490615969565b925050819055506000613208846003018054613178906157f9565b80601f01602080910402602001604051908101604052809291908181526020018280546131a4906157f9565b80156131f15780601f106131c6576101008083540402835291602001916131f1565b820191906000526020600020905b8154815290600101906020018083116131d457829003601f168201915b505050505085600701548660080154336001613d37565b9050613215828233613f24565b604080518781526020810187905233916001600160a01b038516917ffc591b915128e7b045fd4663d358185ce9356694fac67286041506e0a8963d62910160405180910390a3505050505050565b806132a35760405162461bcd60e51b815260206004820152601060248201526f1a5b9d985b1a5908195b991c1bda5b9d60821b6044820152606401610a16565b33600081815260a36020526040902060010180546132c0906157f9565b151590506133155760ab8054829160ae91600091826132de836159b4565b91905055815260200190815260200160002060006101000a8154816001600160a01b0302191690836001600160a01b031602179055505b6001600160a01b038116600090815260a360205260409020805460ff19166001908117825561334691018484614a9e565b50806001600160a01b03167ffdcc621fcf24779a46eed0bf3d92841b24669514e65fd61277e90cb40170e1be6001858560405161286b93929190615c3a565b60a560205281600052604060002081815481106133a157600080fd5b6000918252602090912001546001600160a01b03169150829050565b6000811561348857600084815260a76020908152604080832060018101546001600160a01b0316845260a58352818420805483518186028101860190945280845291949093909261345392909185919083018282801561344657602002820191906000526020600020905b81546001600160a01b03168152600190910190602001808311613428575b5050505050876000613e83565b905080600019141561346b57600093505050506112ed565b6000908152600890920160205250604090205460ff1690506112ed565b600084815260a86020908152604080832060018101546001600160a01b0316845260a583528184208054835181860281018601909452808452919490939092613514929091859190830182828015613446576020028201919060005260206000209081546001600160a01b03168152600190910190602001808311613428575050505050876000613e83565b905080600019141561352c57600093505050506112ed565b6000908152600b90920160205250604090205460ff1690506112ed565b6000613556848484613c89565b949350505050565b60a3602052600090815260409020805460018201805460ff9092169291613584906157f9565b80601f01602080910402602001604051908101604052809291908181526020018280546135b0906157f9565b80156135fd5780601f106135d2576101008083540402835291602001916135fd565b820191906000526020600020905b8154815290600101906020018083116135e057829003601f168201915b5050505050908060020154905083565b60a8602052600090815260409020805460018201546003830180546001600160a01b03938416949290931692613642906157f9565b80601f016020809104026020016040519081016040528092919081815260200182805461366e906157f9565b80156136bb5780601f10613690576101008083540402835291602001916136bb565b820191906000526020600020905b81548152906001019060200180831161369e57829003601f168201915b5050506004840154600585015460068601546007870154600890970154959660ff90931695919450925088565b8035600090815260a76020908152604080832060018101546001600160a01b0316845260a590925290912080546137315760405162461bcd60e51b8152600401610a169061587c565b81600801600061379a83805480602002602001604051908101604052809291908181526020018280548015611397576020028201919060005260206000209081546001600160a01b03168152600190910190602001808311611379575050505050336001613e83565b815260208101919091526040016000205460ff16156137cb5760405162461bcd60e51b8152600401610a169061589d565b600061387984356137df60208701876158c0565b6040516020016137f092919061577f565b60408051601f19818403018152828252805160209182012060018901546001600160a01b0316600090815260a58352839020805480840286018401909452838552909392909183018282801561386f57602002820191906000526020600020905b81546001600160a01b03168152600190910190602001808311613851575b5050505050614232565b600784015490915060ff16156138c557806138c55760405162461bcd60e51b815260206004820152600c60248201526b1a5b98dbdb9cda5cdd195b9d60a21b6044820152606401610a16565b600383015460009060ff1615613958575a60068501548554919250613949916001600160a01b03166138fa60208901896158c0565b61390760408b018b6158c0565b60405160240161391a9493929190615c5f565b60408051601f198184030181529190526020810180516001600160e01b03166336b90ef560e11b17905261438f565b505a6139559082615865565b90505b600061396d82866005018054612202906157f9565b8554909150613986906001600160a01b03168233613f24565b845433906001600160a01b03167fe05a85698af7732aa0ea230656f9c46d18f559c07665f0411ca43a2455a045aa6139c160208a018a6158c0565b6139ce60408c018c6158c0565b6040516139e3949392919089908f3590615c86565b60405180910390a3600485015433600090815260a5602052604090205414613a0d57505050505050565b84546001600160a01b03167f3c23ec8d254003e5d452fa03fdc2ff6e5531a15e79e0fe710e0dd4abdc90e6c6613a4660208901896158c0565b613a5360408b018b6158c0565b604051613a6894939291908a908e3590615cc3565b60405180910390a2505050505050565b6000815111613a995760405162461bcd60e51b8152600401610a169061587c565b60005b8151811015612a045760a36000838381518110613abb57613abb61599e565b6020908102919091018101516001600160a01b031682528101919091526040016000205460ff16613b1b5760405162461bcd60e51b815260206004820152600a6024820152696e6f742061637469766560b01b6044820152606401610a16565b80613b25816159b4565b915050613a9c565b6033546001600160a01b03163314613b575760405162461bcd60e51b8152600401610a16906157c4565b6001600160a01b038116613bbc5760405162461bcd60e51b815260206004820152602660248201527f4f776e61626c653a206e6577206f776e657220697320746865207a65726f206160448201526564647265737360d01b6064820152608401610a16565b613bc581614138565b50565b6040516001600160a01b038316602482015260448101829052613c2b90849063a9059cbb60e01b906064015b60408051601f198184030181529190526020810180516001600160e01b03166001600160e01b0319909316929092179091526143db565b505050565b600081604051602001613c439190615d00565b6040516020818303038152906040528051906020012083604051602001613c6a9190615d00565b6040516020818303038152906040528051906020012014905092915050565b600080613c9684846144ad565b90506000613ca2614505565b90506000613cae6145cc565b9050613cbd6201388088615969565b96506000613ccb88846157a5565b60af549091506000908390613cea9063ffffffff16633b9aca00615969565b613cf884633b9aca006157a5565b613d0291906157a5565b613d0c9190615d1c565b9050613d1e655af3107a400082615d1c565b9050613d2a8582615969565b9998505050505050505050565b600080613d4261475e565b6001600160a01b038516600090815260aa602052604080822090519293509091613d6d908a90615d00565b9081526040805160209281900383018120600101546001600160a01b038916600090815260aa909452918320919350613da7908b90615d00565b9081526040805160209281900383018120600201546001600160a01b038a16600090815260aa909452918320919350613de1908c90615d00565b908152602001604051809103902060030154905085613e01576000613e22565b83613e0d8460186157a5565b613e1890601e6157a5565b613e2291906157a5565b925083613e2f89846157a5565b613e3991906157a5565b915083613e468a836157a5565b613e5091906157a5565b60a05490915081613e618486615969565b613e6b9190615969565b613e759190615d1c565b9a9950505050505050505050565b6000600019815b8551811015613ee057846001600160a01b0316868281518110613eaf57613eaf61599e565b60200260200101516001600160a01b03161415613ece57809150613ee0565b80613ed8816159b4565b915050613e8a565b5082156135565760001981136135565760405162461bcd60e51b81526020600482015260096024820152681b9bdd08199bdd5b9960ba1b6044820152606401610a16565b6001600160a01b03808416600090815260a46020908152604080832093851683529290522054821115613f8b5760405162461bcd60e51b815260206004820152600f60248201526e696e737566696369656e742067617360881b6044820152606401610a16565b6001600160a01b03808416600090815260a46020908152604080832093851683529290529081208054849290613fc2908490615865565b90915550506001600160a01b038116600090815260a3602052604081206002018054849290613ff2908490615969565b925050819055508160ac600082825461400b9190615969565b92505081905550806001600160a01b0316836001600160a01b03167f902115c14fc468bd781ce5843eb17b399342718b23213bab5c57215da96f3795846040516119d491815260200190565b6001600160a01b03808216600090815260a660205260409020541680156140bb576001600160a01b0381163314612a045760405162461bcd60e51b81526020600482015260086024820152670dcdee840c2eae8d60c31b6044820152606401610a16565b6001600160a01b0382163314612a045760405162461bcd60e51b815260206004820152600a6024820152693737ba1039b2b73232b960b11b6044820152606401610a16565b6040516001600160a01b0380851660248301528316604482015260648101829052610d8c9085906323b872dd60e01b90608401613bf4565b603380546001600160a01b038381166001600160a01b0319831681179093556040519116919082907f8be0079c531659141344cd1fd0a4f28419497f9722a3daafe3b4186f6b6457e090600090a35050565b600054610100900460ff166141b15760405162461bcd60e51b8152600401610a1690615d3e565b6120746148aa565b600054610100900460ff166141d45760005460ff16156141d8565b303b155b6141f45760405162461bcd60e51b8152600401610a1690615bec565b600054610100900460ff16158015614216576000805461ffff19166101011790555b61421e6148da565b8015613bc5576000805461ff001916905550565b600083815260a7602052604081203360001983805b86518110156142d257600081815260088601602052604090205460ff1615614285576000818152600986016020526040902054881461428557600191505b836001600160a01b03168782815181106142a1576142a161599e565b60200260200101516001600160a01b031614156142c0578092506142d2565b806142ca816159b4565b915050614247565b5060001982136143105760405162461bcd60e51b81526020600482015260096024820152681b9bdd08199bdd5b9960ba1b6044820152606401610a16565b600082815260088501602052604090205460ff16156143415760405162461bcd60e51b8152600401610a169061589d565b60008281526008850160205260408120805460ff191660011790556004850180549161436c836159b4565b909155505060009182526009909301602052604090208590555090509392505050565b60005a6113888110156143a157600080fd5b6113888103905084604082048203116143b957600080fd5b50823b6143c557600080fd5b60008083516020850160008789f1949350505050565b6000614430826040518060400160405280602081526020017f5361666545524332303a206c6f772d6c6576656c2063616c6c206661696c6564815250856001600160a01b03166149509092919063ffffffff16565b805190915015613c2b578080602001905181019061444e9190615d89565b613c2b5760405162461bcd60e51b815260206004820152602a60248201527f5361666545524332303a204552433230206f7065726174696f6e20646964206e6044820152691bdd081cdd58d8d9595960b21b6064820152608401610a16565b60a0546001600160a01b038216600090815260aa602052604080822090519192916144d9908690615d00565b908152604051908190036020019020546144f39190615d1c565b6144fb61475e565b6112ed91906157a5565b60af5460995460408051633fabe5a360e21b81529051600093600160301b900462ffffff169283151592859283926001600160a01b03169163feaf968c9160048083019260a09291908290030181865afa158015614567573d6000803e3d6000fd5b505050506040513d601f19601f8201168201806040525081019061458b9190615dc0565b5094509092508491505080156145af57506145a68242615865565b8463ffffffff16105b806145bb575060008113155b156135565760b05494505050505090565b60408051600580825260c082019092526000918291906020820160a0803683375050609a5482519293506001600160a01b0316918391506000906146125761461261599e565b6001600160a01b039283166020918202929092010152609b548251911690829060019081106146435761464361599e565b6001600160a01b039283166020918202929092010152609c548251911690829060029081106146745761467461599e565b6001600160a01b039283166020918202929092010152609d548251911690829060039081106146a5576146a561599e565b6001600160a01b039283166020918202929092010152609e548251911690829060049081106146d6576146d661599e565b6001600160a01b039283166020918202929092010152609854604051637f9c0ecd60e01b8152911690637f9c0ecd9061471790849061271090600401615e10565b602060405180830381865afa158015614734573d6000803e3d6000fd5b505050506040513d601f19601f820116820180604052508101906147589190615e32565b91505090565b60408051600580825260c082019092526000918291906020820160a080368337505060a15482519293506001600160a01b0316918391506000906147a4576147a461599e565b6001600160a01b03928316602091820292909201015260a2548251911690829060019081106147d5576147d561599e565b6001600160a01b039283166020918202929092010152609c548251911690829060029081106148065761480661599e565b6001600160a01b039283166020918202929092010152609b548251911690829060039081106148375761483761599e565b6001600160a01b039283166020918202929092010152609a548251911690829060049081106148685761486861599e565b6001600160a01b039283166020918202929092010152609854604051637f9c0ecd60e01b8152911690637f9c0ecd90614717908490620f424090600401615e10565b600054610100900460ff166148d15760405162461bcd60e51b8152600401610a1690615d3e565b61207433614138565b600054610100900460ff166148f55760005460ff16156148f9565b303b155b6149155760405162461bcd60e51b8152600401610a1690615bec565b600054610100900460ff16158015614937576000805461ffff19166101011790555b60016065558015613bc5576000805461ff001916905550565b60606135568484600085856001600160a01b0385163b6149b25760405162461bcd60e51b815260206004820152601d60248201527f416464726573733a2063616c6c20746f206e6f6e2d636f6e74726163740000006044820152606401610a16565b600080866001600160a01b031685876040516149ce9190615d00565b60006040518083038185875af1925050503d8060008114614a0b576040519150601f19603f3d011682016040523d82523d6000602084013e614a10565b606091505b5091509150614a20828286614a2b565b979650505050505050565b60608315614a3a5750816112ed565b825115614a4a5782518084602001fd5b8160405162461bcd60e51b8152600401610a169190614f2f565b508054614a70906157f9565b6000825580601f10614a80575050565b601f016020900490600052602060002090810190613bc59190614be9565b828054614aaa906157f9565b90600052602060002090601f016020900481019282614acc5760008555614b12565b82601f10614ae55782800160ff19823516178555614b12565b82800160010185558215614b12579182015b82811115614b12578235825591602001919060010190614af7565b50614b1e929150614be9565b5090565b828054828255906000526020600020908101928215614b12579160200282015b82811115614b125781546001600160a01b0319166001600160a01b03843516178255602090920191600190910190614b42565b828054614b81906157f9565b90600052602060002090601f016020900481019282614ba35760008555614b12565b82601f10614bbc57805160ff1916838001178555614b12565b82800160010185558215614b12579182015b82811115614b12578251825591602001919060010190614bce565b5b80821115614b1e5760008155600101614bea565b60008083601f840112614c1057600080fd5b5081356001600160401b03811115614c2757600080fd5b602083019150836020828501011115614c3f57600080fd5b9250929050565b80356001600160a01b0381168114614c5d57600080fd5b919050565b60008060008060008060a08789031215614c7b57600080fd5b863595506020870135945060408701356001600160401b03811115614c9f57600080fd5b614cab89828a01614bfe565b90955093505060608701359150614cc460808801614c46565b90509295509295509295565b803563ffffffff81168114614c5d57600080fd5b803561ffff81168114614c5d57600080fd5b803562ffffff81168114614c5d57600080fd5b60008060008060808587031215614d1f57600080fd5b614d2885614cd0565b9350614d3660208601614ce4565b925060408501359150614d4b60608601614cf6565b905092959194509250565b600060208284031215614d6857600080fd5b5035919050565b60005b83811015614d8a578181015183820152602001614d72565b83811115610d8c5750506000910152565b60008151808452614db3816020860160208601614d6f565b601f01601f19169290920160200192915050565b6001600160a01b0388811682528716602082015285151560408201526060810185905260e060808201819052600090614e0290830186614d9b565b60a08301949094525090151560c09091015295945050505050565b634e487b7160e01b600052604160045260246000fd5b60405161020081016001600160401b0381118282101715614e5657614e56614e1d565b60405290565b604051601f8201601f191681016001600160401b0381118282101715614e8457614e84614e1d565b604052919050565b600082601f830112614e9d57600080fd5b81356001600160401b03811115614eb657614eb6614e1d565b614ec9601f8201601f1916602001614e5c565b818152846020838601011115614ede57600080fd5b816020850160208301376000918101602001919091529392505050565b600060208284031215614f0d57600080fd5b81356001600160401b03811115614f2357600080fd5b61355684828501614e8c565b6020815260006112ed6020830184614d9b565b60008060008060408587031215614f5857600080fd5b84356001600160401b0380821115614f6f57600080fd5b614f7b88838901614bfe565b90965094506020870135915080821115614f9457600080fd5b50614fa187828801614bfe565b95989497509550505050565b60008060408385031215614fc057600080fd5b82359150614fd060208401614c46565b90509250929050565b60008060408385031215614fec57600080fd5b614ff583614c46565b9150614fd060208401614c46565b6000806040838503121561501657600080fd5b61501f83614c46565b915060208301356001600160401b0381111561503a57600080fd5b61504685828601614e8c565b9150509250929050565b60008060008060008060008060e0898b03121561506c57600080fd5b88356001600160401b0381111561508257600080fd5b61508e8b828c01614bfe565b909c909b5060208b01359a60408101359a50606081013599506080810135985060a0810135975060c0013595509350505050565b6000806000606084860312156150d757600080fd5b8335925060208401356001600160401b038111156150f457600080fd5b61510086828701614e8c565b92505061510f60408501614c46565b90509250925092565b60006020828403121561512a57600080fd5b81356001600160401b0381111561514057600080fd5b820160a081850312156112ed57600080fd5b600060e0828403121561203a57600080fd5b60006020828403121561517657600080fd5b81356001600160401b0381111561518c57600080fd5b61355684828501615152565b6000602082840312156151aa57600080fd5b6112ed82614c46565b6000806000606084860312156151c857600080fd5b833592506151d860208501614c46565b915061510f60408501614c46565b600081518084526020808501945080840160005b8381101561521f5781516001600160a01b0316875295820195908201906001016151fa565b509495945050505050565b6020815260006112ed60208301846151e6565b6000806020838503121561525057600080fd5b82356001600160401b038082111561526757600080fd5b818501915085601f83011261527b57600080fd5b81358181111561528a57600080fd5b8660208260051b850101111561529f57600080fd5b60209290920196919550909350505050565b6000806000806000606086880312156152c957600080fd5b8535945060208601356001600160401b03808211156152e757600080fd5b6152f389838a01614bfe565b9096509450604088013591508082111561530c57600080fd5b5061531988828901614bfe565b969995985093965092949392505050565b60006020828403121561533c57600080fd5b81356001600160401b0381111561535257600080fd5b8201608081850312156112ed57600080fd5b60008060006040848603121561537957600080fd5b61538284614c46565b925060208401356001600160401b0381111561539d57600080fd5b6153a986828701614bfe565b9497909650939450505050565b600080602083850312156153c957600080fd5b82356001600160401b038111156153df57600080fd5b6153eb85828601614bfe565b90969095509350505050565b6000610200828403121561540a57600080fd5b615412614e33565b61541b83614c46565b815261542960208401614c46565b602082015261543a60408401614c46565b604082015261544b60608401614cd0565b606082015261545c60808401614cf6565b608082015260a083013560a082015261547760c08401614ce4565b60c082015261548860e08401614c46565b60e082015261010061549b818501614c46565b908201526101206154ad848201614c46565b908201526101406154bf848201614c46565b908201526101606154d1848201614c46565b9082015261018083810135908201526101a080840135908201526101c06154f9818501614c46565b908201526101e061550b848201614c46565b908201529392505050565b60008060008060008060a0878903121561552f57600080fd5b8635955060208701356001600160401b0381111561554c57600080fd5b61555889828a01614bfe565b979a90995096976040810135976060820135975060809091013595509350505050565b6000806040838503121561558e57600080fd5b50508035926020909101359150565b600080604083850312156155b057600080fd5b6155b983614c46565b946020939093013593505050565b8015158114613bc557600080fd5b6000806000606084860312156155ea57600080fd5b833592506155fa60208501614c46565b9150604084013561560a816155c7565b809150509250925092565b83151581526060602082015260006156306060830185614d9b565b9050826040830152949350505050565b6001600160a01b038981168252881660208201526101006040820181905260009061566d8382018a614d9b565b97151560608401525050608081019490945260a084019290925260c083015260e0909101529392505050565b6000602082840312156156ab57600080fd5b81356001600160401b038111156156c157600080fd5b8201606081850312156112ed57600080fd5b600060208083850312156156e657600080fd5b82356001600160401b03808211156156fd57600080fd5b818501915085601f83011261571157600080fd5b81358181111561572357615723614e1d565b8060051b9150615734848301614e5c565b818152918301840191848101908884111561574e57600080fd5b938501935b838510156157735761576485614c46565b82529385019390850190615753565b98975050505050505050565b8183823760009101908152919050565b634e487b7160e01b600052601160045260246000fd5b60008160001904831182151516156157bf576157bf61578f565b500290565b6020808252818101527f4f776e61626c653a2063616c6c6572206973206e6f7420746865206f776e6572604082015260600190565b600181811c9082168061580d57607f821691505b6020821081141561203a57634e487b7160e01b600052602260045260246000fd5b6020808252601f908201527f5265656e7472616e637947756172643a207265656e7472616e742063616c6c00604082015260600190565b6000828210156158775761587761578f565b500390565b6020808252600790820152666e6f206473707360c81b604082015260600190565b60208082526009908201526818dbdb5c1b195d195960ba1b604082015260600190565b6000808335601e198436030181126158d757600080fd5b8301803591506001600160401b038211156158f157600080fd5b602001915036819003821315614c3f57600080fd5b81835281816020850137506000828201602090810191909152601f909101601f19169091010190565b606081526000615943606083018789615906565b8281036020840152615956818688615906565b9150508260408301529695505050505050565b6000821982111561597c5761597c61578f565b500190565b60006020828403121561599357600080fd5b81356112ed816155c7565b634e487b7160e01b600052603260045260246000fd5b60006000198214156159c8576159c861578f565b5060010190565b6000808335601e198436030181126159e657600080fd5b8301803591506001600160401b03821115615a0057600080fd5b6020019150600581901b3603821315614c3f57600080fd5b81835260006020808501808196508560051b810191508460005b87811015615a9b5782840389528135601e19883603018112615a5357600080fd5b870180356001600160401b03811115615a6b57600080fd5b803603891315615a7a57600080fd5b615a878682898501615906565b9a87019a9550505090840190600101615a32565b5091979650505050505050565b608081526000615abc60808301898b615906565b8760208401528281036040840152615ad5818789615906565b90508281036060840152613e75818587615a18565b60c081526000615afe60c083018b8d615906565b8960208401528860408401528760608401528281036080840152615b23818789615906565b905082810360a0840152615b38818587615a18565b9c9b505050505050505050505050565b6001600160a01b03848116825260406020808401829052908301849052600091859160608501845b87811015615b955783615b8286614c46565b1682529382019390820190600101615b70565b5098975050505050505050565b604081526000615bb6604083018587615906565b9050826020830152949350505050565b604081526000615bda604083018587615906565b90508215156020830152949350505050565b6020808252602e908201527f496e697469616c697a61626c653a20636f6e747261637420697320616c72656160408201526d191e481a5b9a5d1a585b1a5e995960921b606082015260800190565b8315158152604060208201526000615c56604083018486615906565b95945050505050565b604081526000615c73604083018688615906565b8281036020840152614a20818587615906565b608081526000615c9a60808301888a615906565b8281036020840152615cad818789615906565b6040840195909552505060600152949350505050565b608081526000615cd760808301888a615906565b8281036020840152615cea818789615906565b9415156040840152505060600152949350505050565b60008251615d12818460208701614d6f565b9190910192915050565b600082615d3957634e487b7160e01b600052601260045260246000fd5b500490565b6020808252602b908201527f496e697469616c697a61626c653a20636f6e7472616374206973206e6f74206960408201526a6e697469616c697a696e6760a81b606082015260800190565b600060208284031215615d9b57600080fd5b81516112ed816155c7565b805169ffffffffffffffffffff81168114614c5d57600080fd5b600080600080600060a08688031215615dd857600080fd5b615de186615da6565b9450602086015193506040860151925060608601519150615e0460808701615da6565b90509295509295909350565b604081526000615e2360408301856151e6565b90508260208301529392505050565b600060208284031215615e4457600080fd5b505191905056fea2646970667358221220c93987aae0c7cd29c71907eaf76d6aea355796de49934067274196c4a392ca7464736f6c634300080b0033",
  "linkReferences": {},
  "deployedLinkReferences": {}
}