{
  "_format": "hh-sol-artifact-1",
  "contractName": "Nexus",
  "sourceName": "contracts/Nexus.sol",
  "abi": [
    {
      "anonymous": false,
      "inputs": [
        {
          "indexed": true,
          "internalType": "address",
          "name": "buyer",
          "type": "address"
        },
        {
          "indexed": true,
          "internalType": "address",
          "name": "consumer",
          "type": "address"
        },
        {
          "indexed": true,
          "internalType": "address",
          "name": "worker",
          "type": "address"
        },
        {
          "indexed": false,
          "internalType": "uint256",
          "name": "amount",
          "type": "uint256"
        }
      ],
      "name": "BoughtGas",
      "type": "event"
    },
    {
      "anonymous": false,
      "inputs": [
        {
          "indexed": true,
          "internalType": "address",
          "name": "worker",
          "type": "address"
        },
        {
          "indexed": false,
          "internalType": "uint256",
          "name": "amount",
          "type": "uint256"
        }
      ],
      "name": "ClaimedGas",
      "type": "event"
    },
    {
      "anonymous": false,
      "inputs": [
        {
          "indexed": false,
          "internalType": "uint32",
          "name": "paymentPremiumPPB",
          "type": "uint32"
        },
        {
          "indexed": false,
          "internalType": "uint16",
          "name": "gasCeilingMultiplier",
          "type": "uint16"
        },
        {
          "indexed": false,
          "internalType": "uint256",
          "name": "fallbackGasPrice",
          "type": "uint256"
        },
        {
          "indexed": false,
          "internalType": "uint24",
          "name": "stalenessSeconds",
          "type": "uint24"
        }
      ],
      "name": "ConfigSet",
      "type": "event"
    },
    {
      "anonymous": false,
      "inputs": [
        {
          "indexed": true,
          "internalType": "address",
          "name": "worker",
          "type": "address"
        },
        {
          "indexed": false,
          "internalType": "string",
          "name": "image",
          "type": "string"
        },
        {
          "indexed": false,
          "internalType": "bool",
          "name": "approved",
          "type": "bool"
        }
      ],
      "name": "DockerApprovalChanged",
      "type": "event"
    },
    {
      "anonymous": false,
      "inputs": [
        {
          "indexed": true,
          "internalType": "address",
          "name": "consumer",
          "type": "address"
        },
        {
          "indexed": false,
          "internalType": "string",
          "name": "outputFS",
          "type": "string"
        },
        {
          "indexed": false,
          "internalType": "string",
          "name": "outputHash",
          "type": "string"
        },
        {
          "indexed": false,
          "internalType": "bool",
          "name": "inconsistent",
          "type": "bool"
        },
        {
          "indexed": false,
          "internalType": "uint256",
          "name": "id",
          "type": "uint256"
        }
      ],
      "name": "JobDone",
      "type": "event"
    },
    {
      "anonymous": false,
      "inputs": [
        {
          "indexed": true,
          "internalType": "address",
          "name": "consumer",
          "type": "address"
        },
        {
          "indexed": false,
          "internalType": "string",
          "name": "stdErr",
          "type": "string"
        },
        {
          "indexed": false,
          "internalType": "string",
          "name": "outputFS",
          "type": "string"
        },
        {
          "indexed": false,
          "internalType": "uint256",
          "name": "id",
          "type": "uint256"
        }
      ],
      "name": "JobError",
      "type": "event"
    },
    {
      "anonymous": false,
      "inputs": [
        {
          "indexed": true,
          "internalType": "address",
          "name": "consumer",
          "type": "address"
        },
        {
          "indexed": true,
          "internalType": "address",
          "name": "worker",
          "type": "address"
        },
        {
          "indexed": false,
          "internalType": "string",
          "name": "outputFS",
          "type": "string"
        },
        {
          "indexed": false,
          "internalType": "string",
          "name": "outputHash",
          "type": "string"
        },
        {
          "indexed": false,
          "internalType": "uint256",
          "name": "dapps",
          "type": "uint256"
        },
        {
          "indexed": false,
          "internalType": "uint256",
          "name": "id",
          "type": "uint256"
        }
      ],
      "name": "JobResult",
      "type": "event"
    },
    {
      "anonymous": false,
      "inputs": [
        {
          "indexed": true,
          "internalType": "address",
          "name": "consumer",
          "type": "address"
        },
        {
          "indexed": false,
          "internalType": "uint256",
          "name": "id",
          "type": "uint256"
        }
      ],
      "name": "Kill",
      "type": "event"
    },
    {
      "anonymous": false,
      "inputs": [
        {
          "indexed": true,
          "internalType": "address",
          "name": "previousOwner",
          "type": "address"
        },
        {
          "indexed": true,
          "internalType": "address",
          "name": "newOwner",
          "type": "address"
        }
      ],
      "name": "OwnershipTransferred",
      "type": "event"
    },
    {
      "anonymous": false,
      "inputs": [
        {
          "indexed": true,
          "internalType": "address",
          "name": "consumer",
          "type": "address"
        },
        {
          "indexed": true,
          "internalType": "address",
          "name": "owner",
          "type": "address"
        },
        {
          "indexed": false,
          "internalType": "string",
          "name": "imageName",
          "type": "string"
        },
        {
          "indexed": false,
          "internalType": "uint256",
          "name": "id",
          "type": "uint256"
        },
        {
          "indexed": false,
          "internalType": "string",
          "name": "inputFS",
          "type": "string"
        },
        {
          "indexed": false,
          "internalType": "string[]",
          "name": "args",
          "type": "string[]"
        }
      ],
      "name": "QueueJob",
      "type": "event"
    },
    {
      "anonymous": false,
      "inputs": [
        {
          "indexed": true,
          "internalType": "address",
          "name": "consumer",
          "type": "address"
        },
        {
          "indexed": true,
          "internalType": "address",
          "name": "owner",
          "type": "address"
        },
        {
          "indexed": false,
          "internalType": "string",
          "name": "imageName",
          "type": "string"
        },
        {
          "indexed": false,
          "internalType": "uint256",
          "name": "id",
          "type": "uint256"
        },
        {
          "indexed": false,
          "internalType": "string",
          "name": "inputFS",
          "type": "string"
        },
        {
          "indexed": false,
          "internalType": "string[]",
          "name": "args",
          "type": "string[]"
        }
      ],
      "name": "QueueService",
      "type": "event"
    },
    {
      "anonymous": false,
      "inputs": [
        {
          "indexed": true,
          "internalType": "address",
          "name": "consumer",
          "type": "address"
        },
        {
          "indexed": true,
          "internalType": "address",
          "name": "worker",
          "type": "address"
        },
        {
          "indexed": false,
          "internalType": "string",
          "name": "outputFS",
          "type": "string"
        },
        {
          "indexed": false,
          "internalType": "uint256",
          "name": "id",
          "type": "uint256"
        }
      ],
      "name": "ServiceComplete",
      "type": "event"
    },
    {
      "anonymous": false,
      "inputs": [
        {
          "indexed": true,
          "internalType": "address",
          "name": "consumer",
          "type": "address"
        },
        {
          "indexed": true,
          "internalType": "address",
          "name": "worker",
          "type": "address"
        },
        {
          "indexed": false,
          "internalType": "string",
          "name": "stdErr",
          "type": "string"
        },
        {
          "indexed": false,
          "internalType": "string",
          "name": "outputFS",
          "type": "string"
        },
        {
          "indexed": false,
          "internalType": "uint256",
          "name": "id",
          "type": "uint256"
        }
      ],
      "name": "ServiceError",
      "type": "event"
    },
    {
      "anonymous": false,
      "inputs": [
        {
          "indexed": true,
          "internalType": "address",
          "name": "consumer",
          "type": "address"
        },
        {
          "indexed": true,
          "internalType": "address",
          "name": "worker",
          "type": "address"
        },
        {
          "indexed": false,
          "internalType": "uint256",
          "name": "id",
          "type": "uint256"
        },
        {
          "indexed": false,
          "internalType": "uint256",
          "name": "endDate",
          "type": "uint256"
        }
      ],
      "name": "ServiceExtended",
      "type": "event"
    },
    {
      "anonymous": false,
      "inputs": [
        {
          "indexed": true,
          "internalType": "address",
          "name": "consumer",
          "type": "address"
        },
        {
          "indexed": true,
          "internalType": "address",
          "name": "worker",
          "type": "address"
        },
        {
          "indexed": false,
          "internalType": "uint256",
          "name": "id",
          "type": "uint256"
        }
      ],
      "name": "ServiceRunning",
      "type": "event"
    },
    {
      "anonymous": false,
      "inputs": [
        {
          "indexed": true,
          "internalType": "address",
          "name": "consumer",
          "type": "address"
        },
        {
          "indexed": true,
          "internalType": "address",
          "name": "worker",
          "type": "address"
        },
        {
          "indexed": false,
          "internalType": "uint256",
          "name": "amount",
          "type": "uint256"
        }
      ],
      "name": "SoldGas",
      "type": "event"
    },
    {
      "anonymous": false,
      "inputs": [
        {
          "indexed": false,
          "internalType": "address",
          "name": "consumer",
          "type": "address"
        },
        {
          "indexed": false,
          "internalType": "address[]",
          "name": "workers",
          "type": "address[]"
        }
      ],
      "name": "UpdateWorkers",
      "type": "event"
    },
    {
      "anonymous": false,
      "inputs": [
        {
          "indexed": true,
          "internalType": "address",
          "name": "consumer",
          "type": "address"
        },
        {
          "indexed": true,
          "internalType": "address",
          "name": "worker",
          "type": "address"
        },
        {
          "indexed": false,
          "internalType": "uint256",
          "name": "amount",
          "type": "uint256"
        }
      ],
      "name": "UsedGas",
      "type": "event"
    },
    {
      "anonymous": false,
      "inputs": [
        {
          "indexed": true,
          "internalType": "address",
          "name": "worker",
          "type": "address"
        },
        {
          "indexed": false,
          "internalType": "bool",
          "name": "active",
          "type": "bool"
        },
        {
          "indexed": false,
          "internalType": "string",
          "name": "endpoint",
          "type": "string"
        }
      ],
      "name": "WORKERStatusChanged",
      "type": "event"
    },
    {
      "inputs": [],
      "name": "FAST_GAS_FEED",
      "outputs": [
        {
          "internalType": "contract AggregatorV3Interface",
          "name": "",
          "type": "address"
        }
      ],
      "stateMutability": "view",
      "type": "function"
    },
    {
      "inputs": [
        {
          "internalType": "string",
          "name": "imageName",
          "type": "string"
        },
        {
          "internalType": "string",
          "name": "imageHash",
          "type": "string"
        }
      ],
      "name": "approveImage",
      "outputs": [],
      "stateMutability": "nonpayable",
      "type": "function"
    },
    {
      "inputs": [
        {
          "internalType": "string",
          "name": "",
          "type": "string"
        }
      ],
      "name": "approvedImages",
      "outputs": [
        {
          "internalType": "string",
          "name": "",
          "type": "string"
        }
      ],
      "stateMutability": "view",
      "type": "function"
    },
    {
      "inputs": [],
      "name": "bancorNetwork",
      "outputs": [
        {
          "internalType": "contract IBancorNetwork",
          "name": "",
          "type": "address"
        }
      ],
      "stateMutability": "view",
      "type": "function"
    },
    {
      "inputs": [
        {
          "internalType": "uint256",
          "name": "_amount",
          "type": "uint256"
        },
        {
          "internalType": "address",
          "name": "_consumer",
          "type": "address"
        },
        {
          "internalType": "address",
          "name": "_worker",
          "type": "address"
        }
      ],
      "name": "buyGasFor",
      "outputs": [],
      "stateMutability": "nonpayable",
      "type": "function"
    },
    {
      "inputs": [
        {
          "internalType": "string",
          "name": "imageName",
          "type": "string"
        },
        {
          "internalType": "address",
          "name": "worker",
          "type": "address"
        },
        {
          "internalType": "bool",
          "name": "include_base",
          "type": "bool"
        }
      ],
      "name": "calcServiceDapps",
      "outputs": [
        {
          "internalType": "uint256",
          "name": "",
          "type": "uint256"
        }
      ],
      "stateMutability": "view",
      "type": "function"
    },
    {
      "inputs": [],
      "name": "claim",
      "outputs": [],
      "stateMutability": "nonpayable",
      "type": "function"
    },
    {
      "inputs": [
        {
          "internalType": "address",
          "name": "",
          "type": "address"
        }
      ],
      "name": "contracts",
      "outputs": [
        {
          "internalType": "address",
          "name": "",
          "type": "address"
        }
      ],
      "stateMutability": "view",
      "type": "function"
    },
    {
      "inputs": [],
      "name": "deprecateWORKER",
      "outputs": [],
      "stateMutability": "nonpayable",
      "type": "function"
    },
    {
      "inputs": [
        {
          "internalType": "uint256",
          "name": "serviceId",
          "type": "uint256"
        },
        {
          "internalType": "string",
          "name": "imageName",
          "type": "string"
        },
        {
          "internalType": "uint256",
          "name": "months",
          "type": "uint256"
        }
      ],
      "name": "extendService",
      "outputs": [],
      "stateMutability": "nonpayable",
      "type": "function"
    },
    {
      "inputs": [],
      "name": "gasPerTimeUnit",
      "outputs": [
        {
          "internalType": "uint256",
          "name": "",
          "type": "uint256"
        }
      ],
      "stateMutability": "view",
      "type": "function"
    },
    {
      "inputs": [],
      "name": "getConfig",
      "outputs": [
        {
          "internalType": "uint32",
          "name": "paymentPremiumPPB",
          "type": "uint32"
        },
        {
          "internalType": "uint24",
          "name": "stalenessSeconds",
          "type": "uint24"
        },
        {
          "internalType": "uint16",
          "name": "gasCeilingMultiplier",
          "type": "uint16"
        },
        {
          "internalType": "uint256",
          "name": "fallbackGasPrice",
          "type": "uint256"
        }
      ],
      "stateMutability": "view",
      "type": "function"
    },
    {
      "inputs": [
        {
          "internalType": "uint256",
          "name": "gasLimit",
          "type": "uint256"
        },
        {
          "internalType": "string",
          "name": "imageName",
          "type": "string"
        },
        {
          "internalType": "address",
          "name": "worker",
          "type": "address"
        }
      ],
      "name": "getMaxPaymentForGas",
      "outputs": [
        {
          "internalType": "uint256",
          "name": "maxPayment",
          "type": "uint256"
        }
      ],
      "stateMutability": "view",
      "type": "function"
    },
    {
      "inputs": [
        {
          "internalType": "uint256",
          "name": "id",
          "type": "uint256"
        },
        {
          "internalType": "string",
          "name": "jobType",
          "type": "string"
        },
        {
          "internalType": "address",
          "name": "worker",
          "type": "address"
        }
      ],
      "name": "getMinBalance",
      "outputs": [
        {
          "internalType": "uint256",
          "name": "",
          "type": "uint256"
        }
      ],
      "stateMutability": "view",
      "type": "function"
    },
    {
      "inputs": [
        {
          "internalType": "address",
          "name": "account",
          "type": "address"
        },
        {
          "internalType": "address",
          "name": "worker",
          "type": "address"
        }
      ],
      "name": "getWORKERAmount",
      "outputs": [
        {
          "internalType": "uint256",
          "name": "",
          "type": "uint256"
        }
      ],
      "stateMutability": "view",
      "type": "function"
    },
    {
      "inputs": [
        {
          "internalType": "address",
          "name": "worker",
          "type": "address"
        }
      ],
      "name": "getWORKEREndpoint",
      "outputs": [
        {
          "internalType": "string",
          "name": "",
          "type": "string"
        }
      ],
      "stateMutability": "view",
      "type": "function"
    },
    {
      "inputs": [],
      "name": "getWorkerAddresses",
      "outputs": [
        {
          "internalType": "address[]",
          "name": "",
          "type": "address[]"
        }
      ],
      "stateMutability": "view",
      "type": "function"
    },
    {
      "inputs": [
        {
          "components": [
            {
              "internalType": "address",
              "name": "_tokenContract",
              "type": "address"
            },
            {
              "internalType": "address",
              "name": "_bancorNetwork",
              "type": "address"
            },
            {
              "internalType": "address",
              "name": "_fastGasFeed",
              "type": "address"
            },
            {
              "internalType": "uint32",
              "name": "_paymentPremiumPPB",
              "type": "uint32"
            },
            {
              "internalType": "uint24",
              "name": "_stalenessSeconds",
              "type": "uint24"
            },
            {
              "internalType": "uint256",
              "name": "_fallbackGasPrice",
              "type": "uint256"
            },
            {
              "internalType": "uint16",
              "name": "_gasCeilingMultiplier",
              "type": "uint16"
            },
            {
              "internalType": "address",
              "name": "_dappToken",
              "type": "address"
            },
            {
              "internalType": "address",
              "name": "_dappBntToken",
              "type": "address"
            },
            {
              "internalType": "address",
              "name": "_bntToken",
              "type": "address"
            },
            {
              "internalType": "address",
              "name": "_ethBntToken",
              "type": "address"
            },
            {
              "internalType": "address",
              "name": "_ethToken",
              "type": "address"
            },
            {
              "internalType": "uint256",
              "name": "_gasPerTimeUnit",
              "type": "uint256"
            },
            {
              "internalType": "uint256",
              "name": "_usdtPrecision",
              "type": "uint256"
            },
            {
              "internalType": "address",
              "name": "_usdtToken",
              "type": "address"
            },
            {
              "internalType": "address",
              "name": "_usdtBntToken",
              "type": "address"
            }
          ],
          "internalType": "struct Nexus.initArgs",
          "name": "args",
          "type": "tuple"
        }
      ],
      "name": "initialize",
      "outputs": [],
      "stateMutability": "nonpayable",
      "type": "function"
    },
    {
      "inputs": [
        {
          "internalType": "address",
          "name": "worker",
          "type": "address"
        },
        {
          "internalType": "string",
          "name": "imageName",
          "type": "string"
        }
      ],
      "name": "isImageApprovedForWORKER",
      "outputs": [
        {
          "internalType": "bool",
          "name": "",
          "type": "bool"
        }
      ],
      "stateMutability": "view",
      "type": "function"
    },
    {
      "inputs": [
        {
          "internalType": "uint256",
          "name": "id",
          "type": "uint256"
        }
      ],
      "name": "isServiceDone",
      "outputs": [
        {
          "internalType": "bool",
          "name": "",
          "type": "bool"
        }
      ],
      "stateMutability": "view",
      "type": "function"
    },
    {
      "inputs": [
        {
          "components": [
            {
              "internalType": "uint256",
              "name": "jobID",
              "type": "uint256"
            },
            {
              "internalType": "string",
              "name": "outputFS",
              "type": "string"
            },
            {
              "internalType": "string",
              "name": "outputHash",
              "type": "string"
            }
          ],
          "internalType": "struct Nexus.jobCallbackArgs",
          "name": "args",
          "type": "tuple"
        }
      ],
      "name": "jobCallback",
      "outputs": [],
      "stateMutability": "nonpayable",
      "type": "function"
    },
    {
      "inputs": [
        {
          "internalType": "uint256",
          "name": "jobID",
          "type": "uint256"
        },
        {
          "internalType": "string",
          "name": "stdErr",
          "type": "string"
        },
        {
          "internalType": "string",
          "name": "outputFS",
          "type": "string"
        }
      ],
      "name": "jobError",
      "outputs": [],
      "stateMutability": "nonpayable",
      "type": "function"
    },
    {
      "inputs": [
        {
          "internalType": "uint256",
          "name": "id",
          "type": "uint256"
        },
        {
          "internalType": "address",
          "name": "worker",
          "type": "address"
        },
        {
          "internalType": "bool",
          "name": "isJob",
          "type": "bool"
        }
      ],
      "name": "jobServiceCompleted",
      "outputs": [
        {
          "internalType": "bool",
          "name": "",
          "type": "bool"
        }
      ],
      "stateMutability": "view",
      "type": "function"
    },
    {
      "inputs": [
        {
          "internalType": "uint256",
          "name": "",
          "type": "uint256"
        }
      ],
      "name": "jobs",
      "outputs": [
        {
          "internalType": "address",
          "name": "consumer",
          "type": "address"
        },
        {
          "internalType": "address",
          "name": "owner",
          "type": "address"
        },
        {
          "internalType": "bool",
          "name": "callback",
          "type": "bool"
        },
        {
          "internalType": "uint256",
          "name": "resultsCount",
          "type": "uint256"
        },
        {
          "internalType": "string",
          "name": "imageName",
          "type": "string"
        },
        {
          "internalType": "uint256",
          "name": "gasLimit",
          "type": "uint256"
        },
        {
          "internalType": "bool",
          "name": "requireConsistent",
          "type": "bool"
        }
      ],
      "stateMutability": "view",
      "type": "function"
    },
    {
      "inputs": [],
      "name": "lastJobID",
      "outputs": [
        {
          "internalType": "uint256",
          "name": "",
          "type": "uint256"
        }
      ],
      "stateMutability": "view",
      "type": "function"
    },
    {
      "inputs": [],
      "name": "owner",
      "outputs": [
        {
          "internalType": "address",
          "name": "",
          "type": "address"
        }
      ],
      "stateMutability": "view",
      "type": "function"
    },
    {
      "inputs": [
        {
          "internalType": "address",
          "name": "",
          "type": "address"
        },
        {
          "internalType": "uint256",
          "name": "",
          "type": "uint256"
        }
      ],
      "name": "providers",
      "outputs": [
        {
          "internalType": "address",
          "name": "",
          "type": "address"
        }
      ],
      "stateMutability": "view",
      "type": "function"
    },
    {
      "inputs": [
        {
          "components": [
            {
              "internalType": "address",
              "name": "owner",
              "type": "address"
            },
            {
              "internalType": "string",
              "name": "imageName",
              "type": "string"
            },
            {
              "internalType": "string",
              "name": "inputFS",
              "type": "string"
            },
            {
              "internalType": "bool",
              "name": "callback",
              "type": "bool"
            },
            {
              "internalType": "uint256",
              "name": "gasLimit",
              "type": "uint256"
            },
            {
              "internalType": "bool",
              "name": "requireConsistent",
              "type": "bool"
            },
            {
              "internalType": "string[]",
              "name": "args",
              "type": "string[]"
            }
          ],
          "internalType": "struct Nexus.queueJobArgs",
          "name": "args",
          "type": "tuple"
        }
      ],
      "name": "queueJob",
      "outputs": [],
      "stateMutability": "nonpayable",
      "type": "function"
    },
    {
      "inputs": [
        {
          "components": [
            {
              "internalType": "address",
              "name": "owner",
              "type": "address"
            },
            {
              "internalType": "string",
              "name": "imageName",
              "type": "string"
            },
            {
              "internalType": "string",
              "name": "inputFS",
              "type": "string"
            },
            {
              "internalType": "string[]",
              "name": "args",
              "type": "string[]"
            },
            {
              "internalType": "uint256",
              "name": "months",
              "type": "uint256"
            }
          ],
          "internalType": "struct Nexus.queueServiceArgs",
          "name": "args",
          "type": "tuple"
        }
      ],
      "name": "queueService",
      "outputs": [],
      "stateMutability": "nonpayable",
      "type": "function"
    },
    {
      "inputs": [
        {
          "internalType": "string",
          "name": "endpoint",
          "type": "string"
        }
      ],
      "name": "regWORKER",
      "outputs": [],
      "stateMutability": "nonpayable",
      "type": "function"
    },
    {
      "inputs": [
        {
          "internalType": "address",
          "name": "",
          "type": "address"
        }
      ],
      "name": "registeredWORKERs",
      "outputs": [
        {
          "internalType": "bool",
          "name": "active",
          "type": "bool"
        },
        {
          "internalType": "string",
          "name": "endpoint",
          "type": "string"
        },
        {
          "internalType": "uint256",
          "name": "claimableDapp",
          "type": "uint256"
        }
      ],
      "stateMutability": "view",
      "type": "function"
    },
    {
      "inputs": [],
      "name": "renounceOwnership",
      "outputs": [],
      "stateMutability": "nonpayable",
      "type": "function"
    },
    {
      "inputs": [
        {
          "internalType": "uint256",
          "name": "_amountToSell",
          "type": "uint256"
        },
        {
          "internalType": "address",
          "name": "_worker",
          "type": "address"
        }
      ],
      "name": "sellGas",
      "outputs": [],
      "stateMutability": "nonpayable",
      "type": "function"
    },
    {
      "inputs": [
        {
          "internalType": "uint256",
          "name": "serviceId",
          "type": "uint256"
        }
      ],
      "name": "serviceCallback",
      "outputs": [],
      "stateMutability": "nonpayable",
      "type": "function"
    },
    {
      "inputs": [
        {
          "components": [
            {
              "internalType": "uint256",
              "name": "jobID",
              "type": "uint256"
            },
            {
              "internalType": "string",
              "name": "outputFS",
              "type": "string"
            }
          ],
          "internalType": "struct Nexus.serviceCompleteArgs",
          "name": "args",
          "type": "tuple"
        }
      ],
      "name": "serviceComplete",
      "outputs": [],
      "stateMutability": "nonpayable",
      "type": "function"
    },
    {
      "inputs": [
        {
          "components": [
            {
              "internalType": "uint256",
              "name": "jobID",
              "type": "uint256"
            },
            {
              "internalType": "string",
              "name": "stdErr",
              "type": "string"
            },
            {
              "internalType": "string",
              "name": "outputFS",
              "type": "string"
            }
          ],
          "internalType": "struct Nexus.serviceErrorArgs",
          "name": "args",
          "type": "tuple"
        }
      ],
      "name": "serviceError",
      "outputs": [],
      "stateMutability": "nonpayable",
      "type": "function"
    },
    {
      "inputs": [
        {
          "internalType": "uint256",
          "name": "",
          "type": "uint256"
        }
      ],
      "name": "services",
      "outputs": [
        {
          "internalType": "address",
          "name": "consumer",
          "type": "address"
        },
        {
          "internalType": "address",
          "name": "owner",
          "type": "address"
        },
        {
          "internalType": "string",
          "name": "imageName",
          "type": "string"
        },
        {
          "internalType": "bool",
          "name": "started",
          "type": "bool"
        },
        {
          "internalType": "uint256",
          "name": "endDate",
          "type": "uint256"
        },
        {
          "internalType": "uint256",
          "name": "months",
          "type": "uint256"
        }
      ],
      "stateMutability": "view",
      "type": "function"
    },
    {
      "inputs": [
        {
          "internalType": "uint32",
          "name": "paymentPremiumPPB",
          "type": "uint32"
        },
        {
          "internalType": "uint16",
          "name": "gasCeilingMultiplier",
          "type": "uint16"
        },
        {
          "internalType": "uint256",
          "name": "fallbackGasPrice",
          "type": "uint256"
        },
        {
          "internalType": "uint24",
          "name": "stalenessSeconds",
          "type": "uint24"
        }
      ],
      "name": "setConfig",
      "outputs": [],
      "stateMutability": "nonpayable",
      "type": "function"
    },
    {
      "inputs": [
        {
          "internalType": "address",
          "name": "authorized_contract",
          "type": "address"
        }
      ],
      "name": "setConsumerContract",
      "outputs": [],
      "stateMutability": "nonpayable",
      "type": "function"
    },
    {
      "inputs": [
        {
          "internalType": "string",
          "name": "imageName",
          "type": "string"
        },
        {
          "internalType": "uint256",
          "name": "jobFee",
          "type": "uint256"
        },
        {
          "internalType": "uint256",
          "name": "baseFee",
          "type": "uint256"
        }
      ],
      "name": "setDockerImage",
      "outputs": [],
      "stateMutability": "nonpayable",
      "type": "function"
    },
    {
      "inputs": [
        {
          "internalType": "address[]",
          "name": "workers",
          "type": "address[]"
        }
      ],
      "name": "setWorkers",
      "outputs": [],
      "stateMutability": "nonpayable",
      "type": "function"
    },
    {
      "inputs": [],
      "name": "token",
      "outputs": [
        {
          "internalType": "contract IERC20Upgradeable",
          "name": "",
          "type": "address"
        }
      ],
      "stateMutability": "view",
      "type": "function"
    },
    {
      "inputs": [],
      "name": "totalDappGasPaid",
      "outputs": [
        {
          "internalType": "uint256",
          "name": "",
          "type": "uint256"
        }
      ],
      "stateMutability": "view",
      "type": "function"
    },
    {
      "inputs": [],
      "name": "totalWorkers",
      "outputs": [
        {
          "internalType": "uint256",
          "name": "",
          "type": "uint256"
        }
      ],
      "stateMutability": "view",
      "type": "function"
    },
    {
      "inputs": [
        {
          "internalType": "address",
          "name": "newOwner",
          "type": "address"
        }
      ],
      "name": "transferOwnership",
      "outputs": [],
      "stateMutability": "nonpayable",
      "type": "function"
    },
    {
      "inputs": [
        {
          "internalType": "string",
          "name": "imageName",
          "type": "string"
        }
      ],
      "name": "unapproveDockerForWORKER",
      "outputs": [],
      "stateMutability": "nonpayable",
      "type": "function"
    },
    {
      "inputs": [
        {
          "internalType": "string",
          "name": "imageName",
          "type": "string"
        },
        {
          "internalType": "string",
          "name": "imageHash",
          "type": "string"
        }
      ],
      "name": "unapproveImage",
      "outputs": [],
      "stateMutability": "nonpayable",
      "type": "function"
    },
    {
      "inputs": [
        {
          "internalType": "string",
          "name": "imageName",
          "type": "string"
        },
        {
          "internalType": "uint256",
          "name": "jobFee",
          "type": "uint256"
        },
        {
          "internalType": "uint256",
          "name": "baseFee",
          "type": "uint256"
        }
      ],
      "name": "updateDockerImage",
      "outputs": [],
      "stateMutability": "nonpayable",
      "type": "function"
    },
    {
      "inputs": [],
      "name": "usdtPrecision",
      "outputs": [
        {
          "internalType": "uint256",
          "name": "",
          "type": "uint256"
        }
      ],
      "stateMutability": "view",
      "type": "function"
    },
    {
      "inputs": [
        {
          "internalType": "address[]",
          "name": "workers",
          "type": "address[]"
        }
      ],
      "name": "validateActiveWorkers",
      "outputs": [],
      "stateMutability": "view",
      "type": "function"
    },
    {
      "inputs": [
        {
          "internalType": "address",
          "name": "",
          "type": "address"
        },
        {
          "internalType": "string",
          "name": "",
          "type": "string"
        }
      ],
      "name": "workerApprovedImages",
      "outputs": [
        {
          "internalType": "uint256",
          "name": "jobFee",
          "type": "uint256"
        },
        {
          "internalType": "uint256",
          "name": "baseFee",
          "type": "uint256"
        }
      ],
      "stateMutability": "view",
      "type": "function"
    },
    {
      "inputs": [
        {
          "internalType": "address",
          "name": "",
          "type": "address"
        },
        {
          "internalType": "address",
          "name": "",
          "type": "address"
        }
      ],
      "name": "workerData",
      "outputs": [
        {
          "internalType": "uint256",
          "name": "amount",
          "type": "uint256"
        },
        {
          "internalType": "uint256",
          "name": "claimable",
          "type": "uint256"
        }
      ],
      "stateMutability": "view",
      "type": "function"
    },
    {
      "inputs": [
        {
          "internalType": "uint256",
          "name": "",
          "type": "uint256"
        }
      ],
      "name": "workerList",
      "outputs": [
        {
          "internalType": "address",
          "name": "",
          "type": "address"
        }
      ],
      "stateMutability": "view",
      "type": "function"
    }
  ],
  "bytecode": "0x608060405234801561001057600080fd5b50615457806100206000396000f3fe608060405234801561001057600080fd5b50600436106103275760003560e01c8063655af2f3116101b8578063aa4bfddb11610104578063c3f909d4116100a2578063f2fde38b1161007c578063f2fde38b14610813578063f310ddc814610826578063f3298eff14610839578063fc0c546a1461084c57600080fd5b8063c3f909d414610767578063c7e5fea1146107c7578063d1e7db9a146107da57600080fd5b8063b72d49a8116100de578063b72d49a814610709578063b7b7eed91461071c578063c02b67a51461072f578063c22c4f431461074257600080fd5b8063aa4bfddb146106e4578063ada604a3146106f7578063b1418b961461070057600080fd5b8063715018a61161017157806387f3a2771161014b57806387f3a277146106885780638da5cb5b146106ad57806398873109146106be578063a4edb25e146106d157600080fd5b8063715018a61461063b5780637f15b3dc1461064357806380e263ac1461067557600080fd5b8063655af2f3146105a357806365edac3d146105b6578063697d2cee146105c957806369dc9ff3146105dc5780636dd83bd8146106055780636e46f8cd1461062857600080fd5b80633c72a30a11610277578063483a0558116102305780634e9770891161020a5780634e9770891461051c5780635404bbaf14610525578063576873321461057d5780635a6698f71461059057600080fd5b8063483a0558146104d85780634d432c1d146104eb5780634e71d92d1461051457600080fd5b80633c72a30a1461044e5780633d7f9b9b146104615780633e0a5c141461047457806341eff89a146104875780634377ed441461049a5780634584a419146104ad57600080fd5b80631c58af41116102e457806334c37962116102be57806334c379621461041557806334e8bc8f1461041d578063381737b81461043057806339c126361461043957600080fd5b80631c58af41146103dc578063213da8c8146103ef578063319c7eb11461040257600080fd5b80630f80f5611461032c5780630fa0f00d1461035557806311b53b5f1461036a578063155119e11461038c578063180aedf3146103a35780631969b3e1146103c9575b600080fd5b61033f61033a3660046142e2565b61085f565b60405161034c9190614355565b60405180910390f35b6103686103633660046143a1565b61090e565b005b61037d6103783660046142e2565b6109e6565b60405161034c939291906143ee565b61039560ac5481565b60405190815260200161034c565b6103b66103b1366004614419565b610a95565b60405161034c9796959493929190614432565b61033f6103d7366004614566565b610b6f565b6103686103ea3660046145e2565b610c14565b6103686103fd366004614632565b610d52565b61036861041036600461469d565b610dee565b610368610f1e565b61036861042b3660046146c9565b611058565b61039560ab5481565b6104416110ee565b60405161034c9190614781565b61036861045c366004614794565b6111a4565b61036861046f3660046147f8565b6114ad565b6103686104823660046145e2565b6116d0565b61036861049536600461482c565b611793565b6103956104a836600461486d565b611816565b6099546104c0906001600160a01b031681565b6040516001600160a01b03909116815260200161034c565b6103686104e63660046148c3565b6119d2565b6104c06104f9366004614419565b60ae602052600090815260409020546001600160a01b031681565b610368611a8b565b61039560ad5481565b61056861053336600461496f565b60aa60209081526000928352604090922081518083018401805192815290840192909301919091209152805460019091015482565b6040805192835260208301919091520161034c565b61036861058b3660046149bc565b611b59565b61039561059e366004614a04565b611f4f565b6103686105b13660046142e2565b611fe0565b6103686105c4366004614632565b61206e565b6103686105d7366004614a65565b612106565b6104c06105ea3660046142e2565b60a6602052600090815260409020546001600160a01b031681565b610618610613366004614a98565b612223565b604051901515815260200161034c565b61036861063636600461482c565b612268565b61036861238f565b610568610651366004614aea565b60a46020908152600092835260408084209091529082529020805460019091015482565b610368610683366004614b14565b6123c5565b610618610696366004614419565b600090815260a86020526040902060050154421190565b6033546001600160a01b03166104c0565b6103686106cc366004614b8d565b6125f1565b6098546104c0906001600160a01b031681565b6104c06106f2366004614cac565b612780565b610395609f5481565b61039560a05481565b610618610717366004614cd6565b6127b8565b61039561072a36600461486d565b61290b565b61036861073d366004614cfb565b612920565b610755610750366004614419565b612b52565b60405161034c96959493929190614d35565b604080516060808201835260af5463ffffffff8116808452640100000000820461ffff166020808601829052600160301b90930462ffffff1694860185905260b0548651928352928201949094529384019290925282015260800161034c565b6103686107d53660046147f8565b612c22565b6103956107e8366004614aea565b6001600160a01b03918216600090815260a46020908152604080832093909416825291909152205490565b6103686108213660046142e2565b612fb2565b610368610834366004614419565b61304d565b610368610847366004614d7f565b6131d5565b6097546104c0906001600160a01b031681565b6001600160a01b038116600090815260a36020526040902060010180546060919061088990614db9565b80601f01602080910402602001604051908101604052809291908181526020018280546108b590614db9565b80156109025780601f106108d757610100808354040283529160200191610902565b820191906000526020600020905b8154815290600101906020018083116108e557829003601f168201915b50505050509050919050565b6033546001600160a01b031633146109415760405162461bcd60e51b815260040161093890614ded565b60405180910390fd5b604080516060808201835263ffffffff871680835261ffff8716602080850182905262ffffff871694860185905260af805465ffffffffffff1916841764010000000084021768ffffff0000000000001916600160301b870217905560b088905585519283528201529283018590528201527f8a8fca58ff702c815d540a34188b15180d1b8b31ffc4cfc6792ce2bdb07a73c89060800160405180910390a150505050565b60a3602052600090815260409020805460018201805460ff9092169291610a0c90614db9565b80601f0160208091040260200160405190810160405280929190818152602001828054610a3890614db9565b8015610a855780601f10610a5a57610100808354040283529160200191610a85565b820191906000526020600020905b815481529060010190602001808311610a6857829003601f168201915b5050505050908060020154905083565b60a760205260009081526040902080546001820154600383015460048401546005850180546001600160a01b0395861696949095169460ff909316939192610adc90614db9565b80601f0160208091040260200160405190810160405280929190818152602001828054610b0890614db9565b8015610b555780601f10610b2a57610100808354040283529160200191610b55565b820191906000526020600020905b815481529060010190602001808311610b3857829003601f168201915b50505050600683015460079093015491929160ff16905087565b805160208183018101805160a98252928201919093012091528054610b9390614db9565b80601f0160208091040260200160405190810160405280929190818152602001828054610bbf90614db9565b8015610c0c5780601f10610be157610100808354040283529160200191610c0c565b820191906000526020600020905b815481529060010190602001808311610bef57829003601f168201915b505050505081565b604051339060a990610c299087908790614e22565b90815260200160405180910390208054610c4290614db9565b9050600003610c885760405162461bcd60e51b81526020600482015260126024820152711a5b5859d9481b9bdd08185c1c1c9bdd995960721b6044820152606401610938565b600083118015610c985750600082115b610cd25760405162461bcd60e51b815260206004820152600b60248201526a696e76616c69642066656560a81b6044820152606401610938565b6001600160a01b038116600090815260aa6020526040908190209051849190610cfe9088908890614e22565b9081526040805160209281900383018120939093556001600160a01b038416600090815260aa90925290208391610d389088908890614e22565b908152604051908190036020019020600101555050505050565b6033546001600160a01b03163314610d7c5760405162461bcd60e51b815260040161093890614ded565b6000819003610dbc5760405162461bcd60e51b815260206004820152600c60248201526b0d2dcecc2d8d2c840d0c2e6d60a31b6044820152606401610938565b60a98484604051610dce929190614e22565b90815260200160405180910390206000610de8919061412c565b50505050565b600260655403610e105760405162461bcd60e51b815260040161093890614e32565b600260655533600081815260a4602090815260408083206001600160a01b0386168452909152902054831115610e745760405162461bcd60e51b815260206004820152600960248201526837bb32b9323930bbb760b91b6044820152606401610938565b6001600160a01b03808216600090815260a46020908152604080832093861683529290529081208054859290610eab908490614e7f565b9091555050609754610ec7906001600160a01b031682856133de565b816001600160a01b0316816001600160a01b03167f8f5fa856284b74bcd941cff9a8e370a8e8c3e90d88177b1e50b995c18daa89a085604051610f0c91815260200190565b60405180910390a35050600160655550565b33600081815260a3602052604090206001018054610f3b90614db9565b9050600003610f915760ab8054829160ae9160009182610f5a83614e96565b91905055815260200190815260200160002060006101000a8154816001600160a01b0302191690836001600160a01b031602179055505b6001600160a01b038116600081815260a360208181526040808420805460ff191681558151808301909252600a82526919195c1c9958d85d195960b21b8284019081529590945291905251610fec9260019092019190614166565b50806001600160a01b03167f043c9d755555dfa71dc825d9814a98681111303b64ed0fb1eafba02fb59c0bb8600060405161104d9115158152604060208201819052600a908201526919195c1c9958d85d195960b21b606082015260800190565b60405180910390a250565b6110948282808060200260200160405190810160405280939291908181526020018383602002808284376000920191909152506119d292505050565b33600090815260a5602052604090206110ae9083836141ea565b507f6e94ce61d473975136debe626430b94499dbef9e05757faf703de48c00da755a3383836040516110e293929190614eaf565b60405180910390a15050565b6060600060ab546001600160401b0381111561110c5761110c614488565b604051908082528060200260200182016040528015611135578160200160208202803683370190505b50905060005b60ab5481101561119e57600081815260ae602052604090205482516001600160a01b039091169083908390811061117457611174614f09565b6001600160a01b03909216602092830291909101909101528061119681614e96565b91505061113b565b50919050565b6111ad33613446565b600084815260a860209081526040918290208251601f86018390048302810183019093528483529161128591869086908190840183828082843760009201919091525050505060038301805461120290614db9565b80601f016020809104026020016040519081016040528092919081815260200182805461122e90614db9565b801561127b5780601f106112505761010080835404028352916020019161127b565b820191906000526020600020905b81548152906001019060200180831161125e57829003601f168201915b50505050506134ef565b6112bd5760405162461bcd60e51b81526020600482015260096024820152680dad2e6e6dac2e8c6d60bb1b6044820152606401610938565b428160050154116113015760405162461bcd60e51b815260206004820152600e60248201526d74696d652072656d61696e696e6760901b6044820152606401610938565b33600090815260a560205260409020805461132e5760405162461bcd60e51b815260040161093890614f1f565b60005b81548110156114a4576000841561134957600161134c565b60005b905060006113b888888080601f016020809104026020016040519081016040528093929190818152602001838380828437600092019190915250508754889250879150811061139d5761139d614f09565b6000918252602090912001546001600160a01b031684611f4f565b905081156113ee576113ca8682614f43565b90506113d98662278d00614f43565b85600501546113e89190614f62565b60058601555b61141f813386868154811061140557611405614f09565b6000918252602090912001546001600160a01b0316612106565b83838154811061143157611431614f09565b60009182526020909120015460058601546040516001600160a01b039092169133917f45cd763a6ee96ecf38c00ae7ccfb720905f26ea62f803f76340de7091b77878191611487918e8252602082015260400190565b60405180910390a35050808061149c90614e96565b915050611331565b50505050505050565b8035600090815260a86020908152604080832060018101546001600160a01b0316845260a590925290912080546114f65760405162461bcd60e51b815260040161093890614f1f565b600061155d8280548060200260200160405190810160405280929190818152602001828054801561155057602002820191906000526020600020905b81546001600160a01b03168152600190910190602001808311611532575b5050505050336001613548565b600081815260088501602052604090205490915060ff16156115915760405162461bcd60e51b815260040161093890614f7a565b600061162b8460030180546115a590614db9565b80601f01602080910402602001604051908101604052809291908181526020018280546115d190614db9565b801561161e5780601f106115f35761010080835404028352916020019161161e565b820191906000526020600020905b81548152906001019060200180831161160157829003601f168201915b5050505050336001611f4f565b8454909150611644906001600160a01b031682336135e8565b60008281526008850160209081526040909120805460ff19166001179055845433916001600160a01b0391909116907f08080b5cb6adfa01b122b5cfa5b566c300c37a7bc400b994d7004b0a5a1e54a6906116a190890189614f9d565b6116ae60408b018b614f9d565b6040516116c194939291908d359061500c565b60405180910390a35050505050565b33600090815260aa602052604080822090518491906116f29088908890614e22565b908152604051908190036020019020541461170b575060015b33600090815260aa602052604090819020905183919061172e9088908890614e22565b90815260200160405180910390206001015414611749575060015b806117805760405162461bcd60e51b81526020600482015260076024820152663737903234b33360c91b6044820152606401610938565b61178c85858585610c14565b5050505050565b33600081815260aa60205260409081902090516117b39085908590614e22565b908152604051908190036020018120600080825560019091018190556001600160a01b038316917fbedd4cca1acec8ab178c7b2dade9c35421b8246dcba1d0fcda45fde6befcce36916118099187918791615046565b60405180910390a2505050565b600061183d83604051806040016040528060038152602001623537b160e91b8152506134ef565b156118f657600084815260a7602052604090206006810154600590910180546118ef92919061186b90614db9565b80601f016020809104026020016040519081016040528092919081815260200182805461189790614db9565b80156118e45780601f106118b9576101008083540402835291602001916118e4565b820191906000526020600020905b8154815290600101906020018083116118c757829003601f168201915b50505050508461371b565b90506119cb565b61191f83604051806040016040528060078152602001667365727669636560c81b8152506134ef565b156119cb57600084815260a86020526040902060030180546118ef919061194590614db9565b80601f016020809104026020016040519081016040528092919081815260200182805461197190614db9565b80156119be5780601f10611993576101008083540402835291602001916119be565b820191906000526020600020905b8154815290600101906020018083116119a157829003601f168201915b5050505050836001611f4f565b9392505050565b60008151116119f35760405162461bcd60e51b815260040161093890614f1f565b60005b8151811015611a875760a36000838381518110611a1557611a15614f09565b6020908102919091018101516001600160a01b031682528101919091526040016000205460ff16611a755760405162461bcd60e51b815260206004820152600a6024820152696e6f742061637469766560b01b6044820152606401610938565b80611a7f81614e96565b9150506119f6565b5050565b600260655403611aad5760405162461bcd60e51b815260040161093890614e32565b6002606581905533600090815260a3602052604081209091015490819003611b055760405162461bcd60e51b815260206004820152600b60248201526a1c995c481c1bdcc818985b60aa1b6044820152606401610938565b609754611b1c906001600160a01b031633836133de565b60405181815233907f36afaa6dcdce8cb3e535639868ecced2aed60a5176e0ac58a7ebdb14f473723a9060200160405180910390a2506001606555565b611b6233613446565b600060a581611b7460208501856142e2565b6001600160a01b0316815260208101919091526040016000208054909150611bae5760405162461bcd60e51b815260040161093890614f1f565b611c1081805480602002602001604051908101604052809291908181526020018280548015611c0657602002820191906000526020600020905b81546001600160a01b03168152600190910190602001808311611be8575b50505050506119d2565b60ad54611c1e906001614f62565b60ad819055600090815260a760205260409020611c41608084016060850161506c565b60038201805460ff1916911515919091179055611c6460c0840160a0850161506c565b60078201805491151560ff1990921691909117905580546001600160a01b03191633178155611c9660208401846142e2565b6001820180546001600160a01b0319166001600160a01b0392909216919091179055611cc56020840184614f9d565b611cd391600584019161423d565b506080830135600682015560005b8254811015611ecc57611d22838281548110611cff57611cff614f09565b600091825260209182902001546001600160a01b03169061061390870187614f9d565b611d5d5760405162461bcd60e51b815260206004820152600c60248201526b1b9bdd08185c1c1c9bdd995960a21b6044820152606401610938565b60ad54600090815260a760205260409020600681015460059091018054611e33929190611d8990614db9565b80601f0160208091040260200160405190810160405280929190818152602001828054611db590614db9565b8015611e025780601f10611dd757610100808354040283529160200191611e02565b820191906000526020600020905b815481529060010190602001808311611de557829003601f168201915b5050505050858481548110611e1957611e19614f09565b6000918252602090912001546001600160a01b031661371b565b33600090815260a4602052604081208554909190869085908110611e5957611e59614f09565b60009182526020808320909101546001600160a01b031683528201929092526040019020541015611eba5760405162461bcd60e51b815260206004820152600b60248201526a18985b081b9bdd081b595d60aa1b6044820152606401610938565b80611ec481614e96565b915050611ce1565b50611eda60208401846142e2565b6001600160a01b0316337f228c7d6bef7a7b954880b35fb265490adf0cc68447cc1ef6ec9901af9227b7e5611f126020870187614f9d565b60ad54611f2260408a018a614f9d565b611f2f60c08c018c615089565b604051611f4297969594939291906150d2565b60405180910390a3505050565b600080611f5a6137c9565b6001600160a01b038516600090815260aa602052604080822090519293509091611f8590889061519e565b908152602001604051809103902060010154905083611fa5576000611fc6565b81611fb1826018614f43565b611fbc90601e614f43565b611fc69190614f43565b905060a05481611fd691906151ba565b9695505050505050565b33600090815260a660205260409020546001600160a01b0380831691160361203f5760405162461bcd60e51b8152602060048201526012602482015271185b1c9958591e48185d5d1a1bdc9a5e995960721b6044820152606401610938565b33600090815260a66020526040902080546001600160a01b0319166001600160a01b0392909216919091179055565b6033546001600160a01b031633146120985760405162461bcd60e51b815260040161093890614ded565b60008190036120d85760405162461bcd60e51b815260206004820152600c60248201526b0d2dcecc2d8d2c840d0c2e6d60a31b6044820152606401610938565b818160a986866040516120ec929190614e22565b90815260405190819003602001902061178c92909161423d565b6002606554036121285760405162461bcd60e51b815260040161093890614e32565b60026065556001600160a01b038116600090815260a3602052604090205460ff166121805760405162461bcd60e51b8152602060048201526008602482015267696e61637469766560c01b6044820152606401610938565b609754612198906001600160a01b031633308661395c565b6001600160a01b03808316600090815260a460209081526040808320938516835292905290812080548592906121cf908490614f62565b90915550506040518381526001600160a01b03808316919084169033907f4927c39c4343e75cf73886e779e6337ae13fa99676e50b0e3ac51f05b331b12b9060200160405180910390a45050600160655550565b6001600160a01b038316600090815260aa6020526040808220905182919061224e9086908690614e22565b908152604051908190036020019020541190509392505050565b60008190036122ac5760405162461bcd60e51b815260206004820152601060248201526f1a5b9d985b1a5908195b991c1bda5b9d60821b6044820152606401610938565b33600081815260a36020526040902060010180546122c990614db9565b905060000361231f5760ab8054829160ae91600091826122e883614e96565b91905055815260200190815260200160002060006101000a8154816001600160a01b0302191690836001600160a01b031602179055505b6001600160a01b038116600090815260a360205260409020805460ff1916600190811782556123509101848461423d565b50806001600160a01b03167f043c9d755555dfa71dc825d9814a98681111303b64ed0fb1eafba02fb59c0bb860018585604051611809939291906151dc565b6033546001600160a01b031633146123b95760405162461bcd60e51b815260040161093890614ded565b6123c36000613994565b565b600085815260a76020908152604080832060018101546001600160a01b0316845260a5909252909120805461240c5760405162461bcd60e51b815260040161093890614f1f565b600061247182805480602002602001604051908101604052809291908181526020018280548015611550576020028201919060005260206000209081546001600160a01b03168152600190910190602001808311611532575050505050336001613548565b600081815260088501602052604090205490915060ff16156124a55760405162461bcd60e51b815260040161093890614f7a565b600061253f60008560050180546124bb90614db9565b80601f01602080910402602001604051908101604052809291908181526020018280546124e790614db9565b80156125345780601f1061250957610100808354040283529160200191612534565b820191906000526020600020905b81548152906001019060200180831161251757829003601f168201915b50505050503361371b565b8454909150612558906001600160a01b031682336135e8565b600184600801600084815260200190815260200160002060006101000a81548160ff0219169083151502179055508360000160009054906101000a90046001600160a01b03166001600160a01b03167f105b6b960a49135276e4f3fb47aeb4a7e24a9d69492e943e1f9f33bfacf7ab93898989898e6040516125de95949392919061500c565b60405180910390a2505050505050505050565b600054610100900460ff1661260c5760005460ff1615612610565b303b155b61262c5760405162461bcd60e51b815260040161093890615201565b600054610100900460ff1615801561264e576000805461ffff19166101011790555b6126566139e6565b61265e613a15565b8151609780546001600160a01b03199081166001600160a01b03938416179091556020840151609880548316918416919091179055604084015160998054831691841691909117905560e0840151609a80548316918416919091179055610100840151609b80548316918416919091179055610120840151609c80548316918416919091179055610140840151609d80548316918416919091179055610160840151609e80548316918416919091179055610180840151609f556101a084015160a09081556101c085015160a1805484169185169190911790556101e085015160a280549093169316929092179055606083015160c084015191840151608085015161276b93919061090e565b8015611a87576000805461ff00191690555050565b60a5602052816000526040600020818154811061279c57600080fd5b6000918252602090912001546001600160a01b03169150829050565b6000811561287f57600084815260a76020908152604080832060018101546001600160a01b0316845260a58352818420805483518186028101860190945280845291949093909261284e92909185919083018282801561284157602002820191906000526020600020905b81546001600160a01b03168152600190910190602001808311612823575b5050505050876000613548565b9050801961286257600093505050506119cb565b6000908152600890920160205250604090205460ff1690506119cb565b600084815260a86020908152604080832060018101546001600160a01b0316845260a58352818420805483518186028101860190945280845291949093909261284e929091859190830182828015612841576020028201919060005260206000209081546001600160a01b03168152600190910190602001808311612823575050505050876000613548565b600061291884848461371b565b949350505050565b61292933613446565b600060a58161293b60208501856142e2565b6001600160a01b03168152602081019190915260400160002080549091506129755760405162461bcd60e51b815260040161093890614f1f565b6129d581805480602002602001604051908101604052809291908181526020018280548015611c06576020028201919060005260206000209081546001600160a01b03168152600190910190602001808311611be85750505050506119d2565b60005b8154811015612a6657612a198282815481106129f6576129f6614f09565b600091825260209182902001546001600160a01b03169061061390860186614f9d565b612a545760405162461bcd60e51b815260206004820152600c60248201526b1b9bdd08185c1c1c9bdd995960a21b6044820152606401610938565b80612a5e81614e96565b9150506129d8565b5060ad54612a75906001614f62565b60ad819055600090815260a86020908152604090912080546001600160a01b0319163317815590612aa8908401846142e2565b6001820180546001600160a01b0319166001600160a01b0392909216919091179055612ad76020840184614f9d565b612ae591600384019161423d565b5060808301356006820155612afd60208401846142e2565b6001600160a01b0316337f3d11dffc02a748fa738597722531f1ef4c83b66c72091dcf4adb819a2a8fa13b612b356020870187614f9d565b60ad54612b4560408a018a614f9d565b611f2f60608c018c615089565b60a8602052600090815260409020805460018201546003830180546001600160a01b03938416949290931692612b8790614db9565b80601f0160208091040260200160405190810160405280929190818152602001828054612bb390614db9565b8015612c005780601f10612bd557610100808354040283529160200191612c00565b820191906000526020600020905b815481529060010190602001808311612be357829003601f168201915b5050505060048301546005840154600690940154929360ff9091169290915086565b8035600090815260a76020908152604080832060018101546001600160a01b0316845260a59092529091208054612c6b5760405162461bcd60e51b815260040161093890614f1f565b816008016000612cd483805480602002602001604051908101604052809291908181526020018280548015611550576020028201919060005260206000209081546001600160a01b03168152600190910190602001808311611532575050505050336001613548565b815260208101919091526040016000205460ff1615612d055760405162461bcd60e51b815260040161093890614f7a565b6000612db38435612d196020870187614f9d565b604051602001612d2a929190614e22565b60408051601f19818403018152828252805160209182012060018901546001600160a01b0316600090815260a583528390208054808402860184019094528385529093929091830182828015612da957602002820191906000526020600020905b81546001600160a01b03168152600190910190602001808311612d8b575b5050505050613a8e565b600784015490915060ff1615612dff5780612dff5760405162461bcd60e51b815260206004820152600c60248201526b1a5b98dbdb9cda5cdd195b9d60a21b6044820152606401610938565b600383015460009060ff1615612e92575a60068501548554919250612e83916001600160a01b0316612e346020890189614f9d565b612e4160408b018b614f9d565b604051602401612e54949392919061524f565b60408051601f198184030181529190526020810180516001600160e01b0316632a16e72560e01b179052613bea565b505a612e8f9082614e7f565b90505b6000612ea7828660050180546124bb90614db9565b8554909150612ec0906001600160a01b031682336135e8565b845433906001600160a01b03167fe05a85698af7732aa0ea230656f9c46d18f559c07665f0411ca43a2455a045aa612efb60208a018a614f9d565b612f0860408c018c614f9d565b604051612f1d949392919089908f3590615276565b60405180910390a3600485015433600090815260a5602052604090205414612f4757505050505050565b84546001600160a01b03167f3c23ec8d254003e5d452fa03fdc2ff6e5531a15e79e0fe710e0dd4abdc90e6c6612f806020890189614f9d565b612f8d60408b018b614f9d565b604051612fa294939291908a908e35906152b3565b60405180910390a2505050505050565b6033546001600160a01b03163314612fdc5760405162461bcd60e51b815260040161093890614ded565b6001600160a01b0381166130415760405162461bcd60e51b815260206004820152602660248201527f4f776e61626c653a206e6577206f776e657220697320746865207a65726f206160448201526564647265737360d01b6064820152608401610938565b61304a81613994565b50565b600081815260a86020908152604080832060018101546001600160a01b0316845260a590925290912080546130945760405162461bcd60e51b815260040161093890614f1f565b6130f781805480602002602001604051908101604052809291908181526020018280548015611550576020028201919060005260206000209081546001600160a01b03168152600190910190602001808311611532575050505050336001613548565b50600482015460ff16156131375760405162461bcd60e51b81526020600482015260076024820152661cdd185c9d195960ca1b6044820152606401610938565b60048201805460ff1916600117905560068201546131589062278d00614f43565b6131629042614f62565b600583015581546003830180546001600160a01b039092169160009161318b916115a590614db9565b90506131988282336135e8565b60405185815233906001600160a01b038416907f7eea6bec12c31133baa45878d701b7db1366656129fc3fb8611f3d0986a279a2906020016116c1565b8035600090815260a860205260409020600481015460ff16151560011461322c5760405162461bcd60e51b815260206004820152600b60248201526a1b9bdd081cdd185c9d195960aa1b6044820152606401610938565b428160050154106132705760405162461bcd60e51b815260206004820152600e60248201526d74696d652072656d61696e696e6760901b6044820152606401610938565b60018101546001600160a01b0316600090815260a56020526040902080546132aa5760405162461bcd60e51b815260040161093890614f1f565b600061330f82805480602002602001604051908101604052809291908181526020018280548015611550576020028201919060005260206000209081546001600160a01b03168152600190910190602001808311611532575050505050336001613548565b600081815260088501602052604090205490915060ff16156133435760405162461bcd60e51b815260040161093890614f7a565b60006133578460030180546115a590614db9565b8454909150613370906001600160a01b031682336135e8565b60008281526008850160209081526040909120805460ff19166001179055845433916001600160a01b0391909116907f6385968b203009a7e208aae57b42e8dd54771566baed9ca45eb7f5ed8a6bdd55906133cd90890189614f9d565b6040516116c19291908b35906152f0565b6040516001600160a01b03831660248201526044810182905261344190849063a9059cbb60e01b906064015b60408051601f198184030181529190526020810180516001600160e01b03166001600160e01b031990931692909217909152613c36565b505050565b6001600160a01b03808216600090815260a660205260409020541680156134aa576001600160a01b0381163314611a875760405162461bcd60e51b81526020600482015260086024820152670dcdee840c2eae8d60c31b6044820152606401610938565b6001600160a01b0382163314611a875760405162461bcd60e51b815260206004820152600a6024820152693737ba1039b2b73232b960b11b6044820152606401610938565b600081604051602001613502919061519e565b6040516020818303038152906040528051906020012083604051602001613529919061519e565b6040516020818303038152906040528051906020012014905092915050565b6000600019815b85518110156135a457846001600160a01b031686828151811061357457613574614f09565b60200260200101516001600160a01b031603613592578091506135a4565b8061359c81614e96565b91505061354f565b5082156129185760001981136129185760405162461bcd60e51b81526020600482015260096024820152681b9bdd08199bdd5b9960ba1b6044820152606401610938565b6001600160a01b03808416600090815260a4602090815260408083209385168352929052205482111561364f5760405162461bcd60e51b815260206004820152600f60248201526e696e737566696369656e742067617360881b6044820152606401610938565b6001600160a01b03808416600090815260a46020908152604080832093851683529290529081208054849290613686908490614e7f565b90915550506001600160a01b038116600090815260a36020526040812060020180548492906136b6908490614f62565b925050819055508160ac60008282546136cf9190614f62565b92505081905550806001600160a01b0316836001600160a01b03167f902115c14fc468bd781ce5843eb17b399342718b23213bab5c57215da96f379584604051611f4291815260200190565b6000806137288484613d08565b90506000613734613d60565b90506000613740613e27565b905061374f6201388088614f62565b9650600061375d8884614f43565b60af54909150600090839061377c9063ffffffff16633b9aca00614f62565b61378a84633b9aca00614f43565b6137949190614f43565b61379e91906151ba565b90506137b0655af3107a4000826151ba565b90506137bc8582614f62565b9998505050505050505050565b60408051600580825260c082019092526000918291906020820160a080368337505060a15482519293506001600160a01b03169183915060009061380f5761380f614f09565b6001600160a01b03928316602091820292909201015260a25482519116908290600190811061384057613840614f09565b6001600160a01b039283166020918202929092010152609c5482519116908290600290811061387157613871614f09565b6001600160a01b039283166020918202929092010152609b548251911690829060039081106138a2576138a2614f09565b6001600160a01b039283166020918202929092010152609a548251911690829060049081106138d3576138d3614f09565b6001600160a01b039283166020918202929092010152609854604051637f9c0ecd60e01b8152911690637f9c0ecd90613915908490620f424090600401615314565b602060405180830381865afa158015613932573d6000803e3d6000fd5b505050506040513d601f19601f820116820180604052508101906139569190615336565b91505090565b6040516001600160a01b0380851660248301528316604482015260648101829052610de89085906323b872dd60e01b9060840161340a565b603380546001600160a01b038381166001600160a01b0319831681179093556040519116919082907f8be0079c531659141344cd1fd0a4f28419497f9722a3daafe3b4186f6b6457e090600090a35050565b600054610100900460ff16613a0d5760405162461bcd60e51b81526004016109389061534f565b6123c3613f72565b600054610100900460ff16613a305760005460ff1615613a34565b303b155b613a505760405162461bcd60e51b815260040161093890615201565b600054610100900460ff16158015613a72576000805461ffff19166101011790555b613a7a613fa2565b801561304a576000805461ff001916905550565b600083815260a7602052604081203360001983805b8651811015613b2d57600081815260088601602052604090205460ff1615613ae15760008181526009860160205260409020548814613ae157600191505b836001600160a01b0316878281518110613afd57613afd614f09565b60200260200101516001600160a01b031603613b1b57809250613b2d565b80613b2581614e96565b915050613aa3565b506000198213613b6b5760405162461bcd60e51b81526020600482015260096024820152681b9bdd08199bdd5b9960ba1b6044820152606401610938565b600082815260088501602052604090205460ff1615613b9c5760405162461bcd60e51b815260040161093890614f7a565b60008281526008850160205260408120805460ff1916600117905560048501805491613bc783614e96565b909155505060009182526009909301602052604090208590555090509392505050565b60005a611388811015613bfc57600080fd5b611388810390508460408204820311613c1457600080fd5b50823b613c2057600080fd5b60008083516020850160008789f1949350505050565b6000613c8b826040518060400160405280602081526020017f5361666545524332303a206c6f772d6c6576656c2063616c6c206661696c6564815250856001600160a01b03166140189092919063ffffffff16565b8051909150156134415780806020019051810190613ca9919061539a565b6134415760405162461bcd60e51b815260206004820152602a60248201527f5361666545524332303a204552433230206f7065726174696f6e20646964206e6044820152691bdd081cdd58d8d9595960b21b6064820152608401610938565b60a0546001600160a01b038216600090815260aa60205260408082209051919291613d3490869061519e565b90815260405190819003602001902054613d4e91906151ba565b613d566137c9565b6119cb9190614f43565b60af5460995460408051633fabe5a360e21b81529051600093600160301b900462ffffff169283151592859283926001600160a01b03169163feaf968c9160048083019260a09291908290030181865afa158015613dc2573d6000803e3d6000fd5b505050506040513d601f19601f82011682018060405250810190613de691906153d1565b509450909250849150508015613e0a5750613e018242614e7f565b8463ffffffff16105b80613e16575060008113155b156129185760b05494505050505090565b60408051600580825260c082019092526000918291906020820160a0803683375050609a5482519293506001600160a01b031691839150600090613e6d57613e6d614f09565b6001600160a01b039283166020918202929092010152609b54825191169082906001908110613e9e57613e9e614f09565b6001600160a01b039283166020918202929092010152609c54825191169082906002908110613ecf57613ecf614f09565b6001600160a01b039283166020918202929092010152609d54825191169082906003908110613f0057613f00614f09565b6001600160a01b039283166020918202929092010152609e54825191169082906004908110613f3157613f31614f09565b6001600160a01b039283166020918202929092010152609854604051637f9c0ecd60e01b8152911690637f9c0ecd9061391590849061271090600401615314565b600054610100900460ff16613f995760405162461bcd60e51b81526004016109389061534f565b6123c333613994565b600054610100900460ff16613fbd5760005460ff1615613fc1565b303b155b613fdd5760405162461bcd60e51b815260040161093890615201565b600054610100900460ff16158015613fff576000805461ffff19166101011790555b6001606555801561304a576000805461ff001916905550565b60606129188484600085856001600160a01b0385163b61407a5760405162461bcd60e51b815260206004820152601d60248201527f416464726573733a2063616c6c20746f206e6f6e2d636f6e74726163740000006044820152606401610938565b600080866001600160a01b03168587604051614096919061519e565b60006040518083038185875af1925050503d80600081146140d3576040519150601f19603f3d011682016040523d82523d6000602084013e6140d8565b606091505b50915091506140e88282866140f3565b979650505050505050565b606083156141025750816119cb565b8251156141125782518084602001fd5b8160405162461bcd60e51b81526004016109389190614355565b50805461413890614db9565b6000825580601f10614148575050565b601f01602090049060005260206000209081019061304a91906142b1565b82805461417290614db9565b90600052602060002090601f01602090048101928261419457600085556141da565b82601f106141ad57805160ff19168380011785556141da565b828001600101855582156141da579182015b828111156141da5782518255916020019190600101906141bf565b506141e69291506142b1565b5090565b8280548282559060005260206000209081019282156141da579160200282015b828111156141da5781546001600160a01b0319166001600160a01b0384351617825560209092019160019091019061420a565b82805461424990614db9565b90600052602060002090601f01602090048101928261426b57600085556141da565b82601f106142845782800160ff198235161785556141da565b828001600101855582156141da579182015b828111156141da578235825591602001919060010190614296565b5b808211156141e657600081556001016142b2565b80356001600160a01b03811681146142dd57600080fd5b919050565b6000602082840312156142f457600080fd5b6119cb826142c6565b60005b83811015614318578181015183820152602001614300565b83811115610de85750506000910152565b600081518084526143418160208601602086016142fd565b601f01601f19169290920160200192915050565b6020815260006119cb6020830184614329565b803563ffffffff811681146142dd57600080fd5b803561ffff811681146142dd57600080fd5b803562ffffff811681146142dd57600080fd5b600080600080608085870312156143b757600080fd5b6143c085614368565b93506143ce6020860161437c565b9250604085013591506143e36060860161438e565b905092959194509250565b83151581526060602082015260006144096060830185614329565b9050826040830152949350505050565b60006020828403121561442b57600080fd5b5035919050565b6001600160a01b0388811682528716602082015285151560408201526060810185905260e06080820181905260009061446d90830186614329565b60a08301949094525090151560c09091015295945050505050565b634e487b7160e01b600052604160045260246000fd5b60405161020081016001600160401b03811182821017156144c1576144c1614488565b60405290565b604051601f8201601f191681016001600160401b03811182821017156144ef576144ef614488565b604052919050565b600082601f83011261450857600080fd5b81356001600160401b0381111561452157614521614488565b614534601f8201601f19166020016144c7565b81815284602083860101111561454957600080fd5b816020850160208301376000918101602001919091529392505050565b60006020828403121561457857600080fd5b81356001600160401b0381111561458e57600080fd5b612918848285016144f7565b60008083601f8401126145ac57600080fd5b5081356001600160401b038111156145c357600080fd5b6020830191508360208285010111156145db57600080fd5b9250929050565b600080600080606085870312156145f857600080fd5b84356001600160401b0381111561460e57600080fd5b61461a8782880161459a565b90989097506020870135966040013595509350505050565b6000806000806040858703121561464857600080fd5b84356001600160401b038082111561465f57600080fd5b61466b8883890161459a565b9096509450602087013591508082111561468457600080fd5b506146918782880161459a565b95989497509550505050565b600080604083850312156146b057600080fd5b823591506146c0602084016142c6565b90509250929050565b600080602083850312156146dc57600080fd5b82356001600160401b03808211156146f357600080fd5b818501915085601f83011261470757600080fd5b81358181111561471657600080fd5b8660208260051b850101111561472b57600080fd5b60209290920196919550909350505050565b600081518084526020808501945080840160005b838110156147765781516001600160a01b031687529582019590820190600101614751565b509495945050505050565b6020815260006119cb602083018461473d565b600080600080606085870312156147aa57600080fd5b8435935060208501356001600160401b038111156147c757600080fd5b6147d38782880161459a565b9598909750949560400135949350505050565b60006060828403121561119e57600080fd5b60006020828403121561480a57600080fd5b81356001600160401b0381111561482057600080fd5b612918848285016147e6565b6000806020838503121561483f57600080fd5b82356001600160401b0381111561485557600080fd5b6148618582860161459a565b90969095509350505050565b60008060006060848603121561488257600080fd5b8335925060208401356001600160401b0381111561489f57600080fd5b6148ab868287016144f7565b9250506148ba604085016142c6565b90509250925092565b600060208083850312156148d657600080fd5b82356001600160401b03808211156148ed57600080fd5b818501915085601f83011261490157600080fd5b81358181111561491357614913614488565b8060051b91506149248483016144c7565b818152918301840191848101908884111561493e57600080fd5b938501935b8385101561496357614954856142c6565b82529385019390850190614943565b98975050505050505050565b6000806040838503121561498257600080fd5b61498b836142c6565b915060208301356001600160401b038111156149a657600080fd5b6149b2858286016144f7565b9150509250929050565b6000602082840312156149ce57600080fd5b81356001600160401b038111156149e457600080fd5b820160e081850312156119cb57600080fd5b801515811461304a57600080fd5b600080600060608486031215614a1957600080fd5b83356001600160401b03811115614a2f57600080fd5b614a3b868287016144f7565b935050614a4a602085016142c6565b91506040840135614a5a816149f6565b809150509250925092565b600080600060608486031215614a7a57600080fd5b83359250614a8a602085016142c6565b91506148ba604085016142c6565b600080600060408486031215614aad57600080fd5b614ab6846142c6565b925060208401356001600160401b03811115614ad157600080fd5b614add8682870161459a565b9497909650939450505050565b60008060408385031215614afd57600080fd5b614b06836142c6565b91506146c0602084016142c6565b600080600080600060608688031215614b2c57600080fd5b8535945060208601356001600160401b0380821115614b4a57600080fd5b614b5689838a0161459a565b90965094506040880135915080821115614b6f57600080fd5b50614b7c8882890161459a565b969995985093965092949392505050565b60006102008284031215614ba057600080fd5b614ba861449e565b614bb1836142c6565b8152614bbf602084016142c6565b6020820152614bd0604084016142c6565b6040820152614be160608401614368565b6060820152614bf26080840161438e565b608082015260a083013560a0820152614c0d60c0840161437c565b60c0820152614c1e60e084016142c6565b60e0820152610100614c318185016142c6565b90820152610120614c438482016142c6565b90820152610140614c558482016142c6565b90820152610160614c678482016142c6565b9082015261018083810135908201526101a080840135908201526101c0614c8f8185016142c6565b908201526101e0614ca18482016142c6565b908201529392505050565b60008060408385031215614cbf57600080fd5b614cc8836142c6565b946020939093013593505050565b600080600060608486031215614ceb57600080fd5b83359250614a4a602085016142c6565b600060208284031215614d0d57600080fd5b81356001600160401b03811115614d2357600080fd5b820160a081850312156119cb57600080fd5b6001600160a01b0387811682528616602082015260c060408201819052600090614d6190830187614329565b941515606083015250608081019290925260a0909101529392505050565b600060208284031215614d9157600080fd5b81356001600160401b03811115614da757600080fd5b8201604081850312156119cb57600080fd5b600181811c90821680614dcd57607f821691505b60208210810361119e57634e487b7160e01b600052602260045260246000fd5b6020808252818101527f4f776e61626c653a2063616c6c6572206973206e6f7420746865206f776e6572604082015260600190565b8183823760009101908152919050565b6020808252601f908201527f5265656e7472616e637947756172643a207265656e7472616e742063616c6c00604082015260600190565b634e487b7160e01b600052601160045260246000fd5b600082821015614e9157614e91614e69565b500390565b600060018201614ea857614ea8614e69565b5060010190565b6001600160a01b03848116825260406020808401829052908301849052600091859160608501845b87811015614efc5783614ee9866142c6565b1682529382019390820190600101614ed7565b5098975050505050505050565b634e487b7160e01b600052603260045260246000fd5b6020808252600a90820152696e6f20776f726b65727360b01b604082015260600190565b6000816000190483118215151615614f5d57614f5d614e69565b500290565b60008219821115614f7557614f75614e69565b500190565b60208082526009908201526818dbdb5c1b195d195960ba1b604082015260600190565b6000808335601e19843603018112614fb457600080fd5b8301803591506001600160401b03821115614fce57600080fd5b6020019150368190038213156145db57600080fd5b81835281816020850137506000828201602090810191909152601f909101601f19169091010190565b606081526000615020606083018789614fe3565b8281036020840152615033818688614fe3565b9150508260408301529695505050505050565b60408152600061505a604083018587614fe3565b90508215156020830152949350505050565b60006020828403121561507e57600080fd5b81356119cb816149f6565b6000808335601e198436030181126150a057600080fd5b8301803591506001600160401b038211156150ba57600080fd5b6020019150600581901b36038213156145db57600080fd5b6080815260006150e660808301898b614fe3565b60208881850152838203604085015261510082888a614fe3565b84810360608601528581529150808201600586901b830182018760005b8881101561518b57858303601f190184528135368b9003601e1901811261514357600080fd5b8a0180356001600160401b0381111561515b57600080fd5b8036038c131561516a57600080fd5b6151778582898501614fe3565b95870195945050509084019060010161511d565b50909d9c50505050505050505050505050565b600082516151b08184602087016142fd565b9190910192915050565b6000826151d757634e487b7160e01b600052601260045260246000fd5b500490565b83151581526040602082015260006151f8604083018486614fe3565b95945050505050565b6020808252602e908201527f496e697469616c697a61626c653a20636f6e747261637420697320616c72656160408201526d191e481a5b9a5d1a585b1a5e995960921b606082015260800190565b604081526000615263604083018688614fe3565b82810360208401526140e8818587614fe3565b60808152600061528a60808301888a614fe3565b828103602084015261529d818789614fe3565b6040840195909552505060600152949350505050565b6080815260006152c760808301888a614fe3565b82810360208401526152da818789614fe3565b9415156040840152505060600152949350505050565b604081526000615304604083018587614fe3565b9050826020830152949350505050565b604081526000615327604083018561473d565b90508260208301529392505050565b60006020828403121561534857600080fd5b5051919050565b6020808252602b908201527f496e697469616c697a61626c653a20636f6e7472616374206973206e6f74206960408201526a6e697469616c697a696e6760a81b606082015260800190565b6000602082840312156153ac57600080fd5b81516119cb816149f6565b805169ffffffffffffffffffff811681146142dd57600080fd5b600080600080600060a086880312156153e957600080fd5b6153f2866153b7565b9450602086015193506040860151925060608601519150615415608087016153b7565b9050929550929590935056fea264697066735822122036d89b2e3fae0bc2c9700313206707d64edd443e9e990b5c8adf008037b80d2d64736f6c634300080d0033",
  "linkReferences": {},
  "deployedLinkReferences": {}
}