{
  "_format": "hh-sol-artifact-1",
  "contractName": "Nexus",
  "sourceName": "contracts/Nexus.sol",
  "abi": [
    {
      "anonymous": false,
      "inputs": [
        {
          "indexed": true,
          "internalType": "address",
          "name": "buyer",
          "type": "address"
        },
        {
          "indexed": true,
          "internalType": "address",
          "name": "consumer",
          "type": "address"
        },
        {
          "indexed": true,
          "internalType": "address",
          "name": "dsp",
          "type": "address"
        },
        {
          "indexed": false,
          "internalType": "uint256",
          "name": "amount",
          "type": "uint256"
        }
      ],
      "name": "BoughtGas",
      "type": "event"
    },
    {
      "anonymous": false,
      "inputs": [
        {
          "indexed": true,
          "internalType": "address",
          "name": "dsp",
          "type": "address"
        },
        {
          "indexed": false,
          "internalType": "uint256",
          "name": "amount",
          "type": "uint256"
        }
      ],
      "name": "ClaimedGas",
      "type": "event"
    },
    {
      "anonymous": false,
      "inputs": [
        {
          "indexed": false,
          "internalType": "uint32",
          "name": "paymentPremiumPPB",
          "type": "uint32"
        },
        {
          "indexed": false,
          "internalType": "uint16",
          "name": "gasCeilingMultiplier",
          "type": "uint16"
        },
        {
          "indexed": false,
          "internalType": "uint256",
          "name": "fallbackGasPrice",
          "type": "uint256"
        },
        {
          "indexed": false,
          "internalType": "uint24",
          "name": "stalenessSeconds",
          "type": "uint24"
        }
      ],
      "name": "ConfigSet",
      "type": "event"
    },
    {
      "anonymous": false,
      "inputs": [
        {
          "indexed": true,
          "internalType": "address",
          "name": "dsp",
          "type": "address"
        },
        {
          "indexed": false,
          "internalType": "bool",
          "name": "active",
          "type": "bool"
        },
        {
          "indexed": false,
          "internalType": "string",
          "name": "endpoint",
          "type": "string"
        }
      ],
      "name": "DSPStatusChanged",
      "type": "event"
    },
    {
      "anonymous": false,
      "inputs": [
        {
          "indexed": true,
          "internalType": "address",
          "name": "dsp",
          "type": "address"
        },
        {
          "indexed": false,
          "internalType": "string",
          "name": "image",
          "type": "string"
        },
        {
          "indexed": false,
          "internalType": "bool",
          "name": "approved",
          "type": "bool"
        }
      ],
      "name": "DockerApprovalChanged",
      "type": "event"
    },
    {
      "anonymous": false,
      "inputs": [
        {
          "indexed": true,
          "internalType": "address",
          "name": "consumer",
          "type": "address"
        },
        {
          "indexed": false,
          "internalType": "string",
          "name": "outputFS",
          "type": "string"
        },
        {
          "indexed": false,
          "internalType": "string",
          "name": "outputHash",
          "type": "string"
        },
        {
          "indexed": false,
          "internalType": "bool",
          "name": "inconsistent",
          "type": "bool"
        },
        {
          "indexed": false,
          "internalType": "uint256",
          "name": "id",
          "type": "uint256"
        }
      ],
      "name": "JobDone",
      "type": "event"
    },
    {
      "anonymous": false,
      "inputs": [
        {
          "indexed": true,
          "internalType": "address",
          "name": "consumer",
          "type": "address"
        },
        {
          "indexed": false,
          "internalType": "string",
          "name": "stdErr",
          "type": "string"
        },
        {
          "indexed": false,
          "internalType": "string",
          "name": "outputFS",
          "type": "string"
        },
        {
          "indexed": false,
          "internalType": "uint256",
          "name": "id",
          "type": "uint256"
        }
      ],
      "name": "JobError",
      "type": "event"
    },
    {
      "anonymous": false,
      "inputs": [
        {
          "indexed": true,
          "internalType": "address",
          "name": "consumer",
          "type": "address"
        },
        {
          "indexed": true,
          "internalType": "address",
          "name": "dsp",
          "type": "address"
        },
        {
          "indexed": false,
          "internalType": "string",
          "name": "outputFS",
          "type": "string"
        },
        {
          "indexed": false,
          "internalType": "string",
          "name": "outputHash",
          "type": "string"
        },
        {
          "indexed": false,
          "internalType": "uint256",
          "name": "dapps",
          "type": "uint256"
        },
        {
          "indexed": false,
          "internalType": "uint256",
          "name": "id",
          "type": "uint256"
        }
      ],
      "name": "JobResult",
      "type": "event"
    },
    {
      "anonymous": false,
      "inputs": [
        {
          "indexed": true,
          "internalType": "address",
          "name": "consumer",
          "type": "address"
        },
        {
          "indexed": false,
          "internalType": "uint256",
          "name": "id",
          "type": "uint256"
        }
      ],
      "name": "Kill",
      "type": "event"
    },
    {
      "anonymous": false,
      "inputs": [
        {
          "indexed": true,
          "internalType": "address",
          "name": "previousOwner",
          "type": "address"
        },
        {
          "indexed": true,
          "internalType": "address",
          "name": "newOwner",
          "type": "address"
        }
      ],
      "name": "OwnershipTransferred",
      "type": "event"
    },
    {
      "anonymous": false,
      "inputs": [
        {
          "indexed": true,
          "internalType": "address",
          "name": "consumer",
          "type": "address"
        },
        {
          "indexed": true,
          "internalType": "address",
          "name": "owner",
          "type": "address"
        },
        {
          "indexed": false,
          "internalType": "string",
          "name": "imageName",
          "type": "string"
        },
        {
          "indexed": false,
          "internalType": "uint256",
          "name": "id",
          "type": "uint256"
        },
        {
          "indexed": false,
          "internalType": "string",
          "name": "inputFS",
          "type": "string"
        },
        {
          "indexed": false,
          "internalType": "string[]",
          "name": "args",
          "type": "string[]"
        }
      ],
      "name": "QueueJob",
      "type": "event"
    },
    {
      "anonymous": false,
      "inputs": [
        {
          "indexed": true,
          "internalType": "address",
          "name": "consumer",
          "type": "address"
        },
        {
          "indexed": true,
          "internalType": "address",
          "name": "owner",
          "type": "address"
        },
        {
          "indexed": false,
          "internalType": "string",
          "name": "imageName",
          "type": "string"
        },
        {
          "indexed": false,
          "internalType": "uint256",
          "name": "ioMegaBytes",
          "type": "uint256"
        },
        {
          "indexed": false,
          "internalType": "uint256",
          "name": "storageMegaBytes",
          "type": "uint256"
        },
        {
          "indexed": false,
          "internalType": "uint256",
          "name": "id",
          "type": "uint256"
        },
        {
          "indexed": false,
          "internalType": "string",
          "name": "inputFS",
          "type": "string"
        },
        {
          "indexed": false,
          "internalType": "string[]",
          "name": "args",
          "type": "string[]"
        }
      ],
      "name": "QueueService",
      "type": "event"
    },
    {
      "anonymous": false,
      "inputs": [
        {
          "indexed": true,
          "internalType": "address",
          "name": "consumer",
          "type": "address"
        },
        {
          "indexed": true,
          "internalType": "address",
          "name": "dsp",
          "type": "address"
        },
        {
          "indexed": false,
          "internalType": "string",
          "name": "outputFS",
          "type": "string"
        },
        {
          "indexed": false,
          "internalType": "uint256",
          "name": "id",
          "type": "uint256"
        }
      ],
      "name": "ServiceComplete",
      "type": "event"
    },
    {
      "anonymous": false,
      "inputs": [
        {
          "indexed": true,
          "internalType": "address",
          "name": "consumer",
          "type": "address"
        },
        {
          "indexed": true,
          "internalType": "address",
          "name": "dsp",
          "type": "address"
        },
        {
          "indexed": false,
          "internalType": "string",
          "name": "stdErr",
          "type": "string"
        },
        {
          "indexed": false,
          "internalType": "string",
          "name": "outputFS",
          "type": "string"
        },
        {
          "indexed": false,
          "internalType": "uint256",
          "name": "id",
          "type": "uint256"
        }
      ],
      "name": "ServiceError",
      "type": "event"
    },
    {
      "anonymous": false,
      "inputs": [
        {
          "indexed": true,
          "internalType": "address",
          "name": "consumer",
          "type": "address"
        },
        {
          "indexed": true,
          "internalType": "address",
          "name": "dsp",
          "type": "address"
        },
        {
          "indexed": false,
          "internalType": "uint256",
          "name": "id",
          "type": "uint256"
        },
        {
          "indexed": false,
          "internalType": "uint256",
          "name": "ioMegaBytes",
          "type": "uint256"
        },
        {
          "indexed": false,
          "internalType": "uint256",
          "name": "storageMegaBytes",
          "type": "uint256"
        },
        {
          "indexed": false,
          "internalType": "uint256",
          "name": "endDate",
          "type": "uint256"
        }
      ],
      "name": "ServiceExtended",
      "type": "event"
    },
    {
      "anonymous": false,
      "inputs": [
        {
          "indexed": true,
          "internalType": "address",
          "name": "consumer",
          "type": "address"
        },
        {
          "indexed": true,
          "internalType": "address",
          "name": "dsp",
          "type": "address"
        },
        {
          "indexed": false,
          "internalType": "uint256",
          "name": "id",
          "type": "uint256"
        },
        {
          "indexed": false,
          "internalType": "uint256",
          "name": "port",
          "type": "uint256"
        }
      ],
      "name": "ServiceRunning",
      "type": "event"
    },
    {
      "anonymous": false,
      "inputs": [
        {
          "indexed": true,
          "internalType": "address",
          "name": "consumer",
          "type": "address"
        },
        {
          "indexed": true,
          "internalType": "address",
          "name": "dsp",
          "type": "address"
        },
        {
          "indexed": false,
          "internalType": "uint256",
          "name": "amount",
          "type": "uint256"
        }
      ],
      "name": "SoldGas",
      "type": "event"
    },
    {
      "anonymous": false,
      "inputs": [
        {
          "indexed": false,
          "internalType": "address",
          "name": "consumer",
          "type": "address"
        },
        {
          "indexed": false,
          "internalType": "address[]",
          "name": "dsps",
          "type": "address[]"
        }
      ],
      "name": "UpdateDsps",
      "type": "event"
    },
    {
      "anonymous": false,
      "inputs": [
        {
          "indexed": true,
          "internalType": "address",
          "name": "consumer",
          "type": "address"
        },
        {
          "indexed": true,
          "internalType": "address",
          "name": "dsp",
          "type": "address"
        },
        {
          "indexed": false,
          "internalType": "uint256",
          "name": "amount",
          "type": "uint256"
        }
      ],
      "name": "UsedGas",
      "type": "event"
    },
    {
      "inputs": [],
      "name": "FAST_GAS_FEED",
      "outputs": [
        {
          "internalType": "contract AggregatorV3Interface",
          "name": "",
          "type": "address"
        }
      ],
      "stateMutability": "view",
      "type": "function"
    },
    {
      "inputs": [
        {
          "internalType": "string",
          "name": "imageName",
          "type": "string"
        },
        {
          "internalType": "string",
          "name": "imageHash",
          "type": "string"
        }
      ],
      "name": "approveImage",
      "outputs": [],
      "stateMutability": "nonpayable",
      "type": "function"
    },
    {
      "inputs": [
        {
          "internalType": "string",
          "name": "",
          "type": "string"
        }
      ],
      "name": "approvedImages",
      "outputs": [
        {
          "internalType": "string",
          "name": "",
          "type": "string"
        }
      ],
      "stateMutability": "view",
      "type": "function"
    },
    {
      "inputs": [],
      "name": "bancorNetwork",
      "outputs": [
        {
          "internalType": "contract IBancorNetwork",
          "name": "",
          "type": "address"
        }
      ],
      "stateMutability": "view",
      "type": "function"
    },
    {
      "inputs": [
        {
          "internalType": "uint256",
          "name": "_amount",
          "type": "uint256"
        },
        {
          "internalType": "address",
          "name": "_consumer",
          "type": "address"
        },
        {
          "internalType": "address",
          "name": "_dsp",
          "type": "address"
        }
      ],
      "name": "buyGasFor",
      "outputs": [],
      "stateMutability": "nonpayable",
      "type": "function"
    },
    {
      "inputs": [],
      "name": "claim",
      "outputs": [],
      "stateMutability": "nonpayable",
      "type": "function"
    },
    {
      "inputs": [
        {
          "internalType": "address",
          "name": "",
          "type": "address"
        }
      ],
      "name": "contracts",
      "outputs": [
        {
          "internalType": "address",
          "name": "",
          "type": "address"
        }
      ],
      "stateMutability": "view",
      "type": "function"
    },
    {
      "inputs": [],
      "name": "deprecateDSP",
      "outputs": [],
      "stateMutability": "nonpayable",
      "type": "function"
    },
    {
      "inputs": [
        {
          "internalType": "address",
          "name": "",
          "type": "address"
        },
        {
          "internalType": "string",
          "name": "",
          "type": "string"
        }
      ],
      "name": "dspApprovedImages",
      "outputs": [
        {
          "internalType": "uint256",
          "name": "jobFee",
          "type": "uint256"
        },
        {
          "internalType": "uint256",
          "name": "baseFee",
          "type": "uint256"
        },
        {
          "internalType": "uint256",
          "name": "storageFee",
          "type": "uint256"
        },
        {
          "internalType": "uint256",
          "name": "ioFee",
          "type": "uint256"
        },
        {
          "internalType": "uint256",
          "name": "minStorageMegaBytes",
          "type": "uint256"
        },
        {
          "internalType": "uint256",
          "name": "minIoMegaBytes",
          "type": "uint256"
        }
      ],
      "stateMutability": "view",
      "type": "function"
    },
    {
      "inputs": [
        {
          "internalType": "address",
          "name": "",
          "type": "address"
        },
        {
          "internalType": "address",
          "name": "",
          "type": "address"
        }
      ],
      "name": "dspData",
      "outputs": [
        {
          "internalType": "uint256",
          "name": "amount",
          "type": "uint256"
        },
        {
          "internalType": "uint256",
          "name": "claimable",
          "type": "uint256"
        }
      ],
      "stateMutability": "view",
      "type": "function"
    },
    {
      "inputs": [
        {
          "internalType": "uint256",
          "name": "serviceId",
          "type": "uint256"
        },
        {
          "internalType": "string",
          "name": "imageName",
          "type": "string"
        },
        {
          "internalType": "uint256",
          "name": "months",
          "type": "uint256"
        },
        {
          "internalType": "uint256",
          "name": "ioMb",
          "type": "uint256"
        },
        {
          "internalType": "uint256",
          "name": "storageMb",
          "type": "uint256"
        }
      ],
      "name": "extendService",
      "outputs": [],
      "stateMutability": "nonpayable",
      "type": "function"
    },
    {
      "inputs": [],
      "name": "gasPerTimeUnit",
      "outputs": [
        {
          "internalType": "uint256",
          "name": "",
          "type": "uint256"
        }
      ],
      "stateMutability": "view",
      "type": "function"
    },
    {
      "inputs": [],
      "name": "getConfig",
      "outputs": [
        {
          "internalType": "uint32",
          "name": "paymentPremiumPPB",
          "type": "uint32"
        },
        {
          "internalType": "uint24",
          "name": "stalenessSeconds",
          "type": "uint24"
        },
        {
          "internalType": "uint16",
          "name": "gasCeilingMultiplier",
          "type": "uint16"
        },
        {
          "internalType": "uint256",
          "name": "fallbackGasPrice",
          "type": "uint256"
        }
      ],
      "stateMutability": "view",
      "type": "function"
    },
    {
      "inputs": [
        {
          "internalType": "address",
          "name": "account",
          "type": "address"
        },
        {
          "internalType": "address",
          "name": "dsp",
          "type": "address"
        }
      ],
      "name": "getDSPAmount",
      "outputs": [
        {
          "internalType": "uint256",
          "name": "",
          "type": "uint256"
        }
      ],
      "stateMutability": "view",
      "type": "function"
    },
    {
      "inputs": [
        {
          "internalType": "uint256",
          "name": "id",
          "type": "uint256"
        },
        {
          "internalType": "address",
          "name": "dsp",
          "type": "address"
        }
      ],
      "name": "getDSPDataLimits",
      "outputs": [
        {
          "components": [
            {
              "internalType": "uint256",
              "name": "ioMegaBytesLimit",
              "type": "uint256"
            },
            {
              "internalType": "uint256",
              "name": "storageMegaBytesLimit",
              "type": "uint256"
            }
          ],
          "internalType": "struct Nexus.DspLimits",
          "name": "",
          "type": "tuple"
        }
      ],
      "stateMutability": "view",
      "type": "function"
    },
    {
      "inputs": [
        {
          "internalType": "address",
          "name": "dsp",
          "type": "address"
        }
      ],
      "name": "getDSPEndpoint",
      "outputs": [
        {
          "internalType": "string",
          "name": "",
          "type": "string"
        }
      ],
      "stateMutability": "view",
      "type": "function"
    },
    {
      "inputs": [],
      "name": "getDspAddresses",
      "outputs": [
        {
          "internalType": "address[]",
          "name": "",
          "type": "address[]"
        }
      ],
      "stateMutability": "view",
      "type": "function"
    },
    {
      "inputs": [
        {
          "internalType": "uint256",
          "name": "gasLimit",
          "type": "uint256"
        },
        {
          "internalType": "string",
          "name": "imageName",
          "type": "string"
        },
        {
          "internalType": "address",
          "name": "dsp",
          "type": "address"
        }
      ],
      "name": "getMaxPaymentForGas",
      "outputs": [
        {
          "internalType": "uint256",
          "name": "maxPayment",
          "type": "uint256"
        }
      ],
      "stateMutability": "view",
      "type": "function"
    },
    {
      "inputs": [
        {
          "internalType": "uint256",
          "name": "id",
          "type": "uint256"
        },
        {
          "internalType": "string",
          "name": "jobType",
          "type": "string"
        },
        {
          "internalType": "address",
          "name": "dsp",
          "type": "address"
        }
      ],
      "name": "getMinBalance",
      "outputs": [
        {
          "internalType": "uint256",
          "name": "",
          "type": "uint256"
        }
      ],
      "stateMutability": "view",
      "type": "function"
    },
    {
      "inputs": [
        {
          "internalType": "uint256",
          "name": "jobID",
          "type": "uint256"
        },
        {
          "internalType": "address",
          "name": "dsp",
          "type": "address"
        }
      ],
      "name": "getPortForDSP",
      "outputs": [
        {
          "internalType": "uint256",
          "name": "",
          "type": "uint256"
        }
      ],
      "stateMutability": "view",
      "type": "function"
    },
    {
      "inputs": [
        {
          "components": [
            {
              "internalType": "address",
              "name": "_tokenContract",
              "type": "address"
            },
            {
              "internalType": "address",
              "name": "_bancorNetwork",
              "type": "address"
            },
            {
              "internalType": "address",
              "name": "_fastGasFeed",
              "type": "address"
            },
            {
              "internalType": "uint32",
              "name": "_paymentPremiumPPB",
              "type": "uint32"
            },
            {
              "internalType": "uint24",
              "name": "_stalenessSeconds",
              "type": "uint24"
            },
            {
              "internalType": "uint256",
              "name": "_fallbackGasPrice",
              "type": "uint256"
            },
            {
              "internalType": "uint16",
              "name": "_gasCeilingMultiplier",
              "type": "uint16"
            },
            {
              "internalType": "address",
              "name": "_dappToken",
              "type": "address"
            },
            {
              "internalType": "address",
              "name": "_dappBntToken",
              "type": "address"
            },
            {
              "internalType": "address",
              "name": "_bntToken",
              "type": "address"
            },
            {
              "internalType": "address",
              "name": "_ethBntToken",
              "type": "address"
            },
            {
              "internalType": "address",
              "name": "_ethToken",
              "type": "address"
            },
            {
              "internalType": "uint256",
              "name": "_gasPerTimeUnit",
              "type": "uint256"
            },
            {
              "internalType": "uint256",
              "name": "_usdtPrecision",
              "type": "uint256"
            },
            {
              "internalType": "address",
              "name": "_usdtToken",
              "type": "address"
            },
            {
              "internalType": "address",
              "name": "_usdtBntToken",
              "type": "address"
            }
          ],
          "internalType": "struct Nexus.initArgs",
          "name": "args",
          "type": "tuple"
        }
      ],
      "name": "initialize",
      "outputs": [],
      "stateMutability": "nonpayable",
      "type": "function"
    },
    {
      "inputs": [
        {
          "internalType": "address",
          "name": "dsp",
          "type": "address"
        },
        {
          "internalType": "string",
          "name": "imageName",
          "type": "string"
        }
      ],
      "name": "isImageApprovedForDSP",
      "outputs": [
        {
          "internalType": "bool",
          "name": "",
          "type": "bool"
        }
      ],
      "stateMutability": "view",
      "type": "function"
    },
    {
      "inputs": [
        {
          "internalType": "uint256",
          "name": "id",
          "type": "uint256"
        }
      ],
      "name": "isServiceDone",
      "outputs": [
        {
          "internalType": "bool",
          "name": "",
          "type": "bool"
        }
      ],
      "stateMutability": "view",
      "type": "function"
    },
    {
      "inputs": [
        {
          "components": [
            {
              "internalType": "uint256",
              "name": "jobID",
              "type": "uint256"
            },
            {
              "internalType": "string",
              "name": "outputFS",
              "type": "string"
            },
            {
              "internalType": "string",
              "name": "outputHash",
              "type": "string"
            }
          ],
          "internalType": "struct Nexus.jobCallbackArgs",
          "name": "args",
          "type": "tuple"
        }
      ],
      "name": "jobCallback",
      "outputs": [],
      "stateMutability": "nonpayable",
      "type": "function"
    },
    {
      "inputs": [
        {
          "internalType": "uint256",
          "name": "jobID",
          "type": "uint256"
        },
        {
          "internalType": "string",
          "name": "stdErr",
          "type": "string"
        },
        {
          "internalType": "string",
          "name": "outputFS",
          "type": "string"
        }
      ],
      "name": "jobError",
      "outputs": [],
      "stateMutability": "nonpayable",
      "type": "function"
    },
    {
      "inputs": [
        {
          "internalType": "uint256",
          "name": "id",
          "type": "uint256"
        },
        {
          "internalType": "address",
          "name": "dsp",
          "type": "address"
        },
        {
          "internalType": "bool",
          "name": "isJob",
          "type": "bool"
        }
      ],
      "name": "jobServiceCompleted",
      "outputs": [
        {
          "internalType": "bool",
          "name": "",
          "type": "bool"
        }
      ],
      "stateMutability": "view",
      "type": "function"
    },
    {
      "inputs": [
        {
          "internalType": "uint256",
          "name": "",
          "type": "uint256"
        }
      ],
      "name": "jobs",
      "outputs": [
        {
          "internalType": "address",
          "name": "consumer",
          "type": "address"
        },
        {
          "internalType": "address",
          "name": "owner",
          "type": "address"
        },
        {
          "internalType": "bool",
          "name": "callback",
          "type": "bool"
        },
        {
          "internalType": "uint256",
          "name": "resultsCount",
          "type": "uint256"
        },
        {
          "internalType": "string",
          "name": "imageName",
          "type": "string"
        },
        {
          "internalType": "uint256",
          "name": "gasLimit",
          "type": "uint256"
        },
        {
          "internalType": "bool",
          "name": "requireConsistent",
          "type": "bool"
        }
      ],
      "stateMutability": "view",
      "type": "function"
    },
    {
      "inputs": [],
      "name": "lastJobID",
      "outputs": [
        {
          "internalType": "uint256",
          "name": "",
          "type": "uint256"
        }
      ],
      "stateMutability": "view",
      "type": "function"
    },
    {
      "inputs": [],
      "name": "owner",
      "outputs": [
        {
          "internalType": "address",
          "name": "",
          "type": "address"
        }
      ],
      "stateMutability": "view",
      "type": "function"
    },
    {
      "inputs": [
        {
          "internalType": "address",
          "name": "",
          "type": "address"
        },
        {
          "internalType": "uint256",
          "name": "",
          "type": "uint256"
        }
      ],
      "name": "providers",
      "outputs": [
        {
          "internalType": "address",
          "name": "",
          "type": "address"
        }
      ],
      "stateMutability": "view",
      "type": "function"
    },
    {
      "inputs": [
        {
          "components": [
            {
              "internalType": "address",
              "name": "owner",
              "type": "address"
            },
            {
              "internalType": "string",
              "name": "imageName",
              "type": "string"
            },
            {
              "internalType": "string",
              "name": "inputFS",
              "type": "string"
            },
            {
              "internalType": "bool",
              "name": "callback",
              "type": "bool"
            },
            {
              "internalType": "uint256",
              "name": "gasLimit",
              "type": "uint256"
            },
            {
              "internalType": "bool",
              "name": "requireConsistent",
              "type": "bool"
            },
            {
              "internalType": "string[]",
              "name": "args",
              "type": "string[]"
            }
          ],
          "internalType": "struct Nexus.queueJobArgs",
          "name": "args",
          "type": "tuple"
        }
      ],
      "name": "queueJob",
      "outputs": [],
      "stateMutability": "nonpayable",
      "type": "function"
    },
    {
      "inputs": [
        {
          "components": [
            {
              "internalType": "address",
              "name": "owner",
              "type": "address"
            },
            {
              "internalType": "string",
              "name": "imageName",
              "type": "string"
            },
            {
              "internalType": "uint256",
              "name": "ioMegaBytes",
              "type": "uint256"
            },
            {
              "internalType": "uint256",
              "name": "storageMegaBytes",
              "type": "uint256"
            },
            {
              "internalType": "string",
              "name": "inputFS",
              "type": "string"
            },
            {
              "internalType": "string[]",
              "name": "args",
              "type": "string[]"
            },
            {
              "internalType": "uint256",
              "name": "months",
              "type": "uint256"
            }
          ],
          "internalType": "struct Nexus.queueServiceArgs",
          "name": "args",
          "type": "tuple"
        }
      ],
      "name": "queueService",
      "outputs": [],
      "stateMutability": "nonpayable",
      "type": "function"
    },
    {
      "inputs": [
        {
          "internalType": "string",
          "name": "endpoint",
          "type": "string"
        }
      ],
      "name": "regDSP",
      "outputs": [],
      "stateMutability": "nonpayable",
      "type": "function"
    },
    {
      "inputs": [
        {
          "internalType": "address",
          "name": "",
          "type": "address"
        }
      ],
      "name": "registeredDSPs",
      "outputs": [
        {
          "internalType": "bool",
          "name": "active",
          "type": "bool"
        },
        {
          "internalType": "string",
          "name": "endpoint",
          "type": "string"
        },
        {
          "internalType": "uint256",
          "name": "claimableDapp",
          "type": "uint256"
        }
      ],
      "stateMutability": "view",
      "type": "function"
    },
    {
      "inputs": [],
      "name": "renounceOwnership",
      "outputs": [],
      "stateMutability": "nonpayable",
      "type": "function"
    },
    {
      "inputs": [
        {
          "internalType": "uint256",
          "name": "_amountToSell",
          "type": "uint256"
        },
        {
          "internalType": "address",
          "name": "_dsp",
          "type": "address"
        }
      ],
      "name": "sellGas",
      "outputs": [],
      "stateMutability": "nonpayable",
      "type": "function"
    },
    {
      "inputs": [
        {
          "internalType": "uint256",
          "name": "serviceId",
          "type": "uint256"
        },
        {
          "internalType": "uint256",
          "name": "port",
          "type": "uint256"
        }
      ],
      "name": "serviceCallback",
      "outputs": [],
      "stateMutability": "nonpayable",
      "type": "function"
    },
    {
      "inputs": [
        {
          "components": [
            {
              "internalType": "uint256",
              "name": "jobID",
              "type": "uint256"
            },
            {
              "internalType": "string",
              "name": "outputFS",
              "type": "string"
            },
            {
              "internalType": "uint256",
              "name": "ioMegaBytesUsed",
              "type": "uint256"
            },
            {
              "internalType": "uint256",
              "name": "storageMegaBytesUsed",
              "type": "uint256"
            }
          ],
          "internalType": "struct Nexus.serviceCompleteArgs",
          "name": "args",
          "type": "tuple"
        }
      ],
      "name": "serviceComplete",
      "outputs": [],
      "stateMutability": "nonpayable",
      "type": "function"
    },
    {
      "inputs": [
        {
          "components": [
            {
              "internalType": "uint256",
              "name": "jobID",
              "type": "uint256"
            },
            {
              "internalType": "string",
              "name": "stdErr",
              "type": "string"
            },
            {
              "internalType": "string",
              "name": "outputFS",
              "type": "string"
            },
            {
              "internalType": "uint256",
              "name": "ioMegaBytesUsed",
              "type": "uint256"
            },
            {
              "internalType": "uint256",
              "name": "storageMegaBytesUsed",
              "type": "uint256"
            }
          ],
          "internalType": "struct Nexus.serviceErrorArgs",
          "name": "args",
          "type": "tuple"
        }
      ],
      "name": "serviceError",
      "outputs": [],
      "stateMutability": "nonpayable",
      "type": "function"
    },
    {
      "inputs": [
        {
          "internalType": "uint256",
          "name": "",
          "type": "uint256"
        }
      ],
      "name": "services",
      "outputs": [
        {
          "internalType": "address",
          "name": "consumer",
          "type": "address"
        },
        {
          "internalType": "address",
          "name": "owner",
          "type": "address"
        },
        {
          "internalType": "string",
          "name": "imageName",
          "type": "string"
        },
        {
          "internalType": "bool",
          "name": "started",
          "type": "bool"
        },
        {
          "internalType": "uint256",
          "name": "endDate",
          "type": "uint256"
        },
        {
          "internalType": "uint256",
          "name": "months",
          "type": "uint256"
        },
        {
          "internalType": "uint256",
          "name": "ioMegaBytes",
          "type": "uint256"
        },
        {
          "internalType": "uint256",
          "name": "storageMegaBytes",
          "type": "uint256"
        }
      ],
      "stateMutability": "view",
      "type": "function"
    },
    {
      "inputs": [
        {
          "internalType": "uint32",
          "name": "paymentPremiumPPB",
          "type": "uint32"
        },
        {
          "internalType": "uint16",
          "name": "gasCeilingMultiplier",
          "type": "uint16"
        },
        {
          "internalType": "uint256",
          "name": "fallbackGasPrice",
          "type": "uint256"
        },
        {
          "internalType": "uint24",
          "name": "stalenessSeconds",
          "type": "uint24"
        }
      ],
      "name": "setConfig",
      "outputs": [],
      "stateMutability": "nonpayable",
      "type": "function"
    },
    {
      "inputs": [
        {
          "internalType": "address",
          "name": "authorized_contract",
          "type": "address"
        }
      ],
      "name": "setConsumerContract",
      "outputs": [],
      "stateMutability": "nonpayable",
      "type": "function"
    },
    {
      "inputs": [
        {
          "internalType": "string",
          "name": "imageName",
          "type": "string"
        },
        {
          "internalType": "uint256",
          "name": "jobFee",
          "type": "uint256"
        },
        {
          "internalType": "uint256",
          "name": "baseFee",
          "type": "uint256"
        },
        {
          "internalType": "uint256",
          "name": "storageFee",
          "type": "uint256"
        },
        {
          "internalType": "uint256",
          "name": "ioFee",
          "type": "uint256"
        },
        {
          "internalType": "uint256",
          "name": "minStorageMegaBytes",
          "type": "uint256"
        },
        {
          "internalType": "uint256",
          "name": "minIoMegaBytes",
          "type": "uint256"
        }
      ],
      "name": "setDockerImage",
      "outputs": [],
      "stateMutability": "nonpayable",
      "type": "function"
    },
    {
      "inputs": [
        {
          "internalType": "address[]",
          "name": "dsps",
          "type": "address[]"
        }
      ],
      "name": "setDsps",
      "outputs": [],
      "stateMutability": "nonpayable",
      "type": "function"
    },
    {
      "inputs": [],
      "name": "token",
      "outputs": [
        {
          "internalType": "contract IERC20Upgradeable",
          "name": "",
          "type": "address"
        }
      ],
      "stateMutability": "view",
      "type": "function"
    },
    {
      "inputs": [],
      "name": "totalDsps",
      "outputs": [
        {
          "internalType": "uint256",
          "name": "",
          "type": "uint256"
        }
      ],
      "stateMutability": "view",
      "type": "function"
    },
    {
      "inputs": [
        {
          "internalType": "address",
          "name": "newOwner",
          "type": "address"
        }
      ],
      "name": "transferOwnership",
      "outputs": [],
      "stateMutability": "nonpayable",
      "type": "function"
    },
    {
      "inputs": [
        {
          "internalType": "string",
          "name": "imageName",
          "type": "string"
        }
      ],
      "name": "unapproveDockerForDSP",
      "outputs": [],
      "stateMutability": "nonpayable",
      "type": "function"
    },
    {
      "inputs": [
        {
          "internalType": "string",
          "name": "imageName",
          "type": "string"
        },
        {
          "internalType": "string",
          "name": "imageHash",
          "type": "string"
        }
      ],
      "name": "unapproveImage",
      "outputs": [],
      "stateMutability": "nonpayable",
      "type": "function"
    },
    {
      "inputs": [
        {
          "internalType": "string",
          "name": "imageName",
          "type": "string"
        },
        {
          "internalType": "uint256",
          "name": "jobFee",
          "type": "uint256"
        },
        {
          "internalType": "uint256",
          "name": "baseFee",
          "type": "uint256"
        },
        {
          "internalType": "uint256",
          "name": "storageFee",
          "type": "uint256"
        },
        {
          "internalType": "uint256",
          "name": "ioFee",
          "type": "uint256"
        },
        {
          "internalType": "uint256",
          "name": "minStorageMegaBytes",
          "type": "uint256"
        },
        {
          "internalType": "uint256",
          "name": "minIoMegaBytes",
          "type": "uint256"
        }
      ],
      "name": "updateDockerImage",
      "outputs": [],
      "stateMutability": "nonpayable",
      "type": "function"
    },
    {
      "inputs": [],
      "name": "usdtPrecision",
      "outputs": [
        {
          "internalType": "uint256",
          "name": "",
          "type": "uint256"
        }
      ],
      "stateMutability": "view",
      "type": "function"
    },
    {
      "inputs": [
        {
          "internalType": "address[]",
          "name": "dsps",
          "type": "address[]"
        }
      ],
      "name": "validateActiveDsps",
      "outputs": [],
      "stateMutability": "view",
      "type": "function"
    },
    {
      "inputs": [
        {
          "internalType": "uint256",
          "name": "ioMegaBytes",
          "type": "uint256"
        },
        {
          "internalType": "uint256",
          "name": "storageMegaBytes",
          "type": "uint256"
        },
        {
          "internalType": "string",
          "name": "imageName",
          "type": "string"
        },
        {
          "internalType": "uint256",
          "name": "months",
          "type": "uint256"
        },
        {
          "internalType": "address",
          "name": "dsp",
          "type": "address"
        }
      ],
      "name": "validateMin",
      "outputs": [],
      "stateMutability": "view",
      "type": "function"
    }
  ],
  "bytecode": "0x608060405234801561001057600080fd5b50615f0380620000216000396000f3fe608060405234801561001057600080fd5b50600436106103275760003560e01c806380e263ac116101b8578063a4edb25e11610104578063c22c4f43116100a2578063d7ae9e271161007c578063d7ae9e27146108b2578063f16cfbfe146108c5578063f2fde38b1461090c578063fc0c546a1461091f57600080fd5b8063c22c4f4314610818578063c3f909d41461083f578063c7e5fea11461089f57600080fd5b8063b1418b96116100de578063b1418b96146107c7578063b72d49a8146107d0578063b7b7eed9146107e3578063be27aee6146107f657600080fd5b8063a4edb25e14610798578063aa4bfddb146107ab578063ada604a3146107be57600080fd5b8063967b58ff116101715780639d82f1191161014b5780639d82f119146107575780639ec9271b1461075f578063a362b1fc14610772578063a4859f141461078557600080fd5b8063967b58ff1461071e57806396c23b4714610731578063988731091461074457600080fd5b806380e263ac14610665578063812d4f871461067857806387f3a2771461068b5780638da5cb5b146106c057806394070a66146106d157806394fec9981461070b57600080fd5b80634e71d92d1161027757806365edac3d116102305780636d969c091161020a5780636d969c09146105b1578063715018a6146105c65780637ca7e266146105ce5780637ee10340146105e157600080fd5b806365edac3d14610562578063697d2cee1461057557806369dc9ff31461058857600080fd5b80634e71d92d146105055780634e9770891461050d57806357687332146105165780635bb680bf146105295780635f044a471461053c578063655af2f31461054f57600080fd5b8063319c7eb1116102e45780633b042d5b116102be5780633b042d5b146104a15780634377ed44146104b45780634584a419146104c75780634b0b284d146104f257600080fd5b8063319c7eb1146103c957806331f8c2d7146103dc57806333cda0601461041557600080fd5b806303e7344b1461032c5780630c43cf03146103415780630fa0f00d1461035d578063180aedf3146103705780631969b3e114610396578063213da8c8146103b6575b600080fd5b61033f61033a366004614ce4565b610932565b005b61034a60ab5481565b6040519081526020015b60405180910390f35b61033f61036b366004614d8b565b610a44565b61038361037e366004614dd8565b610b13565b6040516103549796959493929190614e49565b6103a96103a4366004614f7d565b610bed565b6040516103549190614fb1565b61033f6103c4366004614fc4565b610c92565b61033f6103d736600461502f565b610d93565b61034a6103ea36600461505b565b6001600160a01b03918216600090815260a46020908152604080832093909416825291909152205490565b610474610423366004615085565b60aa6020908152600092835260409092208151808301840180519281529084019290930191909120915280546001820154600283015460038401546004850154600590950154939492939192909186565b604080519687526020870195909552938501929092526060840152608083015260a082015260c001610354565b61033f6104af3660046150d2565b610ec4565b61034a6104c2366004615144565b61111d565b6099546104da906001600160a01b031681565b6040516001600160a01b039091168152602001610354565b61033f61050036600461519a565b6112f5565b61033f611522565b61034a60ac5481565b61033f6105243660046151e6565b6115ec565b61033f6105373660046151e6565b6119e2565b6103a961054a36600461521a565b611c94565b61033f61055d36600461521a565b611d43565b61033f610570366004614fc4565b611dd2565b61033f610583366004615235565b611ed6565b6104da61059636600461521a565b60a6602052600090815260409020546001600160a01b031681565b6105b9611ff4565b60405161035491906152ac565b61033f6120aa565b61033f6105dc3660046152bf565b6120e0565b61064a6105ef36600461502f565b604080518082018252600080825260209182018190528251808401845294815260a882528281206001600160a01b03949094168082526009909401808352928120600181015486529390529081526002909101549082015290565b60408051825181526020928301519281019290925201610354565b61033f610673366004615333565b612176565b61033f6106863660046150d2565b6123a2565b6106b0610699366004614dd8565b600090815260a86020526040902060050154421190565b6040519015158152602001610354565b6033546001600160a01b03166104da565b61034a6106df36600461502f565b600082815260a8602090815260408083206001600160a01b038516845260090190915290205492915050565b61033f6107193660046153ac565b612565565b6106b061072c3660046153e6565b6127fe565b61033f61073f366004615438565b612843565b61033f610752366004615479565b6128e2565b61033f612a72565b61033f61076d366004615598565b612bab565b61033f6107803660046155fd565b613006565b61033f610793366004615438565b6132cd565b6098546104da906001600160a01b031681565b6104da6107b936600461561f565b6133ef565b61034a609f5481565b61034a60a05481565b6106b06107de366004615657565b613427565b61034a6107f1366004615144565b6135b3565b61080961080436600461521a565b6135c8565b60405161035493929190615697565b61082b610826366004614dd8565b613677565b6040516103549897969594939291906156c2565b604080516060808201835260ae5463ffffffff8116808452640100000000820461ffff166020808601829052600160301b90930462ffffff1694860185905260af5486519283529282019490945293840192909252820152608001610354565b61033f6108ad36600461571b565b613752565b61033f6108c0366004615755565b613aea565b6108f76108d336600461505b565b60a46020908152600092835260408084209091529082529020805460019091015482565b60408051928352602083019190915201610354565b61033f61091a36600461521a565b613b9f565b6097546104da906001600160a01b031681565b6001600160a01b038116600090815260aa602052604090819020905183919061095e9087908790615801565b90815260200160405180910390206005015461097a9190615827565b8610156109b75760405162461bcd60e51b81526020600482015260066024820152656d696e20696f60d01b60448201526064015b60405180910390fd5b6001600160a01b038116600090815260aa60205260409081902090518391906109e39087908790615801565b9081526020016040518091039020600401546109ff9190615827565b851015610a3c5760405162461bcd60e51b815260206004820152600b60248201526a6d696e2073746f7261676560a81b60448201526064016109ae565b505050505050565b6033546001600160a01b03163314610a6e5760405162461bcd60e51b81526004016109ae90615846565b604080516060808201835263ffffffff871680835261ffff8716602080850182905262ffffff871694860185905260ae805465ffffffffffff1916841764010000000084021768ffffff0000000000001916600160301b870217905560af88905585519283528201529283018590528201527f8a8fca58ff702c815d540a34188b15180d1b8b31ffc4cfc6792ce2bdb07a73c89060800160405180910390a150505050565b60a760205260009081526040902080546001820154600383015460048401546005850180546001600160a01b0395861696949095169460ff909316939192610b5a9061587b565b80601f0160208091040260200160405190810160405280929190818152602001828054610b869061587b565b8015610bd35780601f10610ba857610100808354040283529160200191610bd3565b820191906000526020600020905b815481529060010190602001808311610bb657829003601f168201915b50505050600683015460079093015491929160ff16905087565b805160208183018101805160a98252928201919093012091528054610c119061587b565b80601f0160208091040260200160405190810160405280929190818152602001828054610c3d9061587b565b8015610c8a5780601f10610c5f57610100808354040283529160200191610c8a565b820191906000526020600020905b815481529060010190602001808311610c6d57829003601f168201915b505050505081565b6033546001600160a01b03163314610cbc5760405162461bcd60e51b81526004016109ae90615846565b60a98484604051610cce929190615801565b90815260200160405180910390208054610ce79061587b565b159050610d255760405162461bcd60e51b815260206004820152600c60248201526b696d6167652065786973747360a01b60448201526064016109ae565b80610d615760405162461bcd60e51b815260206004820152600c60248201526b0d2dcecc2d8d2c840d0c2e6d60a31b60448201526064016109ae565b60a98484604051610d73929190615801565b90815260200160405180910390206000610d8d9190614ae6565b50505050565b60026065541415610db65760405162461bcd60e51b81526004016109ae906158b0565b600260655533600081815260a4602090815260408083206001600160a01b0386168452909152902054831115610e1a5760405162461bcd60e51b815260206004820152600960248201526837bb32b9323930bbb760b91b60448201526064016109ae565b6001600160a01b03808216600090815260a46020908152604080832093861683529290529081208054859290610e519084906158e7565b9091555050609754610e6d906001600160a01b03168285613c3a565b816001600160a01b0316816001600160a01b03167f8f5fa856284b74bcd941cff9a8e370a8e8c3e90d88177b1e50b995c18daa89a085604051610eb291815260200190565b60405180910390a35050600160655550565b604051339060a990610ed9908b908b90615801565b90815260200160405180910390208054610ef29061587b565b15159050610f375760405162461bcd60e51b81526020600482015260126024820152711a5b5859d9481b9bdd08185c1c1c9bdd995960721b60448201526064016109ae565b600087118015610f475750600086115b8015610f535750600085115b8015610f5f5750600084115b8015610f6b5750600082115b610fa55760405162461bcd60e51b815260206004820152600b60248201526a696e76616c69642066656560a81b60448201526064016109ae565b6001600160a01b038116600090815260aa6020526040908190209051889190610fd1908c908c90615801565b9081526040805160209281900383018120939093556001600160a01b038416600090815260aa9092529020879161100b908c908c90615801565b9081526040805160209281900383018120600101939093556001600160a01b038416600090815260aa90925290208691611048908c908c90615801565b9081526040805160209281900383018120600201939093556001600160a01b038416600090815260aa90925290208591611085908c908c90615801565b9081526040805160209281900383018120600301939093556001600160a01b038416600090815260aa909252902084916110c2908c908c90615801565b9081526040805160209281900383018120600401939093556001600160a01b038416600090815260aa909252902083916110ff908c908c90615801565b90815260405190819003602001902060050155505050505050505050565b600061114483604051806040016040528060038152602001623537b160e91b815250613ca2565b156111fd57600084815260a7602052604090206006810154600590910180546111f69291906111729061587b565b80601f016020809104026020016040519081016040528092919081815260200182805461119e9061587b565b80156111eb5780601f106111c0576101008083540402835291602001916111eb565b820191906000526020600020905b8154815290600101906020018083116111ce57829003601f168201915b505050505084613cfb565b90506112ee565b61122683604051806040016040528060078152602001667365727669636560c81b815250613ca2565b156112ee57600084815260a86020526040902060030180546111f6919061124c9061587b565b80601f01602080910402602001604051908101604052809291908181526020018280546112789061587b565b80156112c55780601f1061129a576101008083540402835291602001916112c5565b820191906000526020600020905b8154815290600101906020018083116112a857829003601f168201915b505050600088815260a86020526040902060078101546008909101549092509050856001613da9565b9392505050565b8035600090815260a86020908152604080832060018101546001600160a01b0316845260a5909252909120805461133e5760405162461bcd60e51b81526004016109ae906158fe565b60006113a58280548060200260200160405190810160405280929190818152602001828054801561139857602002820191906000526020600020905b81546001600160a01b0316815260019091019060200180831161137a575b5050505050336001613ef5565b6000818152600b8501602052604090205490915060ff16156113d95760405162461bcd60e51b81526004016109ae9061591f565b600061147d8460030180546113ed9061587b565b80601f01602080910402602001604051908101604052809291908181526020018280546114199061587b565b80156114665780601f1061143b57610100808354040283529160200191611466565b820191906000526020600020905b81548152906001019060200180831161144957829003601f168201915b505050505086606001358760800135336001613da9565b8454909150611496906001600160a01b03168233613f96565b6000828152600b850160209081526040909120805460ff19166001179055845433916001600160a01b0391909116907f08080b5cb6adfa01b122b5cfa5b566c300c37a7bc400b994d7004b0a5a1e54a6906114f390890189615942565b61150060408b018b615942565b60405161151394939291908d35906159b1565b60405180910390a35050505050565b600260655414156115455760405162461bcd60e51b81526004016109ae906158b0565b6002606581905533600090815260a3602052604090200154806115985760405162461bcd60e51b815260206004820152600b60248201526a1c995c481c1bdcc818985b60aa1b60448201526064016109ae565b6097546115af906001600160a01b03163383613c3a565b60405181815233907f36afaa6dcdce8cb3e535639868ecced2aed60a5176e0ac58a7ebdb14f473723a9060200160405180910390a2506001606555565b6115f5336140b0565b600060a581611607602085018561521a565b6001600160a01b03168152602081019190915260400160002080549091506116415760405162461bcd60e51b81526004016109ae906158fe565b6116a38180548060200260200160405190810160405280929190818152602001828054801561169957602002820191906000526020600020905b81546001600160a01b0316815260019091019060200180831161167b575b5050505050613aea565b60ac546116b19060016159eb565b60ac819055600090815260a7602052604090206116d46080840160608501615a03565b60038201805460ff19169115159190911790556116f760c0840160a08501615a03565b60078201805491151560ff1990921691909117905580546001600160a01b03191633178155611729602084018461521a565b6001820180546001600160a01b0319166001600160a01b03929092169190911790556117586020840184615942565b611766916005840191614b20565b506080830135600682015560005b825481101561195f576117b583828154811061179257611792615a20565b600091825260209182902001546001600160a01b03169061072c90870187615942565b6117f05760405162461bcd60e51b815260206004820152600c60248201526b1b9bdd08185c1c1c9bdd995960a21b60448201526064016109ae565b60ac54600090815260a7602052604090206006810154600590910180546118c692919061181c9061587b565b80601f01602080910402602001604051908101604052809291908181526020018280546118489061587b565b80156118955780601f1061186a57610100808354040283529160200191611895565b820191906000526020600020905b81548152906001019060200180831161187857829003601f168201915b50505050508584815481106118ac576118ac615a20565b6000918252602090912001546001600160a01b0316613cfb565b33600090815260a46020526040812085549091908690859081106118ec576118ec615a20565b60009182526020808320909101546001600160a01b03168352820192909252604001902054101561194d5760405162461bcd60e51b815260206004820152600b60248201526a18985b081b9bdd081b595d60aa1b60448201526064016109ae565b8061195781615a36565b915050611774565b5061196d602084018461521a565b6001600160a01b0316337f228c7d6bef7a7b954880b35fb265490adf0cc68447cc1ef6ec9901af9227b7e56119a56020870187615942565b60ac546119b560408a018a615942565b6119c260c08c018c615a51565b6040516119d59796959493929190615b2a565b60405180910390a3505050565b6119eb336140b0565b600060a5816119fd602085018561521a565b6001600160a01b0316815260208101919091526040016000208054909150611a375760405162461bcd60e51b81526004016109ae906158fe565b611a9781805480602002602001604051908101604052809291908181526020018280548015611699576020028201919060005260206000209081546001600160a01b0316815260019091019060200180831161167b575050505050613aea565b60005b8154811015611b7357611adb828281548110611ab857611ab8615a20565b600091825260209182902001546001600160a01b03169061072c90860186615942565b611b165760405162461bcd60e51b815260206004820152600c60248201526b1b9bdd08185c1c1c9bdd995960a21b60448201526064016109ae565b611b6160408401356060850135611b306020870187615942565b8760c00135878781548110611b4757611b47615a20565b6000918252602090912001546001600160a01b0316610932565b80611b6b81615a36565b915050611a9a565b5060ac54611b829060016159eb565b60ac819055600090815260a86020908152604090912080546001600160a01b0319163317815590611bb59084018461521a565b6001820180546001600160a01b0319166001600160a01b0392909216919091179055611be46020840184615942565b611bf2916003840191614b20565b50604083013560078201556060830135600882015560c08301356006820155611c1e602084018461521a565b6001600160a01b0316337fa587bb75652cfa00b3e562c48ea5cb9eebd03a726e8924ed998c2c271a077daa611c566020870187615942565b60ac5460408901359060608a013590611c7260808c018c615942565b611c7f60a08e018e615a51565b6040516119d599989796959493929190615b6c565b6001600160a01b038116600090815260a360205260409020600101805460609190611cbe9061587b565b80601f0160208091040260200160405190810160405280929190818152602001828054611cea9061587b565b8015611d375780601f10611d0c57610100808354040283529160200191611d37565b820191906000526020600020905b815481529060010190602001808311611d1a57829003601f168201915b50505050509050919050565b33600090815260a660205260409020546001600160a01b0382811691161415611da35760405162461bcd60e51b8152602060048201526012602482015271185b1c9958591e48185d5d1a1bdc9a5e995960721b60448201526064016109ae565b33600090815260a66020526040902080546001600160a01b0319166001600160a01b0392909216919091179055565b6033546001600160a01b03163314611dfc5760405162461bcd60e51b81526004016109ae90615846565b60a98484604051611e0e929190615801565b90815260200160405180910390208054611e279061587b565b159050611e655760405162461bcd60e51b815260206004820152600c60248201526b696d6167652065786973747360a01b60448201526064016109ae565b80611ea15760405162461bcd60e51b815260206004820152600c60248201526b0d2dcecc2d8d2c840d0c2e6d60a31b60448201526064016109ae565b818160a98686604051611eb5929190615801565b908152604051908190036020019020611ecf929091614b20565b5050505050565b60026065541415611ef95760405162461bcd60e51b81526004016109ae906158b0565b60026065556001600160a01b038116600090815260a3602052604090205460ff16611f515760405162461bcd60e51b8152602060048201526008602482015267696e61637469766560c01b60448201526064016109ae565b609754611f69906001600160a01b0316333086614159565b6001600160a01b03808316600090815260a46020908152604080832093851683529290529081208054859290611fa09084906159eb565b90915550506040518381526001600160a01b03808316919084169033907f4927c39c4343e75cf73886e779e6337ae13fa99676e50b0e3ac51f05b331b12b9060200160405180910390a45050600160655550565b6060600060ab546001600160401b0381111561201257612012614e9f565b60405190808252806020026020018201604052801561203b578160200160208202803683370190505b50905060005b60ab548110156120a457600081815260ad602052604090205482516001600160a01b039091169083908390811061207a5761207a615a20565b6001600160a01b03909216602092830291909101909101528061209c81615a36565b915050612041565b50919050565b6033546001600160a01b031633146120d45760405162461bcd60e51b81526004016109ae90615846565b6120de6000614191565b565b61211c828280806020026020016040519081016040528093929190818152602001838360200280828437600092019190915250613aea92505050565b33600090815260a560205260409020612136908383614ba4565b507f2bb420cc99e6cc7d998000aac84bdfd19cdf80195a8b3c2b7a7f687b2c7c2e8b33838360405161216a93929190615bca565b60405180910390a15050565b600085815260a76020908152604080832060018101546001600160a01b0316845260a590925290912080546121bd5760405162461bcd60e51b81526004016109ae906158fe565b600061222282805480602002602001604051908101604052809291908181526020018280548015611398576020028201919060005260206000209081546001600160a01b0316815260019091019060200180831161137a575050505050336001613ef5565b600081815260088501602052604090205490915060ff16156122565760405162461bcd60e51b81526004016109ae9061591f565b60006122f0600085600501805461226c9061587b565b80601f01602080910402602001604051908101604052809291908181526020018280546122989061587b565b80156122e55780601f106122ba576101008083540402835291602001916122e5565b820191906000526020600020905b8154815290600101906020018083116122c857829003601f168201915b505050505033613cfb565b8454909150612309906001600160a01b03168233613f96565b600184600801600084815260200190815260200160002060006101000a81548160ff0219169083151502179055508360000160009054906101000a90046001600160a01b03166001600160a01b03167f105b6b960a49135276e4f3fb47aeb4a7e24a9d69492e943e1f9f33bfacf7ab93898989898e60405161238f9594939291906159b1565b60405180910390a2505050505050505050565b33600090815260aa602052604080822090518891906123c4908c908c90615801565b90815260405190819003602001902054146123dd575060015b33600090815260aa6020526040908190209051879190612400908c908c90615801565b9081526020016040518091039020600101541461241b575060015b33600090815260aa602052604090819020905186919061243e908c908c90615801565b90815260200160405180910390206002015414612459575060015b33600090815260aa602052604090819020905185919061247c908c908c90615801565b90815260200160405180910390206003015414612497575060015b33600090815260aa60205260409081902090518491906124ba908c908c90615801565b908152602001604051809103902060040154146124d5575060015b33600090815260aa60205260409081902090518391906124f8908c908c90615801565b90815260200160405180910390206005015414612513575060015b8061254a5760405162461bcd60e51b81526020600482015260076024820152663737903234b33360c91b60448201526064016109ae565b61255a8989898989898989610ec4565b505050505050505050565b8035600090815260a860205260409020600481015460ff1615156001146125bc5760405162461bcd60e51b815260206004820152600b60248201526a1b9bdd081cdd185c9d195960aa1b60448201526064016109ae565b428160050154106126005760405162461bcd60e51b815260206004820152600e60248201526d74696d652072656d61696e696e6760901b60448201526064016109ae565b60018101546001600160a01b0316600090815260a560205260409020805461263a5760405162461bcd60e51b81526004016109ae906158fe565b600061269f82805480602002602001604051908101604052809291908181526020018280548015611398576020028201919060005260206000209081546001600160a01b0316815260019091019060200180831161137a575050505050336001613ef5565b6000818152600b8501602052604090205490915060ff16156126d35760405162461bcd60e51b81526004016109ae9061591f565b60006127778460030180546126e79061587b565b80601f01602080910402602001604051908101604052809291908181526020018280546127139061587b565b80156127605780601f1061273557610100808354040283529160200191612760565b820191906000526020600020905b81548152906001019060200180831161274357829003601f168201915b505050505086604001358760600135336001613da9565b8454909150612790906001600160a01b03168233613f96565b6000828152600b850160209081526040909120805460ff19166001179055845433916001600160a01b0391909116907f6385968b203009a7e208aae57b42e8dd54771566baed9ca45eb7f5ed8a6bdd55906127ed90890189615942565b6040516115139291908b3590615c24565b6001600160a01b038316600090815260aa602052604080822090518291906128299086908690615801565b908152604051908190036020019020541190509392505050565b33600081815260aa60205260409081902090516128639085908590615801565b90815260405190819003602001812060008082556001820181905560028201819055600382018190556004820181905560059091018190556001600160a01b038316917fbedd4cca1acec8ab178c7b2dade9c35421b8246dcba1d0fcda45fde6befcce36916128d59187918791615c48565b60405180910390a2505050565b600054610100900460ff166128fd5760005460ff1615612901565b303b155b61291d5760405162461bcd60e51b81526004016109ae90615c6e565b600054610100900460ff1615801561293f576000805461ffff19166101011790555b6129476141e3565b61294f614212565b8151609780546001600160a01b03199081166001600160a01b03938416179091556020840151609880548316918416919091179055604084015160998054831691841691909117905560e0840151609a80548316918416919091179055610100840151609b80548316918416919091179055610120840151609c80548316918416919091179055610140840151609d80548316918416919091179055610160840151609e80548316918416919091179055610180840151609f556101a084015160a09081556101c085015160a1805484169185169190911790556101e085015160a280549093169316929092179055606083015160c0840151918401516080850151612a5c939190610a44565b8015612a6e576000805461ff00191690555b5050565b33600081815260a3602052604090206001018054612a8f9061587b565b15159050612ae45760ab8054829160ad9160009182612aad83615a36565b91905055815260200190815260200160002060006101000a8154816001600160a01b0302191690836001600160a01b031602179055505b6001600160a01b038116600081815260a360208181526040808420805460ff191681558151808301909252600a82526919195c1c9958d85d195960b21b8284019081529590945291905251612b3f9260019092019190614bf7565b50806001600160a01b03167ffdcc621fcf24779a46eed0bf3d92841b24669514e65fd61277e90cb40170e1be6000604051612ba09115158152604060208201819052600a908201526919195c1c9958d85d195960b21b606082015260800190565b60405180910390a250565b612bb4336140b0565b600086815260a860209081526040918290208251601f880183900483028101830190935286835291612c8c918890889081908401838280828437600092019190915250505050600383018054612c099061587b565b80601f0160208091040260200160405190810160405280929190818152602001828054612c359061587b565b8015612c825780601f10612c5757610100808354040283529160200191612c82565b820191906000526020600020905b815481529060010190602001808311612c6557829003601f168201915b5050505050613ca2565b612cc45760405162461bcd60e51b81526020600482015260096024820152680dad2e6e6dac2e8c6d60bb1b60448201526064016109ae565b42816005015411612d085760405162461bcd60e51b815260206004820152600e60248201526d74696d652072656d61696e696e6760901b60448201526064016109ae565b33600090815260a5602052604090208054612d355760405162461bcd60e51b81526004016109ae906158fe565b60005b815481101561255a5760008615612d50576001612d53565b60005b90506000612dc38a8a8080601f0160208091040260200160405190810160405280939291908181526020018383808284376000920191909152505087548b92508a9150889088908110612da857612da8615a20565b6000918252602090912001546001600160a01b031686613da9565b90508115612e1357612dd58882615827565b9050612df187878c8c8c898981548110611b4757611b47615a20565b612dfe8862278d00615827565b8560050154612e0d91906159eb565b60058601555b612e448133868681548110612e2a57612e2a615a20565b6000918252602090912001546001600160a01b0316611ed6565b86856009016000868681548110612e5d57612e5d615a20565b60009182526020808320909101546001600160a01b0316835282019290925260400181206001018054909190612e949084906159eb565b9250508190555085856009016000868681548110612eb457612eb4615a20565b60009182526020808320909101546001600160a01b0316835282019290925260400181206002018054909190612eeb9084906159eb565b92505081905550838381548110612f0457612f04615a20565b600091825260208220015485546001600160a01b039091169133917fba6d754d8da31125ad925803210bd9413a02fb7258a99460a419cf5f897c611f918f9160098b0191908a908a908110612f5b57612f5b615a20565b60009182526020808320909101546001600160a01b031683528201929092526040018120600101548954909160098c01918b908b908110612f9e57612f9e615a20565b6000918252602080832091909101546001600160a01b0316835282810193909352604091820190206002015460058d0154825195865292850193909352830191909152606082015260800160405180910390a350508080612ffe90615a36565b915050612d38565b806122b814156130425760405162461bcd60e51b815260206004820152600760248201526606f7665726c61760cc1b60448201526064016109ae565b600082815260a86020908152604080832060018101546001600160a01b0316845260a590925290912080546130895760405162461bcd60e51b81526004016109ae906158fe565b6130ec81805480602002602001604051908101604052809291908181526020018280548015611398576020028201919060005260206000209081546001600160a01b0316815260019091019060200180831161137a575050505050336001613ef5565b50600482015460ff161561312c5760405162461bcd60e51b81526020600482015260076024820152661cdd185c9d195960ca1b60448201526064016109ae565b60048201805460ff19166001179055600682015461314d9062278d00615827565b61315790426159eb565b6005830155815433600090815260098401602052604081208581556007850154600190910180546001600160a01b0390941693919290916131999084906159eb565b90915550506008830154336000908152600985016020526040812060020180549091906131c79084906159eb565b9250508190555060006132728460030180546131e29061587b565b80601f016020809104026020016040519081016040528092919081815260200182805461320e9061587b565b801561325b5780601f106132305761010080835404028352916020019161325b565b820191906000526020600020905b81548152906001019060200180831161323e57829003601f168201915b505050505085600701548660080154336001613da9565b905061327f828233613f96565b604080518781526020810187905233916001600160a01b038516917ffc591b915128e7b045fd4663d358185ce9356694fac67286041506e0a8963d62910160405180910390a3505050505050565b8061330d5760405162461bcd60e51b815260206004820152601060248201526f1a5b9d985b1a5908195b991c1bda5b9d60821b60448201526064016109ae565b33600081815260a360205260409020600101805461332a9061587b565b1515905061337f5760ab8054829160ad916000918261334883615a36565b91905055815260200190815260200160002060006101000a8154816001600160a01b0302191690836001600160a01b031602179055505b6001600160a01b038116600090815260a360205260409020805460ff1916600190811782556133b091018484614b20565b50806001600160a01b03167ffdcc621fcf24779a46eed0bf3d92841b24669514e65fd61277e90cb40170e1be600185856040516128d593929190615cbc565b60a5602052816000526040600020818154811061340b57600080fd5b6000918252602090912001546001600160a01b03169150829050565b600081156134f257600084815260a76020908152604080832060018101546001600160a01b0316845260a5835281842080548351818602810186019094528084529194909390926134bd9290918591908301828280156134b057602002820191906000526020600020905b81546001600160a01b03168152600190910190602001808311613492575b5050505050876000613ef5565b90508060001914156134d557600093505050506112ee565b6000908152600890920160205250604090205460ff1690506112ee565b600084815260a86020908152604080832060018101546001600160a01b0316845260a58352818420805483518186028101860190945280845291949093909261357e9290918591908301828280156134b0576020028201919060005260206000209081546001600160a01b03168152600190910190602001808311613492575050505050876000613ef5565b905080600019141561359657600093505050506112ee565b6000908152600b90920160205250604090205460ff1690506112ee565b60006135c0848484613cfb565b949350505050565b60a3602052600090815260409020805460018201805460ff90921692916135ee9061587b565b80601f016020809104026020016040519081016040528092919081815260200182805461361a9061587b565b80156136675780601f1061363c57610100808354040283529160200191613667565b820191906000526020600020905b81548152906001019060200180831161364a57829003601f168201915b5050505050908060020154905083565b60a8602052600090815260409020805460018201546003830180546001600160a01b039384169492909316926136ac9061587b565b80601f01602080910402602001604051908101604052809291908181526020018280546136d89061587b565b80156137255780601f106136fa57610100808354040283529160200191613725565b820191906000526020600020905b81548152906001019060200180831161370857829003601f168201915b5050506004840154600585015460068601546007870154600890970154959660ff90931695919450925088565b8035600090815260a76020908152604080832060018101546001600160a01b0316845260a5909252909120805461379b5760405162461bcd60e51b81526004016109ae906158fe565b81600801600061380483805480602002602001604051908101604052809291908181526020018280548015611398576020028201919060005260206000209081546001600160a01b0316815260019091019060200180831161137a575050505050336001613ef5565b815260208101919091526040016000205460ff16156138355760405162461bcd60e51b81526004016109ae9061591f565b60006138e384356138496020870187615942565b60405160200161385a929190615801565b60408051601f19818403018152828252805160209182012060018901546001600160a01b0316600090815260a5835283902080548084028601840190945283855290939290918301828280156138d957602002820191906000526020600020905b81546001600160a01b031681526001909101906020018083116138bb575b505050505061428b565b600784015490915060ff161561392f578061392f5760405162461bcd60e51b815260206004820152600c60248201526b1a5b98dbdb9cda5cdd195b9d60a21b60448201526064016109ae565b6003830154600090819060ff16156139c5575a600686015486549193506139b5916001600160a01b031661396660208a018a615942565b61397360408c018c615942565b6040516024016139869493929190615ce1565b60408051601f198184030181529190526020810180516001600160e01b03166336b90ef560e11b1790526143e8565b90505a6139c290836158e7565b91505b60006139da8387600501805461226c9061587b565b86549091506139f3906001600160a01b03168233613f96565b855433906001600160a01b03167fe05a85698af7732aa0ea230656f9c46d18f559c07665f0411ca43a2455a045aa613a2e60208b018b615942565b613a3b60408d018d615942565b878e60000135604051613a5396959493929190615d08565b60405180910390a3600486015433600090815260a5602052604090205414613a7e5750505050505050565b85546001600160a01b03167f3c23ec8d254003e5d452fa03fdc2ff6e5531a15e79e0fe710e0dd4abdc90e6c6613ab760208a018a615942565b613ac460408c018c615942565b604051613ad994939291908b908f3590615d45565b60405180910390a250505050505050565b6000815111613b0b5760405162461bcd60e51b81526004016109ae906158fe565b60005b8151811015612a6e5760a36000838381518110613b2d57613b2d615a20565b6020908102919091018101516001600160a01b031682528101919091526040016000205460ff16613b8d5760405162461bcd60e51b815260206004820152600a6024820152696e6f742061637469766560b01b60448201526064016109ae565b80613b9781615a36565b915050613b0e565b6033546001600160a01b03163314613bc95760405162461bcd60e51b81526004016109ae90615846565b6001600160a01b038116613c2e5760405162461bcd60e51b815260206004820152602660248201527f4f776e61626c653a206e6577206f776e657220697320746865207a65726f206160448201526564647265737360d01b60648201526084016109ae565b613c3781614191565b50565b6040516001600160a01b038316602482015260448101829052613c9d90849063a9059cbb60e01b906064015b60408051601f198184030181529190526020810180516001600160e01b03166001600160e01b031990931692909217909152614434565b505050565b600081604051602001613cb59190615d82565b6040516020818303038152906040528051906020012083604051602001613cdc9190615d82565b6040516020818303038152906040528051906020012014905092915050565b600080613d088484614506565b90506000613d1461455e565b90506000613d2061464e565b9050613d2f62013880886159eb565b96506000613d3d8884615827565b60ae549091506000908390613d5c9063ffffffff16633b9aca006159eb565b613d6a84633b9aca00615827565b613d749190615827565b613d7e9190615d9e565b9050613d90655af3107a400082615d9e565b9050613d9c85826159eb565b9998505050505050505050565b600080613db46147e0565b6001600160a01b038516600090815260aa602052604080822090519293509091613ddf908a90615d82565b9081526040805160209281900383018120600101546001600160a01b038916600090815260aa909452918320919350613e19908b90615d82565b9081526040805160209281900383018120600201546001600160a01b038a16600090815260aa909452918320919350613e53908c90615d82565b908152602001604051809103902060030154905085613e73576000613e94565b83613e7f846018615827565b613e8a90601e615827565b613e949190615827565b925083613ea18984615827565b613eab9190615827565b915083613eb88a83615827565b613ec29190615827565b60a05490915081613ed384866159eb565b613edd91906159eb565b613ee79190615d9e565b9a9950505050505050505050565b6000600019815b8551811015613f5257846001600160a01b0316868281518110613f2157613f21615a20565b60200260200101516001600160a01b03161415613f4057809150613f52565b80613f4a81615a36565b915050613efc565b5082156135c05760001981136135c05760405162461bcd60e51b81526020600482015260096024820152681b9bdd08199bdd5b9960ba1b60448201526064016109ae565b6001600160a01b03808416600090815260a46020908152604080832093851683529290522054821115613ffd5760405162461bcd60e51b815260206004820152600f60248201526e696e737566696369656e742067617360881b60448201526064016109ae565b6001600160a01b03808416600090815260a460209081526040808320938516835292905290812080548492906140349084906158e7565b90915550506001600160a01b038116600090815260a36020526040812060020180548492906140649084906159eb565b92505081905550806001600160a01b0316836001600160a01b03167f902115c14fc468bd781ce5843eb17b399342718b23213bab5c57215da96f3795846040516119d591815260200190565b6001600160a01b03808216600090815260a66020526040902054168015614114576001600160a01b0381163314612a6e5760405162461bcd60e51b81526020600482015260086024820152670dcdee840c2eae8d60c31b60448201526064016109ae565b6001600160a01b0382163314612a6e5760405162461bcd60e51b815260206004820152600a6024820152693737ba1039b2b73232b960b11b60448201526064016109ae565b6040516001600160a01b0380851660248301528316604482015260648101829052610d8d9085906323b872dd60e01b90608401613c66565b603380546001600160a01b038381166001600160a01b0319831681179093556040519116919082907f8be0079c531659141344cd1fd0a4f28419497f9722a3daafe3b4186f6b6457e090600090a35050565b600054610100900460ff1661420a5760405162461bcd60e51b81526004016109ae90615dc0565b6120de61492c565b600054610100900460ff1661422d5760005460ff1615614231565b303b155b61424d5760405162461bcd60e51b81526004016109ae90615c6e565b600054610100900460ff1615801561426f576000805461ffff19166101011790555b61427761495c565b8015613c37576000805461ff001916905550565b600083815260a7602052604081203360001983805b865181101561432b57600081815260088601602052604090205460ff16156142de57600081815260098601602052604090205488146142de57600191505b836001600160a01b03168782815181106142fa576142fa615a20565b60200260200101516001600160a01b031614156143195780925061432b565b8061432381615a36565b9150506142a0565b5060001982136143695760405162461bcd60e51b81526020600482015260096024820152681b9bdd08199bdd5b9960ba1b60448201526064016109ae565b600082815260088501602052604090205460ff161561439a5760405162461bcd60e51b81526004016109ae9061591f565b60008281526008850160205260408120805460ff19166001179055600485018054916143c583615a36565b909155505060009182526009909301602052604090208590555090509392505050565b60005a6113888110156143fa57600080fd5b61138881039050846040820482031161441257600080fd5b50823b61441e57600080fd5b60008083516020850160008789f1949350505050565b6000614489826040518060400160405280602081526020017f5361666545524332303a206c6f772d6c6576656c2063616c6c206661696c6564815250856001600160a01b03166149d29092919063ffffffff16565b805190915015613c9d57808060200190518101906144a79190615e0b565b613c9d5760405162461bcd60e51b815260206004820152602a60248201527f5361666545524332303a204552433230206f7065726174696f6e20646964206e6044820152691bdd081cdd58d8d9595960b21b60648201526084016109ae565b60a0546001600160a01b038216600090815260aa60205260408082209051919291614532908690615d82565b9081526040519081900360200190205461454c9190615d9e565b6145546147e0565b6112ee9190615827565b60ae5460995460408051633fabe5a360e21b81529051600093600160301b900462ffffff169283151592859283926001600160a01b03169163feaf968c9160048083019260a09291908290030181865afa1580156145c0573d6000803e3d6000fd5b505050506040513d601f19601f820116820180604052508101906145e49190615e42565b50945090925084915050801561460857506145ff82426158e7565b8463ffffffff16105b80614614575060008113155b156135c05760405162461bcd60e51b815260206004820152600a60248201526966656564207374616c6560b01b60448201526064016109ae565b60408051600580825260c082019092526000918291906020820160a0803683375050609a5482519293506001600160a01b03169183915060009061469457614694615a20565b6001600160a01b039283166020918202929092010152609b548251911690829060019081106146c5576146c5615a20565b6001600160a01b039283166020918202929092010152609c548251911690829060029081106146f6576146f6615a20565b6001600160a01b039283166020918202929092010152609d5482519116908290600390811061472757614727615a20565b6001600160a01b039283166020918202929092010152609e5482519116908290600490811061475857614758615a20565b6001600160a01b039283166020918202929092010152609854604051637f9c0ecd60e01b8152911690637f9c0ecd9061479990849061271090600401615e92565b602060405180830381865afa1580156147b6573d6000803e3d6000fd5b505050506040513d601f19601f820116820180604052508101906147da9190615eb4565b91505090565b60408051600580825260c082019092526000918291906020820160a080368337505060a15482519293506001600160a01b03169183915060009061482657614826615a20565b6001600160a01b03928316602091820292909201015260a25482519116908290600190811061485757614857615a20565b6001600160a01b039283166020918202929092010152609c5482519116908290600290811061488857614888615a20565b6001600160a01b039283166020918202929092010152609b548251911690829060039081106148b9576148b9615a20565b6001600160a01b039283166020918202929092010152609a548251911690829060049081106148ea576148ea615a20565b6001600160a01b039283166020918202929092010152609854604051637f9c0ecd60e01b8152911690637f9c0ecd90614799908490620f424090600401615e92565b600054610100900460ff166149535760405162461bcd60e51b81526004016109ae90615dc0565b6120de33614191565b600054610100900460ff166149775760005460ff161561497b565b303b155b6149975760405162461bcd60e51b81526004016109ae90615c6e565b600054610100900460ff161580156149b9576000805461ffff19166101011790555b60016065558015613c37576000805461ff001916905550565b60606135c08484600085856001600160a01b0385163b614a345760405162461bcd60e51b815260206004820152601d60248201527f416464726573733a2063616c6c20746f206e6f6e2d636f6e747261637400000060448201526064016109ae565b600080866001600160a01b03168587604051614a509190615d82565b60006040518083038185875af1925050503d8060008114614a8d576040519150601f19603f3d011682016040523d82523d6000602084013e614a92565b606091505b5091509150614aa2828286614aad565b979650505050505050565b60608315614abc5750816112ee565b825115614acc5782518084602001fd5b8160405162461bcd60e51b81526004016109ae9190614fb1565b508054614af29061587b565b6000825580601f10614b02575050565b601f016020900490600052602060002090810190613c379190614c6b565b828054614b2c9061587b565b90600052602060002090601f016020900481019282614b4e5760008555614b94565b82601f10614b675782800160ff19823516178555614b94565b82800160010185558215614b94579182015b82811115614b94578235825591602001919060010190614b79565b50614ba0929150614c6b565b5090565b828054828255906000526020600020908101928215614b94579160200282015b82811115614b945781546001600160a01b0319166001600160a01b03843516178255602090920191600190910190614bc4565b828054614c039061587b565b90600052602060002090601f016020900481019282614c255760008555614b94565b82601f10614c3e57805160ff1916838001178555614b94565b82800160010185558215614b94579182015b82811115614b94578251825591602001919060010190614c50565b5b80821115614ba05760008155600101614c6c565b60008083601f840112614c9257600080fd5b5081356001600160401b03811115614ca957600080fd5b602083019150836020828501011115614cc157600080fd5b9250929050565b80356001600160a01b0381168114614cdf57600080fd5b919050565b60008060008060008060a08789031215614cfd57600080fd5b863595506020870135945060408701356001600160401b03811115614d2157600080fd5b614d2d89828a01614c80565b90955093505060608701359150614d4660808801614cc8565b90509295509295509295565b803563ffffffff81168114614cdf57600080fd5b803561ffff81168114614cdf57600080fd5b803562ffffff81168114614cdf57600080fd5b60008060008060808587031215614da157600080fd5b614daa85614d52565b9350614db860208601614d66565b925060408501359150614dcd60608601614d78565b905092959194509250565b600060208284031215614dea57600080fd5b5035919050565b60005b83811015614e0c578181015183820152602001614df4565b83811115610d8d5750506000910152565b60008151808452614e35816020860160208601614df1565b601f01601f19169290920160200192915050565b6001600160a01b0388811682528716602082015285151560408201526060810185905260e060808201819052600090614e8490830186614e1d565b60a08301949094525090151560c09091015295945050505050565b634e487b7160e01b600052604160045260246000fd5b60405161020081016001600160401b0381118282101715614ed857614ed8614e9f565b60405290565b604051601f8201601f191681016001600160401b0381118282101715614f0657614f06614e9f565b604052919050565b600082601f830112614f1f57600080fd5b81356001600160401b03811115614f3857614f38614e9f565b614f4b601f8201601f1916602001614ede565b818152846020838601011115614f6057600080fd5b816020850160208301376000918101602001919091529392505050565b600060208284031215614f8f57600080fd5b81356001600160401b03811115614fa557600080fd5b6135c084828501614f0e565b6020815260006112ee6020830184614e1d565b60008060008060408587031215614fda57600080fd5b84356001600160401b0380821115614ff157600080fd5b614ffd88838901614c80565b9096509450602087013591508082111561501657600080fd5b5061502387828801614c80565b95989497509550505050565b6000806040838503121561504257600080fd5b8235915061505260208401614cc8565b90509250929050565b6000806040838503121561506e57600080fd5b61507783614cc8565b915061505260208401614cc8565b6000806040838503121561509857600080fd5b6150a183614cc8565b915060208301356001600160401b038111156150bc57600080fd5b6150c885828601614f0e565b9150509250929050565b60008060008060008060008060e0898b0312156150ee57600080fd5b88356001600160401b0381111561510457600080fd5b6151108b828c01614c80565b909c909b5060208b01359a60408101359a50606081013599506080810135985060a0810135975060c0013595509350505050565b60008060006060848603121561515957600080fd5b8335925060208401356001600160401b0381111561517657600080fd5b61518286828701614f0e565b92505061519160408501614cc8565b90509250925092565b6000602082840312156151ac57600080fd5b81356001600160401b038111156151c257600080fd5b820160a081850312156112ee57600080fd5b600060e082840312156120a457600080fd5b6000602082840312156151f857600080fd5b81356001600160401b0381111561520e57600080fd5b6135c0848285016151d4565b60006020828403121561522c57600080fd5b6112ee82614cc8565b60008060006060848603121561524a57600080fd5b8335925061525a60208501614cc8565b915061519160408501614cc8565b600081518084526020808501945080840160005b838110156152a15781516001600160a01b03168752958201959082019060010161527c565b509495945050505050565b6020815260006112ee6020830184615268565b600080602083850312156152d257600080fd5b82356001600160401b03808211156152e957600080fd5b818501915085601f8301126152fd57600080fd5b81358181111561530c57600080fd5b8660208260051b850101111561532157600080fd5b60209290920196919550909350505050565b60008060008060006060868803121561534b57600080fd5b8535945060208601356001600160401b038082111561536957600080fd5b61537589838a01614c80565b9096509450604088013591508082111561538e57600080fd5b5061539b88828901614c80565b969995985093965092949392505050565b6000602082840312156153be57600080fd5b81356001600160401b038111156153d457600080fd5b8201608081850312156112ee57600080fd5b6000806000604084860312156153fb57600080fd5b61540484614cc8565b925060208401356001600160401b0381111561541f57600080fd5b61542b86828701614c80565b9497909650939450505050565b6000806020838503121561544b57600080fd5b82356001600160401b0381111561546157600080fd5b61546d85828601614c80565b90969095509350505050565b6000610200828403121561548c57600080fd5b615494614eb5565b61549d83614cc8565b81526154ab60208401614cc8565b60208201526154bc60408401614cc8565b60408201526154cd60608401614d52565b60608201526154de60808401614d78565b608082015260a083013560a08201526154f960c08401614d66565b60c082015261550a60e08401614cc8565b60e082015261010061551d818501614cc8565b9082015261012061552f848201614cc8565b90820152610140615541848201614cc8565b90820152610160615553848201614cc8565b9082015261018083810135908201526101a080840135908201526101c061557b818501614cc8565b908201526101e061558d848201614cc8565b908201529392505050565b60008060008060008060a087890312156155b157600080fd5b8635955060208701356001600160401b038111156155ce57600080fd5b6155da89828a01614c80565b979a90995096976040810135976060820135975060809091013595509350505050565b6000806040838503121561561057600080fd5b50508035926020909101359150565b6000806040838503121561563257600080fd5b61563b83614cc8565b946020939093013593505050565b8015158114613c3757600080fd5b60008060006060848603121561566c57600080fd5b8335925061567c60208501614cc8565b9150604084013561568c81615649565b809150509250925092565b83151581526060602082015260006156b26060830185614e1d565b9050826040830152949350505050565b6001600160a01b03898116825288166020820152610100604082018190526000906156ef8382018a614e1d565b97151560608401525050608081019490945260a084019290925260c083015260e0909101529392505050565b60006020828403121561572d57600080fd5b81356001600160401b0381111561574357600080fd5b8201606081850312156112ee57600080fd5b6000602080838503121561576857600080fd5b82356001600160401b038082111561577f57600080fd5b818501915085601f83011261579357600080fd5b8135818111156157a5576157a5614e9f565b8060051b91506157b6848301614ede565b81815291830184019184810190888411156157d057600080fd5b938501935b838510156157f5576157e685614cc8565b825293850193908501906157d5565b98975050505050505050565b8183823760009101908152919050565b634e487b7160e01b600052601160045260246000fd5b600081600019048311821515161561584157615841615811565b500290565b6020808252818101527f4f776e61626c653a2063616c6c6572206973206e6f7420746865206f776e6572604082015260600190565b600181811c9082168061588f57607f821691505b602082108114156120a457634e487b7160e01b600052602260045260246000fd5b6020808252601f908201527f5265656e7472616e637947756172643a207265656e7472616e742063616c6c00604082015260600190565b6000828210156158f9576158f9615811565b500390565b6020808252600790820152666e6f206473707360c81b604082015260600190565b60208082526009908201526818dbdb5c1b195d195960ba1b604082015260600190565b6000808335601e1984360301811261595957600080fd5b8301803591506001600160401b0382111561597357600080fd5b602001915036819003821315614cc157600080fd5b81835281816020850137506000828201602090810191909152601f909101601f19169091010190565b6060815260006159c5606083018789615988565b82810360208401526159d8818688615988565b9150508260408301529695505050505050565b600082198211156159fe576159fe615811565b500190565b600060208284031215615a1557600080fd5b81356112ee81615649565b634e487b7160e01b600052603260045260246000fd5b6000600019821415615a4a57615a4a615811565b5060010190565b6000808335601e19843603018112615a6857600080fd5b8301803591506001600160401b03821115615a8257600080fd5b6020019150600581901b3603821315614cc157600080fd5b81835260006020808501808196508560051b810191508460005b87811015615b1d5782840389528135601e19883603018112615ad557600080fd5b870180356001600160401b03811115615aed57600080fd5b803603891315615afc57600080fd5b615b098682898501615988565b9a87019a9550505090840190600101615ab4565b5091979650505050505050565b608081526000615b3e60808301898b615988565b8760208401528281036040840152615b57818789615988565b90508281036060840152613ee7818587615a9a565b60c081526000615b8060c083018b8d615988565b8960208401528860408401528760608401528281036080840152615ba5818789615988565b905082810360a0840152615bba818587615a9a565b9c9b505050505050505050505050565b6001600160a01b03848116825260406020808401829052908301849052600091859160608501845b87811015615c175783615c0486614cc8565b1682529382019390820190600101615bf2565b5098975050505050505050565b604081526000615c38604083018587615988565b9050826020830152949350505050565b604081526000615c5c604083018587615988565b90508215156020830152949350505050565b6020808252602e908201527f496e697469616c697a61626c653a20636f6e747261637420697320616c72656160408201526d191e481a5b9a5d1a585b1a5e995960921b606082015260800190565b8315158152604060208201526000615cd8604083018486615988565b95945050505050565b604081526000615cf5604083018688615988565b8281036020840152614aa2818587615988565b608081526000615d1c60808301888a615988565b8281036020840152615d2f818789615988565b6040840195909552505060600152949350505050565b608081526000615d5960808301888a615988565b8281036020840152615d6c818789615988565b9415156040840152505060600152949350505050565b60008251615d94818460208701614df1565b9190910192915050565b600082615dbb57634e487b7160e01b600052601260045260246000fd5b500490565b6020808252602b908201527f496e697469616c697a61626c653a20636f6e7472616374206973206e6f74206960408201526a6e697469616c697a696e6760a81b606082015260800190565b600060208284031215615e1d57600080fd5b81516112ee81615649565b805169ffffffffffffffffffff81168114614cdf57600080fd5b600080600080600060a08688031215615e5a57600080fd5b615e6386615e28565b9450602086015193506040860151925060608601519150615e8660808701615e28565b90509295509295909350565b604081526000615ea56040830185615268565b90508260208301529392505050565b600060208284031215615ec657600080fd5b505191905056fea2646970667358221220970e1a8167e492d2fe598af0c22770aa89419daada70a4f26758214a4c969e2764736f6c634300080b0033",
  "linkReferences": {},
  "deployedLinkReferences": {}
}