{
  "_format": "hh-sol-artifact-1",
  "contractName": "Nexus",
  "sourceName": "contracts/Nexus.sol",
  "abi": [
    {
      "anonymous": false,
      "inputs": [
        {
          "indexed": true,
          "internalType": "address",
          "name": "buyer",
          "type": "address"
        },
        {
          "indexed": true,
          "internalType": "address",
          "name": "consumer",
          "type": "address"
        },
        {
          "indexed": true,
          "internalType": "address",
          "name": "worker",
          "type": "address"
        },
        {
          "indexed": false,
          "internalType": "uint256",
          "name": "amount",
          "type": "uint256"
        }
      ],
      "name": "BoughtGas",
      "type": "event"
    },
    {
      "anonymous": false,
      "inputs": [
        {
          "indexed": true,
          "internalType": "address",
          "name": "worker",
          "type": "address"
        },
        {
          "indexed": false,
          "internalType": "uint256",
          "name": "amount",
          "type": "uint256"
        }
      ],
      "name": "ClaimedGas",
      "type": "event"
    },
    {
      "anonymous": false,
      "inputs": [
        {
          "indexed": false,
          "internalType": "uint32",
          "name": "paymentPremiumPPB",
          "type": "uint32"
        },
        {
          "indexed": false,
          "internalType": "uint16",
          "name": "gasCeilingMultiplier",
          "type": "uint16"
        },
        {
          "indexed": false,
          "internalType": "uint256",
          "name": "fallbackGasPrice",
          "type": "uint256"
        },
        {
          "indexed": false,
          "internalType": "uint24",
          "name": "stalenessSeconds",
          "type": "uint24"
        }
      ],
      "name": "ConfigSet",
      "type": "event"
    },
    {
      "anonymous": false,
      "inputs": [
        {
          "indexed": true,
          "internalType": "address",
          "name": "worker",
          "type": "address"
        },
        {
          "indexed": false,
          "internalType": "string",
          "name": "image",
          "type": "string"
        },
        {
          "indexed": false,
          "internalType": "bool",
          "name": "approved",
          "type": "bool"
        }
      ],
      "name": "DockerApprovalChanged",
      "type": "event"
    },
    {
      "anonymous": false,
      "inputs": [
        {
          "indexed": true,
          "internalType": "address",
          "name": "consumer",
          "type": "address"
        },
        {
          "indexed": false,
          "internalType": "string",
          "name": "outputFS",
          "type": "string"
        },
        {
          "indexed": false,
          "internalType": "string",
          "name": "outputHash",
          "type": "string"
        },
        {
          "indexed": false,
          "internalType": "bool",
          "name": "inconsistent",
          "type": "bool"
        },
        {
          "indexed": false,
          "internalType": "uint256",
          "name": "id",
          "type": "uint256"
        }
      ],
      "name": "JobDone",
      "type": "event"
    },
    {
      "anonymous": false,
      "inputs": [
        {
          "indexed": true,
          "internalType": "address",
          "name": "consumer",
          "type": "address"
        },
        {
          "indexed": false,
          "internalType": "string",
          "name": "stdErr",
          "type": "string"
        },
        {
          "indexed": false,
          "internalType": "string",
          "name": "outputFS",
          "type": "string"
        },
        {
          "indexed": false,
          "internalType": "uint256",
          "name": "id",
          "type": "uint256"
        }
      ],
      "name": "JobError",
      "type": "event"
    },
    {
      "anonymous": false,
      "inputs": [
        {
          "indexed": true,
          "internalType": "address",
          "name": "consumer",
          "type": "address"
        },
        {
          "indexed": true,
          "internalType": "address",
          "name": "worker",
          "type": "address"
        },
        {
          "indexed": false,
          "internalType": "string",
          "name": "outputFS",
          "type": "string"
        },
        {
          "indexed": false,
          "internalType": "string",
          "name": "outputHash",
          "type": "string"
        },
        {
          "indexed": false,
          "internalType": "uint256",
          "name": "dapps",
          "type": "uint256"
        },
        {
          "indexed": false,
          "internalType": "uint256",
          "name": "id",
          "type": "uint256"
        }
      ],
      "name": "JobResult",
      "type": "event"
    },
    {
      "anonymous": false,
      "inputs": [
        {
          "indexed": true,
          "internalType": "address",
          "name": "consumer",
          "type": "address"
        },
        {
          "indexed": false,
          "internalType": "uint256",
          "name": "id",
          "type": "uint256"
        }
      ],
      "name": "Kill",
      "type": "event"
    },
    {
      "anonymous": false,
      "inputs": [
        {
          "indexed": true,
          "internalType": "address",
          "name": "previousOwner",
          "type": "address"
        },
        {
          "indexed": true,
          "internalType": "address",
          "name": "newOwner",
          "type": "address"
        }
      ],
      "name": "OwnershipTransferred",
      "type": "event"
    },
    {
      "anonymous": false,
      "inputs": [
        {
          "indexed": true,
          "internalType": "address",
          "name": "consumer",
          "type": "address"
        },
        {
          "indexed": true,
          "internalType": "address",
          "name": "owner",
          "type": "address"
        },
        {
          "indexed": false,
          "internalType": "string",
          "name": "imageName",
          "type": "string"
        },
        {
          "indexed": false,
          "internalType": "uint256",
          "name": "id",
          "type": "uint256"
        },
        {
          "indexed": false,
          "internalType": "string",
          "name": "inputFS",
          "type": "string"
        },
        {
          "indexed": false,
          "internalType": "string[]",
          "name": "args",
          "type": "string[]"
        }
      ],
      "name": "QueueJob",
      "type": "event"
    },
    {
      "anonymous": false,
      "inputs": [
        {
          "indexed": true,
          "internalType": "address",
          "name": "consumer",
          "type": "address"
        },
        {
          "indexed": true,
          "internalType": "address",
          "name": "owner",
          "type": "address"
        },
        {
          "indexed": false,
          "internalType": "string",
          "name": "imageName",
          "type": "string"
        },
        {
          "indexed": false,
          "internalType": "uint256",
          "name": "ioMegaBytes",
          "type": "uint256"
        },
        {
          "indexed": false,
          "internalType": "uint256",
          "name": "storageMegaBytes",
          "type": "uint256"
        },
        {
          "indexed": false,
          "internalType": "uint256",
          "name": "id",
          "type": "uint256"
        },
        {
          "indexed": false,
          "internalType": "string",
          "name": "inputFS",
          "type": "string"
        },
        {
          "indexed": false,
          "internalType": "string[]",
          "name": "args",
          "type": "string[]"
        }
      ],
      "name": "QueueService",
      "type": "event"
    },
    {
      "anonymous": false,
      "inputs": [
        {
          "indexed": true,
          "internalType": "address",
          "name": "consumer",
          "type": "address"
        },
        {
          "indexed": true,
          "internalType": "address",
          "name": "worker",
          "type": "address"
        },
        {
          "indexed": false,
          "internalType": "string",
          "name": "outputFS",
          "type": "string"
        },
        {
          "indexed": false,
          "internalType": "uint256",
          "name": "id",
          "type": "uint256"
        }
      ],
      "name": "ServiceComplete",
      "type": "event"
    },
    {
      "anonymous": false,
      "inputs": [
        {
          "indexed": true,
          "internalType": "address",
          "name": "consumer",
          "type": "address"
        },
        {
          "indexed": true,
          "internalType": "address",
          "name": "worker",
          "type": "address"
        },
        {
          "indexed": false,
          "internalType": "string",
          "name": "stdErr",
          "type": "string"
        },
        {
          "indexed": false,
          "internalType": "string",
          "name": "outputFS",
          "type": "string"
        },
        {
          "indexed": false,
          "internalType": "uint256",
          "name": "id",
          "type": "uint256"
        }
      ],
      "name": "ServiceError",
      "type": "event"
    },
    {
      "anonymous": false,
      "inputs": [
        {
          "indexed": true,
          "internalType": "address",
          "name": "consumer",
          "type": "address"
        },
        {
          "indexed": true,
          "internalType": "address",
          "name": "worker",
          "type": "address"
        },
        {
          "indexed": false,
          "internalType": "uint256",
          "name": "id",
          "type": "uint256"
        },
        {
          "indexed": false,
          "internalType": "uint256",
          "name": "ioMegaBytes",
          "type": "uint256"
        },
        {
          "indexed": false,
          "internalType": "uint256",
          "name": "storageMegaBytes",
          "type": "uint256"
        },
        {
          "indexed": false,
          "internalType": "uint256",
          "name": "endDate",
          "type": "uint256"
        }
      ],
      "name": "ServiceExtended",
      "type": "event"
    },
    {
      "anonymous": false,
      "inputs": [
        {
          "indexed": true,
          "internalType": "address",
          "name": "consumer",
          "type": "address"
        },
        {
          "indexed": true,
          "internalType": "address",
          "name": "worker",
          "type": "address"
        },
        {
          "indexed": false,
          "internalType": "uint256",
          "name": "id",
          "type": "uint256"
        },
        {
          "indexed": false,
          "internalType": "uint256",
          "name": "port",
          "type": "uint256"
        }
      ],
      "name": "ServiceRunning",
      "type": "event"
    },
    {
      "anonymous": false,
      "inputs": [
        {
          "indexed": true,
          "internalType": "address",
          "name": "consumer",
          "type": "address"
        },
        {
          "indexed": true,
          "internalType": "address",
          "name": "worker",
          "type": "address"
        },
        {
          "indexed": false,
          "internalType": "uint256",
          "name": "amount",
          "type": "uint256"
        }
      ],
      "name": "SoldGas",
      "type": "event"
    },
    {
      "anonymous": false,
      "inputs": [
        {
          "indexed": false,
          "internalType": "address",
          "name": "consumer",
          "type": "address"
        },
        {
          "indexed": false,
          "internalType": "address[]",
          "name": "workers",
          "type": "address[]"
        }
      ],
      "name": "UpdateWorkers",
      "type": "event"
    },
    {
      "anonymous": false,
      "inputs": [
        {
          "indexed": true,
          "internalType": "address",
          "name": "consumer",
          "type": "address"
        },
        {
          "indexed": true,
          "internalType": "address",
          "name": "worker",
          "type": "address"
        },
        {
          "indexed": false,
          "internalType": "uint256",
          "name": "amount",
          "type": "uint256"
        }
      ],
      "name": "UsedGas",
      "type": "event"
    },
    {
      "anonymous": false,
      "inputs": [
        {
          "indexed": true,
          "internalType": "address",
          "name": "worker",
          "type": "address"
        },
        {
          "indexed": false,
          "internalType": "bool",
          "name": "active",
          "type": "bool"
        },
        {
          "indexed": false,
          "internalType": "string",
          "name": "endpoint",
          "type": "string"
        }
      ],
      "name": "WORKERStatusChanged",
      "type": "event"
    },
    {
      "inputs": [],
      "name": "FAST_GAS_FEED",
      "outputs": [
        {
          "internalType": "contract AggregatorV3Interface",
          "name": "",
          "type": "address"
        }
      ],
      "stateMutability": "view",
      "type": "function"
    },
    {
      "inputs": [
        {
          "internalType": "string",
          "name": "imageName",
          "type": "string"
        },
        {
          "internalType": "string",
          "name": "imageHash",
          "type": "string"
        }
      ],
      "name": "approveImage",
      "outputs": [],
      "stateMutability": "nonpayable",
      "type": "function"
    },
    {
      "inputs": [
        {
          "internalType": "string",
          "name": "",
          "type": "string"
        }
      ],
      "name": "approvedImages",
      "outputs": [
        {
          "internalType": "string",
          "name": "",
          "type": "string"
        }
      ],
      "stateMutability": "view",
      "type": "function"
    },
    {
      "inputs": [],
      "name": "bancorNetwork",
      "outputs": [
        {
          "internalType": "contract IBancorNetwork",
          "name": "",
          "type": "address"
        }
      ],
      "stateMutability": "view",
      "type": "function"
    },
    {
      "inputs": [
        {
          "internalType": "uint256",
          "name": "_amount",
          "type": "uint256"
        },
        {
          "internalType": "address",
          "name": "_consumer",
          "type": "address"
        },
        {
          "internalType": "address",
          "name": "_worker",
          "type": "address"
        }
      ],
      "name": "buyGasFor",
      "outputs": [],
      "stateMutability": "nonpayable",
      "type": "function"
    },
    {
      "inputs": [
        {
          "internalType": "string",
          "name": "imageName",
          "type": "string"
        },
        {
          "internalType": "uint256",
          "name": "ioMegaBytes",
          "type": "uint256"
        },
        {
          "internalType": "uint256",
          "name": "storageMegaBytes",
          "type": "uint256"
        },
        {
          "internalType": "address",
          "name": "worker",
          "type": "address"
        },
        {
          "internalType": "bool",
          "name": "include_base",
          "type": "bool"
        }
      ],
      "name": "calcServiceDapps",
      "outputs": [
        {
          "internalType": "uint256",
          "name": "",
          "type": "uint256"
        }
      ],
      "stateMutability": "view",
      "type": "function"
    },
    {
      "inputs": [],
      "name": "claim",
      "outputs": [],
      "stateMutability": "nonpayable",
      "type": "function"
    },
    {
      "inputs": [
        {
          "internalType": "address",
          "name": "",
          "type": "address"
        }
      ],
      "name": "contracts",
      "outputs": [
        {
          "internalType": "address",
          "name": "",
          "type": "address"
        }
      ],
      "stateMutability": "view",
      "type": "function"
    },
    {
      "inputs": [],
      "name": "deprecateWORKER",
      "outputs": [],
      "stateMutability": "nonpayable",
      "type": "function"
    },
    {
      "inputs": [
        {
          "internalType": "uint256",
          "name": "serviceId",
          "type": "uint256"
        },
        {
          "internalType": "string",
          "name": "imageName",
          "type": "string"
        },
        {
          "internalType": "uint256",
          "name": "months",
          "type": "uint256"
        },
        {
          "internalType": "uint256",
          "name": "ioMb",
          "type": "uint256"
        },
        {
          "internalType": "uint256",
          "name": "storageMb",
          "type": "uint256"
        }
      ],
      "name": "extendService",
      "outputs": [],
      "stateMutability": "nonpayable",
      "type": "function"
    },
    {
      "inputs": [],
      "name": "gasPerTimeUnit",
      "outputs": [
        {
          "internalType": "uint256",
          "name": "",
          "type": "uint256"
        }
      ],
      "stateMutability": "view",
      "type": "function"
    },
    {
      "inputs": [],
      "name": "getConfig",
      "outputs": [
        {
          "internalType": "uint32",
          "name": "paymentPremiumPPB",
          "type": "uint32"
        },
        {
          "internalType": "uint24",
          "name": "stalenessSeconds",
          "type": "uint24"
        },
        {
          "internalType": "uint16",
          "name": "gasCeilingMultiplier",
          "type": "uint16"
        },
        {
          "internalType": "uint256",
          "name": "fallbackGasPrice",
          "type": "uint256"
        }
      ],
      "stateMutability": "view",
      "type": "function"
    },
    {
      "inputs": [
        {
          "internalType": "uint256",
          "name": "gasLimit",
          "type": "uint256"
        },
        {
          "internalType": "string",
          "name": "imageName",
          "type": "string"
        },
        {
          "internalType": "address",
          "name": "worker",
          "type": "address"
        }
      ],
      "name": "getMaxPaymentForGas",
      "outputs": [
        {
          "internalType": "uint256",
          "name": "maxPayment",
          "type": "uint256"
        }
      ],
      "stateMutability": "view",
      "type": "function"
    },
    {
      "inputs": [
        {
          "internalType": "uint256",
          "name": "id",
          "type": "uint256"
        },
        {
          "internalType": "string",
          "name": "jobType",
          "type": "string"
        },
        {
          "internalType": "address",
          "name": "worker",
          "type": "address"
        }
      ],
      "name": "getMinBalance",
      "outputs": [
        {
          "internalType": "uint256",
          "name": "",
          "type": "uint256"
        }
      ],
      "stateMutability": "view",
      "type": "function"
    },
    {
      "inputs": [
        {
          "internalType": "uint256",
          "name": "jobID",
          "type": "uint256"
        },
        {
          "internalType": "address",
          "name": "worker",
          "type": "address"
        }
      ],
      "name": "getPortForWORKER",
      "outputs": [
        {
          "internalType": "uint256",
          "name": "",
          "type": "uint256"
        }
      ],
      "stateMutability": "view",
      "type": "function"
    },
    {
      "inputs": [
        {
          "internalType": "address",
          "name": "account",
          "type": "address"
        },
        {
          "internalType": "address",
          "name": "worker",
          "type": "address"
        }
      ],
      "name": "getWORKERAmount",
      "outputs": [
        {
          "internalType": "uint256",
          "name": "",
          "type": "uint256"
        }
      ],
      "stateMutability": "view",
      "type": "function"
    },
    {
      "inputs": [
        {
          "internalType": "uint256",
          "name": "id",
          "type": "uint256"
        },
        {
          "internalType": "address",
          "name": "worker",
          "type": "address"
        }
      ],
      "name": "getWORKERDataLimits",
      "outputs": [
        {
          "components": [
            {
              "internalType": "uint256",
              "name": "ioMegaBytesLimit",
              "type": "uint256"
            },
            {
              "internalType": "uint256",
              "name": "storageMegaBytesLimit",
              "type": "uint256"
            }
          ],
          "internalType": "struct Nexus.WorkerLimits",
          "name": "",
          "type": "tuple"
        }
      ],
      "stateMutability": "view",
      "type": "function"
    },
    {
      "inputs": [
        {
          "internalType": "address",
          "name": "worker",
          "type": "address"
        }
      ],
      "name": "getWORKEREndpoint",
      "outputs": [
        {
          "internalType": "string",
          "name": "",
          "type": "string"
        }
      ],
      "stateMutability": "view",
      "type": "function"
    },
    {
      "inputs": [],
      "name": "getWorkerAddresses",
      "outputs": [
        {
          "internalType": "address[]",
          "name": "",
          "type": "address[]"
        }
      ],
      "stateMutability": "view",
      "type": "function"
    },
    {
      "inputs": [
        {
          "components": [
            {
              "internalType": "address",
              "name": "_tokenContract",
              "type": "address"
            },
            {
              "internalType": "address",
              "name": "_bancorNetwork",
              "type": "address"
            },
            {
              "internalType": "address",
              "name": "_fastGasFeed",
              "type": "address"
            },
            {
              "internalType": "uint32",
              "name": "_paymentPremiumPPB",
              "type": "uint32"
            },
            {
              "internalType": "uint24",
              "name": "_stalenessSeconds",
              "type": "uint24"
            },
            {
              "internalType": "uint256",
              "name": "_fallbackGasPrice",
              "type": "uint256"
            },
            {
              "internalType": "uint16",
              "name": "_gasCeilingMultiplier",
              "type": "uint16"
            },
            {
              "internalType": "address",
              "name": "_dappToken",
              "type": "address"
            },
            {
              "internalType": "address",
              "name": "_dappBntToken",
              "type": "address"
            },
            {
              "internalType": "address",
              "name": "_bntToken",
              "type": "address"
            },
            {
              "internalType": "address",
              "name": "_ethBntToken",
              "type": "address"
            },
            {
              "internalType": "address",
              "name": "_ethToken",
              "type": "address"
            },
            {
              "internalType": "uint256",
              "name": "_gasPerTimeUnit",
              "type": "uint256"
            },
            {
              "internalType": "uint256",
              "name": "_usdtPrecision",
              "type": "uint256"
            },
            {
              "internalType": "address",
              "name": "_usdtToken",
              "type": "address"
            },
            {
              "internalType": "address",
              "name": "_usdtBntToken",
              "type": "address"
            }
          ],
          "internalType": "struct Nexus.initArgs",
          "name": "args",
          "type": "tuple"
        }
      ],
      "name": "initialize",
      "outputs": [],
      "stateMutability": "nonpayable",
      "type": "function"
    },
    {
      "inputs": [
        {
          "internalType": "address",
          "name": "worker",
          "type": "address"
        },
        {
          "internalType": "string",
          "name": "imageName",
          "type": "string"
        }
      ],
      "name": "isImageApprovedForWORKER",
      "outputs": [
        {
          "internalType": "bool",
          "name": "",
          "type": "bool"
        }
      ],
      "stateMutability": "view",
      "type": "function"
    },
    {
      "inputs": [
        {
          "internalType": "uint256",
          "name": "id",
          "type": "uint256"
        }
      ],
      "name": "isServiceDone",
      "outputs": [
        {
          "internalType": "bool",
          "name": "",
          "type": "bool"
        }
      ],
      "stateMutability": "view",
      "type": "function"
    },
    {
      "inputs": [
        {
          "components": [
            {
              "internalType": "uint256",
              "name": "jobID",
              "type": "uint256"
            },
            {
              "internalType": "string",
              "name": "outputFS",
              "type": "string"
            },
            {
              "internalType": "string",
              "name": "outputHash",
              "type": "string"
            }
          ],
          "internalType": "struct Nexus.jobCallbackArgs",
          "name": "args",
          "type": "tuple"
        }
      ],
      "name": "jobCallback",
      "outputs": [],
      "stateMutability": "nonpayable",
      "type": "function"
    },
    {
      "inputs": [
        {
          "internalType": "uint256",
          "name": "jobID",
          "type": "uint256"
        },
        {
          "internalType": "string",
          "name": "stdErr",
          "type": "string"
        },
        {
          "internalType": "string",
          "name": "outputFS",
          "type": "string"
        }
      ],
      "name": "jobError",
      "outputs": [],
      "stateMutability": "nonpayable",
      "type": "function"
    },
    {
      "inputs": [
        {
          "internalType": "uint256",
          "name": "id",
          "type": "uint256"
        },
        {
          "internalType": "address",
          "name": "worker",
          "type": "address"
        },
        {
          "internalType": "bool",
          "name": "isJob",
          "type": "bool"
        }
      ],
      "name": "jobServiceCompleted",
      "outputs": [
        {
          "internalType": "bool",
          "name": "",
          "type": "bool"
        }
      ],
      "stateMutability": "view",
      "type": "function"
    },
    {
      "inputs": [
        {
          "internalType": "uint256",
          "name": "",
          "type": "uint256"
        }
      ],
      "name": "jobs",
      "outputs": [
        {
          "internalType": "address",
          "name": "consumer",
          "type": "address"
        },
        {
          "internalType": "address",
          "name": "owner",
          "type": "address"
        },
        {
          "internalType": "bool",
          "name": "callback",
          "type": "bool"
        },
        {
          "internalType": "uint256",
          "name": "resultsCount",
          "type": "uint256"
        },
        {
          "internalType": "string",
          "name": "imageName",
          "type": "string"
        },
        {
          "internalType": "uint256",
          "name": "gasLimit",
          "type": "uint256"
        },
        {
          "internalType": "bool",
          "name": "requireConsistent",
          "type": "bool"
        }
      ],
      "stateMutability": "view",
      "type": "function"
    },
    {
      "inputs": [],
      "name": "lastJobID",
      "outputs": [
        {
          "internalType": "uint256",
          "name": "",
          "type": "uint256"
        }
      ],
      "stateMutability": "view",
      "type": "function"
    },
    {
      "inputs": [],
      "name": "owner",
      "outputs": [
        {
          "internalType": "address",
          "name": "",
          "type": "address"
        }
      ],
      "stateMutability": "view",
      "type": "function"
    },
    {
      "inputs": [
        {
          "internalType": "address",
          "name": "",
          "type": "address"
        },
        {
          "internalType": "uint256",
          "name": "",
          "type": "uint256"
        }
      ],
      "name": "providers",
      "outputs": [
        {
          "internalType": "address",
          "name": "",
          "type": "address"
        }
      ],
      "stateMutability": "view",
      "type": "function"
    },
    {
      "inputs": [
        {
          "components": [
            {
              "internalType": "address",
              "name": "owner",
              "type": "address"
            },
            {
              "internalType": "string",
              "name": "imageName",
              "type": "string"
            },
            {
              "internalType": "string",
              "name": "inputFS",
              "type": "string"
            },
            {
              "internalType": "bool",
              "name": "callback",
              "type": "bool"
            },
            {
              "internalType": "uint256",
              "name": "gasLimit",
              "type": "uint256"
            },
            {
              "internalType": "bool",
              "name": "requireConsistent",
              "type": "bool"
            },
            {
              "internalType": "string[]",
              "name": "args",
              "type": "string[]"
            }
          ],
          "internalType": "struct Nexus.queueJobArgs",
          "name": "args",
          "type": "tuple"
        }
      ],
      "name": "queueJob",
      "outputs": [],
      "stateMutability": "nonpayable",
      "type": "function"
    },
    {
      "inputs": [
        {
          "components": [
            {
              "internalType": "address",
              "name": "owner",
              "type": "address"
            },
            {
              "internalType": "string",
              "name": "imageName",
              "type": "string"
            },
            {
              "internalType": "uint256",
              "name": "ioMegaBytes",
              "type": "uint256"
            },
            {
              "internalType": "uint256",
              "name": "storageMegaBytes",
              "type": "uint256"
            },
            {
              "internalType": "string",
              "name": "inputFS",
              "type": "string"
            },
            {
              "internalType": "string[]",
              "name": "args",
              "type": "string[]"
            },
            {
              "internalType": "uint256",
              "name": "months",
              "type": "uint256"
            }
          ],
          "internalType": "struct Nexus.queueServiceArgs",
          "name": "args",
          "type": "tuple"
        }
      ],
      "name": "queueService",
      "outputs": [],
      "stateMutability": "nonpayable",
      "type": "function"
    },
    {
      "inputs": [
        {
          "internalType": "string",
          "name": "endpoint",
          "type": "string"
        }
      ],
      "name": "regWORKER",
      "outputs": [],
      "stateMutability": "nonpayable",
      "type": "function"
    },
    {
      "inputs": [
        {
          "internalType": "address",
          "name": "",
          "type": "address"
        }
      ],
      "name": "registeredWORKERs",
      "outputs": [
        {
          "internalType": "bool",
          "name": "active",
          "type": "bool"
        },
        {
          "internalType": "string",
          "name": "endpoint",
          "type": "string"
        },
        {
          "internalType": "uint256",
          "name": "claimableDapp",
          "type": "uint256"
        }
      ],
      "stateMutability": "view",
      "type": "function"
    },
    {
      "inputs": [],
      "name": "renounceOwnership",
      "outputs": [],
      "stateMutability": "nonpayable",
      "type": "function"
    },
    {
      "inputs": [
        {
          "internalType": "uint256",
          "name": "_amountToSell",
          "type": "uint256"
        },
        {
          "internalType": "address",
          "name": "_worker",
          "type": "address"
        }
      ],
      "name": "sellGas",
      "outputs": [],
      "stateMutability": "nonpayable",
      "type": "function"
    },
    {
      "inputs": [
        {
          "internalType": "uint256",
          "name": "serviceId",
          "type": "uint256"
        },
        {
          "internalType": "uint256",
          "name": "port",
          "type": "uint256"
        }
      ],
      "name": "serviceCallback",
      "outputs": [],
      "stateMutability": "nonpayable",
      "type": "function"
    },
    {
      "inputs": [
        {
          "components": [
            {
              "internalType": "uint256",
              "name": "jobID",
              "type": "uint256"
            },
            {
              "internalType": "string",
              "name": "outputFS",
              "type": "string"
            },
            {
              "internalType": "uint256",
              "name": "ioMegaBytesUsed",
              "type": "uint256"
            },
            {
              "internalType": "uint256",
              "name": "storageMegaBytesUsed",
              "type": "uint256"
            }
          ],
          "internalType": "struct Nexus.serviceCompleteArgs",
          "name": "args",
          "type": "tuple"
        }
      ],
      "name": "serviceComplete",
      "outputs": [],
      "stateMutability": "nonpayable",
      "type": "function"
    },
    {
      "inputs": [
        {
          "components": [
            {
              "internalType": "uint256",
              "name": "jobID",
              "type": "uint256"
            },
            {
              "internalType": "string",
              "name": "stdErr",
              "type": "string"
            },
            {
              "internalType": "string",
              "name": "outputFS",
              "type": "string"
            },
            {
              "internalType": "uint256",
              "name": "ioMegaBytesUsed",
              "type": "uint256"
            },
            {
              "internalType": "uint256",
              "name": "storageMegaBytesUsed",
              "type": "uint256"
            }
          ],
          "internalType": "struct Nexus.serviceErrorArgs",
          "name": "args",
          "type": "tuple"
        }
      ],
      "name": "serviceError",
      "outputs": [],
      "stateMutability": "nonpayable",
      "type": "function"
    },
    {
      "inputs": [
        {
          "internalType": "uint256",
          "name": "",
          "type": "uint256"
        }
      ],
      "name": "services",
      "outputs": [
        {
          "internalType": "address",
          "name": "consumer",
          "type": "address"
        },
        {
          "internalType": "address",
          "name": "owner",
          "type": "address"
        },
        {
          "internalType": "string",
          "name": "imageName",
          "type": "string"
        },
        {
          "internalType": "bool",
          "name": "started",
          "type": "bool"
        },
        {
          "internalType": "uint256",
          "name": "endDate",
          "type": "uint256"
        },
        {
          "internalType": "uint256",
          "name": "months",
          "type": "uint256"
        },
        {
          "internalType": "uint256",
          "name": "ioMegaBytes",
          "type": "uint256"
        },
        {
          "internalType": "uint256",
          "name": "storageMegaBytes",
          "type": "uint256"
        }
      ],
      "stateMutability": "view",
      "type": "function"
    },
    {
      "inputs": [
        {
          "internalType": "uint32",
          "name": "paymentPremiumPPB",
          "type": "uint32"
        },
        {
          "internalType": "uint16",
          "name": "gasCeilingMultiplier",
          "type": "uint16"
        },
        {
          "internalType": "uint256",
          "name": "fallbackGasPrice",
          "type": "uint256"
        },
        {
          "internalType": "uint24",
          "name": "stalenessSeconds",
          "type": "uint24"
        }
      ],
      "name": "setConfig",
      "outputs": [],
      "stateMutability": "nonpayable",
      "type": "function"
    },
    {
      "inputs": [
        {
          "internalType": "address",
          "name": "authorized_contract",
          "type": "address"
        }
      ],
      "name": "setConsumerContract",
      "outputs": [],
      "stateMutability": "nonpayable",
      "type": "function"
    },
    {
      "inputs": [
        {
          "internalType": "string",
          "name": "imageName",
          "type": "string"
        },
        {
          "internalType": "uint256",
          "name": "jobFee",
          "type": "uint256"
        },
        {
          "internalType": "uint256",
          "name": "baseFee",
          "type": "uint256"
        },
        {
          "internalType": "uint256",
          "name": "storageFee",
          "type": "uint256"
        },
        {
          "internalType": "uint256",
          "name": "ioFee",
          "type": "uint256"
        },
        {
          "internalType": "uint256",
          "name": "minStorageMegaBytes",
          "type": "uint256"
        },
        {
          "internalType": "uint256",
          "name": "minIoMegaBytes",
          "type": "uint256"
        }
      ],
      "name": "setDockerImage",
      "outputs": [],
      "stateMutability": "nonpayable",
      "type": "function"
    },
    {
      "inputs": [
        {
          "internalType": "address[]",
          "name": "workers",
          "type": "address[]"
        }
      ],
      "name": "setWorkers",
      "outputs": [],
      "stateMutability": "nonpayable",
      "type": "function"
    },
    {
      "inputs": [],
      "name": "token",
      "outputs": [
        {
          "internalType": "contract IERC20Upgradeable",
          "name": "",
          "type": "address"
        }
      ],
      "stateMutability": "view",
      "type": "function"
    },
    {
      "inputs": [],
      "name": "totalDappGasPaid",
      "outputs": [
        {
          "internalType": "uint256",
          "name": "",
          "type": "uint256"
        }
      ],
      "stateMutability": "view",
      "type": "function"
    },
    {
      "inputs": [],
      "name": "totalWorkers",
      "outputs": [
        {
          "internalType": "uint256",
          "name": "",
          "type": "uint256"
        }
      ],
      "stateMutability": "view",
      "type": "function"
    },
    {
      "inputs": [
        {
          "internalType": "address",
          "name": "newOwner",
          "type": "address"
        }
      ],
      "name": "transferOwnership",
      "outputs": [],
      "stateMutability": "nonpayable",
      "type": "function"
    },
    {
      "inputs": [
        {
          "internalType": "string",
          "name": "imageName",
          "type": "string"
        }
      ],
      "name": "unapproveDockerForWORKER",
      "outputs": [],
      "stateMutability": "nonpayable",
      "type": "function"
    },
    {
      "inputs": [
        {
          "internalType": "string",
          "name": "imageName",
          "type": "string"
        },
        {
          "internalType": "string",
          "name": "imageHash",
          "type": "string"
        }
      ],
      "name": "unapproveImage",
      "outputs": [],
      "stateMutability": "nonpayable",
      "type": "function"
    },
    {
      "inputs": [
        {
          "internalType": "string",
          "name": "imageName",
          "type": "string"
        },
        {
          "internalType": "uint256",
          "name": "jobFee",
          "type": "uint256"
        },
        {
          "internalType": "uint256",
          "name": "baseFee",
          "type": "uint256"
        },
        {
          "internalType": "uint256",
          "name": "storageFee",
          "type": "uint256"
        },
        {
          "internalType": "uint256",
          "name": "ioFee",
          "type": "uint256"
        },
        {
          "internalType": "uint256",
          "name": "minStorageMegaBytes",
          "type": "uint256"
        },
        {
          "internalType": "uint256",
          "name": "minIoMegaBytes",
          "type": "uint256"
        }
      ],
      "name": "updateDockerImage",
      "outputs": [],
      "stateMutability": "nonpayable",
      "type": "function"
    },
    {
      "inputs": [],
      "name": "usdtPrecision",
      "outputs": [
        {
          "internalType": "uint256",
          "name": "",
          "type": "uint256"
        }
      ],
      "stateMutability": "view",
      "type": "function"
    },
    {
      "inputs": [
        {
          "internalType": "address[]",
          "name": "workers",
          "type": "address[]"
        }
      ],
      "name": "validateActiveWorkers",
      "outputs": [],
      "stateMutability": "view",
      "type": "function"
    },
    {
      "inputs": [
        {
          "internalType": "uint256",
          "name": "ioMegaBytes",
          "type": "uint256"
        },
        {
          "internalType": "uint256",
          "name": "storageMegaBytes",
          "type": "uint256"
        },
        {
          "internalType": "string",
          "name": "imageName",
          "type": "string"
        },
        {
          "internalType": "uint256",
          "name": "months",
          "type": "uint256"
        },
        {
          "internalType": "address",
          "name": "worker",
          "type": "address"
        }
      ],
      "name": "validateMin",
      "outputs": [],
      "stateMutability": "view",
      "type": "function"
    },
    {
      "inputs": [
        {
          "internalType": "address",
          "name": "",
          "type": "address"
        },
        {
          "internalType": "string",
          "name": "",
          "type": "string"
        }
      ],
      "name": "workerApprovedImages",
      "outputs": [
        {
          "internalType": "uint256",
          "name": "jobFee",
          "type": "uint256"
        },
        {
          "internalType": "uint256",
          "name": "baseFee",
          "type": "uint256"
        },
        {
          "internalType": "uint256",
          "name": "storageFee",
          "type": "uint256"
        },
        {
          "internalType": "uint256",
          "name": "ioFee",
          "type": "uint256"
        },
        {
          "internalType": "uint256",
          "name": "minStorageMegaBytes",
          "type": "uint256"
        },
        {
          "internalType": "uint256",
          "name": "minIoMegaBytes",
          "type": "uint256"
        }
      ],
      "stateMutability": "view",
      "type": "function"
    },
    {
      "inputs": [
        {
          "internalType": "address",
          "name": "",
          "type": "address"
        },
        {
          "internalType": "address",
          "name": "",
          "type": "address"
        }
      ],
      "name": "workerData",
      "outputs": [
        {
          "internalType": "uint256",
          "name": "amount",
          "type": "uint256"
        },
        {
          "internalType": "uint256",
          "name": "claimable",
          "type": "uint256"
        }
      ],
      "stateMutability": "view",
      "type": "function"
    },
    {
      "inputs": [
        {
          "internalType": "uint256",
          "name": "",
          "type": "uint256"
        }
      ],
      "name": "workerList",
      "outputs": [
        {
          "internalType": "address",
          "name": "",
          "type": "address"
        }
      ],
      "stateMutability": "view",
      "type": "function"
    }
  ],
  "bytecode": "0x608060405234801561001057600080fd5b50615f2b80620000216000396000f3fe608060405234801561001057600080fd5b50600436106103785760003560e01c806369dc9ff3116101d3578063a4edb25e11610104578063c22c4f43116100a2578063cd51da391161007c578063cd51da39146108e9578063d1e7db9a1461096d578063f2fde38b146109a6578063fc0c546a146109b957600080fd5b8063c22c4f431461084f578063c3f909d414610876578063c7e5fea1146108d657600080fd5b8063b1418b96116100de578063b1418b961461080d578063b4d4473314610816578063b72d49a814610829578063b7b7eed91461083c57600080fd5b8063a4edb25e146107de578063aa4bfddb146107f1578063ada604a31461080457600080fd5b8063812d4f871161017157806394fec9981161014b57806394fec9981461079257806398873109146107a55780639ec9271b146107b8578063a362b1fc146107cb57600080fd5b8063812d4f871461074957806387f3a2771461075c5780638da5cb5b1461078157600080fd5b8063715018a6116101ad578063715018a6146106ad5780637679c153146106b55780637f15b3dc146106ef57806380e263ac1461073657600080fd5b806369dc9ff31461064e5780636dd83bd8146106775780636e46f8cd1461069a57600080fd5b806341eff89a116102ad5780634e9770891161024b5780635bb680bf116102255780635bb680bf14610602578063655af2f31461061557806365edac3d14610628578063697d2cee1461063b57600080fd5b80634e9770891461055a5780635404bbaf1461056357806357687332146105ef57600080fd5b8063483a055811610287578063483a0558146105035780634b0b284d146105165780634d432c1d146105295780634e71d92d1461055257600080fd5b806341eff89a146104b25780634377ed44146104c55780634584a419146104d857600080fd5b8063213da8c81161031a57806334e8bc8f116102f457806334e8bc8f1461046e578063381737b81461048157806339c126361461048a5780633b042d5b1461049f57600080fd5b8063213da8c814610440578063319c7eb11461045357806334c379621461046657600080fd5b806311b53b5f1161035657806311b53b5f146103ce578063155119e1146103f0578063180aedf3146104075780631969b3e11461042d57600080fd5b806303e7344b1461037d5780630f80f561146103925780630fa0f00d146103bb575b600080fd5b61039061038b366004614c97565b6109cc565b005b6103a56103a0366004614d05565b610ade565b6040516103b29190614d78565b60405180910390f35b6103906103c9366004614dc4565b610b8d565b6103e16103dc366004614d05565b610c5c565b6040516103b293929190614e11565b6103f960ac5481565b6040519081526020016103b2565b61041a610415366004614e3c565b610d0b565b6040516103b29796959493929190614e55565b6103a561043b366004614f89565b610de5565b61039061044e366004614fbd565b610e8a565b610390610461366004615028565b610f22565b610390611053565b61039061047c366004615054565b61118c565b6103f960ab5481565b610492611222565b6040516103b2919061510c565b6103906104ad36600461511f565b6112d8565b6103906104c0366004615191565b611531565b6103f96104d33660046151d2565b6115d0565b6099546104eb906001600160a01b031681565b6040516001600160a01b0390911681526020016103b2565b610390610511366004615228565b6117a8565b6103906105243660046152d4565b611861565b6104eb610537366004614e3c565b60ae602052600090815260409020546001600160a01b031681565b610390611a8e565b6103f960ad5481565b6105c261057136600461530e565b60aa6020908152600092835260409092208151808301840180519281529084019290930191909120915280546001820154600283015460038401546004850154600590950154939492939192909186565b604080519687526020870195909552938501929092526060840152608083015260a082015260c0016103b2565b6103906105fd36600461536d565b611b58565b61039061061036600461536d565b611f4e565b610390610623366004614d05565b612200565b610390610636366004614fbd565b61228f565b6103906106493660046153a1565b61232a565b6104eb61065c366004614d05565b60a6602052600090815260409020546001600160a01b031681565b61068a6106853660046153d4565b612448565b60405190151581526020016103b2565b6103906106a8366004615191565b61248d565b6103906125af565b6103f96106c3366004615028565b600082815260a8602090815260408083206001600160a01b038516845260090190915290205492915050565b6107216106fd366004615426565b60a46020908152600092835260408084209091529082529020805460019091015482565b604080519283526020830191909152016103b2565b610390610744366004615450565b6125e5565b61039061075736600461511f565b612811565b61068a61076a366004614e3c565b600090815260a86020526040902060050154421190565b6033546001600160a01b03166104eb565b6103906107a03660046154c9565b6129d4565b6103906107b3366004615503565b612c6d565b6103906107c6366004615622565b612dfc565b6103906107d9366004615687565b613257565b6098546104eb906001600160a01b031681565b6104eb6107ff3660046156a9565b61351e565b6103f9609f5481565b6103f960a05481565b6103f96108243660046156e1565b613556565b61068a610837366004615756565b6136a2565b6103f961084a3660046151d2565b61382e565b61086261085d366004614e3c565b613843565b6040516103b2989796959493929190615796565b604080516060808201835260af5463ffffffff8116808452640100000000820461ffff166020808601829052600160301b90930462ffffff1694860185905260b054865192835292820194909452938401929092528201526080016103b2565b6103906108e43660046157ef565b61391e565b6109526108f7366004615028565b604080518082018252600080825260209182018190528251808401845294815260a882528281206001600160a01b03949094168082526009909401808352928120600181015486529390529081526002909101549082015290565b604080518251815260209283015192810192909252016103b2565b6103f961097b366004615426565b6001600160a01b03918216600090815260a46020908152604080832093909416825291909152205490565b6103906109b4366004614d05565b613cae565b6097546104eb906001600160a01b031681565b6001600160a01b038116600090815260aa60205260409081902090518391906109f89087908790615829565b908152602001604051809103902060050154610a14919061584f565b861015610a515760405162461bcd60e51b81526020600482015260066024820152656d696e20696f60d01b60448201526064015b60405180910390fd5b6001600160a01b038116600090815260aa6020526040908190209051839190610a7d9087908790615829565b908152602001604051809103902060040154610a99919061584f565b851015610ad65760405162461bcd60e51b815260206004820152600b60248201526a6d696e2073746f7261676560a81b6044820152606401610a48565b505050505050565b6001600160a01b038116600090815260a360205260409020600101805460609190610b089061586e565b80601f0160208091040260200160405190810160405280929190818152602001828054610b349061586e565b8015610b815780601f10610b5657610100808354040283529160200191610b81565b820191906000526020600020905b815481529060010190602001808311610b6457829003601f168201915b50505050509050919050565b6033546001600160a01b03163314610bb75760405162461bcd60e51b8152600401610a48906158a3565b604080516060808201835263ffffffff871680835261ffff8716602080850182905262ffffff871694860185905260af805465ffffffffffff1916841764010000000084021768ffffff0000000000001916600160301b870217905560b088905585519283528201529283018590528201527f8a8fca58ff702c815d540a34188b15180d1b8b31ffc4cfc6792ce2bdb07a73c89060800160405180910390a150505050565b60a3602052600090815260409020805460018201805460ff9092169291610c829061586e565b80601f0160208091040260200160405190810160405280929190818152602001828054610cae9061586e565b8015610cfb5780601f10610cd057610100808354040283529160200191610cfb565b820191906000526020600020905b815481529060010190602001808311610cde57829003601f168201915b5050505050908060020154905083565b60a760205260009081526040902080546001820154600383015460048401546005850180546001600160a01b0395861696949095169460ff909316939192610d529061586e565b80601f0160208091040260200160405190810160405280929190818152602001828054610d7e9061586e565b8015610dcb5780601f10610da057610100808354040283529160200191610dcb565b820191906000526020600020905b815481529060010190602001808311610dae57829003601f168201915b50505050600683015460079093015491929160ff16905087565b805160208183018101805160a98252928201919093012091528054610e099061586e565b80601f0160208091040260200160405190810160405280929190818152602001828054610e359061586e565b8015610e825780601f10610e5757610100808354040283529160200191610e82565b820191906000526020600020905b815481529060010190602001808311610e6557829003601f168201915b505050505081565b6033546001600160a01b03163314610eb45760405162461bcd60e51b8152600401610a48906158a3565b80610ef05760405162461bcd60e51b815260206004820152600c60248201526b0d2dcecc2d8d2c840d0c2e6d60a31b6044820152606401610a48565b60a98484604051610f02929190615829565b90815260200160405180910390206000610f1c9190614a99565b50505050565b60026065541415610f455760405162461bcd60e51b8152600401610a48906158d8565b600260655533600081815260a4602090815260408083206001600160a01b0386168452909152902054831115610fa95760405162461bcd60e51b815260206004820152600960248201526837bb32b9323930bbb760b91b6044820152606401610a48565b6001600160a01b03808216600090815260a46020908152604080832093861683529290529081208054859290610fe090849061590f565b9091555050609754610ffc906001600160a01b03168285613d49565b816001600160a01b0316816001600160a01b03167f8f5fa856284b74bcd941cff9a8e370a8e8c3e90d88177b1e50b995c18daa89a08560405161104191815260200190565b60405180910390a35050600160655550565b33600081815260a36020526040902060010180546110709061586e565b151590506110c55760ab8054829160ae916000918261108e83615926565b91905055815260200190815260200160002060006101000a8154816001600160a01b0302191690836001600160a01b031602179055505b6001600160a01b038116600081815260a360208181526040808420805460ff191681558151808301909252600a82526919195c1c9958d85d195960b21b82840190815295909452919052516111209260019092019190614ad3565b50806001600160a01b03167f043c9d755555dfa71dc825d9814a98681111303b64ed0fb1eafba02fb59c0bb860006040516111819115158152604060208201819052600a908201526919195c1c9958d85d195960b21b606082015260800190565b60405180910390a250565b6111c88282808060200260200160405190810160405280939291908181526020018383602002808284376000920191909152506117a892505050565b33600090815260a5602052604090206111e2908383614b57565b507f6e94ce61d473975136debe626430b94499dbef9e05757faf703de48c00da755a33838360405161121693929190615941565b60405180910390a15050565b6060600060ab546001600160401b0381111561124057611240614eab565b604051908082528060200260200182016040528015611269578160200160208202803683370190505b50905060005b60ab548110156112d257600081815260ae602052604090205482516001600160a01b03909116908390839081106112a8576112a861599b565b6001600160a01b0390921660209283029190910190910152806112ca81615926565b91505061126f565b50919050565b604051339060a9906112ed908b908b90615829565b908152602001604051809103902080546113069061586e565b1515905061134b5760405162461bcd60e51b81526020600482015260126024820152711a5b5859d9481b9bdd08185c1c1c9bdd995960721b6044820152606401610a48565b60008711801561135b5750600086115b80156113675750600085115b80156113735750600084115b801561137f5750600082115b6113b95760405162461bcd60e51b815260206004820152600b60248201526a696e76616c69642066656560a81b6044820152606401610a48565b6001600160a01b038116600090815260aa60205260409081902090518891906113e5908c908c90615829565b9081526040805160209281900383018120939093556001600160a01b038416600090815260aa9092529020879161141f908c908c90615829565b9081526040805160209281900383018120600101939093556001600160a01b038416600090815260aa9092529020869161145c908c908c90615829565b9081526040805160209281900383018120600201939093556001600160a01b038416600090815260aa90925290208591611499908c908c90615829565b9081526040805160209281900383018120600301939093556001600160a01b038416600090815260aa909252902084916114d6908c908c90615829565b9081526040805160209281900383018120600401939093556001600160a01b038416600090815260aa90925290208391611513908c908c90615829565b90815260405190819003602001902060050155505050505050505050565b33600081815260aa60205260409081902090516115519085908590615829565b90815260405190819003602001812060008082556001820181905560028201819055600382018190556004820181905560059091018190556001600160a01b038316917fbedd4cca1acec8ab178c7b2dade9c35421b8246dcba1d0fcda45fde6befcce36916115c391879187916159da565b60405180910390a2505050565b60006115f783604051806040016040528060038152602001623537b160e91b815250613db1565b156116b057600084815260a7602052604090206006810154600590910180546116a99291906116259061586e565b80601f01602080910402602001604051908101604052809291908181526020018280546116519061586e565b801561169e5780601f106116735761010080835404028352916020019161169e565b820191906000526020600020905b81548152906001019060200180831161168157829003601f168201915b505050505084613e0a565b90506117a1565b6116d983604051806040016040528060078152602001667365727669636560c81b815250613db1565b156117a157600084815260a86020526040902060030180546116a991906116ff9061586e565b80601f016020809104026020016040519081016040528092919081815260200182805461172b9061586e565b80156117785780601f1061174d57610100808354040283529160200191611778565b820191906000526020600020905b81548152906001019060200180831161175b57829003601f168201915b505050600088815260a86020526040902060078101546008909101549092509050856001613556565b9392505050565b60008151116117c95760405162461bcd60e51b8152600401610a4890615a00565b60005b815181101561185d5760a360008383815181106117eb576117eb61599b565b6020908102919091018101516001600160a01b031682528101919091526040016000205460ff1661184b5760405162461bcd60e51b815260206004820152600a6024820152696e6f742061637469766560b01b6044820152606401610a48565b8061185581615926565b9150506117cc565b5050565b8035600090815260a86020908152604080832060018101546001600160a01b0316845260a590925290912080546118aa5760405162461bcd60e51b8152600401610a4890615a00565b60006119118280548060200260200160405190810160405280929190818152602001828054801561190457602002820191906000526020600020905b81546001600160a01b031681526001909101906020018083116118e6575b5050505050336001613eb8565b6000818152600b8501602052604090205490915060ff16156119455760405162461bcd60e51b8152600401610a4890615a24565b60006119e98460030180546119599061586e565b80601f01602080910402602001604051908101604052809291908181526020018280546119859061586e565b80156119d25780601f106119a7576101008083540402835291602001916119d2565b820191906000526020600020905b8154815290600101906020018083116119b557829003601f168201915b505050505086606001358760800135336001613556565b8454909150611a02906001600160a01b03168233613f59565b6000828152600b850160209081526040909120805460ff19166001179055845433916001600160a01b0391909116907f08080b5cb6adfa01b122b5cfa5b566c300c37a7bc400b994d7004b0a5a1e54a690611a5f90890189615a47565b611a6c60408b018b615a47565b604051611a7f94939291908d3590615a8d565b60405180910390a35050505050565b60026065541415611ab15760405162461bcd60e51b8152600401610a48906158d8565b6002606581905533600090815260a360205260409020015480611b045760405162461bcd60e51b815260206004820152600b60248201526a1c995c481c1bdcc818985b60aa1b6044820152606401610a48565b609754611b1b906001600160a01b03163383613d49565b60405181815233907f36afaa6dcdce8cb3e535639868ecced2aed60a5176e0ac58a7ebdb14f473723a9060200160405180910390a2506001606555565b611b613361408c565b600060a581611b736020850185614d05565b6001600160a01b0316815260208101919091526040016000208054909150611bad5760405162461bcd60e51b8152600401610a4890615a00565b611c0f81805480602002602001604051908101604052809291908181526020018280548015611c0557602002820191906000526020600020905b81546001600160a01b03168152600190910190602001808311611be7575b50505050506117a8565b60ad54611c1d906001615ac7565b60ad819055600090815260a760205260409020611c406080840160608501615adf565b60038201805460ff1916911515919091179055611c6360c0840160a08501615adf565b60078201805491151560ff1990921691909117905580546001600160a01b03191633178155611c956020840184614d05565b6001820180546001600160a01b0319166001600160a01b0392909216919091179055611cc46020840184615a47565b611cd2916005840191614baa565b506080830135600682015560005b8254811015611ecb57611d21838281548110611cfe57611cfe61599b565b600091825260209182902001546001600160a01b03169061068590870187615a47565b611d5c5760405162461bcd60e51b815260206004820152600c60248201526b1b9bdd08185c1c1c9bdd995960a21b6044820152606401610a48565b60ad54600090815260a760205260409020600681015460059091018054611e32929190611d889061586e565b80601f0160208091040260200160405190810160405280929190818152602001828054611db49061586e565b8015611e015780601f10611dd657610100808354040283529160200191611e01565b820191906000526020600020905b815481529060010190602001808311611de457829003601f168201915b5050505050858481548110611e1857611e1861599b565b6000918252602090912001546001600160a01b0316613e0a565b33600090815260a4602052604081208554909190869085908110611e5857611e5861599b565b60009182526020808320909101546001600160a01b031683528201929092526040019020541015611eb95760405162461bcd60e51b815260206004820152600b60248201526a18985b081b9bdd081b595d60aa1b6044820152606401610a48565b80611ec381615926565b915050611ce0565b50611ed96020840184614d05565b6001600160a01b0316337f228c7d6bef7a7b954880b35fb265490adf0cc68447cc1ef6ec9901af9227b7e5611f116020870187615a47565b60ad54611f2160408a018a615a47565b611f2e60c08c018c615afc565b604051611f419796959493929190615bd2565b60405180910390a3505050565b611f573361408c565b600060a581611f696020850185614d05565b6001600160a01b0316815260208101919091526040016000208054909150611fa35760405162461bcd60e51b8152600401610a4890615a00565b61200381805480602002602001604051908101604052809291908181526020018280548015611c05576020028201919060005260206000209081546001600160a01b03168152600190910190602001808311611be75750505050506117a8565b60005b81548110156120df576120478282815481106120245761202461599b565b600091825260209182902001546001600160a01b03169061068590860186615a47565b6120825760405162461bcd60e51b815260206004820152600c60248201526b1b9bdd08185c1c1c9bdd995960a21b6044820152606401610a48565b6120cd6040840135606085013561209c6020870187615a47565b8760c001358787815481106120b3576120b361599b565b6000918252602090912001546001600160a01b03166109cc565b806120d781615926565b915050612006565b5060ad546120ee906001615ac7565b60ad819055600090815260a86020908152604090912080546001600160a01b031916331781559061212190840184614d05565b6001820180546001600160a01b0319166001600160a01b03929092169190911790556121506020840184615a47565b61215e916003840191614baa565b50604083013560078201556060830135600882015560c0830135600682015561218a6020840184614d05565b6001600160a01b0316337fa587bb75652cfa00b3e562c48ea5cb9eebd03a726e8924ed998c2c271a077daa6121c26020870187615a47565b60ad5460408901359060608a0135906121de60808c018c615a47565b6121eb60a08e018e615afc565b604051611f4199989796959493929190615c14565b33600090815260a660205260409020546001600160a01b03828116911614156122605760405162461bcd60e51b8152602060048201526012602482015271185b1c9958591e48185d5d1a1bdc9a5e995960721b6044820152606401610a48565b33600090815260a66020526040902080546001600160a01b0319166001600160a01b0392909216919091179055565b6033546001600160a01b031633146122b95760405162461bcd60e51b8152600401610a48906158a3565b806122f55760405162461bcd60e51b815260206004820152600c60248201526b0d2dcecc2d8d2c840d0c2e6d60a31b6044820152606401610a48565b818160a98686604051612309929190615829565b908152604051908190036020019020612323929091614baa565b5050505050565b6002606554141561234d5760405162461bcd60e51b8152600401610a48906158d8565b60026065556001600160a01b038116600090815260a3602052604090205460ff166123a55760405162461bcd60e51b8152602060048201526008602482015267696e61637469766560c01b6044820152606401610a48565b6097546123bd906001600160a01b0316333086614135565b6001600160a01b03808316600090815260a460209081526040808320938516835292905290812080548592906123f4908490615ac7565b90915550506040518381526001600160a01b03808316919084169033907f4927c39c4343e75cf73886e779e6337ae13fa99676e50b0e3ac51f05b331b12b9060200160405180910390a45050600160655550565b6001600160a01b038316600090815260aa602052604080822090518291906124739086908690615829565b908152604051908190036020019020541190509392505050565b806124cd5760405162461bcd60e51b815260206004820152601060248201526f1a5b9d985b1a5908195b991c1bda5b9d60821b6044820152606401610a48565b33600081815260a36020526040902060010180546124ea9061586e565b1515905061253f5760ab8054829160ae916000918261250883615926565b91905055815260200190815260200160002060006101000a8154816001600160a01b0302191690836001600160a01b031602179055505b6001600160a01b038116600090815260a360205260409020805460ff19166001908117825561257091018484614baa565b50806001600160a01b03167f043c9d755555dfa71dc825d9814a98681111303b64ed0fb1eafba02fb59c0bb8600185856040516115c393929190615c72565b6033546001600160a01b031633146125d95760405162461bcd60e51b8152600401610a48906158a3565b6125e3600061416d565b565b600085815260a76020908152604080832060018101546001600160a01b0316845260a5909252909120805461262c5760405162461bcd60e51b8152600401610a4890615a00565b600061269182805480602002602001604051908101604052809291908181526020018280548015611904576020028201919060005260206000209081546001600160a01b031681526001909101906020018083116118e6575050505050336001613eb8565b600081815260088501602052604090205490915060ff16156126c55760405162461bcd60e51b8152600401610a4890615a24565b600061275f60008560050180546126db9061586e565b80601f01602080910402602001604051908101604052809291908181526020018280546127079061586e565b80156127545780601f1061272957610100808354040283529160200191612754565b820191906000526020600020905b81548152906001019060200180831161273757829003601f168201915b505050505033613e0a565b8454909150612778906001600160a01b03168233613f59565b600184600801600084815260200190815260200160002060006101000a81548160ff0219169083151502179055508360000160009054906101000a90046001600160a01b03166001600160a01b03167f105b6b960a49135276e4f3fb47aeb4a7e24a9d69492e943e1f9f33bfacf7ab93898989898e6040516127fe959493929190615a8d565b60405180910390a2505050505050505050565b33600090815260aa60205260408082209051889190612833908c908c90615829565b908152604051908190036020019020541461284c575060015b33600090815260aa602052604090819020905187919061286f908c908c90615829565b9081526020016040518091039020600101541461288a575060015b33600090815260aa60205260409081902090518691906128ad908c908c90615829565b908152602001604051809103902060020154146128c8575060015b33600090815260aa60205260409081902090518591906128eb908c908c90615829565b90815260200160405180910390206003015414612906575060015b33600090815260aa6020526040908190209051849190612929908c908c90615829565b90815260200160405180910390206004015414612944575060015b33600090815260aa6020526040908190209051839190612967908c908c90615829565b90815260200160405180910390206005015414612982575060015b806129b95760405162461bcd60e51b81526020600482015260076024820152663737903234b33360c91b6044820152606401610a48565b6129c989898989898989896112d8565b505050505050505050565b8035600090815260a860205260409020600481015460ff161515600114612a2b5760405162461bcd60e51b815260206004820152600b60248201526a1b9bdd081cdd185c9d195960aa1b6044820152606401610a48565b42816005015410612a6f5760405162461bcd60e51b815260206004820152600e60248201526d74696d652072656d61696e696e6760901b6044820152606401610a48565b60018101546001600160a01b0316600090815260a5602052604090208054612aa95760405162461bcd60e51b8152600401610a4890615a00565b6000612b0e82805480602002602001604051908101604052809291908181526020018280548015611904576020028201919060005260206000209081546001600160a01b031681526001909101906020018083116118e6575050505050336001613eb8565b6000818152600b8501602052604090205490915060ff1615612b425760405162461bcd60e51b8152600401610a4890615a24565b6000612be6846003018054612b569061586e565b80601f0160208091040260200160405190810160405280929190818152602001828054612b829061586e565b8015612bcf5780601f10612ba457610100808354040283529160200191612bcf565b820191906000526020600020905b815481529060010190602001808311612bb257829003601f168201915b505050505086604001358760600135336001613556565b8454909150612bff906001600160a01b03168233613f59565b6000828152600b850160209081526040909120805460ff19166001179055845433916001600160a01b0391909116907f6385968b203009a7e208aae57b42e8dd54771566baed9ca45eb7f5ed8a6bdd5590612c5c90890189615a47565b604051611a7f9291908b3590615c97565b600054610100900460ff16612c885760005460ff1615612c8c565b303b155b612ca85760405162461bcd60e51b8152600401610a4890615cbb565b600054610100900460ff16158015612cca576000805461ffff19166101011790555b612cd26141bf565b612cda6141ee565b8151609780546001600160a01b03199081166001600160a01b03938416179091556020840151609880548316918416919091179055604084015160998054831691841691909117905560e0840151609a80548316918416919091179055610100840151609b80548316918416919091179055610120840151609c80548316918416919091179055610140840151609d80548316918416919091179055610160840151609e80548316918416919091179055610180840151609f556101a084015160a09081556101c085015160a1805484169185169190911790556101e085015160a280549093169316929092179055606083015160c0840151918401516080850151612de7939190610b8d565b801561185d576000805461ff00191690555050565b612e053361408c565b600086815260a860209081526040918290208251601f880183900483028101830190935286835291612edd918890889081908401838280828437600092019190915250505050600383018054612e5a9061586e565b80601f0160208091040260200160405190810160405280929190818152602001828054612e869061586e565b8015612ed35780601f10612ea857610100808354040283529160200191612ed3565b820191906000526020600020905b815481529060010190602001808311612eb657829003601f168201915b5050505050613db1565b612f155760405162461bcd60e51b81526020600482015260096024820152680dad2e6e6dac2e8c6d60bb1b6044820152606401610a48565b42816005015411612f595760405162461bcd60e51b815260206004820152600e60248201526d74696d652072656d61696e696e6760901b6044820152606401610a48565b33600090815260a5602052604090208054612f865760405162461bcd60e51b8152600401610a4890615a00565b60005b81548110156129c95760008615612fa1576001612fa4565b60005b905060006130148a8a8080601f0160208091040260200160405190810160405280939291908181526020018383808284376000920191909152505087548b92508a9150889088908110612ff957612ff961599b565b6000918252602090912001546001600160a01b031686613556565b9050811561306457613026888261584f565b905061304287878c8c8c8989815481106120b3576120b361599b565b61304f8862278d0061584f565b856005015461305e9190615ac7565b60058601555b613095813386868154811061307b5761307b61599b565b6000918252602090912001546001600160a01b031661232a565b868560090160008686815481106130ae576130ae61599b565b60009182526020808320909101546001600160a01b03168352820192909252604001812060010180549091906130e5908490615ac7565b92505081905550858560090160008686815481106131055761310561599b565b60009182526020808320909101546001600160a01b031683528201929092526040018120600201805490919061313c908490615ac7565b925050819055508383815481106131555761315561599b565b600091825260208220015485546001600160a01b039091169133917fba6d754d8da31125ad925803210bd9413a02fb7258a99460a419cf5f897c611f918f9160098b0191908a908a9081106131ac576131ac61599b565b60009182526020808320909101546001600160a01b031683528201929092526040018120600101548954909160098c01918b908b9081106131ef576131ef61599b565b6000918252602080832091909101546001600160a01b0316835282810193909352604091820190206002015460058d0154825195865292850193909352830191909152606082015260800160405180910390a35050808061324f90615926565b915050612f89565b806122b814156132935760405162461bcd60e51b815260206004820152600760248201526606f7665726c61760cc1b6044820152606401610a48565b600082815260a86020908152604080832060018101546001600160a01b0316845260a590925290912080546132da5760405162461bcd60e51b8152600401610a4890615a00565b61333d81805480602002602001604051908101604052809291908181526020018280548015611904576020028201919060005260206000209081546001600160a01b031681526001909101906020018083116118e6575050505050336001613eb8565b50600482015460ff161561337d5760405162461bcd60e51b81526020600482015260076024820152661cdd185c9d195960ca1b6044820152606401610a48565b60048201805460ff19166001179055600682015461339e9062278d0061584f565b6133a89042615ac7565b6005830155815433600090815260098401602052604081208581556007850154600190910180546001600160a01b0390941693919290916133ea908490615ac7565b9091555050600883015433600090815260098501602052604081206002018054909190613418908490615ac7565b9250508190555060006134c38460030180546134339061586e565b80601f016020809104026020016040519081016040528092919081815260200182805461345f9061586e565b80156134ac5780601f10613481576101008083540402835291602001916134ac565b820191906000526020600020905b81548152906001019060200180831161348f57829003601f168201915b505050505085600701548660080154336001613556565b90506134d0828233613f59565b604080518781526020810187905233916001600160a01b038516917ffc591b915128e7b045fd4663d358185ce9356694fac67286041506e0a8963d62910160405180910390a3505050505050565b60a5602052816000526040600020818154811061353a57600080fd5b6000918252602090912001546001600160a01b03169150829050565b600080613561614267565b6001600160a01b038516600090815260aa60205260408082209051929350909161358c908a90615d09565b9081526040805160209281900383018120600101546001600160a01b038916600090815260aa9094529183209193506135c6908b90615d09565b9081526040805160209281900383018120600201546001600160a01b038a16600090815260aa909452918320919350613600908c90615d09565b908152602001604051809103902060030154905085613620576000613641565b8361362c84601861584f565b61363790601e61584f565b613641919061584f565b92508361364e898461584f565b613658919061584f565b9150836136658a8361584f565b61366f919061584f565b60a054909150816136808486615ac7565b61368a9190615ac7565b6136949190615d25565b9a9950505050505050505050565b6000811561376d57600084815260a76020908152604080832060018101546001600160a01b0316845260a58352818420805483518186028101860190945280845291949093909261373892909185919083018282801561372b57602002820191906000526020600020905b81546001600160a01b0316815260019091019060200180831161370d575b5050505050876000613eb8565b905080600019141561375057600093505050506117a1565b6000908152600890920160205250604090205460ff1690506117a1565b600084815260a86020908152604080832060018101546001600160a01b0316845260a5835281842080548351818602810186019094528084529194909390926137f992909185919083018282801561372b576020028201919060005260206000209081546001600160a01b0316815260019091019060200180831161370d575050505050876000613eb8565b905080600019141561381157600093505050506117a1565b6000908152600b90920160205250604090205460ff1690506117a1565b600061383b848484613e0a565b949350505050565b60a8602052600090815260409020805460018201546003830180546001600160a01b039384169492909316926138789061586e565b80601f01602080910402602001604051908101604052809291908181526020018280546138a49061586e565b80156138f15780601f106138c6576101008083540402835291602001916138f1565b820191906000526020600020905b8154815290600101906020018083116138d457829003601f168201915b5050506004840154600585015460068601546007870154600890970154959660ff90931695919450925088565b8035600090815260a76020908152604080832060018101546001600160a01b0316845260a590925290912080546139675760405162461bcd60e51b8152600401610a4890615a00565b8160080160006139d083805480602002602001604051908101604052809291908181526020018280548015611904576020028201919060005260206000209081546001600160a01b031681526001909101906020018083116118e6575050505050336001613eb8565b815260208101919091526040016000205460ff1615613a015760405162461bcd60e51b8152600401610a4890615a24565b6000613aaf8435613a156020870187615a47565b604051602001613a26929190615829565b60408051601f19818403018152828252805160209182012060018901546001600160a01b0316600090815260a583528390208054808402860184019094528385529093929091830182828015613aa557602002820191906000526020600020905b81546001600160a01b03168152600190910190602001808311613a87575b50505050506143fa565b600784015490915060ff1615613afb5780613afb5760405162461bcd60e51b815260206004820152600c60248201526b1a5b98dbdb9cda5cdd195b9d60a21b6044820152606401610a48565b600383015460009060ff1615613b8e575a60068501548554919250613b7f916001600160a01b0316613b306020890189615a47565b613b3d60408b018b615a47565b604051602401613b509493929190615d47565b60408051601f198184030181529190526020810180516001600160e01b0316632a16e72560e01b179052614557565b505a613b8b908261590f565b90505b6000613ba3828660050180546126db9061586e565b8554909150613bbc906001600160a01b03168233613f59565b845433906001600160a01b03167fe05a85698af7732aa0ea230656f9c46d18f559c07665f0411ca43a2455a045aa613bf760208a018a615a47565b613c0460408c018c615a47565b604051613c19949392919089908f3590615d6e565b60405180910390a3600485015433600090815260a5602052604090205414613c4357505050505050565b84546001600160a01b03167f3c23ec8d254003e5d452fa03fdc2ff6e5531a15e79e0fe710e0dd4abdc90e6c6613c7c6020890189615a47565b613c8960408b018b615a47565b604051613c9e94939291908a908e3590615dab565b60405180910390a2505050505050565b6033546001600160a01b03163314613cd85760405162461bcd60e51b8152600401610a48906158a3565b6001600160a01b038116613d3d5760405162461bcd60e51b815260206004820152602660248201527f4f776e61626c653a206e6577206f776e657220697320746865207a65726f206160448201526564647265737360d01b6064820152608401610a48565b613d468161416d565b50565b6040516001600160a01b038316602482015260448101829052613dac90849063a9059cbb60e01b906064015b60408051601f198184030181529190526020810180516001600160e01b03166001600160e01b0319909316929092179091526145a3565b505050565b600081604051602001613dc49190615d09565b6040516020818303038152906040528051906020012083604051602001613deb9190615d09565b6040516020818303038152906040528051906020012014905092915050565b600080613e178484614675565b90506000613e236146cd565b90506000613e2f614794565b9050613e3e6201388088615ac7565b96506000613e4c888461584f565b60af549091506000908390613e6b9063ffffffff16633b9aca00615ac7565b613e7984633b9aca0061584f565b613e83919061584f565b613e8d9190615d25565b9050613e9f655af3107a400082615d25565b9050613eab8582615ac7565b9998505050505050505050565b6000600019815b8551811015613f1557846001600160a01b0316868281518110613ee457613ee461599b565b60200260200101516001600160a01b03161415613f0357809150613f15565b80613f0d81615926565b915050613ebf565b50821561383b57600019811361383b5760405162461bcd60e51b81526020600482015260096024820152681b9bdd08199bdd5b9960ba1b6044820152606401610a48565b6001600160a01b03808416600090815260a46020908152604080832093851683529290522054821115613fc05760405162461bcd60e51b815260206004820152600f60248201526e696e737566696369656e742067617360881b6044820152606401610a48565b6001600160a01b03808416600090815260a46020908152604080832093851683529290529081208054849290613ff790849061590f565b90915550506001600160a01b038116600090815260a3602052604081206002018054849290614027908490615ac7565b925050819055508160ac60008282546140409190615ac7565b92505081905550806001600160a01b0316836001600160a01b03167f902115c14fc468bd781ce5843eb17b399342718b23213bab5c57215da96f379584604051611f4191815260200190565b6001600160a01b03808216600090815260a660205260409020541680156140f0576001600160a01b038116331461185d5760405162461bcd60e51b81526020600482015260086024820152670dcdee840c2eae8d60c31b6044820152606401610a48565b6001600160a01b038216331461185d5760405162461bcd60e51b815260206004820152600a6024820152693737ba1039b2b73232b960b11b6044820152606401610a48565b6040516001600160a01b0380851660248301528316604482015260648101829052610f1c9085906323b872dd60e01b90608401613d75565b603380546001600160a01b038381166001600160a01b0319831681179093556040519116919082907f8be0079c531659141344cd1fd0a4f28419497f9722a3daafe3b4186f6b6457e090600090a35050565b600054610100900460ff166141e65760405162461bcd60e51b8152600401610a4890615de8565b6125e36148df565b600054610100900460ff166142095760005460ff161561420d565b303b155b6142295760405162461bcd60e51b8152600401610a4890615cbb565b600054610100900460ff1615801561424b576000805461ffff19166101011790555b61425361490f565b8015613d46576000805461ff001916905550565b60408051600580825260c082019092526000918291906020820160a080368337505060a15482519293506001600160a01b0316918391506000906142ad576142ad61599b565b6001600160a01b03928316602091820292909201015260a2548251911690829060019081106142de576142de61599b565b6001600160a01b039283166020918202929092010152609c5482519116908290600290811061430f5761430f61599b565b6001600160a01b039283166020918202929092010152609b548251911690829060039081106143405761434061599b565b6001600160a01b039283166020918202929092010152609a548251911690829060049081106143715761437161599b565b6001600160a01b039283166020918202929092010152609854604051637f9c0ecd60e01b8152911690637f9c0ecd906143b3908490620f424090600401615e33565b602060405180830381865afa1580156143d0573d6000803e3d6000fd5b505050506040513d601f19601f820116820180604052508101906143f49190615e55565b91505090565b600083815260a7602052604081203360001983805b865181101561449a57600081815260088601602052604090205460ff161561444d576000818152600986016020526040902054881461444d57600191505b836001600160a01b03168782815181106144695761446961599b565b60200260200101516001600160a01b031614156144885780925061449a565b8061449281615926565b91505061440f565b5060001982136144d85760405162461bcd60e51b81526020600482015260096024820152681b9bdd08199bdd5b9960ba1b6044820152606401610a48565b600082815260088501602052604090205460ff16156145095760405162461bcd60e51b8152600401610a4890615a24565b60008281526008850160205260408120805460ff191660011790556004850180549161453483615926565b909155505060009182526009909301602052604090208590555090509392505050565b60005a61138881101561456957600080fd5b61138881039050846040820482031161458157600080fd5b50823b61458d57600080fd5b60008083516020850160008789f1949350505050565b60006145f8826040518060400160405280602081526020017f5361666545524332303a206c6f772d6c6576656c2063616c6c206661696c6564815250856001600160a01b03166149859092919063ffffffff16565b805190915015613dac57808060200190518101906146169190615e6e565b613dac5760405162461bcd60e51b815260206004820152602a60248201527f5361666545524332303a204552433230206f7065726174696f6e20646964206e6044820152691bdd081cdd58d8d9595960b21b6064820152608401610a48565b60a0546001600160a01b038216600090815260aa602052604080822090519192916146a1908690615d09565b908152604051908190036020019020546146bb9190615d25565b6146c3614267565b6117a1919061584f565b60af5460995460408051633fabe5a360e21b81529051600093600160301b900462ffffff169283151592859283926001600160a01b03169163feaf968c9160048083019260a09291908290030181865afa15801561472f573d6000803e3d6000fd5b505050506040513d601f19601f820116820180604052508101906147539190615ea5565b509450909250849150508015614777575061476e824261590f565b8463ffffffff16105b80614783575060008113155b1561383b5760b05494505050505090565b60408051600580825260c082019092526000918291906020820160a0803683375050609a5482519293506001600160a01b0316918391506000906147da576147da61599b565b6001600160a01b039283166020918202929092010152609b5482519116908290600190811061480b5761480b61599b565b6001600160a01b039283166020918202929092010152609c5482519116908290600290811061483c5761483c61599b565b6001600160a01b039283166020918202929092010152609d5482519116908290600390811061486d5761486d61599b565b6001600160a01b039283166020918202929092010152609e5482519116908290600490811061489e5761489e61599b565b6001600160a01b039283166020918202929092010152609854604051637f9c0ecd60e01b8152911690637f9c0ecd906143b390849061271090600401615e33565b600054610100900460ff166149065760405162461bcd60e51b8152600401610a4890615de8565b6125e33361416d565b600054610100900460ff1661492a5760005460ff161561492e565b303b155b61494a5760405162461bcd60e51b8152600401610a4890615cbb565b600054610100900460ff1615801561496c576000805461ffff19166101011790555b60016065558015613d46576000805461ff001916905550565b606061383b8484600085856001600160a01b0385163b6149e75760405162461bcd60e51b815260206004820152601d60248201527f416464726573733a2063616c6c20746f206e6f6e2d636f6e74726163740000006044820152606401610a48565b600080866001600160a01b03168587604051614a039190615d09565b60006040518083038185875af1925050503d8060008114614a40576040519150601f19603f3d011682016040523d82523d6000602084013e614a45565b606091505b5091509150614a55828286614a60565b979650505050505050565b60608315614a6f5750816117a1565b825115614a7f5782518084602001fd5b8160405162461bcd60e51b8152600401610a489190614d78565b508054614aa59061586e565b6000825580601f10614ab5575050565b601f016020900490600052602060002090810190613d469190614c1e565b828054614adf9061586e565b90600052602060002090601f016020900481019282614b015760008555614b47565b82601f10614b1a57805160ff1916838001178555614b47565b82800160010185558215614b47579182015b82811115614b47578251825591602001919060010190614b2c565b50614b53929150614c1e565b5090565b828054828255906000526020600020908101928215614b47579160200282015b82811115614b475781546001600160a01b0319166001600160a01b03843516178255602090920191600190910190614b77565b828054614bb69061586e565b90600052602060002090601f016020900481019282614bd85760008555614b47565b82601f10614bf15782800160ff19823516178555614b47565b82800160010185558215614b47579182015b82811115614b47578235825591602001919060010190614c03565b5b80821115614b535760008155600101614c1f565b60008083601f840112614c4557600080fd5b5081356001600160401b03811115614c5c57600080fd5b602083019150836020828501011115614c7457600080fd5b9250929050565b80356001600160a01b0381168114614c9257600080fd5b919050565b60008060008060008060a08789031215614cb057600080fd5b863595506020870135945060408701356001600160401b03811115614cd457600080fd5b614ce089828a01614c33565b90955093505060608701359150614cf960808801614c7b565b90509295509295509295565b600060208284031215614d1757600080fd5b6117a182614c7b565b60005b83811015614d3b578181015183820152602001614d23565b83811115610f1c5750506000910152565b60008151808452614d64816020860160208601614d20565b601f01601f19169290920160200192915050565b6020815260006117a16020830184614d4c565b803563ffffffff81168114614c9257600080fd5b803561ffff81168114614c9257600080fd5b803562ffffff81168114614c9257600080fd5b60008060008060808587031215614dda57600080fd5b614de385614d8b565b9350614df160208601614d9f565b925060408501359150614e0660608601614db1565b905092959194509250565b8315158152606060208201526000614e2c6060830185614d4c565b9050826040830152949350505050565b600060208284031215614e4e57600080fd5b5035919050565b6001600160a01b0388811682528716602082015285151560408201526060810185905260e060808201819052600090614e9090830186614d4c565b60a08301949094525090151560c09091015295945050505050565b634e487b7160e01b600052604160045260246000fd5b60405161020081016001600160401b0381118282101715614ee457614ee4614eab565b60405290565b604051601f8201601f191681016001600160401b0381118282101715614f1257614f12614eab565b604052919050565b600082601f830112614f2b57600080fd5b81356001600160401b03811115614f4457614f44614eab565b614f57601f8201601f1916602001614eea565b818152846020838601011115614f6c57600080fd5b816020850160208301376000918101602001919091529392505050565b600060208284031215614f9b57600080fd5b81356001600160401b03811115614fb157600080fd5b61383b84828501614f1a565b60008060008060408587031215614fd357600080fd5b84356001600160401b0380821115614fea57600080fd5b614ff688838901614c33565b9096509450602087013591508082111561500f57600080fd5b5061501c87828801614c33565b95989497509550505050565b6000806040838503121561503b57600080fd5b8235915061504b60208401614c7b565b90509250929050565b6000806020838503121561506757600080fd5b82356001600160401b038082111561507e57600080fd5b818501915085601f83011261509257600080fd5b8135818111156150a157600080fd5b8660208260051b85010111156150b657600080fd5b60209290920196919550909350505050565b600081518084526020808501945080840160005b838110156151015781516001600160a01b0316875295820195908201906001016150dc565b509495945050505050565b6020815260006117a160208301846150c8565b60008060008060008060008060e0898b03121561513b57600080fd5b88356001600160401b0381111561515157600080fd5b61515d8b828c01614c33565b909c909b5060208b01359a60408101359a50606081013599506080810135985060a0810135975060c0013595509350505050565b600080602083850312156151a457600080fd5b82356001600160401b038111156151ba57600080fd5b6151c685828601614c33565b90969095509350505050565b6000806000606084860312156151e757600080fd5b8335925060208401356001600160401b0381111561520457600080fd5b61521086828701614f1a565b92505061521f60408501614c7b565b90509250925092565b6000602080838503121561523b57600080fd5b82356001600160401b038082111561525257600080fd5b818501915085601f83011261526657600080fd5b81358181111561527857615278614eab565b8060051b9150615289848301614eea565b81815291830184019184810190888411156152a357600080fd5b938501935b838510156152c8576152b985614c7b565b825293850193908501906152a8565b98975050505050505050565b6000602082840312156152e657600080fd5b81356001600160401b038111156152fc57600080fd5b820160a081850312156117a157600080fd5b6000806040838503121561532157600080fd5b61532a83614c7b565b915060208301356001600160401b0381111561534557600080fd5b61535185828601614f1a565b9150509250929050565b600060e082840312156112d257600080fd5b60006020828403121561537f57600080fd5b81356001600160401b0381111561539557600080fd5b61383b8482850161535b565b6000806000606084860312156153b657600080fd5b833592506153c660208501614c7b565b915061521f60408501614c7b565b6000806000604084860312156153e957600080fd5b6153f284614c7b565b925060208401356001600160401b0381111561540d57600080fd5b61541986828701614c33565b9497909650939450505050565b6000806040838503121561543957600080fd5b61544283614c7b565b915061504b60208401614c7b565b60008060008060006060868803121561546857600080fd5b8535945060208601356001600160401b038082111561548657600080fd5b61549289838a01614c33565b909650945060408801359150808211156154ab57600080fd5b506154b888828901614c33565b969995985093965092949392505050565b6000602082840312156154db57600080fd5b81356001600160401b038111156154f157600080fd5b8201608081850312156117a157600080fd5b6000610200828403121561551657600080fd5b61551e614ec1565b61552783614c7b565b815261553560208401614c7b565b602082015261554660408401614c7b565b604082015261555760608401614d8b565b606082015261556860808401614db1565b608082015260a083013560a082015261558360c08401614d9f565b60c082015261559460e08401614c7b565b60e08201526101006155a7818501614c7b565b908201526101206155b9848201614c7b565b908201526101406155cb848201614c7b565b908201526101606155dd848201614c7b565b9082015261018083810135908201526101a080840135908201526101c0615605818501614c7b565b908201526101e0615617848201614c7b565b908201529392505050565b60008060008060008060a0878903121561563b57600080fd5b8635955060208701356001600160401b0381111561565857600080fd5b61566489828a01614c33565b979a90995096976040810135976060820135975060809091013595509350505050565b6000806040838503121561569a57600080fd5b50508035926020909101359150565b600080604083850312156156bc57600080fd5b6156c583614c7b565b946020939093013593505050565b8015158114613d4657600080fd5b600080600080600060a086880312156156f957600080fd5b85356001600160401b0381111561570f57600080fd5b61571b88828901614f1a565b955050602086013593506040860135925061573860608701614c7b565b91506080860135615748816156d3565b809150509295509295909350565b60008060006060848603121561576b57600080fd5b8335925061577b60208501614c7b565b9150604084013561578b816156d3565b809150509250925092565b6001600160a01b03898116825288166020820152610100604082018190526000906157c38382018a614d4c565b97151560608401525050608081019490945260a084019290925260c083015260e0909101529392505050565b60006020828403121561580157600080fd5b81356001600160401b0381111561581757600080fd5b8201606081850312156117a157600080fd5b8183823760009101908152919050565b634e487b7160e01b600052601160045260246000fd5b600081600019048311821515161561586957615869615839565b500290565b600181811c9082168061588257607f821691505b602082108114156112d257634e487b7160e01b600052602260045260246000fd5b6020808252818101527f4f776e61626c653a2063616c6c6572206973206e6f7420746865206f776e6572604082015260600190565b6020808252601f908201527f5265656e7472616e637947756172643a207265656e7472616e742063616c6c00604082015260600190565b60008282101561592157615921615839565b500390565b600060001982141561593a5761593a615839565b5060010190565b6001600160a01b03848116825260406020808401829052908301849052600091859160608501845b8781101561598e578361597b86614c7b565b1682529382019390820190600101615969565b5098975050505050505050565b634e487b7160e01b600052603260045260246000fd5b81835281816020850137506000828201602090810191909152601f909101601f19169091010190565b6040815260006159ee6040830185876159b1565b90508215156020830152949350505050565b6020808252600a90820152696e6f20776f726b65727360b01b604082015260600190565b60208082526009908201526818dbdb5c1b195d195960ba1b604082015260600190565b6000808335601e19843603018112615a5e57600080fd5b8301803591506001600160401b03821115615a7857600080fd5b602001915036819003821315614c7457600080fd5b606081526000615aa16060830187896159b1565b8281036020840152615ab48186886159b1565b9150508260408301529695505050505050565b60008219821115615ada57615ada615839565b500190565b600060208284031215615af157600080fd5b81356117a1816156d3565b6000808335601e19843603018112615b1357600080fd5b8301803591506001600160401b03821115615b2d57600080fd5b6020019150600581901b3603821315614c7457600080fd5b818352600060208085019450848460051b86018460005b87811015615bc55783830389528135601e19883603018112615b7d57600080fd5b870180356001600160401b03811115615b9557600080fd5b803603891315615ba457600080fd5b615bb185828985016159b1565b9a87019a9450505090840190600101615b5c565b5090979650505050505050565b608081526000615be660808301898b6159b1565b8760208401528281036040840152615bff8187896159b1565b90508281036060840152613694818587615b45565b60c081526000615c2860c083018b8d6159b1565b8960208401528860408401528760608401528281036080840152615c4d8187896159b1565b905082810360a0840152615c62818587615b45565b9c9b505050505050505050505050565b8315158152604060208201526000615c8e6040830184866159b1565b95945050505050565b604081526000615cab6040830185876159b1565b9050826020830152949350505050565b6020808252602e908201527f496e697469616c697a61626c653a20636f6e747261637420697320616c72656160408201526d191e481a5b9a5d1a585b1a5e995960921b606082015260800190565b60008251615d1b818460208701614d20565b9190910192915050565b600082615d4257634e487b7160e01b600052601260045260246000fd5b500490565b604081526000615d5b6040830186886159b1565b8281036020840152614a558185876159b1565b608081526000615d8260808301888a6159b1565b8281036020840152615d958187896159b1565b6040840195909552505060600152949350505050565b608081526000615dbf60808301888a6159b1565b8281036020840152615dd28187896159b1565b9415156040840152505060600152949350505050565b6020808252602b908201527f496e697469616c697a61626c653a20636f6e7472616374206973206e6f74206960408201526a6e697469616c697a696e6760a81b606082015260800190565b604081526000615e4660408301856150c8565b90508260208301529392505050565b600060208284031215615e6757600080fd5b5051919050565b600060208284031215615e8057600080fd5b81516117a1816156d3565b805169ffffffffffffffffffff81168114614c9257600080fd5b600080600080600060a08688031215615ebd57600080fd5b615ec686615e8b565b9450602086015193506040860151925060608601519150615ee960808701615e8b565b9050929550929590935056fea26469706673582212206cdc6996e05238ad07fcbdbec9bc85c5e76726f00faae993d57f559cf06d4e4464736f6c634300080b0033",
  "linkReferences": {},
  "deployedLinkReferences": {}
}