{
  "_format": "hh-sol-artifact-1",
  "contractName": "Nexus",
  "sourceName": "contracts/Nexus.sol",
  "abi": [
    {
      "anonymous": false,
      "inputs": [
        {
          "indexed": true,
          "internalType": "address",
          "name": "buyer",
          "type": "address"
        },
        {
          "indexed": true,
          "internalType": "address",
          "name": "consumer",
          "type": "address"
        },
        {
          "indexed": true,
          "internalType": "address",
          "name": "dsp",
          "type": "address"
        },
        {
          "indexed": false,
          "internalType": "uint256",
          "name": "amount",
          "type": "uint256"
        }
      ],
      "name": "BoughtGas",
      "type": "event"
    },
    {
      "anonymous": false,
      "inputs": [
        {
          "indexed": true,
          "internalType": "address",
          "name": "dsp",
          "type": "address"
        },
        {
          "indexed": false,
          "internalType": "uint256",
          "name": "amount",
          "type": "uint256"
        }
      ],
      "name": "ClaimedGas",
      "type": "event"
    },
    {
      "anonymous": false,
      "inputs": [
        {
          "indexed": false,
          "internalType": "uint32",
          "name": "paymentPremiumPPB",
          "type": "uint32"
        },
        {
          "indexed": false,
          "internalType": "uint16",
          "name": "gasCeilingMultiplier",
          "type": "uint16"
        },
        {
          "indexed": false,
          "internalType": "uint256",
          "name": "fallbackGasPrice",
          "type": "uint256"
        },
        {
          "indexed": false,
          "internalType": "uint24",
          "name": "stalenessSeconds",
          "type": "uint24"
        }
      ],
      "name": "ConfigSet",
      "type": "event"
    },
    {
      "anonymous": false,
      "inputs": [
        {
          "indexed": true,
          "internalType": "address",
          "name": "dsp",
          "type": "address"
        },
        {
          "indexed": false,
          "internalType": "bool",
          "name": "active",
          "type": "bool"
        },
        {
          "indexed": false,
          "internalType": "string",
          "name": "endpoint",
          "type": "string"
        }
      ],
      "name": "DSPStatusChanged",
      "type": "event"
    },
    {
      "anonymous": false,
      "inputs": [
        {
          "indexed": true,
          "internalType": "address",
          "name": "dsp",
          "type": "address"
        },
        {
          "indexed": false,
          "internalType": "string",
          "name": "image",
          "type": "string"
        },
        {
          "indexed": false,
          "internalType": "bool",
          "name": "approved",
          "type": "bool"
        }
      ],
      "name": "DockerApprovalChanged",
      "type": "event"
    },
    {
      "anonymous": false,
      "inputs": [
        {
          "indexed": true,
          "internalType": "address",
          "name": "consumer",
          "type": "address"
        },
        {
          "indexed": false,
          "internalType": "string",
          "name": "outputFS",
          "type": "string"
        },
        {
          "indexed": false,
          "internalType": "string",
          "name": "outputHash",
          "type": "string"
        },
        {
          "indexed": false,
          "internalType": "bool",
          "name": "inconsistent",
          "type": "bool"
        },
        {
          "indexed": false,
          "internalType": "uint256",
          "name": "id",
          "type": "uint256"
        }
      ],
      "name": "JobDone",
      "type": "event"
    },
    {
      "anonymous": false,
      "inputs": [
        {
          "indexed": true,
          "internalType": "address",
          "name": "consumer",
          "type": "address"
        },
        {
          "indexed": false,
          "internalType": "string",
          "name": "stdErr",
          "type": "string"
        },
        {
          "indexed": false,
          "internalType": "string",
          "name": "outputFS",
          "type": "string"
        },
        {
          "indexed": false,
          "internalType": "uint256",
          "name": "id",
          "type": "uint256"
        }
      ],
      "name": "JobError",
      "type": "event"
    },
    {
      "anonymous": false,
      "inputs": [
        {
          "indexed": true,
          "internalType": "address",
          "name": "consumer",
          "type": "address"
        },
        {
          "indexed": true,
          "internalType": "address",
          "name": "dsp",
          "type": "address"
        },
        {
          "indexed": false,
          "internalType": "string",
          "name": "outputFS",
          "type": "string"
        },
        {
          "indexed": false,
          "internalType": "string",
          "name": "outputHash",
          "type": "string"
        },
        {
          "indexed": false,
          "internalType": "uint256",
          "name": "dapps",
          "type": "uint256"
        },
        {
          "indexed": false,
          "internalType": "uint256",
          "name": "id",
          "type": "uint256"
        }
      ],
      "name": "JobResult",
      "type": "event"
    },
    {
      "anonymous": false,
      "inputs": [
        {
          "indexed": true,
          "internalType": "address",
          "name": "consumer",
          "type": "address"
        },
        {
          "indexed": false,
          "internalType": "uint256",
          "name": "id",
          "type": "uint256"
        }
      ],
      "name": "Kill",
      "type": "event"
    },
    {
      "anonymous": false,
      "inputs": [
        {
          "indexed": true,
          "internalType": "address",
          "name": "previousOwner",
          "type": "address"
        },
        {
          "indexed": true,
          "internalType": "address",
          "name": "newOwner",
          "type": "address"
        }
      ],
      "name": "OwnershipTransferred",
      "type": "event"
    },
    {
      "anonymous": false,
      "inputs": [
        {
          "indexed": true,
          "internalType": "address",
          "name": "consumer",
          "type": "address"
        },
        {
          "indexed": true,
          "internalType": "address",
          "name": "owner",
          "type": "address"
        },
        {
          "indexed": false,
          "internalType": "string",
          "name": "imageName",
          "type": "string"
        },
        {
          "indexed": false,
          "internalType": "uint256",
          "name": "id",
          "type": "uint256"
        },
        {
          "indexed": false,
          "internalType": "string",
          "name": "inputFS",
          "type": "string"
        },
        {
          "indexed": false,
          "internalType": "string[]",
          "name": "args",
          "type": "string[]"
        }
      ],
      "name": "QueueJob",
      "type": "event"
    },
    {
      "anonymous": false,
      "inputs": [
        {
          "indexed": true,
          "internalType": "address",
          "name": "consumer",
          "type": "address"
        },
        {
          "indexed": true,
          "internalType": "address",
          "name": "owner",
          "type": "address"
        },
        {
          "indexed": false,
          "internalType": "string",
          "name": "imageName",
          "type": "string"
        },
        {
          "indexed": false,
          "internalType": "uint256",
          "name": "ioMegaBytes",
          "type": "uint256"
        },
        {
          "indexed": false,
          "internalType": "uint256",
          "name": "storageMegaBytes",
          "type": "uint256"
        },
        {
          "indexed": false,
          "internalType": "uint256",
          "name": "id",
          "type": "uint256"
        },
        {
          "indexed": false,
          "internalType": "string",
          "name": "inputFS",
          "type": "string"
        },
        {
          "indexed": false,
          "internalType": "string[]",
          "name": "args",
          "type": "string[]"
        }
      ],
      "name": "QueueService",
      "type": "event"
    },
    {
      "anonymous": false,
      "inputs": [
        {
          "indexed": true,
          "internalType": "address",
          "name": "consumer",
          "type": "address"
        },
        {
          "indexed": true,
          "internalType": "address",
          "name": "dsp",
          "type": "address"
        },
        {
          "indexed": false,
          "internalType": "string",
          "name": "outputFS",
          "type": "string"
        },
        {
          "indexed": false,
          "internalType": "uint256",
          "name": "id",
          "type": "uint256"
        }
      ],
      "name": "ServiceComplete",
      "type": "event"
    },
    {
      "anonymous": false,
      "inputs": [
        {
          "indexed": true,
          "internalType": "address",
          "name": "consumer",
          "type": "address"
        },
        {
          "indexed": true,
          "internalType": "address",
          "name": "dsp",
          "type": "address"
        },
        {
          "indexed": false,
          "internalType": "string",
          "name": "stdErr",
          "type": "string"
        },
        {
          "indexed": false,
          "internalType": "string",
          "name": "outputFS",
          "type": "string"
        },
        {
          "indexed": false,
          "internalType": "uint256",
          "name": "id",
          "type": "uint256"
        }
      ],
      "name": "ServiceError",
      "type": "event"
    },
    {
      "anonymous": false,
      "inputs": [
        {
          "indexed": true,
          "internalType": "address",
          "name": "consumer",
          "type": "address"
        },
        {
          "indexed": true,
          "internalType": "address",
          "name": "dsp",
          "type": "address"
        },
        {
          "indexed": false,
          "internalType": "uint256",
          "name": "id",
          "type": "uint256"
        },
        {
          "indexed": false,
          "internalType": "uint256",
          "name": "ioMegaBytes",
          "type": "uint256"
        },
        {
          "indexed": false,
          "internalType": "uint256",
          "name": "storageMegaBytes",
          "type": "uint256"
        },
        {
          "indexed": false,
          "internalType": "uint256",
          "name": "endDate",
          "type": "uint256"
        }
      ],
      "name": "ServiceExtended",
      "type": "event"
    },
    {
      "anonymous": false,
      "inputs": [
        {
          "indexed": true,
          "internalType": "address",
          "name": "consumer",
          "type": "address"
        },
        {
          "indexed": true,
          "internalType": "address",
          "name": "dsp",
          "type": "address"
        },
        {
          "indexed": false,
          "internalType": "uint256",
          "name": "id",
          "type": "uint256"
        },
        {
          "indexed": false,
          "internalType": "uint256",
          "name": "port",
          "type": "uint256"
        }
      ],
      "name": "ServiceRunning",
      "type": "event"
    },
    {
      "anonymous": false,
      "inputs": [
        {
          "indexed": true,
          "internalType": "address",
          "name": "consumer",
          "type": "address"
        },
        {
          "indexed": true,
          "internalType": "address",
          "name": "dsp",
          "type": "address"
        },
        {
          "indexed": false,
          "internalType": "uint256",
          "name": "amount",
          "type": "uint256"
        }
      ],
      "name": "SoldGas",
      "type": "event"
    },
    {
      "anonymous": false,
      "inputs": [
        {
          "indexed": false,
          "internalType": "address",
          "name": "consumer",
          "type": "address"
        },
        {
          "indexed": false,
          "internalType": "address[]",
          "name": "dsps",
          "type": "address[]"
        }
      ],
      "name": "UpdateDsps",
      "type": "event"
    },
    {
      "anonymous": false,
      "inputs": [
        {
          "indexed": true,
          "internalType": "address",
          "name": "consumer",
          "type": "address"
        },
        {
          "indexed": true,
          "internalType": "address",
          "name": "dsp",
          "type": "address"
        },
        {
          "indexed": false,
          "internalType": "uint256",
          "name": "amount",
          "type": "uint256"
        }
      ],
      "name": "UsedGas",
      "type": "event"
    },
    {
      "inputs": [],
      "name": "FAST_GAS_FEED",
      "outputs": [
        {
          "internalType": "contract AggregatorV3Interface",
          "name": "",
          "type": "address"
        }
      ],
      "stateMutability": "view",
      "type": "function"
    },
    {
      "inputs": [
        {
          "internalType": "string",
          "name": "imageName",
          "type": "string"
        },
        {
          "internalType": "string",
          "name": "imageHash",
          "type": "string"
        }
      ],
      "name": "approveImage",
      "outputs": [],
      "stateMutability": "nonpayable",
      "type": "function"
    },
    {
      "inputs": [
        {
          "internalType": "string",
          "name": "",
          "type": "string"
        }
      ],
      "name": "approvedImages",
      "outputs": [
        {
          "internalType": "string",
          "name": "",
          "type": "string"
        }
      ],
      "stateMutability": "view",
      "type": "function"
    },
    {
      "inputs": [],
      "name": "bancorNetwork",
      "outputs": [
        {
          "internalType": "contract IBancorNetwork",
          "name": "",
          "type": "address"
        }
      ],
      "stateMutability": "view",
      "type": "function"
    },
    {
      "inputs": [
        {
          "internalType": "uint256",
          "name": "_amount",
          "type": "uint256"
        },
        {
          "internalType": "address",
          "name": "_consumer",
          "type": "address"
        },
        {
          "internalType": "address",
          "name": "_dsp",
          "type": "address"
        }
      ],
      "name": "buyGasFor",
      "outputs": [],
      "stateMutability": "nonpayable",
      "type": "function"
    },
    {
      "inputs": [],
      "name": "claim",
      "outputs": [],
      "stateMutability": "nonpayable",
      "type": "function"
    },
    {
      "inputs": [
        {
          "internalType": "address",
          "name": "",
          "type": "address"
        }
      ],
      "name": "contracts",
      "outputs": [
        {
          "internalType": "address",
          "name": "",
          "type": "address"
        }
      ],
      "stateMutability": "view",
      "type": "function"
    },
    {
      "inputs": [],
      "name": "deprecateDSP",
      "outputs": [],
      "stateMutability": "nonpayable",
      "type": "function"
    },
    {
      "inputs": [
        {
          "internalType": "address",
          "name": "",
          "type": "address"
        },
        {
          "internalType": "string",
          "name": "",
          "type": "string"
        }
      ],
      "name": "dspApprovedImages",
      "outputs": [
        {
          "internalType": "uint256",
          "name": "jobFee",
          "type": "uint256"
        },
        {
          "internalType": "uint256",
          "name": "baseFee",
          "type": "uint256"
        },
        {
          "internalType": "uint256",
          "name": "storageFee",
          "type": "uint256"
        },
        {
          "internalType": "uint256",
          "name": "ioFee",
          "type": "uint256"
        },
        {
          "internalType": "uint256",
          "name": "minStorageMegaBytes",
          "type": "uint256"
        },
        {
          "internalType": "uint256",
          "name": "minIoMegaBytes",
          "type": "uint256"
        }
      ],
      "stateMutability": "view",
      "type": "function"
    },
    {
      "inputs": [
        {
          "internalType": "address",
          "name": "",
          "type": "address"
        },
        {
          "internalType": "address",
          "name": "",
          "type": "address"
        }
      ],
      "name": "dspData",
      "outputs": [
        {
          "internalType": "uint256",
          "name": "amount",
          "type": "uint256"
        },
        {
          "internalType": "uint256",
          "name": "claimable",
          "type": "uint256"
        }
      ],
      "stateMutability": "view",
      "type": "function"
    },
    {
      "inputs": [
        {
          "internalType": "uint256",
          "name": "serviceId",
          "type": "uint256"
        },
        {
          "internalType": "string",
          "name": "imageName",
          "type": "string"
        },
        {
          "internalType": "uint256",
          "name": "months",
          "type": "uint256"
        },
        {
          "internalType": "uint256",
          "name": "ioMb",
          "type": "uint256"
        },
        {
          "internalType": "uint256",
          "name": "storageMb",
          "type": "uint256"
        }
      ],
      "name": "extendService",
      "outputs": [],
      "stateMutability": "nonpayable",
      "type": "function"
    },
    {
      "inputs": [],
      "name": "gasPerTimeUnit",
      "outputs": [
        {
          "internalType": "uint256",
          "name": "",
          "type": "uint256"
        }
      ],
      "stateMutability": "view",
      "type": "function"
    },
    {
      "inputs": [],
      "name": "getConfig",
      "outputs": [
        {
          "internalType": "uint32",
          "name": "paymentPremiumPPB",
          "type": "uint32"
        },
        {
          "internalType": "uint24",
          "name": "stalenessSeconds",
          "type": "uint24"
        },
        {
          "internalType": "uint16",
          "name": "gasCeilingMultiplier",
          "type": "uint16"
        },
        {
          "internalType": "uint256",
          "name": "fallbackGasPrice",
          "type": "uint256"
        }
      ],
      "stateMutability": "view",
      "type": "function"
    },
    {
      "inputs": [
        {
          "internalType": "uint256",
          "name": "id",
          "type": "uint256"
        },
        {
          "internalType": "address",
          "name": "dsp",
          "type": "address"
        }
      ],
      "name": "getDSPDataLimits",
      "outputs": [
        {
          "components": [
            {
              "internalType": "uint256",
              "name": "ioMegaBytesLimit",
              "type": "uint256"
            },
            {
              "internalType": "uint256",
              "name": "storageMegaBytesLimit",
              "type": "uint256"
            }
          ],
          "internalType": "struct Nexus.DspLimits",
          "name": "",
          "type": "tuple"
        }
      ],
      "stateMutability": "view",
      "type": "function"
    },
    {
      "inputs": [
        {
          "internalType": "address",
          "name": "dsp",
          "type": "address"
        }
      ],
      "name": "getDSPEndpoint",
      "outputs": [
        {
          "internalType": "string",
          "name": "",
          "type": "string"
        }
      ],
      "stateMutability": "view",
      "type": "function"
    },
    {
      "inputs": [],
      "name": "getDspAddresses",
      "outputs": [
        {
          "internalType": "address[]",
          "name": "",
          "type": "address[]"
        }
      ],
      "stateMutability": "view",
      "type": "function"
    },
    {
      "inputs": [
        {
          "internalType": "uint256",
          "name": "gasLimit",
          "type": "uint256"
        },
        {
          "internalType": "string",
          "name": "imageName",
          "type": "string"
        },
        {
          "internalType": "address",
          "name": "dsp",
          "type": "address"
        }
      ],
      "name": "getMaxPaymentForGas",
      "outputs": [
        {
          "internalType": "uint256",
          "name": "maxPayment",
          "type": "uint256"
        }
      ],
      "stateMutability": "view",
      "type": "function"
    },
    {
      "inputs": [
        {
          "internalType": "uint256",
          "name": "id",
          "type": "uint256"
        },
        {
          "internalType": "string",
          "name": "jobType",
          "type": "string"
        },
        {
          "internalType": "address",
          "name": "dsp",
          "type": "address"
        }
      ],
      "name": "getMinBalance",
      "outputs": [
        {
          "internalType": "uint256",
          "name": "",
          "type": "uint256"
        }
      ],
      "stateMutability": "view",
      "type": "function"
    },
    {
      "inputs": [
        {
          "internalType": "uint256",
          "name": "jobID",
          "type": "uint256"
        },
        {
          "internalType": "address",
          "name": "dsp",
          "type": "address"
        }
      ],
      "name": "getPortForDSP",
      "outputs": [
        {
          "internalType": "uint256",
          "name": "",
          "type": "uint256"
        }
      ],
      "stateMutability": "view",
      "type": "function"
    },
    {
      "inputs": [
        {
          "components": [
            {
              "internalType": "address",
              "name": "_tokenContract",
              "type": "address"
            },
            {
              "internalType": "address",
              "name": "_bancorNetwork",
              "type": "address"
            },
            {
              "internalType": "address",
              "name": "_fastGasFeed",
              "type": "address"
            },
            {
              "internalType": "uint32",
              "name": "_paymentPremiumPPB",
              "type": "uint32"
            },
            {
              "internalType": "uint24",
              "name": "_stalenessSeconds",
              "type": "uint24"
            },
            {
              "internalType": "uint256",
              "name": "_fallbackGasPrice",
              "type": "uint256"
            },
            {
              "internalType": "uint16",
              "name": "_gasCeilingMultiplier",
              "type": "uint16"
            },
            {
              "internalType": "address",
              "name": "_dappToken",
              "type": "address"
            },
            {
              "internalType": "address",
              "name": "_dappBntToken",
              "type": "address"
            },
            {
              "internalType": "address",
              "name": "_bntToken",
              "type": "address"
            },
            {
              "internalType": "address",
              "name": "_ethBntToken",
              "type": "address"
            },
            {
              "internalType": "address",
              "name": "_ethToken",
              "type": "address"
            },
            {
              "internalType": "uint256",
              "name": "_gasPerTimeUnit",
              "type": "uint256"
            },
            {
              "internalType": "uint256",
              "name": "_usdtPrecision",
              "type": "uint256"
            },
            {
              "internalType": "address",
              "name": "_usdtToken",
              "type": "address"
            },
            {
              "internalType": "address",
              "name": "_usdtBntToken",
              "type": "address"
            }
          ],
          "internalType": "struct Nexus.initArgs",
          "name": "args",
          "type": "tuple"
        }
      ],
      "name": "initialize",
      "outputs": [],
      "stateMutability": "nonpayable",
      "type": "function"
    },
    {
      "inputs": [
        {
          "internalType": "address",
          "name": "dsp",
          "type": "address"
        },
        {
          "internalType": "string",
          "name": "imageName",
          "type": "string"
        }
      ],
      "name": "isImageApprovedForDSP",
      "outputs": [
        {
          "internalType": "bool",
          "name": "",
          "type": "bool"
        }
      ],
      "stateMutability": "view",
      "type": "function"
    },
    {
      "inputs": [
        {
          "internalType": "uint256",
          "name": "id",
          "type": "uint256"
        }
      ],
      "name": "isServiceDone",
      "outputs": [
        {
          "internalType": "bool",
          "name": "",
          "type": "bool"
        }
      ],
      "stateMutability": "view",
      "type": "function"
    },
    {
      "inputs": [
        {
          "components": [
            {
              "internalType": "uint256",
              "name": "jobID",
              "type": "uint256"
            },
            {
              "internalType": "string",
              "name": "outputFS",
              "type": "string"
            },
            {
              "internalType": "string",
              "name": "outputHash",
              "type": "string"
            }
          ],
          "internalType": "struct Nexus.jobCallbackArgs",
          "name": "args",
          "type": "tuple"
        }
      ],
      "name": "jobCallback",
      "outputs": [],
      "stateMutability": "nonpayable",
      "type": "function"
    },
    {
      "inputs": [
        {
          "internalType": "uint256",
          "name": "jobID",
          "type": "uint256"
        },
        {
          "internalType": "string",
          "name": "stdErr",
          "type": "string"
        },
        {
          "internalType": "string",
          "name": "outputFS",
          "type": "string"
        }
      ],
      "name": "jobError",
      "outputs": [],
      "stateMutability": "nonpayable",
      "type": "function"
    },
    {
      "inputs": [
        {
          "internalType": "uint256",
          "name": "id",
          "type": "uint256"
        },
        {
          "internalType": "address",
          "name": "dsp",
          "type": "address"
        },
        {
          "internalType": "bool",
          "name": "isJob",
          "type": "bool"
        }
      ],
      "name": "jobServiceCompleted",
      "outputs": [
        {
          "internalType": "bool",
          "name": "",
          "type": "bool"
        }
      ],
      "stateMutability": "view",
      "type": "function"
    },
    {
      "inputs": [
        {
          "internalType": "uint256",
          "name": "",
          "type": "uint256"
        }
      ],
      "name": "jobs",
      "outputs": [
        {
          "internalType": "address",
          "name": "consumer",
          "type": "address"
        },
        {
          "internalType": "address",
          "name": "owner",
          "type": "address"
        },
        {
          "internalType": "bool",
          "name": "callback",
          "type": "bool"
        },
        {
          "internalType": "uint256",
          "name": "resultsCount",
          "type": "uint256"
        },
        {
          "internalType": "string",
          "name": "imageName",
          "type": "string"
        },
        {
          "internalType": "uint256",
          "name": "gasLimit",
          "type": "uint256"
        },
        {
          "internalType": "bool",
          "name": "requireConsistent",
          "type": "bool"
        }
      ],
      "stateMutability": "view",
      "type": "function"
    },
    {
      "inputs": [],
      "name": "lastJobID",
      "outputs": [
        {
          "internalType": "uint256",
          "name": "",
          "type": "uint256"
        }
      ],
      "stateMutability": "view",
      "type": "function"
    },
    {
      "inputs": [],
      "name": "owner",
      "outputs": [
        {
          "internalType": "address",
          "name": "",
          "type": "address"
        }
      ],
      "stateMutability": "view",
      "type": "function"
    },
    {
      "inputs": [
        {
          "internalType": "address",
          "name": "",
          "type": "address"
        },
        {
          "internalType": "uint256",
          "name": "",
          "type": "uint256"
        }
      ],
      "name": "providers",
      "outputs": [
        {
          "internalType": "address",
          "name": "",
          "type": "address"
        }
      ],
      "stateMutability": "view",
      "type": "function"
    },
    {
      "inputs": [
        {
          "components": [
            {
              "internalType": "address",
              "name": "owner",
              "type": "address"
            },
            {
              "internalType": "string",
              "name": "imageName",
              "type": "string"
            },
            {
              "internalType": "string",
              "name": "inputFS",
              "type": "string"
            },
            {
              "internalType": "bool",
              "name": "callback",
              "type": "bool"
            },
            {
              "internalType": "uint256",
              "name": "gasLimit",
              "type": "uint256"
            },
            {
              "internalType": "bool",
              "name": "requireConsistent",
              "type": "bool"
            },
            {
              "internalType": "string[]",
              "name": "args",
              "type": "string[]"
            }
          ],
          "internalType": "struct Nexus.queueJobArgs",
          "name": "args",
          "type": "tuple"
        }
      ],
      "name": "queueJob",
      "outputs": [],
      "stateMutability": "nonpayable",
      "type": "function"
    },
    {
      "inputs": [
        {
          "components": [
            {
              "internalType": "address",
              "name": "owner",
              "type": "address"
            },
            {
              "internalType": "string",
              "name": "imageName",
              "type": "string"
            },
            {
              "internalType": "uint256",
              "name": "ioMegaBytes",
              "type": "uint256"
            },
            {
              "internalType": "uint256",
              "name": "storageMegaBytes",
              "type": "uint256"
            },
            {
              "internalType": "string",
              "name": "inputFS",
              "type": "string"
            },
            {
              "internalType": "string[]",
              "name": "args",
              "type": "string[]"
            },
            {
              "internalType": "uint256",
              "name": "months",
              "type": "uint256"
            }
          ],
          "internalType": "struct Nexus.queueServiceArgs",
          "name": "args",
          "type": "tuple"
        }
      ],
      "name": "queueService",
      "outputs": [],
      "stateMutability": "nonpayable",
      "type": "function"
    },
    {
      "inputs": [
        {
          "internalType": "string",
          "name": "endpoint",
          "type": "string"
        }
      ],
      "name": "regDSP",
      "outputs": [],
      "stateMutability": "nonpayable",
      "type": "function"
    },
    {
      "inputs": [
        {
          "internalType": "address",
          "name": "",
          "type": "address"
        }
      ],
      "name": "registeredDSPs",
      "outputs": [
        {
          "internalType": "bool",
          "name": "active",
          "type": "bool"
        },
        {
          "internalType": "string",
          "name": "endpoint",
          "type": "string"
        },
        {
          "internalType": "uint256",
          "name": "claimableDapp",
          "type": "uint256"
        }
      ],
      "stateMutability": "view",
      "type": "function"
    },
    {
      "inputs": [],
      "name": "renounceOwnership",
      "outputs": [],
      "stateMutability": "nonpayable",
      "type": "function"
    },
    {
      "inputs": [
        {
          "internalType": "uint256",
          "name": "_amountToSell",
          "type": "uint256"
        },
        {
          "internalType": "address",
          "name": "_dsp",
          "type": "address"
        }
      ],
      "name": "sellGas",
      "outputs": [],
      "stateMutability": "nonpayable",
      "type": "function"
    },
    {
      "inputs": [
        {
          "internalType": "uint256",
          "name": "serviceId",
          "type": "uint256"
        },
        {
          "internalType": "uint256",
          "name": "port",
          "type": "uint256"
        }
      ],
      "name": "serviceCallback",
      "outputs": [],
      "stateMutability": "nonpayable",
      "type": "function"
    },
    {
      "inputs": [
        {
          "components": [
            {
              "internalType": "uint256",
              "name": "jobID",
              "type": "uint256"
            },
            {
              "internalType": "string",
              "name": "outputFS",
              "type": "string"
            },
            {
              "internalType": "uint256",
              "name": "ioMegaBytesUsed",
              "type": "uint256"
            },
            {
              "internalType": "uint256",
              "name": "storageMegaBytesUsed",
              "type": "uint256"
            }
          ],
          "internalType": "struct Nexus.serviceCompleteArgs",
          "name": "args",
          "type": "tuple"
        }
      ],
      "name": "serviceComplete",
      "outputs": [],
      "stateMutability": "nonpayable",
      "type": "function"
    },
    {
      "inputs": [
        {
          "components": [
            {
              "internalType": "uint256",
              "name": "jobID",
              "type": "uint256"
            },
            {
              "internalType": "string",
              "name": "stdErr",
              "type": "string"
            },
            {
              "internalType": "string",
              "name": "outputFS",
              "type": "string"
            },
            {
              "internalType": "uint256",
              "name": "ioMegaBytesUsed",
              "type": "uint256"
            },
            {
              "internalType": "uint256",
              "name": "storageMegaBytesUsed",
              "type": "uint256"
            }
          ],
          "internalType": "struct Nexus.serviceErrorArgs",
          "name": "args",
          "type": "tuple"
        }
      ],
      "name": "serviceError",
      "outputs": [],
      "stateMutability": "nonpayable",
      "type": "function"
    },
    {
      "inputs": [
        {
          "internalType": "uint256",
          "name": "",
          "type": "uint256"
        }
      ],
      "name": "services",
      "outputs": [
        {
          "internalType": "address",
          "name": "consumer",
          "type": "address"
        },
        {
          "internalType": "address",
          "name": "owner",
          "type": "address"
        },
        {
          "internalType": "string",
          "name": "imageName",
          "type": "string"
        },
        {
          "internalType": "bool",
          "name": "started",
          "type": "bool"
        },
        {
          "internalType": "uint256",
          "name": "endDate",
          "type": "uint256"
        },
        {
          "internalType": "uint256",
          "name": "months",
          "type": "uint256"
        },
        {
          "internalType": "uint256",
          "name": "ioMegaBytes",
          "type": "uint256"
        },
        {
          "internalType": "uint256",
          "name": "storageMegaBytes",
          "type": "uint256"
        }
      ],
      "stateMutability": "view",
      "type": "function"
    },
    {
      "inputs": [
        {
          "internalType": "uint32",
          "name": "paymentPremiumPPB",
          "type": "uint32"
        },
        {
          "internalType": "uint16",
          "name": "gasCeilingMultiplier",
          "type": "uint16"
        },
        {
          "internalType": "uint256",
          "name": "fallbackGasPrice",
          "type": "uint256"
        },
        {
          "internalType": "uint24",
          "name": "stalenessSeconds",
          "type": "uint24"
        }
      ],
      "name": "setConfig",
      "outputs": [],
      "stateMutability": "nonpayable",
      "type": "function"
    },
    {
      "inputs": [
        {
          "internalType": "address",
          "name": "authorized_contract",
          "type": "address"
        }
      ],
      "name": "setConsumerContract",
      "outputs": [],
      "stateMutability": "nonpayable",
      "type": "function"
    },
    {
      "inputs": [
        {
          "internalType": "string",
          "name": "imageName",
          "type": "string"
        },
        {
          "internalType": "uint256",
          "name": "jobFee",
          "type": "uint256"
        },
        {
          "internalType": "uint256",
          "name": "baseFee",
          "type": "uint256"
        },
        {
          "internalType": "uint256",
          "name": "storageFee",
          "type": "uint256"
        },
        {
          "internalType": "uint256",
          "name": "ioFee",
          "type": "uint256"
        },
        {
          "internalType": "uint256",
          "name": "minStorageMegaBytes",
          "type": "uint256"
        },
        {
          "internalType": "uint256",
          "name": "minIoMegaBytes",
          "type": "uint256"
        }
      ],
      "name": "setDockerImage",
      "outputs": [],
      "stateMutability": "nonpayable",
      "type": "function"
    },
    {
      "inputs": [
        {
          "internalType": "address[]",
          "name": "dsps",
          "type": "address[]"
        }
      ],
      "name": "setDsps",
      "outputs": [],
      "stateMutability": "nonpayable",
      "type": "function"
    },
    {
      "inputs": [],
      "name": "token",
      "outputs": [
        {
          "internalType": "contract IERC20Upgradeable",
          "name": "",
          "type": "address"
        }
      ],
      "stateMutability": "view",
      "type": "function"
    },
    {
      "inputs": [],
      "name": "totalDsps",
      "outputs": [
        {
          "internalType": "uint256",
          "name": "",
          "type": "uint256"
        }
      ],
      "stateMutability": "view",
      "type": "function"
    },
    {
      "inputs": [
        {
          "internalType": "address",
          "name": "newOwner",
          "type": "address"
        }
      ],
      "name": "transferOwnership",
      "outputs": [],
      "stateMutability": "nonpayable",
      "type": "function"
    },
    {
      "inputs": [
        {
          "internalType": "string",
          "name": "imageName",
          "type": "string"
        }
      ],
      "name": "unapproveDockerForDSP",
      "outputs": [],
      "stateMutability": "nonpayable",
      "type": "function"
    },
    {
      "inputs": [
        {
          "internalType": "string",
          "name": "imageName",
          "type": "string"
        },
        {
          "internalType": "uint256",
          "name": "jobFee",
          "type": "uint256"
        },
        {
          "internalType": "uint256",
          "name": "baseFee",
          "type": "uint256"
        },
        {
          "internalType": "uint256",
          "name": "storageFee",
          "type": "uint256"
        },
        {
          "internalType": "uint256",
          "name": "ioFee",
          "type": "uint256"
        },
        {
          "internalType": "uint256",
          "name": "minStorageMegaBytes",
          "type": "uint256"
        },
        {
          "internalType": "uint256",
          "name": "minIoMegaBytes",
          "type": "uint256"
        }
      ],
      "name": "updateDockerImage",
      "outputs": [],
      "stateMutability": "nonpayable",
      "type": "function"
    },
    {
      "inputs": [],
      "name": "usdtPrecision",
      "outputs": [
        {
          "internalType": "uint256",
          "name": "",
          "type": "uint256"
        }
      ],
      "stateMutability": "view",
      "type": "function"
    }
  ],
  "bytecode": "0x608060405234801561001057600080fd5b50615ed880620000216000396000f3fe608060405234801561001057600080fd5b50600436106102bb5760003560e01c8063812d4f8711610182578063a4edb25e116100e9578063be27aee6116100a2578063c7e5fea11161007c578063c7e5fea1146107fe578063f16cfbfe14610811578063f2fde38b14610858578063fc0c546a1461086b57600080fd5b8063be27aee614610755578063c22c4f4314610777578063c3f909d41461079e57600080fd5b8063a4edb25e146106f7578063aa4bfddb1461070a578063ada604a31461071d578063b1418b9614610726578063b72d49a81461072f578063b7b7eed91461074257600080fd5b806396c23b471161013b57806396c23b471461069057806398873109146106a35780639d82f119146106b65780639ec9271b146106be578063a362b1fc146106d1578063a4859f14146106e457600080fd5b8063812d4f87146105d757806387f3a277146105ea5780638da5cb5b1461061f57806394070a661461063057806394fec9981461066a578063967b58ff1461067d57600080fd5b8063576873321161022657806369dc9ff3116101df57806369dc9ff3146104e75780636d969c0914610510578063715018a6146105255780637ca7e2661461052d5780637ee103401461054057806380e263ac146105c457600080fd5b8063576873321461044b5780635bb680bf1461045e5780635f044a4714610471578063655af2f31461048457806365edac3d146104c1578063697d2cee146104d457600080fd5b80633b042d5b116102785780633b042d5b146103d65780634377ed44146103e95780634584a419146103fc5780634b0b284d146104275780634e71d92d1461043a5780634e9770891461044257600080fd5b80630c43cf03146102c05780630fa0f00d146102dc578063180aedf3146102f15780631969b3e114610317578063319c7eb11461033757806333cda0601461034a575b600080fd5b6102c960ab5481565b6040519081526020015b60405180910390f35b6102ef6102ea366004614de5565b61087e565b005b6103046102ff366004614e32565b610956565b6040516102d39796959493929190614ea3565b61032a610325366004614fc4565b610a30565b6040516102d39190614ff8565b6102ef610345366004615022565b610ad5565b6103a961035836600461504e565b60aa6020908152600092835260409092208151808301840180519281529084019290930191909120915280546001820154600283015460038401546004850154600590950154939492939192909186565b604080519687526020870195909552938501929092526060840152608083015260a082015260c0016102d3565b6102ef6103e43660046150e3565b610c06565b6102c96103f7366004615155565b610f27565b60995461040f906001600160a01b031681565b6040516001600160a01b0390911681526020016102d3565b6102ef6104353660046151ab565b6110ff565b6102ef61132c565b6102c960ac5481565b6102ef6104593660046151f7565b6113f6565b6102ef61046c3660046151f7565b6117cd565b61032a61047f36600461522b565b611a60565b6102ef61049236600461522b565b33600090815260a66020526040902080546001600160a01b0319166001600160a01b0392909216919091179055565b6102ef6104cf366004615246565b611b0f565b6102ef6104e23660046152b1565b611c13565b61040f6104f536600461522b565b60a6602052600090815260409020546001600160a01b031681565b610518611d31565b6040516102d39190615328565b6102ef611de7565b6102ef61053b36600461533b565b611e1d565b6105a961054e366004615022565b604080518082018252600080825260209182018190528251808401845294815260a882528281206001600160a01b03949094168082526009909401808352928120600181015486529390529081526002909101549082015290565b604080518251815260209283015192810192909252016102d3565b6102ef6105d23660046153af565b611eb3565b6102ef6105e53660046150e3565b6120df565b61060f6105f8366004614e32565b600090815260a86020526040902060050154421190565b60405190151581526020016102d3565b6033546001600160a01b031661040f565b6102c961063e366004615022565b600082815260a8602090815260408083206001600160a01b038516845260090190915290205492915050565b6102ef610678366004615428565b6124f1565b61060f61068b366004615462565b61278a565b6102ef61069e3660046154b4565b6127cf565b6102ef6106b13660046154f5565b61286e565b6102ef6129f8565b6102ef6106cc366004615614565b612b31565b6102ef6106df366004615679565b612f97565b6102ef6106f23660046154b4565b61325e565b60985461040f906001600160a01b031681565b61040f61071836600461569b565b613380565b6102c9609f5481565b6102c960a05481565b61060f61073d3660046156d3565b6133b8565b6102c9610750366004615155565b613544565b61076861076336600461522b565b613559565b6040516102d393929190615713565b61078a610785366004614e32565b613608565b6040516102d398979695949392919061573e565b604080516060808201835260ae5463ffffffff8116808452640100000000820461ffff166020808601829052600160301b90930462ffffff1694860185905260af54865192835292820194909452938401929092528201526080016102d3565b6102ef61080c366004615797565b6136e3565b61084361081f3660046157d1565b60a46020908152600092835260408084209091529082529020805460019091015482565b604080519283526020830191909152016102d3565b6102ef61086636600461522b565b613a7b565b60975461040f906001600160a01b031681565b6033546001600160a01b031633146108b15760405162461bcd60e51b81526004016108a8906157fb565b60405180910390fd5b604080516060808201835263ffffffff871680835261ffff8716602080850182905262ffffff871694860185905260ae805465ffffffffffff1916841764010000000084021768ffffff0000000000001916600160301b870217905560af88905585519283528201529283018590528201527f8a8fca58ff702c815d540a34188b15180d1b8b31ffc4cfc6792ce2bdb07a73c89060800160405180910390a150505050565b60a760205260009081526040902080546001820154600383015460048401546005850180546001600160a01b0395861696949095169460ff90931693919261099d90615830565b80601f01602080910402602001604051908101604052809291908181526020018280546109c990615830565b8015610a165780601f106109eb57610100808354040283529160200191610a16565b820191906000526020600020905b8154815290600101906020018083116109f957829003601f168201915b50505050600683015460079093015491929160ff16905087565b805160208183018101805160a98252928201919093012091528054610a5490615830565b80601f0160208091040260200160405190810160405280929190818152602001828054610a8090615830565b8015610acd5780601f10610aa257610100808354040283529160200191610acd565b820191906000526020600020905b815481529060010190602001808311610ab057829003601f168201915b505050505081565b60026065541415610af85760405162461bcd60e51b81526004016108a890615865565b600260655533600081815260a4602090815260408083206001600160a01b0386168452909152902054831115610b5c5760405162461bcd60e51b815260206004820152600960248201526837bb32b9323930bbb760b91b60448201526064016108a8565b6001600160a01b03808216600090815260a46020908152604080832093861683529290529081208054859290610b939084906158b2565b9091555050609754610baf906001600160a01b03168285613b16565b816001600160a01b0316816001600160a01b03167f8f5fa856284b74bcd941cff9a8e370a8e8c3e90d88177b1e50b995c18daa89a085604051610bf491815260200190565b60405180910390a35050600160655550565b60a98888604051610c189291906158c9565b90815260200160405180910390208054610c3190615830565b15159050610c515760405162461bcd60e51b81526004016108a8906158d9565b60008611610c975760405162461bcd60e51b815260206004820152601360248201527206a6f6220666565206d757374206265203e203606c1b60448201526064016108a8565b60008511610cde5760405162461bcd60e51b815260206004820152601460248201527306261736520666565206d757374206265203e20360641b60448201526064016108a8565b60008411610d2e5760405162461bcd60e51b815260206004820152601760248201527f73746f7261676520666565206d757374206265203e203000000000000000000060448201526064016108a8565b60008311610d735760405162461bcd60e51b81526020600482015260126024820152710696f20666565206d757374206265203e20360741b60448201526064016108a8565b60008111610db85760405162461bcd60e51b815260206004820152601260248201527106d696e20696f206d757374206265203e20360741b60448201526064016108a8565b33600081815260aa6020526040908190209051889190610ddb908c908c906158c9565b9081526040805160209281900383018120939093556001600160a01b038416600090815260aa90925290208791610e15908c908c906158c9565b9081526040805160209281900383018120600101939093556001600160a01b038416600090815260aa90925290208691610e52908c908c906158c9565b9081526040805160209281900383018120600201939093556001600160a01b038416600090815260aa90925290208591610e8f908c908c906158c9565b9081526040805160209281900383018120600301939093556001600160a01b038416600090815260aa90925290208491610ecc908c908c906158c9565b9081526040805160209281900383018120600401939093556001600160a01b038416600090815260aa90925290208391610f09908c908c906158c9565b90815260405190819003602001902060050155505050505050505050565b6000610f4e83604051806040016040528060038152602001623537b160e91b815250613b7e565b1561100757600084815260a760205260409020600681015460059091018054611000929190610f7c90615830565b80601f0160208091040260200160405190810160405280929190818152602001828054610fa890615830565b8015610ff55780601f10610fca57610100808354040283529160200191610ff5565b820191906000526020600020905b815481529060010190602001808311610fd857829003601f168201915b505050505084613bd7565b90506110f8565b61103083604051806040016040528060078152602001667365727669636560c81b815250613b7e565b156110f857600084815260a8602052604090206003018054611000919061105690615830565b80601f016020809104026020016040519081016040528092919081815260200182805461108290615830565b80156110cf5780601f106110a4576101008083540402835291602001916110cf565b820191906000526020600020905b8154815290600101906020018083116110b257829003601f168201915b505050600088815260a86020526040902060078101546008909101549092509050856001613c85565b9392505050565b8035600090815260a86020908152604080832060018101546001600160a01b0316845260a590925290912080546111485760405162461bcd60e51b81526004016108a8906158ff565b60006111af828054806020026020016040519081016040528092919081815260200182805480156111a257602002820191906000526020600020905b81546001600160a01b03168152600190910190602001808311611184575b5050505050336001613dd1565b6000818152600b8501602052604090205490915060ff16156111e35760405162461bcd60e51b81526004016108a890615920565b60006112878460030180546111f790615830565b80601f016020809104026020016040519081016040528092919081815260200182805461122390615830565b80156112705780601f1061124557610100808354040283529160200191611270565b820191906000526020600020905b81548152906001019060200180831161125357829003601f168201915b505050505086606001358760800135336001613c85565b84549091506112a0906001600160a01b03168233613e72565b6000828152600b850160209081526040909120805460ff19166001179055845433916001600160a01b0391909116907f08080b5cb6adfa01b122b5cfa5b566c300c37a7bc400b994d7004b0a5a1e54a6906112fd90890189615943565b61130a60408b018b615943565b60405161131d94939291908d35906159b2565b60405180910390a35050505050565b6002606554141561134f5760405162461bcd60e51b81526004016108a890615865565b6002606581905533600090815260a3602052604090200154806113a25760405162461bcd60e51b815260206004820152600b60248201526a1c995c481c1bdcc818985b60aa1b60448201526064016108a8565b6097546113b9906001600160a01b03163383613b16565b60405181815233907f36afaa6dcdce8cb3e535639868ecced2aed60a5176e0ac58a7ebdb14f473723a9060200160405180910390a2506001606555565b6113ff33613f8c565b600060a581611411602085018561522b565b6001600160a01b031681526020810191909152604001600020805490915061144b5760405162461bcd60e51b81526004016108a8906158ff565b6114ad818054806020026020016040519081016040528092919081815260200182805480156114a357602002820191906000526020600020905b81546001600160a01b03168152600190910190602001808311611485575b5050505050614035565b60ac546114bb9060016159ec565b60ac819055600090815260a7602052604090206114de6080840160608501615a04565b60038201805460ff191691151591909117905561150160c0840160a08501615a04565b60078201805491151560ff1990921691909117905580546001600160a01b03191633178155611533602084018461522b565b6001820180546001600160a01b0319166001600160a01b03929092169190911790556115626020840184615943565b611570916005840191614c47565b506080830135600682015560005b825481101561174a576115bf83828154811061159c5761159c615a21565b600091825260209182902001546001600160a01b03169061068b90870187615943565b6115db5760405162461bcd60e51b81526004016108a8906158d9565b60ac54600090815260a7602052604090206006810154600590910180546116b192919061160790615830565b80601f016020809104026020016040519081016040528092919081815260200182805461163390615830565b80156116805780601f1061165557610100808354040283529160200191611680565b820191906000526020600020905b81548152906001019060200180831161166357829003601f168201915b505050505085848154811061169757611697615a21565b6000918252602090912001546001600160a01b0316613bd7565b33600090815260a46020526040812085549091908690859081106116d7576116d7615a21565b60009182526020808320909101546001600160a01b0316835282019290925260400190205410156117385760405162461bcd60e51b815260206004820152600b60248201526a18985b081b9bdd081b595d60aa1b60448201526064016108a8565b8061174281615a37565b91505061157e565b50611758602084018461522b565b6001600160a01b0316337f228c7d6bef7a7b954880b35fb265490adf0cc68447cc1ef6ec9901af9227b7e56117906020870187615943565b60ac546117a060408a018a615943565b6117ad60c08c018c615a52565b6040516117c09796959493929190615b2b565b60405180910390a3505050565b6117d633613f8c565b600060a5816117e8602085018561522b565b6001600160a01b03168152602081019190915260400160002080549091506118225760405162461bcd60e51b81526004016108a8906158ff565b611882818054806020026020016040519081016040528092919081815260200182805480156114a3576020028201919060005260206000209081546001600160a01b03168152600190910190602001808311611485575050505050614035565b60005b815481101561193f576118c68282815481106118a3576118a3615a21565b600091825260209182902001546001600160a01b03169061068b90860186615943565b6118e25760405162461bcd60e51b81526004016108a8906158d9565b61192d604084013560608501356118fc6020870187615943565b8760c0013587878154811061191357611913615a21565b6000918252602090912001546001600160a01b03166140ea565b8061193781615a37565b915050611885565b5060ac5461194e9060016159ec565b60ac819055600090815260a86020908152604090912080546001600160a01b03191633178155906119819084018461522b565b6001820180546001600160a01b0319166001600160a01b03929092169190911790556119b06020840184615943565b6119be916003840191614c47565b50604083013560078201556060830135600882015560c083013560068201556119ea602084018461522b565b6001600160a01b0316337fa587bb75652cfa00b3e562c48ea5cb9eebd03a726e8924ed998c2c271a077daa611a226020870187615943565b60ac5460408901359060608a013590611a3e60808c018c615943565b611a4b60a08e018e615a52565b6040516117c099989796959493929190615b6d565b6001600160a01b038116600090815260a360205260409020600101805460609190611a8a90615830565b80601f0160208091040260200160405190810160405280929190818152602001828054611ab690615830565b8015611b035780601f10611ad857610100808354040283529160200191611b03565b820191906000526020600020905b815481529060010190602001808311611ae657829003601f168201915b50505050509050919050565b6033546001600160a01b03163314611b395760405162461bcd60e51b81526004016108a8906157fb565b60a98484604051611b4b9291906158c9565b90815260200160405180910390208054611b6490615830565b159050611ba25760405162461bcd60e51b815260206004820152600c60248201526b696d6167652065786973747360a01b60448201526064016108a8565b80611bde5760405162461bcd60e51b815260206004820152600c60248201526b0d2dcecc2d8d2c840d0c2e6d60a31b60448201526064016108a8565b818160a98686604051611bf29291906158c9565b908152604051908190036020019020611c0c929091614c47565b5050505050565b60026065541415611c365760405162461bcd60e51b81526004016108a890615865565b60026065556001600160a01b038116600090815260a3602052604090205460ff16611c8e5760405162461bcd60e51b8152602060048201526008602482015267696e61637469766560c01b60448201526064016108a8565b609754611ca6906001600160a01b03163330866141f7565b6001600160a01b03808316600090815260a46020908152604080832093851683529290529081208054859290611cdd9084906159ec565b90915550506040518381526001600160a01b03808316919084169033907f4927c39c4343e75cf73886e779e6337ae13fa99676e50b0e3ac51f05b331b12b9060200160405180910390a45050600160655550565b6060600060ab546001600160401b03811115611d4f57611d4f614ef9565b604051908082528060200260200182016040528015611d78578160200160208202803683370190505b50905060005b60ab54811015611de157600081815260ad602052604090205482516001600160a01b0390911690839083908110611db757611db7615a21565b6001600160a01b039092166020928302919091019091015280611dd981615a37565b915050611d7e565b50919050565b6033546001600160a01b03163314611e115760405162461bcd60e51b81526004016108a8906157fb565b611e1b6000614235565b565b611e5982828080602002602001604051908101604052809392919081815260200183836020028082843760009201919091525061403592505050565b33600090815260a560205260409020611e73908383614ccb565b507f2bb420cc99e6cc7d998000aac84bdfd19cdf80195a8b3c2b7a7f687b2c7c2e8b338383604051611ea793929190615bcb565b60405180910390a15050565b600085815260a76020908152604080832060018101546001600160a01b0316845260a59092529091208054611efa5760405162461bcd60e51b81526004016108a8906158ff565b6000611f5f828054806020026020016040519081016040528092919081815260200182805480156111a2576020028201919060005260206000209081546001600160a01b03168152600190910190602001808311611184575050505050336001613dd1565b600081815260088501602052604090205490915060ff1615611f935760405162461bcd60e51b81526004016108a890615920565b600061202d6000856005018054611fa990615830565b80601f0160208091040260200160405190810160405280929190818152602001828054611fd590615830565b80156120225780601f10611ff757610100808354040283529160200191612022565b820191906000526020600020905b81548152906001019060200180831161200557829003601f168201915b505050505033613bd7565b8454909150612046906001600160a01b03168233613e72565b600184600801600084815260200190815260200160002060006101000a81548160ff0219169083151502179055508360000160009054906101000a90046001600160a01b03166001600160a01b03167f105b6b960a49135276e4f3fb47aeb4a7e24a9d69492e943e1f9f33bfacf7ab93898989898e6040516120cc9594939291906159b2565b60405180910390a2505050505050505050565b336120eb818a8a61278a565b61212c5760405162461bcd60e51b81526020600482015260126024820152711a5b5859d9481b9bdd08185c1c1c9bdd995960721b60448201526064016108a8565b60008711801561213c5750600086115b80156121485750600085115b80156121545750600084115b80156121605750600082115b61219a5760405162461bcd60e51b815260206004820152600b60248201526a696e76616c69642066656560a81b60448201526064016108a8565b6001600160a01b038116600090815260aa602052604080822090518991906121c5908d908d906158c9565b90815260405190819003602001902054146121de575060015b6001600160a01b038216600090815260aa602052604090819020905188919061220a908d908d906158c9565b90815260200160405180910390206001015414612225575060015b6001600160a01b038216600090815260aa6020526040908190209051879190612251908d908d906158c9565b9081526020016040518091039020600201541461226c575060015b6001600160a01b038216600090815260aa6020526040908190209051869190612298908d908d906158c9565b908152602001604051809103902060030154146122b3575060015b6001600160a01b038216600090815260aa60205260409081902090518591906122df908d908d906158c9565b908152602001604051809103902060040154146122fa575060015b6001600160a01b038216600090815260aa6020526040908190209051849190612326908d908d906158c9565b90815260200160405180910390206005015414612341575060015b806123785760405162461bcd60e51b81526020600482015260076024820152663737903234b33360c91b60448201526064016108a8565b6001600160a01b038216600090815260aa60205260409081902090518991906123a4908d908d906158c9565b9081526040805160209281900383018120939093556001600160a01b038516600090815260aa909252902088916123de908d908d906158c9565b9081526040805160209281900383018120600101939093556001600160a01b038516600090815260aa9092529020879161241b908d908d906158c9565b9081526040805160209281900383018120600201939093556001600160a01b038516600090815260aa90925290208691612458908d908d906158c9565b9081526040805160209281900383018120600301939093556001600160a01b038516600090815260aa90925290208591612495908d908d906158c9565b9081526040805160209281900383018120600401939093556001600160a01b038516600090815260aa909252902084916124d2908d908d906158c9565b9081526040519081900360200190206005015550505050505050505050565b8035600090815260a860205260409020600481015460ff1615156001146125485760405162461bcd60e51b815260206004820152600b60248201526a1b9bdd081cdd185c9d195960aa1b60448201526064016108a8565b4281600501541061258c5760405162461bcd60e51b815260206004820152600e60248201526d74696d652072656d61696e696e6760901b60448201526064016108a8565b60018101546001600160a01b0316600090815260a56020526040902080546125c65760405162461bcd60e51b81526004016108a8906158ff565b600061262b828054806020026020016040519081016040528092919081815260200182805480156111a2576020028201919060005260206000209081546001600160a01b03168152600190910190602001808311611184575050505050336001613dd1565b6000818152600b8501602052604090205490915060ff161561265f5760405162461bcd60e51b81526004016108a890615920565b600061270384600301805461267390615830565b80601f016020809104026020016040519081016040528092919081815260200182805461269f90615830565b80156126ec5780601f106126c1576101008083540402835291602001916126ec565b820191906000526020600020905b8154815290600101906020018083116126cf57829003601f168201915b505050505086604001358760600135336001613c85565b845490915061271c906001600160a01b03168233613e72565b6000828152600b850160209081526040909120805460ff19166001179055845433916001600160a01b0391909116907f6385968b203009a7e208aae57b42e8dd54771566baed9ca45eb7f5ed8a6bdd559061277990890189615943565b60405161131d9291908b3590615c25565b6001600160a01b038316600090815260aa602052604080822090518291906127b590869086906158c9565b908152604051908190036020019020541190509392505050565b33600081815260aa60205260409081902090516127ef90859085906158c9565b90815260405190819003602001812060008082556001820181905560028201819055600382018190556004820181905560059091018190556001600160a01b038316917fbedd4cca1acec8ab178c7b2dade9c35421b8246dcba1d0fcda45fde6befcce36916128619187918791615c49565b60405180910390a2505050565b600054610100900460ff1680612887575060005460ff16155b6128a35760405162461bcd60e51b81526004016108a890615c6f565b600054610100900460ff161580156128c5576000805461ffff19166101011790555b6128cd614287565b6128d5614302565b8151609780546001600160a01b03199081166001600160a01b03938416179091556020840151609880548316918416919091179055604084015160998054831691841691909117905560e0840151609a80548316918416919091179055610100840151609b80548316918416919091179055610120840151609c80548316918416919091179055610140840151609d80548316918416919091179055610160840151609e80548316918416919091179055610180840151609f556101a084015160a09081556101c085015160a1805484169185169190911790556101e085015160a280549093169316929092179055606083015160c08401519184015160808501516129e293919061087e565b80156129f4576000805461ff00191690555b5050565b33600081815260a3602052604090206001018054612a1590615830565b15159050612a6a5760ab8054829160ad9160009182612a3383615a37565b91905055815260200190815260200160002060006101000a8154816001600160a01b0302191690836001600160a01b031602179055505b6001600160a01b038116600081815260a360208181526040808420805460ff191681558151808301909252600a82526919195c1c9958d85d195960b21b8284019081529590945291905251612ac59260019092019190614d1e565b50806001600160a01b03167ffdcc621fcf24779a46eed0bf3d92841b24669514e65fd61277e90cb40170e1be6000604051612b269115158152604060208201819052600a908201526919195c1c9958d85d195960b21b606082015260800190565b60405180910390a250565b612b3a33613f8c565b600086815260a860209081526040918290208251601f880183900483028101830190935286835291612c12918890889081908401838280828437600092019190915250505050600383018054612b8f90615830565b80601f0160208091040260200160405190810160405280929190818152602001828054612bbb90615830565b8015612c085780601f10612bdd57610100808354040283529160200191612c08565b820191906000526020600020905b815481529060010190602001808311612beb57829003601f168201915b5050505050613b7e565b612c4a5760405162461bcd60e51b81526020600482015260096024820152680dad2e6e6dac2e8c6d60bb1b60448201526064016108a8565b42816005015411612c8e5760405162461bcd60e51b815260206004820152600e60248201526d74696d652072656d61696e696e6760901b60448201526064016108a8565b33600090815260a5602052604090208054612cbb5760405162461bcd60e51b81526004016108a8906158ff565b60005b8154811015612f8c5760008615612cd6576001612cd9565b60005b90506000612d498a8a8080601f0160208091040260200160405190810160405280939291908181526020018383808284376000920191909152505087548b92508a9150889088908110612d2e57612d2e615a21565b6000918252602090912001546001600160a01b031686613c85565b90508115612d9957612d5b8882615cbd565b9050612d7787878c8c8c89898154811061191357611913615a21565b612d848862278d00615cbd565b8560050154612d9391906159ec565b60058601555b612dca8133868681548110612db057612db0615a21565b6000918252602090912001546001600160a01b0316611c13565b86856009016000868681548110612de357612de3615a21565b60009182526020808320909101546001600160a01b0316835282019290925260400181206001018054909190612e1a9084906159ec565b9250508190555085856009016000868681548110612e3a57612e3a615a21565b60009182526020808320909101546001600160a01b0316835282019290925260400181206002018054909190612e719084906159ec565b92505081905550838381548110612e8a57612e8a615a21565b600091825260208220015485546001600160a01b039091169133917fba6d754d8da31125ad925803210bd9413a02fb7258a99460a419cf5f897c611f918f9160098b0191908a908a908110612ee157612ee1615a21565b60009182526020808320909101546001600160a01b031683528201929092526040018120600101548954909160098c01918b908b908110612f2457612f24615a21565b6000918252602080832091909101546001600160a01b0316835282810193909352604091820190206002015460058d0154825195865292850193909352830191909152606082015260800160405180910390a350508080612f8490615a37565b915050612cbe565b505050505050505050565b806122b81415612fd35760405162461bcd60e51b815260206004820152600760248201526606f7665726c61760cc1b60448201526064016108a8565b600082815260a86020908152604080832060018101546001600160a01b0316845260a5909252909120805461301a5760405162461bcd60e51b81526004016108a8906158ff565b61307d818054806020026020016040519081016040528092919081815260200182805480156111a2576020028201919060005260206000209081546001600160a01b03168152600190910190602001808311611184575050505050336001613dd1565b50600482015460ff16156130bd5760405162461bcd60e51b81526020600482015260076024820152661cdd185c9d195960ca1b60448201526064016108a8565b60048201805460ff1916600117905560068201546130de9062278d00615cbd565b6130e890426159ec565b6005830155815433600090815260098401602052604081208581556007850154600190910180546001600160a01b03909416939192909161312a9084906159ec565b90915550506008830154336000908152600985016020526040812060020180549091906131589084906159ec565b92505081905550600061320384600301805461317390615830565b80601f016020809104026020016040519081016040528092919081815260200182805461319f90615830565b80156131ec5780601f106131c1576101008083540402835291602001916131ec565b820191906000526020600020905b8154815290600101906020018083116131cf57829003601f168201915b505050505085600701548660080154336001613c85565b9050613210828233613e72565b604080518781526020810187905233916001600160a01b038516917ffc591b915128e7b045fd4663d358185ce9356694fac67286041506e0a8963d62910160405180910390a3505050505050565b8061329e5760405162461bcd60e51b815260206004820152601060248201526f1a5b9d985b1a5908195b991c1bda5b9d60821b60448201526064016108a8565b33600081815260a36020526040902060010180546132bb90615830565b151590506133105760ab8054829160ad91600091826132d983615a37565b91905055815260200190815260200160002060006101000a8154816001600160a01b0302191690836001600160a01b031602179055505b6001600160a01b038116600090815260a360205260409020805460ff19166001908117825561334191018484614c47565b50806001600160a01b03167ffdcc621fcf24779a46eed0bf3d92841b24669514e65fd61277e90cb40170e1be6001858560405161286193929190615cdc565b60a5602052816000526040600020818154811061339c57600080fd5b6000918252602090912001546001600160a01b03169150829050565b6000811561348357600084815260a76020908152604080832060018101546001600160a01b0316845260a58352818420805483518186028101860190945280845291949093909261344e92909185919083018282801561344157602002820191906000526020600020905b81546001600160a01b03168152600190910190602001808311613423575b5050505050876000613dd1565b905080600019141561346657600093505050506110f8565b6000908152600890920160205250604090205460ff1690506110f8565b600084815260a86020908152604080832060018101546001600160a01b0316845260a58352818420805483518186028101860190945280845291949093909261350f929091859190830182828015613441576020028201919060005260206000209081546001600160a01b03168152600190910190602001808311613423575050505050876000613dd1565b905080600019141561352757600093505050506110f8565b6000908152600b90920160205250604090205460ff1690506110f8565b6000613551848484613bd7565b949350505050565b60a3602052600090815260409020805460018201805460ff909216929161357f90615830565b80601f01602080910402602001604051908101604052809291908181526020018280546135ab90615830565b80156135f85780601f106135cd576101008083540402835291602001916135f8565b820191906000526020600020905b8154815290600101906020018083116135db57829003601f168201915b5050505050908060020154905083565b60a8602052600090815260409020805460018201546003830180546001600160a01b0393841694929093169261363d90615830565b80601f016020809104026020016040519081016040528092919081815260200182805461366990615830565b80156136b65780601f1061368b576101008083540402835291602001916136b6565b820191906000526020600020905b81548152906001019060200180831161369957829003601f168201915b5050506004840154600585015460068601546007870154600890970154959660ff90931695919450925088565b8035600090815260a76020908152604080832060018101546001600160a01b0316845260a5909252909120805461372c5760405162461bcd60e51b81526004016108a8906158ff565b816008016000613795838054806020026020016040519081016040528092919081815260200182805480156111a2576020028201919060005260206000209081546001600160a01b03168152600190910190602001808311611184575050505050336001613dd1565b815260208101919091526040016000205460ff16156137c65760405162461bcd60e51b81526004016108a890615920565b600061387484356137da6020870187615943565b6040516020016137eb9291906158c9565b60408051601f19818403018152828252805160209182012060018901546001600160a01b0316600090815260a58352839020805480840286018401909452838552909392909183018282801561386a57602002820191906000526020600020905b81546001600160a01b0316815260019091019060200180831161384c575b5050505050614361565b600784015490915060ff16156138c057806138c05760405162461bcd60e51b815260206004820152600c60248201526b1a5b98dbdb9cda5cdd195b9d60a21b60448201526064016108a8565b6003830154600090819060ff1615613956575a60068601548654919350613946916001600160a01b03166138f760208a018a615943565b61390460408c018c615943565b6040516024016139179493929190615d01565b60408051601f198184030181529190526020810180516001600160e01b03166336b90ef560e11b1790526144be565b90505a61395390836158b2565b91505b600061396b83876005018054611fa990615830565b8654909150613984906001600160a01b03168233613e72565b855433906001600160a01b03167fe05a85698af7732aa0ea230656f9c46d18f559c07665f0411ca43a2455a045aa6139bf60208b018b615943565b6139cc60408d018d615943565b878e600001356040516139e496959493929190615d28565b60405180910390a3600486015433600090815260a5602052604090205414613a0f5750505050505050565b85546001600160a01b03167f3c23ec8d254003e5d452fa03fdc2ff6e5531a15e79e0fe710e0dd4abdc90e6c6613a4860208a018a615943565b613a5560408c018c615943565b604051613a6a94939291908b908f3590615d65565b60405180910390a250505050505050565b6033546001600160a01b03163314613aa55760405162461bcd60e51b81526004016108a8906157fb565b6001600160a01b038116613b0a5760405162461bcd60e51b815260206004820152602660248201527f4f776e61626c653a206e6577206f776e657220697320746865207a65726f206160448201526564647265737360d01b60648201526084016108a8565b613b1381614235565b50565b6040516001600160a01b038316602482015260448101829052613b7990849063a9059cbb60e01b906064015b60408051601f198184030181529190526020810180516001600160e01b03166001600160e01b03199093169290921790915261450a565b505050565b600081604051602001613b919190615da2565b6040516020818303038152906040528051906020012083604051602001613bb89190615da2565b6040516020818303038152906040528051906020012014905092915050565b600080613be484846145dc565b90506000613bf0614634565b90506000613bfc614724565b9050613c0b62013880886159ec565b96506000613c198884615cbd565b60ae549091506000908390613c389063ffffffff16633b9aca006159ec565b613c4684633b9aca00615cbd565b613c509190615cbd565b613c5a9190615dbe565b9050613c6c655af3107a400082615dbe565b9050613c7885826159ec565b9998505050505050505050565b600080613c906148b6565b6001600160a01b038516600090815260aa602052604080822090519293509091613cbb908a90615da2565b9081526040805160209281900383018120600101546001600160a01b038916600090815260aa909452918320919350613cf5908b90615da2565b9081526040805160209281900383018120600201546001600160a01b038a16600090815260aa909452918320919350613d2f908c90615da2565b908152602001604051809103902060030154905085613d4f576000613d70565b83613d5b846018615cbd565b613d6690601e615cbd565b613d709190615cbd565b925083613d7d8984615cbd565b613d879190615cbd565b915083613d948a83615cbd565b613d9e9190615cbd565b60a05490915081613daf84866159ec565b613db991906159ec565b613dc39190615dbe565b9a9950505050505050505050565b6000600019815b8551811015613e2e57846001600160a01b0316868281518110613dfd57613dfd615a21565b60200260200101516001600160a01b03161415613e1c57809150613e2e565b80613e2681615a37565b915050613dd8565b5082156135515760001981136135515760405162461bcd60e51b81526020600482015260096024820152681b9bdd08199bdd5b9960ba1b60448201526064016108a8565b6001600160a01b03808416600090815260a46020908152604080832093851683529290522054821115613ed95760405162461bcd60e51b815260206004820152600f60248201526e696e737566696369656e742067617360881b60448201526064016108a8565b6001600160a01b03808416600090815260a46020908152604080832093851683529290529081208054849290613f109084906158b2565b90915550506001600160a01b038116600090815260a3602052604081206002018054849290613f409084906159ec565b92505081905550806001600160a01b0316836001600160a01b03167f902115c14fc468bd781ce5843eb17b399342718b23213bab5c57215da96f3795846040516117c091815260200190565b6001600160a01b03808216600090815260a66020526040902054168015613ff0576001600160a01b03811633146129f45760405162461bcd60e51b81526020600482015260086024820152670dcdee840c2eae8d60c31b60448201526064016108a8565b6001600160a01b03821633146129f45760405162461bcd60e51b815260206004820152600a6024820152693737ba1039b2b73232b960b11b60448201526064016108a8565b60008151116140565760405162461bcd60e51b81526004016108a8906158ff565b60005b81518110156129f45760a3600083838151811061407857614078615a21565b6020908102919091018101516001600160a01b031682528101919091526040016000205460ff166140d85760405162461bcd60e51b815260206004820152600a6024820152696e6f742061637469766560b01b60448201526064016108a8565b806140e281615a37565b915050614059565b6001600160a01b038116600090815260aa602052604090819020905183919061411690879087906158c9565b9081526020016040518091039020600501546141329190615cbd565b86101561416a5760405162461bcd60e51b81526020600482015260066024820152656d696e20696f60d01b60448201526064016108a8565b6001600160a01b038116600090815260aa602052604090819020905183919061419690879087906158c9565b9081526020016040518091039020600401546141b29190615cbd565b8510156141ef5760405162461bcd60e51b815260206004820152600b60248201526a6d696e2073746f7261676560a81b60448201526064016108a8565b505050505050565b6040516001600160a01b038085166024830152831660448201526064810182905261422f9085906323b872dd60e01b90608401613b42565b50505050565b603380546001600160a01b038381166001600160a01b0319831681179093556040519116919082907f8be0079c531659141344cd1fd0a4f28419497f9722a3daafe3b4186f6b6457e090600090a35050565b600054610100900460ff16806142a0575060005460ff16155b6142bc5760405162461bcd60e51b81526004016108a890615c6f565b600054610100900460ff161580156142de576000805461ffff19166101011790555b6142e6614a02565b6142ee614a6c565b8015613b13576000805461ff001916905550565b600054610100900460ff168061431b575060005460ff16155b6143375760405162461bcd60e51b81526004016108a890615c6f565b600054610100900460ff16158015614359576000805461ffff19166101011790555b6142ee614acc565b600083815260a7602052604081203360001983805b865181101561440157600081815260088601602052604090205460ff16156143b457600081815260098601602052604090205488146143b457600191505b836001600160a01b03168782815181106143d0576143d0615a21565b60200260200101516001600160a01b031614156143ef57809250614401565b806143f981615a37565b915050614376565b50600019821361443f5760405162461bcd60e51b81526020600482015260096024820152681b9bdd08199bdd5b9960ba1b60448201526064016108a8565b600082815260088501602052604090205460ff16156144705760405162461bcd60e51b81526004016108a890615920565b60008281526008850160205260408120805460ff191660011790556004850180549161449b83615a37565b909155505060009182526009909301602052604090208590555090509392505050565b60005a6113888110156144d057600080fd5b6113888103905084604082048203116144e857600080fd5b50823b6144f457600080fd5b60008083516020850160008789f1949350505050565b600061455f826040518060400160405280602081526020017f5361666545524332303a206c6f772d6c6576656c2063616c6c206661696c6564815250856001600160a01b0316614b3c9092919063ffffffff16565b805190915015613b79578080602001905181019061457d9190615de0565b613b795760405162461bcd60e51b815260206004820152602a60248201527f5361666545524332303a204552433230206f7065726174696f6e20646964206e6044820152691bdd081cdd58d8d9595960b21b60648201526084016108a8565b60a0546001600160a01b038216600090815260aa60205260408082209051919291614608908690615da2565b908152604051908190036020019020546146229190615dbe565b61462a6148b6565b6110f89190615cbd565b60ae5460995460408051633fabe5a360e21b81529051600093600160301b900462ffffff169283151592859283926001600160a01b03169163feaf968c9160048083019260a09291908290030181865afa158015614696573d6000803e3d6000fd5b505050506040513d601f19601f820116820180604052508101906146ba9190615e17565b5094509092508491505080156146de57506146d582426158b2565b8463ffffffff16105b806146ea575060008113155b156135515760405162461bcd60e51b815260206004820152600a60248201526966656564207374616c6560b01b60448201526064016108a8565b60408051600580825260c082019092526000918291906020820160a0803683375050609a5482519293506001600160a01b03169183915060009061476a5761476a615a21565b6001600160a01b039283166020918202929092010152609b5482519116908290600190811061479b5761479b615a21565b6001600160a01b039283166020918202929092010152609c548251911690829060029081106147cc576147cc615a21565b6001600160a01b039283166020918202929092010152609d548251911690829060039081106147fd576147fd615a21565b6001600160a01b039283166020918202929092010152609e5482519116908290600490811061482e5761482e615a21565b6001600160a01b039283166020918202929092010152609854604051637f9c0ecd60e01b8152911690637f9c0ecd9061486f90849061271090600401615e67565b602060405180830381865afa15801561488c573d6000803e3d6000fd5b505050506040513d601f19601f820116820180604052508101906148b09190615e89565b91505090565b60408051600580825260c082019092526000918291906020820160a080368337505060a15482519293506001600160a01b0316918391506000906148fc576148fc615a21565b6001600160a01b03928316602091820292909201015260a25482519116908290600190811061492d5761492d615a21565b6001600160a01b039283166020918202929092010152609c5482519116908290600290811061495e5761495e615a21565b6001600160a01b039283166020918202929092010152609b5482519116908290600390811061498f5761498f615a21565b6001600160a01b039283166020918202929092010152609a548251911690829060049081106149c0576149c0615a21565b6001600160a01b039283166020918202929092010152609854604051637f9c0ecd60e01b8152911690637f9c0ecd9061486f908490620f424090600401615e67565b600054610100900460ff1680614a1b575060005460ff16155b614a375760405162461bcd60e51b81526004016108a890615c6f565b600054610100900460ff161580156142ee576000805461ffff19166101011790558015613b13576000805461ff001916905550565b600054610100900460ff1680614a85575060005460ff16155b614aa15760405162461bcd60e51b81526004016108a890615c6f565b600054610100900460ff16158015614ac3576000805461ffff19166101011790555b6142ee33614235565b600054610100900460ff1680614ae5575060005460ff16155b614b015760405162461bcd60e51b81526004016108a890615c6f565b600054610100900460ff16158015614b23576000805461ffff19166101011790555b60016065558015613b13576000805461ff001916905550565b6060613551848460008585843b614b955760405162461bcd60e51b815260206004820152601d60248201527f416464726573733a2063616c6c20746f206e6f6e2d636f6e747261637400000060448201526064016108a8565b600080866001600160a01b03168587604051614bb19190615da2565b60006040518083038185875af1925050503d8060008114614bee576040519150601f19603f3d011682016040523d82523d6000602084013e614bf3565b606091505b5091509150614c03828286614c0e565b979650505050505050565b60608315614c1d5750816110f8565b825115614c2d5782518084602001fd5b8160405162461bcd60e51b81526004016108a89190614ff8565b828054614c5390615830565b90600052602060002090601f016020900481019282614c755760008555614cbb565b82601f10614c8e5782800160ff19823516178555614cbb565b82800160010185558215614cbb579182015b82811115614cbb578235825591602001919060010190614ca0565b50614cc7929150614d92565b5090565b828054828255906000526020600020908101928215614cbb579160200282015b82811115614cbb5781546001600160a01b0319166001600160a01b03843516178255602090920191600190910190614ceb565b828054614d2a90615830565b90600052602060002090601f016020900481019282614d4c5760008555614cbb565b82601f10614d6557805160ff1916838001178555614cbb565b82800160010185558215614cbb579182015b82811115614cbb578251825591602001919060010190614d77565b5b80821115614cc75760008155600101614d93565b803563ffffffff81168114614dbb57600080fd5b919050565b803561ffff81168114614dbb57600080fd5b803562ffffff81168114614dbb57600080fd5b60008060008060808587031215614dfb57600080fd5b614e0485614da7565b9350614e1260208601614dc0565b925060408501359150614e2760608601614dd2565b905092959194509250565b600060208284031215614e4457600080fd5b5035919050565b60005b83811015614e66578181015183820152602001614e4e565b8381111561422f5750506000910152565b60008151808452614e8f816020860160208601614e4b565b601f01601f19169290920160200192915050565b6001600160a01b0388811682528716602082015285151560408201526060810185905260e060808201819052600090614ede90830186614e77565b60a08301949094525090151560c09091015295945050505050565b634e487b7160e01b600052604160045260246000fd5b60405161020081016001600160401b0381118282101715614f3257614f32614ef9565b60405290565b600082601f830112614f4957600080fd5b81356001600160401b0380821115614f6357614f63614ef9565b604051601f8301601f19908116603f01168101908282118183101715614f8b57614f8b614ef9565b81604052838152866020858801011115614fa457600080fd5b836020870160208301376000602085830101528094505050505092915050565b600060208284031215614fd657600080fd5b81356001600160401b03811115614fec57600080fd5b61355184828501614f38565b6020815260006110f86020830184614e77565b80356001600160a01b0381168114614dbb57600080fd5b6000806040838503121561503557600080fd5b823591506150456020840161500b565b90509250929050565b6000806040838503121561506157600080fd5b61506a8361500b565b915060208301356001600160401b0381111561508557600080fd5b61509185828601614f38565b9150509250929050565b60008083601f8401126150ad57600080fd5b5081356001600160401b038111156150c457600080fd5b6020830191508360208285010111156150dc57600080fd5b9250929050565b60008060008060008060008060e0898b0312156150ff57600080fd5b88356001600160401b0381111561511557600080fd5b6151218b828c0161509b565b909c909b5060208b01359a60408101359a50606081013599506080810135985060a0810135975060c0013595509350505050565b60008060006060848603121561516a57600080fd5b8335925060208401356001600160401b0381111561518757600080fd5b61519386828701614f38565b9250506151a26040850161500b565b90509250925092565b6000602082840312156151bd57600080fd5b81356001600160401b038111156151d357600080fd5b820160a081850312156110f857600080fd5b600060e08284031215611de157600080fd5b60006020828403121561520957600080fd5b81356001600160401b0381111561521f57600080fd5b613551848285016151e5565b60006020828403121561523d57600080fd5b6110f88261500b565b6000806000806040858703121561525c57600080fd5b84356001600160401b038082111561527357600080fd5b61527f8883890161509b565b9096509450602087013591508082111561529857600080fd5b506152a58782880161509b565b95989497509550505050565b6000806000606084860312156152c657600080fd5b833592506152d66020850161500b565b91506151a26040850161500b565b600081518084526020808501945080840160005b8381101561531d5781516001600160a01b0316875295820195908201906001016152f8565b509495945050505050565b6020815260006110f860208301846152e4565b6000806020838503121561534e57600080fd5b82356001600160401b038082111561536557600080fd5b818501915085601f83011261537957600080fd5b81358181111561538857600080fd5b8660208260051b850101111561539d57600080fd5b60209290920196919550909350505050565b6000806000806000606086880312156153c757600080fd5b8535945060208601356001600160401b03808211156153e557600080fd5b6153f189838a0161509b565b9096509450604088013591508082111561540a57600080fd5b506154178882890161509b565b969995985093965092949392505050565b60006020828403121561543a57600080fd5b81356001600160401b0381111561545057600080fd5b8201608081850312156110f857600080fd5b60008060006040848603121561547757600080fd5b6154808461500b565b925060208401356001600160401b0381111561549b57600080fd5b6154a78682870161509b565b9497909650939450505050565b600080602083850312156154c757600080fd5b82356001600160401b038111156154dd57600080fd5b6154e98582860161509b565b90969095509350505050565b6000610200828403121561550857600080fd5b615510614f0f565b6155198361500b565b81526155276020840161500b565b60208201526155386040840161500b565b604082015261554960608401614da7565b606082015261555a60808401614dd2565b608082015260a083013560a082015261557560c08401614dc0565b60c082015261558660e0840161500b565b60e082015261010061559981850161500b565b908201526101206155ab84820161500b565b908201526101406155bd84820161500b565b908201526101606155cf84820161500b565b9082015261018083810135908201526101a080840135908201526101c06155f781850161500b565b908201526101e061560984820161500b565b908201529392505050565b60008060008060008060a0878903121561562d57600080fd5b8635955060208701356001600160401b0381111561564a57600080fd5b61565689828a0161509b565b979a90995096976040810135976060820135975060809091013595509350505050565b6000806040838503121561568c57600080fd5b50508035926020909101359150565b600080604083850312156156ae57600080fd5b6156b78361500b565b946020939093013593505050565b8015158114613b1357600080fd5b6000806000606084860312156156e857600080fd5b833592506156f86020850161500b565b91506040840135615708816156c5565b809150509250925092565b831515815260606020820152600061572e6060830185614e77565b9050826040830152949350505050565b6001600160a01b038981168252881660208201526101006040820181905260009061576b8382018a614e77565b97151560608401525050608081019490945260a084019290925260c083015260e0909101529392505050565b6000602082840312156157a957600080fd5b81356001600160401b038111156157bf57600080fd5b8201606081850312156110f857600080fd5b600080604083850312156157e457600080fd5b6157ed8361500b565b91506150456020840161500b565b6020808252818101527f4f776e61626c653a2063616c6c6572206973206e6f7420746865206f776e6572604082015260600190565b600181811c9082168061584457607f821691505b60208210811415611de157634e487b7160e01b600052602260045260246000fd5b6020808252601f908201527f5265656e7472616e637947756172643a207265656e7472616e742063616c6c00604082015260600190565b634e487b7160e01b600052601160045260246000fd5b6000828210156158c4576158c461589c565b500390565b8183823760009101908152919050565b6020808252600c908201526b1b9bdd08185c1c1c9bdd995960a21b604082015260600190565b6020808252600790820152666e6f206473707360c81b604082015260600190565b60208082526009908201526818dbdb5c1b195d195960ba1b604082015260600190565b6000808335601e1984360301811261595a57600080fd5b8301803591506001600160401b0382111561597457600080fd5b6020019150368190038213156150dc57600080fd5b81835281816020850137506000828201602090810191909152601f909101601f19169091010190565b6060815260006159c6606083018789615989565b82810360208401526159d9818688615989565b9150508260408301529695505050505050565b600082198211156159ff576159ff61589c565b500190565b600060208284031215615a1657600080fd5b81356110f8816156c5565b634e487b7160e01b600052603260045260246000fd5b6000600019821415615a4b57615a4b61589c565b5060010190565b6000808335601e19843603018112615a6957600080fd5b8301803591506001600160401b03821115615a8357600080fd5b6020019150600581901b36038213156150dc57600080fd5b81835260006020808501808196508560051b810191508460005b87811015615b1e5782840389528135601e19883603018112615ad657600080fd5b870180356001600160401b03811115615aee57600080fd5b803603891315615afd57600080fd5b615b0a8682898501615989565b9a87019a9550505090840190600101615ab5565b5091979650505050505050565b608081526000615b3f60808301898b615989565b8760208401528281036040840152615b58818789615989565b90508281036060840152613dc3818587615a9b565b60c081526000615b8160c083018b8d615989565b8960208401528860408401528760608401528281036080840152615ba6818789615989565b905082810360a0840152615bbb818587615a9b565b9c9b505050505050505050505050565b6001600160a01b03848116825260406020808401829052908301849052600091859160608501845b87811015615c185783615c058661500b565b1682529382019390820190600101615bf3565b5098975050505050505050565b604081526000615c39604083018587615989565b9050826020830152949350505050565b604081526000615c5d604083018587615989565b90508215156020830152949350505050565b6020808252602e908201527f496e697469616c697a61626c653a20636f6e747261637420697320616c72656160408201526d191e481a5b9a5d1a585b1a5e995960921b606082015260800190565b6000816000190483118215151615615cd757615cd761589c565b500290565b8315158152604060208201526000615cf8604083018486615989565b95945050505050565b604081526000615d15604083018688615989565b8281036020840152614c03818587615989565b608081526000615d3c60808301888a615989565b8281036020840152615d4f818789615989565b6040840195909552505060600152949350505050565b608081526000615d7960808301888a615989565b8281036020840152615d8c818789615989565b9415156040840152505060600152949350505050565b60008251615db4818460208701614e4b565b9190910192915050565b600082615ddb57634e487b7160e01b600052601260045260246000fd5b500490565b600060208284031215615df257600080fd5b81516110f8816156c5565b805169ffffffffffffffffffff81168114614dbb57600080fd5b600080600080600060a08688031215615e2f57600080fd5b615e3886615dfd565b9450602086015193506040860151925060608601519150615e5b60808701615dfd565b90509295509295909350565b604081526000615e7a60408301856152e4565b90508260208301529392505050565b600060208284031215615e9b57600080fd5b505191905056fea2646970667358221220412006ca1de7c7bf075fb9c9ac70df0620d78f50a9660a4dcea7ae57d5a0026c64736f6c634300080b0033",
  "linkReferences": {},
  "deployedLinkReferences": {}
}