{
  "_format": "hh-sol-artifact-1",
  "contractName": "Nexus",
  "sourceName": "contracts/Nexus.sol",
  "abi": [
    {
      "inputs": [],
      "stateMutability": "nonpayable",
      "type": "constructor"
    },
    {
      "anonymous": false,
      "inputs": [
        {
          "indexed": true,
          "internalType": "address",
          "name": "consumer",
          "type": "address"
        },
        {
          "indexed": true,
          "internalType": "address",
          "name": "dsp",
          "type": "address"
        },
        {
          "indexed": false,
          "internalType": "uint256",
          "name": "amount",
          "type": "uint256"
        }
      ],
      "name": "BoughtGas",
      "type": "event"
    },
    {
      "anonymous": false,
      "inputs": [
        {
          "indexed": true,
          "internalType": "address",
          "name": "consumer",
          "type": "address"
        },
        {
          "indexed": true,
          "internalType": "address",
          "name": "dsp",
          "type": "address"
        },
        {
          "indexed": false,
          "internalType": "uint256",
          "name": "amount",
          "type": "uint256"
        }
      ],
      "name": "ClaimedGas",
      "type": "event"
    },
    {
      "anonymous": false,
      "inputs": [
        {
          "indexed": true,
          "internalType": "address",
          "name": "dsp",
          "type": "address"
        },
        {
          "indexed": false,
          "internalType": "bool",
          "name": "active",
          "type": "bool"
        },
        {
          "indexed": false,
          "internalType": "string",
          "name": "endpoint",
          "type": "string"
        }
      ],
      "name": "DSPStatusChanged",
      "type": "event"
    },
    {
      "anonymous": false,
      "inputs": [
        {
          "indexed": true,
          "internalType": "address",
          "name": "dsp",
          "type": "address"
        },
        {
          "indexed": false,
          "internalType": "string",
          "name": "image",
          "type": "string"
        },
        {
          "indexed": false,
          "internalType": "bool",
          "name": "approved",
          "type": "bool"
        }
      ],
      "name": "DockerApprovalChanged",
      "type": "event"
    },
    {
      "anonymous": false,
      "inputs": [
        {
          "indexed": false,
          "internalType": "address",
          "name": "owner",
          "type": "address"
        },
        {
          "indexed": false,
          "internalType": "string",
          "name": "imageName",
          "type": "string"
        },
        {
          "indexed": false,
          "internalType": "string",
          "name": "image",
          "type": "string"
        },
        {
          "indexed": false,
          "internalType": "string",
          "name": "imageHash",
          "type": "string"
        },
        {
          "indexed": false,
          "internalType": "string",
          "name": "imageType",
          "type": "string"
        }
      ],
      "name": "DockerSet",
      "type": "event"
    },
    {
      "anonymous": false,
      "inputs": [
        {
          "indexed": true,
          "internalType": "address",
          "name": "consumer",
          "type": "address"
        },
        {
          "indexed": false,
          "internalType": "string",
          "name": "outputFS",
          "type": "string"
        },
        {
          "indexed": false,
          "internalType": "bool",
          "name": "inconsistent",
          "type": "bool"
        },
        {
          "indexed": false,
          "internalType": "uint256",
          "name": "id",
          "type": "uint256"
        }
      ],
      "name": "JobDone",
      "type": "event"
    },
    {
      "anonymous": false,
      "inputs": [
        {
          "indexed": true,
          "internalType": "address",
          "name": "consumer",
          "type": "address"
        },
        {
          "indexed": true,
          "internalType": "address",
          "name": "dsp",
          "type": "address"
        },
        {
          "indexed": false,
          "internalType": "string",
          "name": "outputFS",
          "type": "string"
        },
        {
          "indexed": false,
          "internalType": "uint256",
          "name": "dapps",
          "type": "uint256"
        },
        {
          "indexed": false,
          "internalType": "uint256",
          "name": "id",
          "type": "uint256"
        }
      ],
      "name": "JobResult",
      "type": "event"
    },
    {
      "anonymous": false,
      "inputs": [
        {
          "indexed": true,
          "internalType": "address",
          "name": "consumer",
          "type": "address"
        },
        {
          "indexed": false,
          "internalType": "uint256",
          "name": "id",
          "type": "uint256"
        }
      ],
      "name": "Kill",
      "type": "event"
    },
    {
      "anonymous": false,
      "inputs": [
        {
          "indexed": true,
          "internalType": "address",
          "name": "previousOwner",
          "type": "address"
        },
        {
          "indexed": true,
          "internalType": "address",
          "name": "newOwner",
          "type": "address"
        }
      ],
      "name": "OwnershipTransferred",
      "type": "event"
    },
    {
      "anonymous": false,
      "inputs": [
        {
          "indexed": true,
          "internalType": "address",
          "name": "consumer",
          "type": "address"
        },
        {
          "indexed": false,
          "internalType": "string",
          "name": "imageName",
          "type": "string"
        },
        {
          "indexed": false,
          "internalType": "string",
          "name": "inputFS",
          "type": "string"
        },
        {
          "indexed": false,
          "internalType": "string[]",
          "name": "args",
          "type": "string[]"
        },
        {
          "indexed": false,
          "internalType": "uint256",
          "name": "id",
          "type": "uint256"
        },
        {
          "indexed": false,
          "internalType": "string",
          "name": "imageType",
          "type": "string"
        }
      ],
      "name": "Run",
      "type": "event"
    },
    {
      "anonymous": false,
      "inputs": [
        {
          "indexed": true,
          "internalType": "address",
          "name": "consumer",
          "type": "address"
        },
        {
          "indexed": true,
          "internalType": "address",
          "name": "dsp",
          "type": "address"
        },
        {
          "indexed": false,
          "internalType": "uint256",
          "name": "id",
          "type": "uint256"
        },
        {
          "indexed": false,
          "internalType": "uint256",
          "name": "port",
          "type": "uint256"
        }
      ],
      "name": "ServiceRunning",
      "type": "event"
    },
    {
      "anonymous": false,
      "inputs": [
        {
          "indexed": true,
          "internalType": "address",
          "name": "consumer",
          "type": "address"
        },
        {
          "indexed": true,
          "internalType": "address",
          "name": "dsp",
          "type": "address"
        },
        {
          "indexed": false,
          "internalType": "uint256",
          "name": "amount",
          "type": "uint256"
        }
      ],
      "name": "SoldGas",
      "type": "event"
    },
    {
      "anonymous": false,
      "inputs": [
        {
          "indexed": true,
          "internalType": "address",
          "name": "consumer",
          "type": "address"
        },
        {
          "indexed": true,
          "internalType": "address",
          "name": "dsp",
          "type": "address"
        },
        {
          "indexed": false,
          "internalType": "uint256",
          "name": "amount",
          "type": "uint256"
        }
      ],
      "name": "UsedGas",
      "type": "event"
    },
    {
      "inputs": [
        {
          "internalType": "string",
          "name": "imageName",
          "type": "string"
        }
      ],
      "name": "approveDockerForDSP",
      "outputs": [],
      "stateMutability": "nonpayable",
      "type": "function"
    },
    {
      "inputs": [
        {
          "internalType": "uint256",
          "name": "_amount",
          "type": "uint256"
        },
        {
          "internalType": "address",
          "name": "_consumer",
          "type": "address"
        },
        {
          "internalType": "address",
          "name": "_dsp",
          "type": "address"
        }
      ],
      "name": "buyGasFor",
      "outputs": [],
      "stateMutability": "nonpayable",
      "type": "function"
    },
    {
      "inputs": [
        {
          "internalType": "address",
          "name": "_consumer",
          "type": "address"
        },
        {
          "internalType": "address",
          "name": "_dsp",
          "type": "address"
        }
      ],
      "name": "claimFor",
      "outputs": [],
      "stateMutability": "nonpayable",
      "type": "function"
    },
    {
      "inputs": [
        {
          "internalType": "address",
          "name": "",
          "type": "address"
        }
      ],
      "name": "consumerData",
      "outputs": [
        {
          "internalType": "address",
          "name": "owner",
          "type": "address"
        },
        {
          "internalType": "bool",
          "name": "callback",
          "type": "bool"
        }
      ],
      "stateMutability": "view",
      "type": "function"
    },
    {
      "inputs": [],
      "name": "deprecateDSP",
      "outputs": [],
      "stateMutability": "nonpayable",
      "type": "function"
    },
    {
      "inputs": [
        {
          "internalType": "address",
          "name": "",
          "type": "address"
        },
        {
          "internalType": "address",
          "name": "",
          "type": "address"
        }
      ],
      "name": "dspData",
      "outputs": [
        {
          "internalType": "uint256",
          "name": "amount",
          "type": "uint256"
        },
        {
          "internalType": "uint256",
          "name": "claimable",
          "type": "uint256"
        }
      ],
      "stateMutability": "view",
      "type": "function"
    },
    {
      "inputs": [],
      "name": "gasPerTimeUnit",
      "outputs": [
        {
          "internalType": "uint256",
          "name": "",
          "type": "uint256"
        }
      ],
      "stateMutability": "view",
      "type": "function"
    },
    {
      "inputs": [
        {
          "internalType": "address",
          "name": "dsp",
          "type": "address"
        }
      ],
      "name": "getDSPEndpoint",
      "outputs": [
        {
          "internalType": "string",
          "name": "",
          "type": "string"
        }
      ],
      "stateMutability": "view",
      "type": "function"
    },
    {
      "inputs": [
        {
          "internalType": "string",
          "name": "imageName",
          "type": "string"
        }
      ],
      "name": "getDockerImage",
      "outputs": [
        {
          "internalType": "string",
          "name": "",
          "type": "string"
        }
      ],
      "stateMutability": "view",
      "type": "function"
    },
    {
      "inputs": [
        {
          "internalType": "uint256",
          "name": "jobID",
          "type": "uint256"
        },
        {
          "internalType": "address",
          "name": "dsp",
          "type": "address"
        }
      ],
      "name": "getPortForDSP",
      "outputs": [
        {
          "internalType": "uint256",
          "name": "",
          "type": "uint256"
        }
      ],
      "stateMutability": "view",
      "type": "function"
    },
    {
      "inputs": [
        {
          "internalType": "string",
          "name": "imageName",
          "type": "string"
        }
      ],
      "name": "isImageApprovedForDSP",
      "outputs": [
        {
          "internalType": "bool",
          "name": "",
          "type": "bool"
        }
      ],
      "stateMutability": "view",
      "type": "function"
    },
    {
      "inputs": [
        {
          "internalType": "uint256",
          "name": "jobID",
          "type": "uint256"
        },
        {
          "internalType": "string",
          "name": "outputFS",
          "type": "string"
        },
        {
          "internalType": "uint256",
          "name": "dapps",
          "type": "uint256"
        }
      ],
      "name": "jobCallback",
      "outputs": [],
      "stateMutability": "nonpayable",
      "type": "function"
    },
    {
      "inputs": [
        {
          "internalType": "uint256",
          "name": "jobID",
          "type": "uint256"
        },
        {
          "internalType": "string",
          "name": "stdErr",
          "type": "string"
        },
        {
          "internalType": "string",
          "name": "outputFS",
          "type": "string"
        }
      ],
      "name": "jobError",
      "outputs": [],
      "stateMutability": "nonpayable",
      "type": "function"
    },
    {
      "inputs": [
        {
          "internalType": "uint256",
          "name": "",
          "type": "uint256"
        }
      ],
      "name": "jobs",
      "outputs": [
        {
          "internalType": "address",
          "name": "owner",
          "type": "address"
        },
        {
          "internalType": "uint256",
          "name": "resultsCount",
          "type": "uint256"
        }
      ],
      "stateMutability": "view",
      "type": "function"
    },
    {
      "inputs": [],
      "name": "lastJobID",
      "outputs": [
        {
          "internalType": "uint256",
          "name": "",
          "type": "uint256"
        }
      ],
      "stateMutability": "view",
      "type": "function"
    },
    {
      "inputs": [],
      "name": "owner",
      "outputs": [
        {
          "internalType": "address",
          "name": "",
          "type": "address"
        }
      ],
      "stateMutability": "view",
      "type": "function"
    },
    {
      "inputs": [
        {
          "internalType": "string",
          "name": "endpoint",
          "type": "string"
        }
      ],
      "name": "regDSP",
      "outputs": [],
      "stateMutability": "nonpayable",
      "type": "function"
    },
    {
      "inputs": [
        {
          "internalType": "address",
          "name": "",
          "type": "address"
        }
      ],
      "name": "registeredDSPs",
      "outputs": [
        {
          "internalType": "bool",
          "name": "active",
          "type": "bool"
        },
        {
          "internalType": "string",
          "name": "endpoint",
          "type": "string"
        }
      ],
      "stateMutability": "view",
      "type": "function"
    },
    {
      "inputs": [],
      "name": "renounceOwnership",
      "outputs": [],
      "stateMutability": "nonpayable",
      "type": "function"
    },
    {
      "inputs": [
        {
          "internalType": "address",
          "name": "consumer",
          "type": "address"
        },
        {
          "internalType": "string",
          "name": "imageName",
          "type": "string"
        },
        {
          "internalType": "string",
          "name": "inputFS",
          "type": "string"
        },
        {
          "internalType": "string[]",
          "name": "args",
          "type": "string[]"
        }
      ],
      "name": "run",
      "outputs": [],
      "stateMutability": "nonpayable",
      "type": "function"
    },
    {
      "inputs": [
        {
          "internalType": "uint256",
          "name": "_amountToSell",
          "type": "uint256"
        },
        {
          "internalType": "address",
          "name": "_dsp",
          "type": "address"
        }
      ],
      "name": "sellGas",
      "outputs": [],
      "stateMutability": "nonpayable",
      "type": "function"
    },
    {
      "inputs": [
        {
          "internalType": "uint256",
          "name": "jobID",
          "type": "uint256"
        },
        {
          "internalType": "uint256",
          "name": "port",
          "type": "uint256"
        },
        {
          "internalType": "uint256",
          "name": "dapps",
          "type": "uint256"
        }
      ],
      "name": "serviceCallback",
      "outputs": [],
      "stateMutability": "nonpayable",
      "type": "function"
    },
    {
      "inputs": [
        {
          "internalType": "uint256",
          "name": "jobID",
          "type": "uint256"
        },
        {
          "internalType": "string",
          "name": "stdErr",
          "type": "string"
        },
        {
          "internalType": "string",
          "name": "outputFS",
          "type": "string"
        }
      ],
      "name": "serviceError",
      "outputs": [],
      "stateMutability": "nonpayable",
      "type": "function"
    },
    {
      "inputs": [
        {
          "internalType": "uint256",
          "name": "",
          "type": "uint256"
        }
      ],
      "name": "services",
      "outputs": [
        {
          "internalType": "address",
          "name": "owner",
          "type": "address"
        }
      ],
      "stateMutability": "view",
      "type": "function"
    },
    {
      "inputs": [
        {
          "internalType": "bool",
          "name": "enabled",
          "type": "bool"
        }
      ],
      "name": "setConsumerCallback",
      "outputs": [],
      "stateMutability": "nonpayable",
      "type": "function"
    },
    {
      "inputs": [
        {
          "internalType": "address",
          "name": "owner",
          "type": "address"
        }
      ],
      "name": "setConsumerPermissions",
      "outputs": [],
      "stateMutability": "nonpayable",
      "type": "function"
    },
    {
      "inputs": [
        {
          "internalType": "string",
          "name": "imageName",
          "type": "string"
        },
        {
          "internalType": "string",
          "name": "imageAddress",
          "type": "string"
        },
        {
          "internalType": "string",
          "name": "imageHash",
          "type": "string"
        },
        {
          "internalType": "string",
          "name": "imageType",
          "type": "string"
        }
      ],
      "name": "setDockerImage",
      "outputs": [],
      "stateMutability": "nonpayable",
      "type": "function"
    },
    {
      "inputs": [
        {
          "internalType": "address",
          "name": "consumer",
          "type": "address"
        },
        {
          "internalType": "address[]",
          "name": "dsps",
          "type": "address[]"
        }
      ],
      "name": "setQuorum",
      "outputs": [],
      "stateMutability": "nonpayable",
      "type": "function"
    },
    {
      "inputs": [
        {
          "internalType": "address",
          "name": "account",
          "type": "address"
        }
      ],
      "name": "toString",
      "outputs": [
        {
          "internalType": "string",
          "name": "",
          "type": "string"
        }
      ],
      "stateMutability": "pure",
      "type": "function"
    },
    {
      "inputs": [
        {
          "internalType": "uint256",
          "name": "value",
          "type": "uint256"
        }
      ],
      "name": "toString",
      "outputs": [
        {
          "internalType": "string",
          "name": "",
          "type": "string"
        }
      ],
      "stateMutability": "pure",
      "type": "function"
    },
    {
      "inputs": [
        {
          "internalType": "bytes",
          "name": "data",
          "type": "bytes"
        }
      ],
      "name": "toString",
      "outputs": [
        {
          "internalType": "string",
          "name": "",
          "type": "string"
        }
      ],
      "stateMutability": "pure",
      "type": "function"
    },
    {
      "inputs": [
        {
          "internalType": "bytes32",
          "name": "value",
          "type": "bytes32"
        }
      ],
      "name": "toString",
      "outputs": [
        {
          "internalType": "string",
          "name": "",
          "type": "string"
        }
      ],
      "stateMutability": "pure",
      "type": "function"
    },
    {
      "inputs": [],
      "name": "token",
      "outputs": [
        {
          "internalType": "contract IERC20",
          "name": "",
          "type": "address"
        }
      ],
      "stateMutability": "view",
      "type": "function"
    },
    {
      "inputs": [
        {
          "internalType": "address",
          "name": "newOwner",
          "type": "address"
        }
      ],
      "name": "transferOwnership",
      "outputs": [],
      "stateMutability": "nonpayable",
      "type": "function"
    },
    {
      "inputs": [
        {
          "internalType": "string",
          "name": "imageName",
          "type": "string"
        }
      ],
      "name": "unapproveDockerForDSP",
      "outputs": [],
      "stateMutability": "nonpayable",
      "type": "function"
    }
  ],
  "bytecode": "0x608060405260646001553480156200001657600080fd5b50620000376200002b6200003d60201b60201c565b6200004560201b60201c565b62000109565b600033905090565b60008060009054906101000a900473ffffffffffffffffffffffffffffffffffffffff169050816000806101000a81548173ffffffffffffffffffffffffffffffffffffffff021916908373ffffffffffffffffffffffffffffffffffffffff1602179055508173ffffffffffffffffffffffffffffffffffffffff168173ffffffffffffffffffffffffffffffffffffffff167f8be0079c531659141344cd1fd0a4f28419497f9722a3daafe3b4186f6b6457e060405160405180910390a35050565b61482080620001196000396000f3fe608060405234801561001057600080fd5b50600436106102115760003560e01c806396c23b4711610125578063be27aee6116100ad578063e98d6bf91161007c578063e98d6bf91461061f578063f16cfbfe1461063b578063f2fde38b1461066c578063fc0c546a14610688578063fe78d522146106a657610211565b8063be27aee614610572578063c22c4f43146105a3578063d7cd4fd9146105d3578063e46fd0c4146105ef57610211565b8063ada604a3116100f4578063ada604a3146104bb578063b11a19e8146104d9578063b3deb4d414610509578063b4ba9e111461053a578063bdcf5cf31461055657610211565b806396c23b471461045d5780639d82f119146104795780639ded619514610483578063a4859f141461049f57610211565b80636900a3ae116101a8578063809253f911610177578063809253f9146103bb57806380e263ac146103d75780638b1406df146103f35780638da5cb5b1461040f57806394070a661461042d57610211565b80636900a3ae14610335578063697d2cee14610365578063715018a61461038157806371aad10d1461038b57610211565b806346b3ea3e116101e457806346b3ea3e1461029b5780634e977089146102b757806356ca623e146102d55780635f044a471461030557610211565b8063180aedf3146102165780631b5bda4e14610247578063319c7eb114610263578063396d528d1461027f575b600080fd5b610230600480360381019061022b9190613636565b6106d6565b60405161023e929190613db0565b60405180910390f35b610261600480360381019061025c91906137da565b61071a565b005b61027d6004803603810190610278919061365f565b61080e565b005b61029960048036038101906102949190613300565b6109df565b005b6102b560048036038101906102b091906136ea565b610a63565b005b6102bf610a6a565b6040516102cc91906140d0565b60405180910390f35b6102ef60048036038101906102ea9190613300565b610a70565b6040516102fc9190613ee2565b60405180910390f35b61031f600480360381019061031a9190613300565b610aa1565b60405161032c9190613ee2565b60405180910390f35b61034f600480360381019061034a9190613636565b610b75565b60405161035c9190613ee2565b60405180910390f35b61037f600480360381019061037a919061369b565b610ba6565b005b610389610d43565b005b6103a560048036038101906103a091906134f1565b610dcb565b6040516103b29190613ee2565b60405180910390f35b6103d560048036038101906103d09190613365565b61121b565b005b6103f160048036038101906103ec91906136ea565b611556565b005b61040d60048036038101906104089190613476565b61155d565b005b6104176115ba565b6040516104249190613cc6565b60405180910390f35b6104476004803603810190610442919061365f565b6115e3565b60405161045491906140d0565b60405180910390f35b61047760048036038101906104729190613532565b611646565b005b610481611717565b005b61049d60048036038101906104989190613573565b6117c9565b005b6104b960048036038101906104b49190613532565b611992565b005b6104c3611a9e565b6040516104d091906140d0565b60405180910390f35b6104f360048036038101906104ee91906134c8565b611aa4565b6040516105009190613ee2565b60405180910390f35b610523600480360381019061051e9190613300565b611ad5565b604051610531929190613d18565b60405180910390f35b610554600480360381019061054f9190613329565b611b26565b005b610570600480360381019061056b9190613773565b611c63565b005b61058c60048036038101906105879190613300565b611f17565b60405161059a929190613df4565b60405180910390f35b6105bd60048036038101906105b89190613636565b611fd0565b6040516105ca9190613cc6565b60405180910390f35b6105ed60048036038101906105e89190613532565b61200e565b005b61060960048036038101906106049190613532565b6120df565b6040516106169190613ee2565b60405180910390f35b610639600480360381019061063491906133bd565b612192565b005b61065560048036038101906106509190613329565b6126e7565b6040516106639291906140eb565b60405180910390f35b61068660048036038101906106819190613300565b612718565b005b610690612810565b60405161069d9190613e52565b60405180910390f35b6106c060048036038101906106bb9190613532565b612836565b6040516106cd9190613dd9565b60405180910390f35b60066020528060005260406000206000915090508060000160009054906101000a900473ffffffffffffffffffffffffffffffffffffffff16908060020154905082565b600060076000858152602001908152602001600020905060008160000160009054906101000a900473ffffffffffffffffffffffffffffffffffffffff169050838260020160003373ffffffffffffffffffffffffffffffffffffffff1673ffffffffffffffffffffffffffffffffffffffff168152602001908152602001600020819055503373ffffffffffffffffffffffffffffffffffffffff168173ffffffffffffffffffffffffffffffffffffffff167ffc591b915128e7b045fd4663d358185ce9356694fac67286041506e0a8963d6287876040516107ff9291906140eb565b60405180910390a35050505050565b6000339050600460008273ffffffffffffffffffffffffffffffffffffffff1673ffffffffffffffffffffffffffffffffffffffff16815260200190815260200160002060008373ffffffffffffffffffffffffffffffffffffffff1673ffffffffffffffffffffffffffffffffffffffff1681526020019081526020016000205082600460008373ffffffffffffffffffffffffffffffffffffffff1673ffffffffffffffffffffffffffffffffffffffff16815260200190815260200160002060008473ffffffffffffffffffffffffffffffffffffffff1673ffffffffffffffffffffffffffffffffffffffff168152602001908152602001600020600001600082825461091f919061432d565b92505081905550610975308285600260009054906101000a900473ffffffffffffffffffffffffffffffffffffffff1673ffffffffffffffffffffffffffffffffffffffff166128b0909392919063ffffffff16565b8173ffffffffffffffffffffffffffffffffffffffff168173ffffffffffffffffffffffffffffffffffffffff167f8f5fa856284b74bcd941cff9a8e370a8e8c3e90d88177b1e50b995c18daa89a0856040516109d291906140d0565b60405180910390a3505050565b80600560003373ffffffffffffffffffffffffffffffffffffffff1673ffffffffffffffffffffffffffffffffffffffff16815260200190815260200160002060000160006101000a81548173ffffffffffffffffffffffffffffffffffffffff021916908373ffffffffffffffffffffffffffffffffffffffff16021790555050565b5050505050565b60085481565b6060610a9a82604051602001610a869190613c2e565b604051602081830303815290604052610dcb565b9050919050565b6060600360008373ffffffffffffffffffffffffffffffffffffffff1673ffffffffffffffffffffffffffffffffffffffff1681526020019081526020016000206002018054610af090614419565b80601f0160208091040260200160405190810160405280929190818152602001828054610b1c90614419565b8015610b695780601f10610b3e57610100808354040283529160200191610b69565b820191906000526020600020905b815481529060010190602001808311610b4c57829003601f168201915b50505050509050919050565b6060610b9f82604051602001610b8b9190613cab565b604051602081830303815290604052610dcb565b9050919050565b600360008273ffffffffffffffffffffffffffffffffffffffff1673ffffffffffffffffffffffffffffffffffffffff16815260200190815260200160002060000160009054906101000a905050610c43333085600260009054906101000a900473ffffffffffffffffffffffffffffffffffffffff1673ffffffffffffffffffffffffffffffffffffffff166128b0909392919063ffffffff16565b82600460008473ffffffffffffffffffffffffffffffffffffffff1673ffffffffffffffffffffffffffffffffffffffff16815260200190815260200160002060008373ffffffffffffffffffffffffffffffffffffffff1673ffffffffffffffffffffffffffffffffffffffff1681526020019081526020016000206000016000828254610cd2919061427d565b925050819055508073ffffffffffffffffffffffffffffffffffffffff168273ffffffffffffffffffffffffffffffffffffffff167f1f4b3df33fd6798a3d9d7729015b71f90b8ae56c085ab069bcea572cc983e5d285604051610d3691906140d0565b60405180910390a3505050565b610d4b612939565b73ffffffffffffffffffffffffffffffffffffffff16610d696115ba565b73ffffffffffffffffffffffffffffffffffffffff1614610dbf576040517f08c379a0000000000000000000000000000000000000000000000000000000008152600401610db690613ff0565b60405180910390fd5b610dc96000612941565b565b606060006040518060400160405280601081526020017f30313233343536373839616263646566000000000000000000000000000000008152509050600060028451610e1791906142d3565b6002610e23919061427d565b67ffffffffffffffff811115610e62577f4e487b7100000000000000000000000000000000000000000000000000000000600052604160045260246000fd5b6040519080825280601f01601f191660200182016040528015610e945781602001600182028036833780820191505090505b5090507f300000000000000000000000000000000000000000000000000000000000000081600081518110610ef2577f4e487b7100000000000000000000000000000000000000000000000000000000600052603260045260246000fd5b60200101907effffffffffffffffffffffffffffffffffffffffffffffffffffffffffffff1916908160001a9053507f780000000000000000000000000000000000000000000000000000000000000081600181518110610f7c577f4e487b7100000000000000000000000000000000000000000000000000000000600052603260045260246000fd5b60200101907effffffffffffffffffffffffffffffffffffffffffffffffffffffffffffff1916908160001a90535060005b845181101561121057826004868381518110610ff3577f4e487b7100000000000000000000000000000000000000000000000000000000600052603260045260246000fd5b602001015160f81c60f81b7effffffffffffffffffffffffffffffffffffffffffffffffffffffffffffff1916901c60f81c60ff168151811061105f577f4e487b7100000000000000000000000000000000000000000000000000000000600052603260045260246000fd5b602001015160f81c60f81b8260028361107891906142d3565b6002611084919061427d565b815181106110bb577f4e487b7100000000000000000000000000000000000000000000000000000000600052603260045260246000fd5b60200101907effffffffffffffffffffffffffffffffffffffffffffffffffffffffffffff1916908160001a90535082600f60f81b868381518110611129577f4e487b7100000000000000000000000000000000000000000000000000000000600052603260045260246000fd5b602001015160f81c60f81b1660f81c60ff1681518110611172577f4e487b7100000000000000000000000000000000000000000000000000000000600052603260045260246000fd5b602001015160f81c60f81b8260028361118b91906142d3565b6003611197919061427d565b815181106111ce577f4e487b7100000000000000000000000000000000000000000000000000000000600052603260045260246000fd5b60200101907effffffffffffffffffffffffffffffffffffffffffffffffffffffffffffff1916908160001a90535080806112089061447c565b915050610fae565b508092505050919050565b600073ffffffffffffffffffffffffffffffffffffffff16600560003373ffffffffffffffffffffffffffffffffffffffff1673ffffffffffffffffffffffffffffffffffffffff16815260200190815260200160002060000160009054906101000a900473ffffffffffffffffffffffffffffffffffffffff1673ffffffffffffffffffffffffffffffffffffffff1614611386573373ffffffffffffffffffffffffffffffffffffffff16600560003373ffffffffffffffffffffffffffffffffffffffff1673ffffffffffffffffffffffffffffffffffffffff16815260200190815260200160002060000160009054906101000a900473ffffffffffffffffffffffffffffffffffffffff1673ffffffffffffffffffffffffffffffffffffffff1614611381576040517f08c379a000000000000000000000000000000000000000000000000000000000815260040161137890614090565b60405180910390fd5b611401565b3373ffffffffffffffffffffffffffffffffffffffff168373ffffffffffffffffffffffffffffffffffffffff16146113be33610a70565b906113ff576040517f08c379a00000000000000000000000000000000000000000000000000000000081526004016113f69190613ee2565b60405180910390fd5b505b60005b828290508110156114fe576003600084848481811061144c577f4e487b7100000000000000000000000000000000000000000000000000000000600052603260045260246000fd5b90506020020160208101906114619190613300565b73ffffffffffffffffffffffffffffffffffffffff1673ffffffffffffffffffffffffffffffffffffffff16815260200190815260200160002060000160009054906101000a900460ff166114eb576040517f08c379a00000000000000000000000000000000000000000000000000000000081526004016114e2906140b0565b60405180910390fd5b80806114f69061447c565b915050611404565b508181600560008673ffffffffffffffffffffffffffffffffffffffff1673ffffffffffffffffffffffffffffffffffffffff1681526020019081526020016000206001019190611550929190612f54565b50505050565b5050505050565b80600560003373ffffffffffffffffffffffffffffffffffffffff1673ffffffffffffffffffffffffffffffffffffffff16815260200190815260200160002060020160006101000a81548160ff02191690831515021790555050565b60008060009054906101000a900473ffffffffffffffffffffffffffffffffffffffff16905090565b6000806007600085815260200190815260200160002090508060020160008473ffffffffffffffffffffffffffffffffffffffff1673ffffffffffffffffffffffffffffffffffffffff1681526020019081526020016000205491505092915050565b60003390506000600360008373ffffffffffffffffffffffffffffffffffffffff1673ffffffffffffffffffffffffffffffffffffffff1681526020019081526020016000206001018360405161169d9190613c94565b908152602001604051809103902060006101000a81548160ff0219169083151502179055508073ffffffffffffffffffffffffffffffffffffffff167fbedd4cca1acec8ab178c7b2dade9c35421b8246dcba1d0fcda45fde6befcce3683600060405161170b929190613f04565b60405180910390a25050565b60003390506000600360008373ffffffffffffffffffffffffffffffffffffffff1673ffffffffffffffffffffffffffffffffffffffff16815260200190815260200160002060000160006101000a81548160ff0219169083151502179055508073ffffffffffffffffffffffffffffffffffffffff167ffdcc621fcf24779a46eed0bf3d92841b24669514e65fd61277e90cb40170e1be60006040516117be9190613e24565b60405180910390a250565b6117d1612939565b73ffffffffffffffffffffffffffffffffffffffff166117ef6115ba565b73ffffffffffffffffffffffffffffffffffffffff1614611845576040517f08c379a000000000000000000000000000000000000000000000000000000000815260040161183c90613ff0565b60405180910390fd5b60003390508360098660405161185b9190613c94565b9081526020016040518091039020600101908051906020019061187f929190612ff4565b50806009866040516118919190613c94565b908152602001604051809103902060000160006101000a81548173ffffffffffffffffffffffffffffffffffffffff021916908373ffffffffffffffffffffffffffffffffffffffff160217905550826009866040516118f19190613c94565b90815260200160405180910390206002019080519060200190611915929190612ff4565b50816009866040516119279190613c94565b9081526020016040518091039020600301908051906020019061194b929190612ff4565b507fc4e1224d2afec8a79bb768c3e0db1bfa2291c1eb2b332ad09e5f739d624ba2648186868686604051611983959493929190613d41565b60405180910390a15050505050565b60003390506001600360008373ffffffffffffffffffffffffffffffffffffffff1673ffffffffffffffffffffffffffffffffffffffff16815260200190815260200160002060000160006101000a81548160ff02191690831515021790555081600360008373ffffffffffffffffffffffffffffffffffffffff1673ffffffffffffffffffffffffffffffffffffffff1681526020019081526020016000206002019080519060200190611a48929190612ff4565b508073ffffffffffffffffffffffffffffffffffffffff167ffdcc621fcf24779a46eed0bf3d92841b24669514e65fd61277e90cb40170e1be600184604051611a92929190613df4565b60405180910390a25050565b60015481565b6060611ace82604051602001611aba9190613c49565b604051602081830303815290604052610dcb565b9050919050565b60056020528060005260406000206000915090508060000160009054906101000a900473ffffffffffffffffffffffffffffffffffffffff16908060020160009054906101000a900460ff16905082565b6000600460008473ffffffffffffffffffffffffffffffffffffffff1673ffffffffffffffffffffffffffffffffffffffff16815260200190815260200160002060008373ffffffffffffffffffffffffffffffffffffffff1673ffffffffffffffffffffffffffffffffffffffff168152602001908152602001600020600101549050611bf9308383600260009054906101000a900473ffffffffffffffffffffffffffffffffffffffff1673ffffffffffffffffffffffffffffffffffffffff166128b0909392919063ffffffff16565b8173ffffffffffffffffffffffffffffffffffffffff168373ffffffffffffffffffffffffffffffffffffffff167f212d9abae60ecca72fdc8d96a776b6ef0c3ee501406becf43151cd669925918983604051611c5691906140d0565b60405180910390a3505050565b600082604051602001611c769190613c94565b604051602081830303815290604052805190602001209050600060066000868152602001908152602001600020905060008160000160009054906101000a900473ffffffffffffffffffffffffffffffffffffffff1690506000611cda8785612a05565b90506000339050600560008473ffffffffffffffffffffffffffffffffffffffff1673ffffffffffffffffffffffffffffffffffffffff16815260200190815260200160002060020160009054906101000a900460ff1615611e35576000808473ffffffffffffffffffffffffffffffffffffffff168a604051602401611d6191906140d0565b6040516020818303038152906040527f33647476000000000000000000000000000000000000000000000000000000007bffffffffffffffffffffffffffffffffffffffffffffffffffffffff19166020820180517bffffffffffffffffffffffffffffffffffffffffffffffffffffffff8381831617835250505050604051611deb9190613c64565b6000604051808303816000865af19150503d8060008114611e28576040519150601f19603f3d011682016040523d82523d6000602084013e611e2d565b606091505b509150915050505b8073ffffffffffffffffffffffffffffffffffffffff168373ffffffffffffffffffffffffffffffffffffffff167f91cbe451689a6bb11368a3c53becd10c34fd824e22a6e598cea5dfca28f64bc889898c604051611e9693929190613f72565b60405180910390a38360020154846001018054905014611eba575050505050611f12565b8273ffffffffffffffffffffffffffffffffffffffff167fa11179e984ccbe9d640585de241ef53bf96b6c0a7b53028c5ddecd8cac86919a88848b604051611f0493929190613f34565b60405180910390a250505050505b505050565b60036020528060005260406000206000915090508060000160009054906101000a900460ff1690806002018054611f4d90614419565b80601f0160208091040260200160405190810160405280929190818152602001828054611f7990614419565b8015611fc65780601f10611f9b57610100808354040283529160200191611fc6565b820191906000526020600020905b815481529060010190602001808311611fa957829003601f168201915b5050505050905082565b60076020528060005260406000206000915090508060000160009054906101000a900473ffffffffffffffffffffffffffffffffffffffff16905081565b60003390506001600360008373ffffffffffffffffffffffffffffffffffffffff1673ffffffffffffffffffffffffffffffffffffffff168152602001908152602001600020600101836040516120659190613c94565b908152602001604051809103902060006101000a81548160ff0219169083151502179055508073ffffffffffffffffffffffffffffffffffffffff167fbedd4cca1acec8ab178c7b2dade9c35421b8246dcba1d0fcda45fde6befcce368360016040516120d3929190613f04565b60405180910390a25050565b60606009826040516120f19190613c94565b9081526020016040518091039020600101805461210d90614419565b80601f016020809104026020016040519081016040528092919081815260200182805461213990614419565b80156121865780601f1061215b57610100808354040283529160200191612186565b820191906000526020600020905b81548152906001019060200180831161216957829003601f168201915b50505050509050919050565b600073ffffffffffffffffffffffffffffffffffffffff16600560008973ffffffffffffffffffffffffffffffffffffffff1673ffffffffffffffffffffffffffffffffffffffff16815260200190815260200160002060000160009054906101000a900473ffffffffffffffffffffffffffffffffffffffff1673ffffffffffffffffffffffffffffffffffffffff16146122c7573373ffffffffffffffffffffffffffffffffffffffff16600560008973ffffffffffffffffffffffffffffffffffffffff1673ffffffffffffffffffffffffffffffffffffffff16815260200190815260200160002060000160009054906101000a900473ffffffffffffffffffffffffffffffffffffffff1673ffffffffffffffffffffffffffffffffffffffff16146122c257600080fd5b612300565b3373ffffffffffffffffffffffffffffffffffffffff168773ffffffffffffffffffffffffffffffffffffffff16146122ff57600080fd5b5b600160085461230f919061427d565b6008819055506123ff6009878760405161232a929190613c7b565b9081526020016040518091039020600301805461234690614419565b80601f016020809104026020016040519081016040528092919081815260200182805461237290614419565b80156123bf5780601f10612394576101008083540402835291602001916123bf565b820191906000526020600020905b8154815290600101906020018083116123a257829003601f168201915b50505050506040518060400160405280600381526020017f6a6f620000000000000000000000000000000000000000000000000000000000815250612c8e565b156124bb5760006006600060085481526020019081526020016000209050600560008973ffffffffffffffffffffffffffffffffffffffff1673ffffffffffffffffffffffffffffffffffffffff1681526020019081526020016000206001018160010190805461247192919061307a565b50878160000160006101000a81548173ffffffffffffffffffffffffffffffffffffffff021916908373ffffffffffffffffffffffffffffffffffffffff1602179055505061265e565b6125a5600987876040516124d0929190613c7b565b908152602001604051809103902060030180546124ec90614419565b80601f016020809104026020016040519081016040528092919081815260200182805461251890614419565b80156125655780601f1061253a57610100808354040283529160200191612565565b820191906000526020600020905b81548152906001019060200180831161254857829003601f168201915b50505050506040518060400160405280600781526020017f7365727669636500000000000000000000000000000000000000000000000000815250612c8e565b1561265d5760006007600060085481526020019081526020016000209050600560008973ffffffffffffffffffffffffffffffffffffffff1673ffffffffffffffffffffffffffffffffffffffff1681526020019081526020016000206001018160010190805461261792919061307a565b50878160000160006101000a81548173ffffffffffffffffffffffffffffffffffffffff021916908373ffffffffffffffffffffffffffffffffffffffff160217905550505b5b8673ffffffffffffffffffffffffffffffffffffffff167ff4fe3daf7ac3b9a2b98916bf78a8889a53113b75c0b993a797790f15dfdfd5d187878787878760085460098f8f6040516126b1929190613c7b565b90815260200160405180910390206003016040516126d6989796959493929190613e6d565b60405180910390a250505050505050565b6004602052816000526040600020602052806000526040600020600091509150508060000154908060010154905082565b612720612939565b73ffffffffffffffffffffffffffffffffffffffff1661273e6115ba565b73ffffffffffffffffffffffffffffffffffffffff1614612794576040517f08c379a000000000000000000000000000000000000000000000000000000000815260040161278b90613ff0565b60405180910390fd5b600073ffffffffffffffffffffffffffffffffffffffff168173ffffffffffffffffffffffffffffffffffffffff161415612804576040517f08c379a00000000000000000000000000000000000000000000000000000000081526004016127fb90613fb0565b60405180910390fd5b61280d81612941565b50565b600260009054906101000a900473ffffffffffffffffffffffffffffffffffffffff1681565b600080339050600360008273ffffffffffffffffffffffffffffffffffffffff1673ffffffffffffffffffffffffffffffffffffffff1681526020019081526020016000206001018360405161288c9190613c94565b908152602001604051809103902060009054906101000a900460ff16915050919050565b612933846323b872dd60e01b8585856040516024016128d193929190613ce1565b604051602081830303815290604052907bffffffffffffffffffffffffffffffffffffffffffffffffffffffff19166020820180517bffffffffffffffffffffffffffffffffffffffffffffffffffffffff8381831617835250505050612ce7565b50505050565b600033905090565b60008060009054906101000a900473ffffffffffffffffffffffffffffffffffffffff169050816000806101000a81548173ffffffffffffffffffffffffffffffffffffffff021916908373ffffffffffffffffffffffffffffffffffffffff1602179055508173ffffffffffffffffffffffffffffffffffffffff168173ffffffffffffffffffffffffffffffffffffffff167f8be0079c531659141344cd1fd0a4f28419497f9722a3daafe3b4186f6b6457e060405160405180910390a35050565b600080600660008581526020019081526020016000209050600033905060007fffffffffffffffffffffffffffffffffffffffffffffffffffffffffffffffff90506000805b8460010180549050811015612b595784600301600082815260200190815260200160002060009054906101000a900460ff1615612aa457868560040160008381526020019081526020016000205414612aa357600191505b5b8373ffffffffffffffffffffffffffffffffffffffff16856001018281548110612af7577f4e487b7100000000000000000000000000000000000000000000000000000000600052603260045260246000fd5b9060005260206000200160009054906101000a900473ffffffffffffffffffffffffffffffffffffffff1673ffffffffffffffffffffffffffffffffffffffff161415612b4657809250612b59565b8080612b519061447c565b915050612a4b565b507fffffffffffffffffffffffffffffffffffffffffffffffffffffffffffffffff8213612bbc576040517f08c379a0000000000000000000000000000000000000000000000000000000008152600401612bb390614010565b60405180910390fd5b83600301600083815260200190815260200160002060009054906101000a900460ff1615612c1f576040517f08c379a0000000000000000000000000000000000000000000000000000000008152600401612c1690614030565b60405180910390fd5b600184600301600084815260200190815260200160002060006101000a81548160ff021916908315150217905550836002016000815480929190612c629061447c565b919050555085846004016000848152602001908152602001600020819055508094505050505092915050565b600081604051602001612ca19190613c94565b6040516020818303038152906040528051906020012083604051602001612cc89190613c94565b6040516020818303038152906040528051906020012014905092915050565b6000612d49826040518060400160405280602081526020017f5361666545524332303a206c6f772d6c6576656c2063616c6c206661696c65648152508573ffffffffffffffffffffffffffffffffffffffff16612dae9092919063ffffffff16565b9050600081511115612da95780806020019051810190612d69919061349f565b612da8576040517f08c379a0000000000000000000000000000000000000000000000000000000008152600401612d9f90614070565b60405180910390fd5b5b505050565b6060612dbd8484600085612dc6565b90509392505050565b606082471015612e0b576040517f08c379a0000000000000000000000000000000000000000000000000000000008152600401612e0290613fd0565b60405180910390fd5b612e1485612eda565b612e53576040517f08c379a0000000000000000000000000000000000000000000000000000000008152600401612e4a90614050565b60405180910390fd5b6000808673ffffffffffffffffffffffffffffffffffffffff168587604051612e7c9190613c64565b60006040518083038185875af1925050503d8060008114612eb9576040519150601f19603f3d011682016040523d82523d6000602084013e612ebe565b606091505b5091509150612ece828286612eed565b92505050949350505050565b600080823b905060008111915050919050565b60608315612efd57829050612f4d565b600083511115612f105782518084602001fd5b816040517f08c379a0000000000000000000000000000000000000000000000000000000008152600401612f449190613ee2565b60405180910390fd5b9392505050565b828054828255906000526020600020908101928215612fe3579160200282015b82811115612fe257823573ffffffffffffffffffffffffffffffffffffffff168260006101000a81548173ffffffffffffffffffffffffffffffffffffffff021916908373ffffffffffffffffffffffffffffffffffffffff16021790555091602001919060010190612f74565b5b509050612ff091906130cc565b5090565b82805461300090614419565b90600052602060002090601f0160209004810192826130225760008555613069565b82601f1061303b57805160ff1916838001178555613069565b82800160010185558215613069579182015b8281111561306857825182559160200191906001019061304d565b5b50905061307691906130cc565b5090565b8280548282559060005260206000209081019282156130bb5760005260206000209182015b828111156130ba57825482559160010191906001019061309f565b5b5090506130c891906130cc565b5090565b5b808211156130e55760008160009055506001016130cd565b5090565b60006130fc6130f784614139565b614114565b90508281526020810184848401111561311457600080fd5b61311f8482856143d7565b509392505050565b600061313a6131358461416a565b614114565b90508281526020810184848401111561315257600080fd5b61315d8482856143d7565b509392505050565b6000813590506131748161478e565b92915050565b60008083601f84011261318c57600080fd5b8235905067ffffffffffffffff8111156131a557600080fd5b6020830191508360208202830111156131bd57600080fd5b9250929050565b60008083601f8401126131d657600080fd5b8235905067ffffffffffffffff8111156131ef57600080fd5b60208301915083602082028301111561320757600080fd5b9250929050565b60008135905061321d816147a5565b92915050565b600081519050613232816147a5565b92915050565b600081359050613247816147bc565b92915050565b600082601f83011261325e57600080fd5b813561326e8482602086016130e9565b91505092915050565b60008083601f84011261328957600080fd5b8235905067ffffffffffffffff8111156132a257600080fd5b6020830191508360018202830111156132ba57600080fd5b9250929050565b600082601f8301126132d257600080fd5b81356132e2848260208601613127565b91505092915050565b6000813590506132fa816147d3565b92915050565b60006020828403121561331257600080fd5b600061332084828501613165565b91505092915050565b6000806040838503121561333c57600080fd5b600061334a85828601613165565b925050602061335b85828601613165565b9150509250929050565b60008060006040848603121561337a57600080fd5b600061338886828701613165565b935050602084013567ffffffffffffffff8111156133a557600080fd5b6133b18682870161317a565b92509250509250925092565b60008060008060008060006080888a0312156133d857600080fd5b60006133e68a828b01613165565b975050602088013567ffffffffffffffff81111561340357600080fd5b61340f8a828b01613277565b9650965050604088013567ffffffffffffffff81111561342e57600080fd5b61343a8a828b01613277565b9450945050606088013567ffffffffffffffff81111561345957600080fd5b6134658a828b016131c4565b925092505092959891949750929550565b60006020828403121561348857600080fd5b60006134968482850161320e565b91505092915050565b6000602082840312156134b157600080fd5b60006134bf84828501613223565b91505092915050565b6000602082840312156134da57600080fd5b60006134e884828501613238565b91505092915050565b60006020828403121561350357600080fd5b600082013567ffffffffffffffff81111561351d57600080fd5b6135298482850161324d565b91505092915050565b60006020828403121561354457600080fd5b600082013567ffffffffffffffff81111561355e57600080fd5b61356a848285016132c1565b91505092915050565b6000806000806080858703121561358957600080fd5b600085013567ffffffffffffffff8111156135a357600080fd5b6135af878288016132c1565b945050602085013567ffffffffffffffff8111156135cc57600080fd5b6135d8878288016132c1565b935050604085013567ffffffffffffffff8111156135f557600080fd5b613601878288016132c1565b925050606085013567ffffffffffffffff81111561361e57600080fd5b61362a878288016132c1565b91505092959194509250565b60006020828403121561364857600080fd5b6000613656848285016132eb565b91505092915050565b6000806040838503121561367257600080fd5b6000613680858286016132eb565b925050602061369185828601613165565b9150509250929050565b6000806000606084860312156136b057600080fd5b60006136be868287016132eb565b93505060206136cf86828701613165565b92505060406136e086828701613165565b9150509250925092565b60008060008060006060868803121561370257600080fd5b6000613710888289016132eb565b955050602086013567ffffffffffffffff81111561372d57600080fd5b61373988828901613277565b9450945050604086013567ffffffffffffffff81111561375857600080fd5b61376488828901613277565b92509250509295509295909350565b60008060006060848603121561378857600080fd5b6000613796868287016132eb565b935050602084013567ffffffffffffffff8111156137b357600080fd5b6137bf868287016132c1565b92505060406137d0868287016132eb565b9150509250925092565b6000806000606084860312156137ef57600080fd5b60006137fd868287016132eb565b935050602061380e868287016132eb565b925050604061381f868287016132eb565b9150509250925092565b6000613836848484613941565b90509392505050565b61384881614361565b82525050565b61385f61385a82614361565b6144c5565b82525050565b600061387183856141dd565b9350836020840285016138838461419b565b8060005b878110156138c957848403895261389e8284614226565b6138a9868284613829565b95506138b4846141d0565b935060208b019a505050600181019050613887565b50829750879450505050509392505050565b6138e481614373565b82525050565b6138fb6138f68261437f565b6144d7565b82525050565b600061390c826141ba565b61391681856141ee565b93506139268185602086016143e6565b80840191505092915050565b61393b816143b3565b82525050565b600061394d83856141f9565b935061395a8385846143d7565b6139638361458a565b840190509392505050565b600061397a838561420a565b93506139878385846143d7565b6139908361458a565b840190509392505050565b60006139a7838561421b565b93506139b48385846143d7565b82840190509392505050565b60006139cb826141c5565b6139d5818561420a565b93506139e58185602086016143e6565b6139ee8161458a565b840191505092915050565b6000613a04826141c5565b613a0e818561421b565b9350613a1e8185602086016143e6565b80840191505092915050565b60008154613a3781614419565b613a41818661420a565b94506001821660008114613a5c5760018114613a6e57613aa1565b60ff1983168652602086019350613aa1565b613a77856141a5565b60005b83811015613a9957815481890152600182019150602081019050613a7a565b808801955050505b50505092915050565b6000613ab760268361420a565b9150613ac2826145a8565b604082019050919050565b6000613ada60268361420a565b9150613ae5826145f7565b604082019050919050565b6000613afd60208361420a565b9150613b0882614646565b602082019050919050565b6000613b2060098361420a565b9150613b2b8261466f565b602082019050919050565b6000613b4360008361420a565b9150613b4e82614698565b600082019050919050565b6000613b66600c8361420a565b9150613b718261469b565b602082019050919050565b6000613b89601d8361420a565b9150613b94826146c4565b602082019050919050565b6000613bac602a8361420a565b9150613bb7826146ed565b604082019050919050565b6000613bcf60098361420a565b9150613bda8261473c565b602082019050919050565b6000613bf2600e8361420a565b9150613bfd82614765565b602082019050919050565b613c11816143a9565b82525050565b613c28613c23826143a9565b6144f3565b82525050565b6000613c3a828461384e565b60148201915081905092915050565b6000613c5582846138ea565b60208201915081905092915050565b6000613c708284613901565b915081905092915050565b6000613c8882848661399b565b91508190509392505050565b6000613ca082846139f9565b915081905092915050565b6000613cb78284613c17565b60208201915081905092915050565b6000602082019050613cdb600083018461383f565b92915050565b6000606082019050613cf6600083018661383f565b613d03602083018561383f565b613d106040830184613c08565b949350505050565b6000604082019050613d2d600083018561383f565b613d3a60208301846138db565b9392505050565b600060a082019050613d56600083018861383f565b8181036020830152613d6881876139c0565b90508181036040830152613d7c81866139c0565b90508181036060830152613d9081856139c0565b90508181036080830152613da481846139c0565b90509695505050505050565b6000604082019050613dc5600083018561383f565b613dd26020830184613c08565b9392505050565b6000602082019050613dee60008301846138db565b92915050565b6000604082019050613e0960008301856138db565b8181036020830152613e1b81846139c0565b90509392505050565b6000604082019050613e3960008301846138db565b8181036020830152613e4a81613b36565b905092915050565b6000602082019050613e676000830184613932565b92915050565b600060a0820190508181036000830152613e88818a8c61396e565b90508181036020830152613e9d81888a61396e565b90508181036040830152613eb2818688613865565b9050613ec16060830185613c08565b8181036080830152613ed38184613a2a565b90509998505050505050505050565b60006020820190508181036000830152613efc81846139c0565b905092915050565b60006040820190508181036000830152613f1e81856139c0565b9050613f2d60208301846138db565b9392505050565b60006060820190508181036000830152613f4e81866139c0565b9050613f5d60208301856138db565b613f6a6040830184613c08565b949350505050565b60006060820190508181036000830152613f8c81866139c0565b9050613f9b6020830185613c08565b613fa86040830184613c08565b949350505050565b60006020820190508181036000830152613fc981613aaa565b9050919050565b60006020820190508181036000830152613fe981613acd565b9050919050565b6000602082019050818103600083015261400981613af0565b9050919050565b6000602082019050818103600083015261402981613b13565b9050919050565b6000602082019050818103600083015261404981613b59565b9050919050565b6000602082019050818103600083015261406981613b7c565b9050919050565b6000602082019050818103600083015261408981613b9f565b9050919050565b600060208201905081810360008301526140a981613bc2565b9050919050565b600060208201905081810360008301526140c981613be5565b9050919050565b60006020820190506140e56000830184613c08565b92915050565b60006040820190506141006000830185613c08565b61410d6020830184613c08565b9392505050565b600061411e61412f565b905061412a828261444b565b919050565b6000604051905090565b600067ffffffffffffffff8211156141545761415361455b565b5b61415d8261458a565b9050602081019050919050565b600067ffffffffffffffff8211156141855761418461455b565b5b61418e8261458a565b9050602081019050919050565b6000819050919050565b60008190508160005260206000209050919050565b600081519050919050565b600081519050919050565b6000602082019050919050565b600082825260208201905092915050565b600081905092915050565b600082825260208201905092915050565b600082825260208201905092915050565b600081905092915050565b6000808335600160200384360303811261423f57600080fd5b83810192508235915060208301925067ffffffffffffffff82111561426357600080fd5b60018202360384131561427557600080fd5b509250929050565b6000614288826143a9565b9150614293836143a9565b9250827fffffffffffffffffffffffffffffffffffffffffffffffffffffffffffffffff038211156142c8576142c76144fd565b5b828201905092915050565b60006142de826143a9565b91506142e9836143a9565b9250817fffffffffffffffffffffffffffffffffffffffffffffffffffffffffffffffff0483118215151615614322576143216144fd565b5b828202905092915050565b6000614338826143a9565b9150614343836143a9565b925082821015614356576143556144fd565b5b828203905092915050565b600061436c82614389565b9050919050565b60008115159050919050565b6000819050919050565b600073ffffffffffffffffffffffffffffffffffffffff82169050919050565b6000819050919050565b60006143be826143c5565b9050919050565b60006143d082614389565b9050919050565b82818337600083830152505050565b60005b838110156144045780820151818401526020810190506143e9565b83811115614413576000848401525b50505050565b6000600282049050600182168061443157607f821691505b602082108114156144455761444461452c565b5b50919050565b6144548261458a565b810181811067ffffffffffffffff821117156144735761447261455b565b5b80604052505050565b6000614487826143a9565b91507fffffffffffffffffffffffffffffffffffffffffffffffffffffffffffffffff8214156144ba576144b96144fd565b5b600182019050919050565b60006144d0826144e1565b9050919050565b6000819050919050565b60006144ec8261459b565b9050919050565b6000819050919050565b7f4e487b7100000000000000000000000000000000000000000000000000000000600052601160045260246000fd5b7f4e487b7100000000000000000000000000000000000000000000000000000000600052602260045260246000fd5b7f4e487b7100000000000000000000000000000000000000000000000000000000600052604160045260246000fd5b6000601f19601f8301169050919050565b60008160601b9050919050565b7f4f776e61626c653a206e6577206f776e657220697320746865207a65726f206160008201527f6464726573730000000000000000000000000000000000000000000000000000602082015250565b7f416464726573733a20696e73756666696369656e742062616c616e636520666f60008201527f722063616c6c0000000000000000000000000000000000000000000000000000602082015250565b7f4f776e61626c653a2063616c6c6572206973206e6f7420746865206f776e6572600082015250565b7f6e6f7420666f756e640000000000000000000000000000000000000000000000600082015250565b50565b7f616c726561647920646f6e650000000000000000000000000000000000000000600082015250565b7f416464726573733a2063616c6c20746f206e6f6e2d636f6e7472616374000000600082015250565b7f5361666545524332303a204552433230206f7065726174696f6e20646964206e60008201527f6f74207375636365656400000000000000000000000000000000000000000000602082015250565b7f6e6f74206f776e65720000000000000000000000000000000000000000000000600082015250565b7f647370206e6f7420616374697665000000000000000000000000000000000000600082015250565b61479781614361565b81146147a257600080fd5b50565b6147ae81614373565b81146147b957600080fd5b50565b6147c58161437f565b81146147d057600080fd5b50565b6147dc816143a9565b81146147e757600080fd5b5056fea26469706673582212200e264f4244c9a4db1701e2bfcdd55a7a30dddad132b2eb3324e09e2cdfa58cb264736f6c63430008040033",
  "linkReferences": {},
  "deployedLinkReferences": {}
}